S01B000062745F616F615F736F635F61737365745F7461672E733337B5
S214012000C00A002085280100EDEA0200EDEA020080
S21401201081F70200EDEA0200EDEA0200EDEA0200B5
S214012020EDEA0200EDEA0200EDEA0200EDEA020046
S214012030EDEA020040A10300C1E90200EDEA020058
S214012040EDEA0200EDEA0200EDEA0200EDEA020026
S214012050EDEA0200EDEA0200EDEA0200EDEA020016
S214012060EDEA0200EDEA0200EDEA0200EDEA020006
S214012070F1640100EDEA0200EDEA0200EDEA020079
S214012080EDEA0200EDEA0200EDEA0200EDEA0200E6
S214012090EDEA0200EDEA0200EDEA0200EDEA0200D6
S2140120A0EDEA0200EDEA0200EDEA0200EDEA0200C6
S2140120B0EDEA020071D80200EDEA020051E20200E8
S2140120C0E79C0300E39C03004DDA0200F39C030047
S2140120D0EB9C030029E20200EF9C0300B1E2020040
S2140120E0F5BC0200C5BE020091E20200EDEA020064
S2140120F07DF70200EDEA0200EDEA0200EDEA0200D9
S214012100EDEA0200EDEA0200EDEA0200EDEA020065
S214012110EDEA0200EDEA0200EDEA0200EDEA020055
S214012120EDEA0200EDEA0200EDEA0200EDEA020045
S214012130EDEA0200EDEA0200EDEA0200EDEA020035
S21401214070B505463E4C8AB020B100230088236056
S2140121500AF0E6FB3B4827F05EF83B4E3B4B304629
S21401216033603B4B736021F020FF0021304615F0B1
S214012170A1FC31A3D3E90023A062C4E9062321F020
S2140121801CFFD4E90623194310434FF0FF33C4E97B
S2140121900601CDE900014FF0FF32A06A27F0A2F850
S2140121A002224FF0FF31A06A27F0A1F801200AF0C1
S2140121B031F94FF4007300222649A06A27F0F0F89F
S2140121C0B0F5007F36D100239422CDE90733099379
S2140121D03C23CDE9033205939623A06A03A906930F
S2140121E015F0B6FD25B3287C0AF0C2FE0546E0B917
S2140121F0A06A27F0B8F90AF063FE0AF0E7F820B102
S2140122004FF48070002108F049FD0AF0EFF820B184
S2140122104FF40060002108F041FD012015F09EFCFE
S2140122200D4A0E49A06A21F0BEFE28460AB070BDCE
S214012230FF20D9E70725F8E709D50155200000005A
S214012240200F0020690345ECD81F002005CB0100B4
S214012250CC1F0020CC1D00204F3F03008F3F030002
S21401226010B5054C237833B9044B13B1044800E08C
S21401227000BF0123237010BD701100200000000074
S21401228050EC030008B5034B1BB10349034800E0BB
S21401229000BF08BD000000007411002050EC0300D0
S2140122A0A3F5803A704700BF174B002B08BF134BAE
S2140122B09D46FFF7F5FF00218B460F461348144A4B
S2140122C0121A27F063FD0E4B002B00D098470D4BDA
S2140122D0002B00D098470020002104000D000D4877
S2140122E0002802D00C4800E000BF1CF029FA2000AC
S2140122F029001CF059FB1CF00FFA00BF0000080073
S2140123000000000000000000C00A0020B80E0020F7
S214012310B427002000000000000000000368244AE3
S21401232023F47F4323F00703934213B521D002F130
S214012330807293422BD01F4A934236D11E4C2046C0
S2140123400DF0D2FB00B1FEE7022120780DF018FC5B
S214012350034600B1FEE7A0220090114620780DF05A
S214012360DBFB00B1FEE7022120780DF01DFCE0B199
S214012370FEE7124A13780133DBB2032B137014D82D
S2140123800D4B022118780DF00FFC70B1FEE70B4CD7
S2140123902378032B06D9084B022118780DF004FC8C
S2140123A000B1FEE72378013B237002B010BD00BFE9
S2140123B0A0000600A0000100BC0C0020DC250020C7
S2140123C07FB50368274A23F47F4323F0070393422C
S2140123D044D1002108221220234B0DF095FC014622
S2140123E000B1FEE703221420204B0DF08DFC0146C0
S2140123F000B1FEE7052216201D4B0DF085FC00B14D
S214012400FEE70DF1070102A80DF0ACFC014600B194
S214012410FEE79DF80D3008228DF810309DF80C303F
S21401242018208DF811309DF80B308DF81230FF23EF
S2140124308DF81330FE238DF814309DF80A308DF890
S21401244015309DF809308DF816309DF808308DF856
S214012450173004AB0DF058FC00B1FEE707B05DF88D
S21401246004FB00BFA0000100189E0300219E03008C
S214012470259E030010B5234C00F0DEFD00F0B4FFEE
S214012480236F23F0070343F0030323671CF032FC9A
S2140124901D4B00209B6A9B075EBF01221B4B9A6265
S2140124A0D4F8203123F0030343F00203C4F82031AB
S2140124B0D4F8243123F0070343F00203C4F824318F
S2140124C0D4F8403123F0030343F00203C4F840314B
S2140124D0D4F8603123F0030343F00203C4F86031FB
S2140124E0D4F8403223F0030343F00203C4F8403229
S2140124F0D4F8003223F0070343F00203C4F8003295
S21401250010BD00BF0080005000C0005000E0005029
S21401251008B5184B1B68C3F30743012B0ED1164BA6
S21401252004205A6E4FF480231449520358BF144AAC
S2140125304B6601F51041086258BF536602F034FF3E
S2140125401CF0D0FA02F0C2FE1DF016F902F0E0FE11
S2140125501DF00CF902F012FFFFF78CFF02F0C6FE29
S2140125601CF0B7FA00F046FA00F088FABDE8084019
S21401257003F04CB90080E00F00800050009000503E
S21401258000A000500368184A23F47F4323F0070392
S214012590934213B526D1B0F805301B2B22D1827A8F
S2140125A00479012A1BD1C37ADB0714D5002311460F
S2140125B08DF80430204601AB0DF060FB41F2FC13B0
S2140125C0002818BF1846C2B21B21204602B0BDE83B
S2140125D010400DF0AFBB20460DF066FBEEE741F272
S2140125E00D10F0E702B010BDA0000A02036837B56F
S2140125F023F47F43394A23F00703934207D002F1BD
S214012600027202F58032934206D003B030BD03B0A9
S214012610BDE8304000F0B2B8B0F805400579A4F145
S2140126201D03827A082BF0D801A151F823F000BFD0
S214012630552601000B260100672601000B26010026
S214012640CB2601000B260100772601000B26010090
S214012650BD260100012A3BD1C37A9A1E122A3AD816
S2140126601F4A13701BE0012A32D1C37A5A1E0E2A62
S21401267031D81C4AF5E7531E012B29D8002300F157
S2140126800B010DF10600ADF8063027F058FB164A8F
S214012690BDF8063012889A421DD8144A138000F0FD
S2140126A029F841F2FC13002818BF1846C2B2214689
S2140126B0284603B0BDE830400DF03CBB012A07D1E7
S2140126C0C37A012B07D80A4ACBE741F2FC10EDE7A3
S2140126D041F20D10EAE741F2FF10E7E7A000010022
S2140126E0DD250020DE2500203CA1030088250020F2
S2140126F0DF2500201FB51B4B1B4C1B7853B91B4B0A
S21401270020781A880023114600930DF005FA38B197
S21401271004B010BD20780DF021FA0028EFD0F7E7BD
S214012720134B01211B782078012B0CBF02220122BA
S2140127300DF04EFA0028EBD10146022220780DF06A
S21401274073FA0028E4D103AB0193012309490093EE
S214012750094B02468DF80C001B78097820780DF09D
S214012760B5FAD5E7E0250020BD0C0020882500201D
S214012770DF250020DD250020DE25002073B514218D
S214012780134B01251A889B78ADF80420114A8DF861
S21401279006301170202100230F4A104E1570104A82
S2140127A0104C1180104A3046237013700DF09CF9BE
S2140127B000B1FEE70321307801AA0DF01FFA00B13F
S2140127C0FEE7FFF797FF00B1FEE7257002B070BD88
S2140127D038A10300DD250020DE250020BD0C0020E9
S2140127E088250020E0250020DF25002037B50024BD
S2140127F00368224A23F47F4323F0070393420546E6
S2140128008DF800408DF801408DF802408DF80340A8
S2140128108DF804408DF8054026D002F1827293426D
S2140128202AD1B0F80530282B26D1FF2302A91A4653
S21401283011E903001CF044F9012814BF41F2FC140D
S2140128400F4B4FF0280108BF187004F0FC022879DE
S2140128500DF070FA00B1FEE7094B1B7863B12879D9
S2140128600DF0FAF940B1FEE7054B1B7823B103B032
S214012870BDE830401DF02AB803B030BDA000060107
S214012880E125002008B500F02DF8124B12498B42C5
S21401289012D30020114B12498B4218D3FFF704FDC7
S2140128A0186850F82240586840F82240013298686B
S2140128B08242F5D30C33EAE70022F8E71C6844F8B5
S2140128C0220001325C68A242F8D30833E4E7002212
S2140128D0F8E700BF58EC030064EC030064EC030067
S2140128E064EC03004FF400414FF0FF30124B134AE3
S2140128F010B59A60D3F8882042F47002C3F8882095
S2140129000F4A916601F1884101F5005210664FF6B3
S214012910DF7050660220C3F8D000BFF34F8FBFF3BD
S2140129206F8F08244FF440330648C0F88041D360C7
S21401293004600B6110BD00BF00ED00E00020010047
S2140129400090005000E100E0014B1868704700BF9E
S214012950C40A0020084B1B6F03F00703022B04D0A8
S214012960032B05D0012B05D0FEE7044B18687047F2
S214012970034BFBE70348704700800050C40A002061
S214012980C80A0020002D310108B5FFF7E3FF054B0B
S2140129901B6FC3F303330133B0FBF3F0024B186034
S2140129A008BD00BF00800050C00A002000487047E4
S2140129B000B4C404014B1868704700BFC80A002061
S2140129C0054B1860054B1B6F03F00703032B01D162
S2140129D0FFF7DABF704700BFC80A0020008000502A
S2140129E000487047002D3101014B1868704700BF41
S2140129F0CC0A00200020836A10B5B3F5903F0ED2B2
S214012A001968084A91420AD1074C227812F0FD0F44
S214012A1004D1DB69984708B90123237010BD4FF430
S214012A208170FBE707B0CD5EE22500204FF0005332
S214012A30074A1A60BFF34F8F0649074BCA6802F46C
S214012A40E0621343CB60BFF34F8F00BFFDE700BFCB
S214012A5002020FF000ED00E00400FA0505490A68DD
S214012A601318054883428CBF4FF0FF320B601046A7
S214012A70704700BFD00A002000800020024B196872
S214012A80024B186814F02ABCD80A0020D40A002089
S214012A9037B5920004460D46019227F0ADF9431C66
S214012AA00BD060B929462046019A27F038F900284C
S214012AB0044808BF002003B030BD0348FBE70348C5
S214012AC0F9E700BF10E000F021E000F024E000F09C
S214012AD013B5044601A800F003FF9DF80630012255
S214012AE023804FF4807300206380054B9B680A3374
S214012AF003F01F0302FA03F3636002B010BD00BFC8
S214012B000080E00F10B5044627F06EF9431C15D07F
S214012B10B0B90C4B20469B680A3303F01F02012311
S214012B20934023F003032344984201D1002010BDB3
S214012B3050F8042B0132F7D00348F8E70348F6E7CC
S214012B400348F4E70080E00F0EE000F021E000F01B
S214012B5024E000F008B51CF0E2F8014B186008BD4F
S214012B60CC170020014B18681CF0DDB8CC170020EC
S214012B70044BD3F88420D206FBD4D3F88400C0F3E8
S214012B80811070470040005038B5104B0546D3F809
S214012B9020310C4603F00303022B0BD0032B0DD080
S214012BA0012B0FD1FFF7D0FE052305B1286004B134
S214012BB0236038BDFFF7FEFE0323F6E7FFF710FF9D
S214012BC00223F2E700231846EFE700BF008000501B
S214012BD073B50D4600210E4B0191D3F88041064690
S214012BE004F00304012C09D0022C0CD00C460EB1C3
S214012BF0019B336005B12C6002B070BD01A8FFF7E0
S214012C00C3FF0F24F3E7FFF7EBFE0190EFE700BFEA
S214012C100080005038B5174B0546D3F824310C46D2
S214012C2003F00703013B052B20D8DFE803F0030F71
S214012C30171B0B13FFF788FE052305B1286004B1A7
S214012C40236038BDFFF780FE0623F6E7FFF7B2FEE6
S214012C500323F2E7FFF7AEFE0423EEE7FFF7C0FE1D
S214012C600223EAE71BF043FF0723E6E700231846A3
S214012C70E3E700BF0080005038B5104B0546D3F897
S214012C8040310C4603F00303022B0BD0032B0DD06F
S214012C90012B0FD11BF02DFF092305B1286004B1CC
S214012CA0236038BDFFF7A0FE0823F6E71BF024FFDC
S214012CB00B23F2E700231846EFE700BF0080005021
S214012CC038B5134B0546D3F800320C4603F007031C
S214012CD0013B032B18D8DFE803F0020A0E121BF0A3
S214012CE008FF092305B1286004B1236038BDFFF74A
S214012CF07BFE0823F6E71BF0FFFE0B23F2E7FFF748
S214012D0043FE0E23800AEDE700231846EAE700BFDC
S214012D100080005038B5104B0546D3F840320C46BB
S214012D2003F00303022B0BD0032B0DD0012B0FD185
S214012D301BF0DFFE092305B1286004B1236038BD0E
S214012D40FFF752FE0823F6E71BF0D6FE0B23F2E749
S214012D5000231846EFE700BF0080005038B5104B3F
S214012D600546D3F860310C4603F00303022B0BD063
S214012D70032B0DD0012B0FD11BF0BBFE092305B190
S214012D80286004B1236038BDFFF72EFE0823F6E75E
S214012D901BF0B2FE0B23F2E700231846EFE700BF55
S214012DA00080005010B40D4C0B46D4F8204204F0BD
S214012DB00304012C0AD0022C0CD008B100210160BA
S214012DC00BB100221A605DF8044B70475DF8044BA6
S214012DD0FFF7DABE5DF8044BFFF74EBF00800050E8
S214012DE0B0F5207F1FD009D8B0F5007F15D003D8E5
S214012DF068B1B0F5C07F0AD000200CE0B0F5607F66
S214012E00FAD10B4BD3F88000C0F3011003E0084B56
S214012E10186FC0F3033001307047054BD3F89000AC
S214012E20C0F30460F7E7024B186FC0F38020F2E7A7
S214012E30008000504FF400320E4B014610B50020C2
S214012E409A66FFF7CDFF41F6713248430A490B4BAC
S214012E5088428CBF4FF480100020DC69DA639A68E0
S214012E6022F4401202439A60E20344BF0022DA636E
S214012E7010BD00BF00900050005A620200000350CF
S214012E80420910B510D0012A10D00B4B0B4C022A68
S214012E9018BF234600F01F0051B103F580530122ED
S214012EA002FA00F0186010BD1346F3E7044BF1E791
S214012EB003F50053F3E700BF6880005060820050BE
S214012EC06480005008B580201BF04CFE034B9842EE
S214012ED09EBF4FF48032024B1A6708BD005A620249
S214012EE000A000501FB50023B0F5807F019377D076
S214012EF028D8382800F094800BD82438092810D810
S214012F0009280ED8DFE800F0676767670D0D620DC8
S214012F10377D52285FD008D83D283BD03E2800F0A8
S214012F208480019805B05DF804FB8028F9D1414BF7
S214012F301B6F03F00703013B032BF2D8DFE803F016
S214012F4044413F6CB0F5D06F5BD019D8B0F5A06F97
S214012F5066D00AD8B0F5806F3DD0B0F5906FE0D15D
S214012F60002001A9FFF756FEDBE7B0F5B06F2DD0C4
S214012F70B0F5C06FD5D1002001A9FFF77DFED0E7DF
S214012F80B0F5006FECD00AD8B0F5E06F4DD0B0F5D3
S214012F90F06FC6D1002001A9FFF7E0FEC1E7B0F54A
S214012FA0086FBED1234BD3F8003103F00303022B85
S214012FB02CD0032B2ED0012B30D1FFF7FBFC0323A3
S214012FC000E005230193ACE70223FBE7002001A9FB
S214012FD0FFF7FEFDA5E7002001A9FFF7D5FDA0E755
S214012FE002934FF0E0231B695B0705D5FFF7CCFC86
S214012FF00C230393039BE5E703A902A8FFF73CFE16
S214013000F8E7002001A9FFF75BFE8AE7FFF7ECFC73
S2140130100823D7E71BF06BFD0723D3E70123D1E78E
S214013020002001A9FFF7BEFE7BE7002001A9FFF7FC
S21401303071FE76E7008000504FF40022034B5A667B
S214013040012203F580439A62704700BF009000504A
S21401305008B5FFF747FF082811D00938012811D80D
S2140130604FF40012094B4FF6FF705A6603F5D8333A
S2140130705B6A13F0010F18BF4FF4FA7008BD044BDA
S2140130801888FBE74FF6FF70F8E700BF0090005086
S214013090A80C002070B504468020FFF723FF032804
S2140130A000F082804FF40022444B02215A6645F616
S2140130B00E03434AC2F88030424B9962012103F560
S2140130C080539962936DD903FCD4D4E900131B0590
S2140130D043EA0163E17B94F822500B43217B94F889
S2140130E0236043EA0143617B43EA0133A17B43EA60
S2140130F0811313619169D4E904031B0643EA8063D3
S21401310001F000410B43A17EE07E0B43217E43EAA2
S2140131100143617E43EA01239361E369126A002B4E
S2140131200CBF0021082122F00D0242EA030242EA06
S2140131308002234B42EA01021A6294F820204FEAE9
S214013140421232D1986A94F8211020F0330042EAF4
S2140131500112024342F001029A621B4A996D32EA59
S2140131600101FBD1022217498A621A659A6D520043
S214013170FCD41869A26820F4700040EA02504FF0AF
S214013180004218610F4B9A611DB9022203F5805364
S2140131909A6216B901220D4B9A6294F824301BB13B
S2140131A0074B0B4AC3F8802070BD996A21F03301A2
S2140131B031430A4342EA4502EEE700BF0090005061
S2140131C000C0005000D000500300014000E0005055
S2140131D0F1A7FFFF0121114A114B10B5946A9962BC
S2140131E0916D8907FCD502220C499A621A658B6D8E
S2140131F05B00FCD40B4B8A6993F9003022F47F0202
S2140132000344000280B222F47F42104383F3080392
S21401321040EA034088618C6210BD00BF00C00050C8
S21401322000D00050E3250020014B93F900007047C1
S214013230E3250020F0B5D0E901434FF480061A4A91
S2140132404178057856664FF4D156022702F5B83212
S2140132505662164E4F2977604FF0010728BF4F215F
S21401326006F5805677601669F603FCD441EA052117
S21401327051611B01417B43EA04230B43017B43EA73
S21401328041039360C37B817B1B0143EA4113417C6D
S2140132900B43017C43EA41035360837C13B16FF413
S2140132A0D1535362F0BD00BF009000500010025091
S2140132B0014B1880704700BFA80C00204FF4001285
S2140132C008B5184B5A660223174A5360936813F4DD
S2140132D08033FBD1012822D1FFF76CFB134B9842B8
S2140132E015D003F5122303F5F863984213D0104B5B
S2140132F000EB8002400AB3FBF0F0520A0A4BDA6296
S214013300012218635A620022074B5A6008BD45F62F
S2140133107A10084AF2E745F61A00074AEEE75362C2
S214013320F1E700BF009000500040025000F0490253
S21401333064666666D8B80500BBCF0500B0F5207F89
S21401334010B50C4642D008D8B0F5007F33D003D86C
S21401335088B1B0F5C07F0ED010BDB0F5607FFBD14F
S2140133601F4B013CD3F8801021F0300141EA0414D0
S214013370C3F88040F0E71BF0EDFB1BF0B6FC4FF402
S2140133808031184A164B1167196F013C21F47041C0
S21401339041EA04341C67FFF7F7FA0446FFF7E8FB37
S2140133A0C0F1020120461BF09AFC00F02DF8BDE8A2
S2140133B01040FFF787BD0A4B013CD3F8901021F06F
S2140133C0F85141EA0464C3F89040C5E7044B013C58
S2140133D0196F21F4806141EA84241C67BCE700BFB1
S2140133E0008000500090005008B50121022000F036
S2140133F0CDF81BF0AFFB1BF078FC4FF48032014B8D
S2140134001A6708BD0090005008B54FF4C0701BF055
S214013410A9FBBDE80840044988428CBF022101216E
S2140134204FF42070FFF78ABF80F0FA02194B10B5EF
S2140134301B6873B3184A5268012A2AD0174A80209B
S214013440C2F80031FFF74EFD05281FD14FF4C070BA
S214013450FFF7C6FC0128044604D102214FF4C070D0
S214013460FFF76CFF07220E4B1A610122A3F580536A
S2140134705A60094A1369DB07FCD5012C09D121469C
S214013480BDE810404FF4C070FFF758BF0122054B4E
S2140134905A6010BD8018002000C001500080005006
S2140134A000E0015000D0015000224FF40031074BDC
S2140134B01A60074A516602F598325268012A02BF1D
S2140134C0044AD2F800211A60704700BF8018002015
S2140134D00090005000800050044A4178536F23F456
S2140134E0407343EA01235367704700BF0040005012
S2140134F010B5044608B1FFF7D7FF0E4A136943F02B
S2140135000403136102F038FC1BF019FC1BF007FCE6
S21401351026F07AFC1BF007FC1BF012FC02F040FCC4
S2140135201CB1BDE81040FFF781BFBDE81040FFF7B2
S2140135302BBA00BF00ED00E010B5044608B1FFF756
S214013540B3FF0C4A136943F00403136102F014FC41
S2140135501BF0E5FB26F058FC1BF0E5FB02F020FC17
S2140135601CB1BDE81040FFF761BFBDE81040FFF792
S2140135700BBA00BF00ED00E0034A0179D36E23F0D9
S21401358030030B43D366704700400050F8B504463D
S2140135901C4BD3F88420D106FBD4D3F88430C3F374
S2140135A081139C422CD0FFF7D5F9012C064602D197
S2140135B021461BF094FB1BF0B2FB4FF00072124B3E
S2140135C007465A6620461BF0C0FB4FF480630D4D3C
S2140135D0621E93402B676B6E9A0103D4D5F8843034
S2140135E09B060AD538461BF09EFB022C08D13046B6
S2140135F0BDE8F84000211BF072BBD5F88430EAE73D
S214013600F8BD00BF004000500060005007B518B973
S2140136100191FFF79FF90199064B1B7843B1064BC1
S214013620984205D8012003B05DF804EBFFF7AEBF62
S2140136300220F8E7E4250020005A62020278034BD4
S214013640012100201A70FFF7E1BF00BFE42500202A
S2140136504FF0004210B501244AF6CD31154B5A669B
S214013660154A03F50B2354605A6C1964224088B935
S214013670996811F0010F114903D08C60D86AC00710
S214013680FCD501234B6012B10D4B0E4A1A6425F08E
S21401369043FE10BDD96A0907FCD42021074B5962A5
S2140136A00121A3F58053996005494B6A9B06FCD519
S2140136B0E9E700BF00900050005009500060095033
S2140136C0004009503254FFFF4FF0004238B5194B05
S2140136D0194C5A66012203F50C235A604AF6CD337B
S2140136E0656C23644378154093401343134AD363B0
S2140136F0A368827823F0740343EA0213C278002A8F
S21401370014BF042200221343A3600279837943EA9B
S214013710022323614279C37943EA02236361007875
S214013720FFF796FF0DB1064B236425F0F5FD01204A
S21401373038BD00BF009000500040095000400050C6
S2140137403254FFFFF8B504460D461F4616464AB1E9
S21401375001238B403021194A01FB0022FFB141F2BF
S2140137601001535004EB4403072D4FF00F014FEAAD
S214013770031317D8A80006FA00F28140104818442F
S2140137801BF0E4FA56B9012130230C4801FA05F57D
S21401379003FB040077B141F21003C550F8BD42F2B5
S2140137A01001DEE7A5F10800800006FA00F281406C
S2140137B00448E4E742F21003EFE700BF00C00350FD
S2140137C004C003500CC003504FF40032054B9A66F8
S2140137D041F6713203F51C33DA63012203F5005317
S2140137E0DA6070470090005041F671320121064BB5
S2140137F0DA6303F50052D1600022DA634FF4003237
S214013800A3F518339A66704700000350CB784A78C0
S21401381010B55B010C7843EA82030A79234343EA35
S21401382002130C22424302F1B0421363012C02BF81
S2140138308A78024B43F8202010BD00BFE880035071
S21401384008B54FF0B0435A6802B960B15B680BB176
S2140138501BF08DFA4FF0B04130B10120074B586094
S2140138601BF085FAC86008BD1BF081FA0223CB6005
S2140138701BF07DFA0122024B5A60F4E70010005853
S214013880002000584FF0B0435B6870B50BB11BF0D9
S2140138906EFA0121104B4578596083780679002B22
S2140138A0C37814BF02240024002B14BF0422002274
S2140138B04379DB0043EA06132B43234313434FF0BC
S2140138C0B0429360054B59600378002B14BF0B463A
S2140138D00223D36070BD00BF0020005800100058BE
S2140138E04FF48032064B5A6603F5E6235B69C3F351
S2140138F08512827003F03F021B0B42700370704703
S2140139000090005038B50446054D25F02CFD0FCC2F
S2140139100FC594E8030085E80300002038BD00BF0A
S2140139208418002047F6FF739A42F0B567D0022943
S21401393067D8354DCF0015F8313005EBC100012BA6
S214013940847813D10025C3781B1B9D4202D3E0184F
S214013950C0B2F0BD591B4668A3EB510136F91160A0
S2140139609642D4BF0D4601F1FF33EEE740680028CA
S214013970EFD0B0F90030934204DBB0F90230934245
S214013980B8BF134682883D44FF2A19BFC8214FF0AD
S214013990280CB0F90610B0F908C0A1EB03020CBF61
S2140139A00126002692FBFCF26D78324412B2954253
S2140139B001DD002A01DA6A1E12B24FF47A7700EBB3
S2140139C0C206F188B668013213FB016112B221EA20
S2140139D0E17101F5FA719542B1FBF7F104DD00EBF7
S2140139E0C206B6888E42EAD200EBC20232F8040C56
S2140139F0884228BF0846A04238BF2046A8E7FF20D5
S214013A00A7E70020A5E700BF841800200229F0B52B
S214013A1053D82B4800EBC10410F831106368012914
S214013A200FD1E078A478904294BFC4EB0001C4EBB8
S214013A300201001BCAB28242C8BF002233F912003B
S214013A40F0BD002B39D0A178914202D3B3F9020020
S214013A50F6E7E178B3F900009142F1D999886478E4
S214013A60A1F1FF06013C714203F10405E4B2714184
S214013A7003F10C071FFA82FCCEB2B44216D805EB4E
S214013A80C1014FF47A756A43B1F902404968521A86
S214013A9004EBD47102EB610292FBF4F29042CFDBAD
S214013AA0B3F902009042CBDC10B2C9E737F831E037
S214013AB04E1CE645E3D33146DEE70248C0E700BFC9
S214013AC0841800200080FFFF08B50448FFF71AFF9E
S214013AD0BDE80840012025F04ABC00BF08AA030043
S214013AE000487047AA0C00207FB50222084B0949FE
S214013AF0CDE901234FF00073CDE90313052301A996
S214013B004FF0FF30059325F068FC07B05DF804FB25
S214013B10006A1800000204001B0603F0706300F040
S214013B200F000902034301F47061120402F47022CB
S214013B300B431343014A1360704700BF0020025C29
S214013B4060B5054619B10139B1F5806F10D2094E3D
S214013B50F06810F48030FBD143EA0121120741EAF4
S214013B60050302F08052134343F00043736060BDC7
S214013B700120FCE70020025C0122054B9A60DA680E
S214013B80D203FCD4D86820F00F000004000C704764
S214013B900020025C014B1868704700BF0040025CC1
S214013BA0014B5868704700BF0010025C014B186B50
S214013BB0704700BF0010025C014B1868704700BFD9
S214013BC00010025C014B9860704700BF0010025C59
S214013BD0014B1864704700BF0010025C014B58642B
S214013BE0704700BF0010025C014B5863704700BF6E
S214013BF00010025C0022014B1A6070470010025C44
S214013C00024A136843F00103136070470010025C18
S214013C1043F20402014B1A60704700BF0010025CB9
S214013C20024A136843F03003136070470010025CC9
S214013C30044B1A6842F480721A601A6822F4807281
S214013C401A6070470010025C024A136843F48063EE
S214013C50136070470010025C034A136823F4702354
S214013C6043EA0040106070470010025C044B1A697A
S214013C7002605A6942609A698260DB69C360704774
S214013C800010025C0268044B1A6142685A6182683D
S214013C909A61C268DA6170470010025C024B1A6BC7
S214013CA0D207FCD4186270470010025C024B186BF6
S214013CB000F00E00704700BF0010025C82B01FB516
S214013CC007930A9B04AC8B4228BF0B4604E9070006
S214013CD01048D100079948BF03330160099948BFCE
S214013CE023F0030323F0704301F0E041194341F050
S214013CF000518160002102F0E042019C134343F031
S214013D000053C16004618361416304B0BDE81040A3
S214013D1002B070470000025C3F22034B1A63102278
S214013D20DA6103229A6370470000025C024AD36B91
S214013D309B07FCD4704700BF0000025C034B986AE7
S214013D4010F0240018BF0420704700BF0000025C7A
S214013D5008B5FFF7F3FF064BDB6B23F47F4323F035
S214013D60EF0303431EBF0122024BC3F8FC2F08BD1D
S214013D700000025C00F0FF3F032208B5054B186007
S214013D8019615A63FFF7C8FFFFF7D0FFBDE8084087
S214013D90FFF7DEBF0000025C42680346182A10B532
S214013DA00AD0202A1DD0102A2BD1174AD2F8042473
S214013DB0D4010AD4012013E0134AD2F80424900156
S214013DC0F8D50A6842F008020A6010481A6882426A
S214013DD04FF000000ED10A6842F040020A605860B7
S214013DE010BD094AD2F804245201E3D50A6842F00C
S214013DF00402E9E7064CA242F2D10A6842F08002C8
S214013E00ECE70720ECE700BF0000025CE525002098
S214013E10E62500200B4607B50749D1F80414C90763
S214013E2008D5002100920246084600F05BF803B070
S214013E305DF804FB0120FAE70000025C1346064A1F
S214013E40D2F80424D20504D50A46014600201BF008
S214013E5095B90120704700BF0000025C13B5084CFD
S214013E60D4F80444E40508D5009313460A460146EF
S214013E70002000F061F802B010BD0120FBE700BF92
S214013E800000025C13B5084CD4F80444E40508D5D8
S214013E90009313460A460146002000F071F802B06E
S214013EA010BD0120FBE700BF0000025C70B50446B0
S214013EB00D4616468CB00A4A09AB07CA83E80700C6
S214013EC01A462146CDE90563CDE90333CDE9013331
S214013ED000954FF480301BF075F80CB070BD00BF34
S214013EE0B4A10300F0B51C465B6815468DB01A07F1
S214013EF0129E1AD1CBB17268934216D10C4B0D4A61
S214013F0053F8217009AB07CA83E807001A46294609
S214013F10CDE90533CDE90333CDE90163009447F4D8
S214013F2080701BF04FF80DB0F0BD0720FBE700BF17
S214013F30C0A10300B4A10300F0B516465A688DB0BF
S214013F40102A0D46129F15D17A68102A12D10A4AF4
S214013F5009AC07CA84E8070022462946CDE9054789
S214013F60CDE90344CDE90144044800961BF02AF844
S214013F700DB0F0BD0720FBE7B4A10300300001003F
S214013F80F0B516465A688DB0102A0D46129F15D107
S214013F907A68102A12D10A4A09AC07CA84E80700CF
S214013FA022462946CDE90574CDE90344CDE901440D
S214013FB0044800961BF006F80DB0F0BD0720FBE79D
S214013FC0B4A103001000010082B070B586B0149D44
S214013FD003AE202D86E807000B9359D805EB850321
S214013FE08B4203D006236B438B4253D10C9BAB42CF
S214013FF050D10F9BB3EB450F4CD1129A934249D146
S214014000012229462220159BFFF79AFD044630BB64
S214014010034606220E210C20FFF77EFD0123CDE983
S21401402000332B4696E807001AF069FF0E230BAA09
S214014030009307CA2B461AF0ADFE0C23164C0093CC
S2140140400EAA2B4607CA1AF0D5FE636823F07F0333
S21401405043F026036360FFF78FFD30B10624204648
S21401406006B0BDE8704002B07047636823F07F0376
S21401407043F022036360FFF77FFD04460028EDD17D
S214014080062311AA009307CA2B461AF0E6FEE6E7B6
S2140140900124E4E70724E2E70020025C70B598B04B
S2140140A0002843D02C4C08AD0FCC0FC50FCC0FC544
S2140140B00FCC0FC594E80F0085E80F006D4604AEDF
S2140140C004F1100320340FCB85E80F0094E80F00AD
S2140140D086E80F00FFF7ACFD0420FFF7BDFDFFF7F4
S2140140E097FD3046FFF7CEFD002408AE56F8040BC8
S2140140F00134FFF7D3FD102CF8D1FFF751FD03284B
S214014100FBD90024FFF776FD2646FFF743FD55F859
S214014110043B01365840042E44EA0004F5D12CB184
S214014120012206200D4B1A7018B070BDFFF780FDF6
S2140141300820FFF747FD0020FFF74AFD0720FFF79D
S2140141404DFD4FF40070FFF74FFD0820FFF784FD8B
S214014150FFF756FD0020E7E79CA20300E8250020B4
S21401416008B5FFF765FD0122014B1A7008BD00BFB7
S214014170E725002030B589B005AC84E80700FFF7D5
S21401418015FDC30501D5FFF7EBFF0A4D2B781BB1D3
S2140141901BF06FF900232B70074B069AD3E9010138
S2140141A08DE8030002921B6894E807001BF06AF88A
S2140141B009B030BDE7250020FCA203001FB51BF0A7
S2140141C058F9044630B1012206240D4B1A702046D8
S2140141D004B010BDFFF7DEFC0090FFF7DBFC01909A
S2140141E0FFF7D8FC0290FFF7D5FC03906846FFF76F
S2140141F049FDFFF7B5FFFFF713FDFFF725FDE6E7DE
S214014200E825002005289ABF014B185C002070475E
S21401421008A3030030B5154B87B00293144B0390E7
S214014220049346F611030D46059300F06DF9142824
S214014230044616D168461BF0D4F94FF0A843032272
S21401424002A95A6319601D619A63DA6B9207FCD161
S214014250142C02D168461BF0D2F900F089F9044605
S21401426001E00028E9D0204607B030BD9C180020A8
S214014270040000202DE9F04FB1B005468C46E94612
S2140142806E4F3B9EDDF8F8E0409C07F1100AC846E9
S214014290386879680837A8E803005745C146F6D15B
S2140142A00EEB0208C8F1000909F00F09002E00F014
S2140142B0AF80774207F00F070121DDF8FCB0C4F1AB
S2140142C0100ACDF810B0059144F0005106914FEA5E
S2140142D00A2101F4F85141F02101079106B96B4614
S2140142E00893002D40F09680002C00F0938004ABDC
S2140142F00993002E00F0908046F000530A93002D9B
S21401430040F08D80002C14BF0123212343EA0723AC
S2140143100B9308A942F00053CDF830C03D980D919B
S2140143200E934FEA092343F041030F93109002B115
S2140143300CA9002A16BF00224FF00052412342EA80
S2140143400E021191129213933C9B3D4A149310ABAB
S21401435015933C4B0021169340F6110317933A4BE5
S214014360002D08BF1346189314AB1993374B102230
S2140143701A9311231B931CAB184625F007FD012247
S2140143801D924AF080421E9200220346239205B9EE
S214014390EB46102C08BF01230DF1900A10220021D4
S2140143A05046CDF880B02193229425F0EFFC002CE6
S2140143B037D020AB002125938F4218BF534647F0D4
S2140143C0804226923A9A2CA88A422892299313462A
S2140143D00CBF4FF080430B46102233432B912A9398
S2140143E025F0D4FCFEB95346C8442D932CA948F0B9
S2140143F0804318A82E93FFF70DFF30B92DB9034659
S214014400A34212D1002818BF2C2031B0BDE8F08F8E
S214014410102751E701236BE747F000536EE721238E
S21401442074E70123C6E728ABDEE703F1C0026A445E
S21401443012F8C02C01331043E2E700BF0EA30300BD
S21401444020A303001000002024A303000400002082
S214014450F0B5C0299FB0249E4FD0B1F5807F04D01F
S214014460802941D029201FB0F0BD40F2344440F2EB
S2140144701445002E08BF2C4621271025019401243F
S2140144800296039404950597259F069706B102ACFC
S21401449007940124089509940A9221220B940C95FD
S2140144A00D92174A0AAC0E92164A0F94109242F6D3
S2140144B011021192129313941495159201AA169251
S2140144C0CBB112AB1793042318931123199316AB90
S2140144D01A901B9340F61103C9081C911AA806A945
S2140144E01D93FFF797FEBEE7002E14BF4FF48664B8
S2140144F04FF48264C0E70EABE4E70F20B3E700BFDA
S21401450028A303001000001038B5164B5A6E42F06F
S21401451004025A66D3F8802242F00102C3F88022D0
S214014520114B5B68C3F3080343B14FF0A842D36B4A
S21401453013F0430FFBD11424204638BD4FF0A84397
S214014540DC6B14F04304FBD1084D2B681BB9042126
S214014550284602F0B1FA2B68013343F000432B6082
S214014560EAE700BF0080005000ED00E09C18002044
S214014570014B00205B68704700ED00E04FF40052ED
S214014580034B00209A660322C3F86022704700BFDF
S2140145900090005008B5FFF70FFBC30708D5FFF7DB
S2140145A085FB062804D00A28F5D1FFF7D9FDF2E7E6
S2140145B04FF40052034B00209A660322C3F8602290
S2140145C008BD00BF00A000501FB54FF40052164BA7
S2140145D09A660322C3F86022FFF7EEFAC30710D4E7
S2140145E001201AF053FF002814BF6FF09204002434
S2140145F0FFF7D0FF00280CBF20466FF0920004B0F2
S21401460010BD10220021684625F0C0FB6846FFF762
S2140146102DFBDDE900321343029A1343039A134339
S214014620DED00024E4E700BF00900050012300F034
S2140146301F02A0F506200949A0F5506040099340E5
S21401464051F820201A4341F82020054951F820202E
S21401465022EA030341F82030704700BFA01800206B
S214014660B41800200121A0F506230F4AA3F55063D4
S2140146705B0900F01F0001FA00F052F8231008430E
S2140146800A4942F82300D1E900300344886803440C
S214014690C868096903445B1802BFC2E90033C2E96E
S2140146A002331361704700BFB4180020A018002021
S2140146B02DE9F04FA9B002921F46DDE93289044682
S2140146C00822CDE90301414021FA02F34B40980745
S2140146D002F1080218BF9B00202A1C44F4D1812352
S2140146E0B4FBF3F303EBC313E41A784B04F5062487
S2140146F01B7804F55064002B3CD1FEF7BFF9014648
S21401470020B16FF0910029B0BDE8F08F40220590EE
S21401471008A825F03BFB4022059918A825F036FB92
S2140147206B4EDFF8C4A1334603F10F0B102208A924
S214014730DAF80000CDF800B0059324F0B3FB0022B0
S2140147400146059B103608AD914244D1CDF800B024
S2140147501022DAF8000018A924F0ADFB4FF0000B88
S214014760034618AD5B4542D15A4B9E42DBD101222E
S214014770564B1A7081250026DFF86CA1A4F5062396
S214014780554AA3F550635B0952F8232004F01F0134
S214014790CA40D2073ED4514A52F82300C84010F00E
S2140147A001002DD0002E08BF26468123A4F507243C
S2140147B0A4F2FF44B4FBF3F303EBC313E41A04F5CA
S2140147C00624013D04F55064D8D1029BD3B1CEB185
S2140147D0349B1E6063E055F8040BCDE90623059172
S2140147E0FFF724FF069A079B05990132ACE755F8B7
S2140147F0040B05930BF1010BFFF734FF059BB1E7A3
S214014800029B13B96FF08B007DE7349B002E45D0D9
S2140148101E6078E7B8F1000F02D00023C8F8003018
S214014820B9F1000F02D00023C9F800304FF0100B89
S21401483000233A462146DAF80000CDF800B012F01F
S214014840BBFE70BBB8F1000F01D0C8F800B03B68E2
S214014850234A93422FD1B8F1000F11D0B9F1000FBE
S2140148600ED04B462146DAF8000018AA12F0F8FEE0
S214014870B8B9D9F80030D8F800209B1AC9F800302A
S214014880D7E90223DDE90310834208BF8A428CD1AF
S214014890029B13B17B68012B15D0349B1C60002052
S2140148A031E7104B984206D01233984203D0133B9F
S2140148B09842E5D025E72146DAF8000012F016FF07
S2140148C00028DDD09EE76FF084001CE7E925002074
S2140148D0006D080000710800A0180020B418002020
S2140148E0105D175EFFDF00F0D40A00202DE9F04FBF
S2140148F087B08246894698461646DDF840B02AB10A
S214014900002B4ED040F26C739A424DD8BBF1010F8A
S2140149104DD8002406F110073946012005941AF0F7
S214014920F2FF0546002845D021463A4625F02EFAE4
S21401493005ABCDE9014300942B460122504649467A
S214014940FFF7B6FE044680B110F18C0F08BF6FF07A
S2140149508D043A460021284625F018FA28461AF012
S214014960E3FF204607B0BDE8F08F144BC5E902A966
S2140149702B60C5F804B02EB13246414605F1100051
S21401498025F0DDF90E483B462A460599006812F0E7
S2140149907BFD18B90598FFF749FEDAE76FF0910439
S2140149A0D7E76FF08604DCE76FF09104D9E76FF084
S2140149B08504D6E76FF08C04D3E700BF105D175E61
S2140149C0D40A00202DE9F0438DB08146DDE9147844
S2140149D00C4615461E469BB1B8F1000F05D16FF087
S2140149E0860420460DB0BDE8F083002FF7D0B7F15E
S2140149F0005FF4D3C3F1005303F500439F42EED8A2
S214014A001022002108A825F0C1F9002207AB029365
S214014A1005AB019306AB21460093484608ABCDE9AA
S214014A200522FFF745FE04460028DAD10599DEB1D6
S214014A30A94203D80029D2D115B1D0E70029FBD06D
S214014A40491BB14228BF3146069B0948C8F80010E9
S214014A5000913A46079900682B4412F0ADFD0028F4
S214014A6018BF6FF09104BCE7A942E9D2B7E700BFCF
S214014A70D40A002030B58DB00C4605461022002120
S214014A8008A825F083F9002207AB029305AB019332
S214014A9006AB21460093284608ABCDE90522FFF771
S214014AA007FE0446D0B9099B012B1AD0104B079973
S214014AB0186812F01BFEB8B9012207980D49A0F537
S214014AC00623A3F550635B0900F01F05AA4051F8C1
S214014AD023506A4041F82320FFF7C4FD20460DB05D
S214014AE030BD6FF08404F9E76FF09104F6E700BF7C
S214014AF0D40A0020A01800202DE9F0438BB01746F9
S214014B00DDE91545DDE913269C46DDE917388946BA
S214014B1021B96FF086000BB0BDE8F083002FF8D006
S214014B200EB9002CF5D1129909B9002AF1D10DB9A7
S214014B30002BEED1B8F1000FEBD0254A944544D1B5
S214014B400288B2F5105F40D14288B7EBD20FE0D3AE
S214014B5022F04001802902D0B2F5807FD9D11CB95C
S214014B602046C8F80040D6E7AE421CD2321995421C
S214014B7019D29C42CDD831462246284625F0ECF87B
S214014B802E4614F00F03C4D1CDE90197CDE90336C3
S214014B90CDE90543CDE907540993FFF7EFFC38B19A
S214014BA06FF09200B7E79C42EBD96FF08900B2E74D
S214014BB007AA04A901A8FFF72DF90546FFF7EAFCA5
S214014BC02843EDD1C8F80040A5E76FF08500A2E7BD
S214014BD0004440042DE9F04FA9B0834617469A4693
S214014BE00C46DDF8C890369E29B96FF08603184644
S214014BF029B0BDE8F08F002AF7D0B9F1000FF4D044
S214014C00349B002BF1D0002EEFD000253F4B0DF149
S214014C10300893E8070088E807003C22294619A8CF
S214014C20189525F0B3F82288618802F4E040B0F5C3
S214014C30804FDAD0364C37480BEA040444F010644F
S214014C4084425CD1B1F5807F59D147F212118A4274
S214014C5055D106203049BAF11F0F0A69CB6800FB0F
S214014C6002F209680B93CDE90C120E95BDD9339B60
S214014C70402BBAD9359B1F2B44D909F101022024B8
S214014C801292402299F800300F97042B18AFCDE905
S214014C901325CDE91572109411951795A5D1FFF737
S214014CA06DFC03460028A2D10B9B15AACDE908434B
S214014CB005AB07CA83E8070002AB12AA07CA83E856
S214014CC00700DDE910018DE803000F9B98E8070057
S214014CD0FFF77AF90446FFF75DFC54EA000384D136
S214014CE0349A3C4620AF254603CDBD421060516044
S214014CF02C4602F10802F6D12022326077E76FF0E7
S214014D00850374E76FF0890371E700BFB4A1030060
S214014D100000FFF60000020988A20300F0B50F4666
S214014D201D468DB000285AD0002958D0002A56D0EA
S214014D30002B54D00388B0F802C0194603F44F4440
S214014D40B4F5824F18BF002321F0FF01B1F5E24F01
S214014D50DBB203D06FF085000DB0F0BD122B01D091
S214014D60172BF7D10CF10701B2EBD10F4FEAD106A1
S214014D7038D31F4A06ACBCF5807F07CA84E8070013
S214014D80E8D1122B07D11B4B1A691B681344CDE9D6
S214014D900632002308930023CDE909760B93FFF72B
S214014DA013FC0028D8D1FFF7E9FB0028D4D1124B19
S214014DB01149059302AB049083E803000CAB13E999
S214014DC003008DE80300099B94E807001AF0E0F958
S214014DD00446FFF7DFFB204307D12E60BCE76FF0E8
S214014DE08600B9E76FF08900B6E76FF09200B3E787
S214014DF0B4A1030088A20300ADF402002DE9F0433C
S214014E008FB01D46DDE916C6002863D0002961D0A3
S214014E10002A5FD0002B5DD0BCF1000F5AD0002EC7
S214014E2058D00388B0F802E01C4603F44F47B7F5A4
S214014E30824F18BF002324F0FF00B0F5824FDBB28B
S214014E404ED0B7F5824F4BD1122B01D0172B47D13D
S214014E500EF10700B2EBD00F4FEAD0083AD34FEA73
S214014E604802571C674538D8BEF5807F38D1122BCB
S214014E7018BF4FF000094FF0000308BF1B4CCDE9E7
S214014E80081805F1010114BF4C46D4F80C90CDE981
S214014E900B120A930D93FFF771FBC0B9CDE9058993
S214014EA002AB08AA07CA83E807000EAB13E90300A2
S214014EB08DE803000B9B94E807001AF088F9044676
S214014EC0FFF768FB20430ED104232B7037600FB029
S214014ED0BDE8F0836FF08600F9E76FF08900F6E72A
S214014EE06FF08500F3E76FF09200F0E788A2030009
S214014EF02DE9F04389B00D4614461F46DDF848807B
S214014F0020B96FF0860009B0BDE8F0830029F8D01B
S214014F10002AF6D0B8F1000FF3D0028802F44F430E
S214014F20B3F5824F0CBF13460023DBB202D06FF0FD
S214014F308500E8E7122B01D0172BF8D122F0FF02EB
S214014F40B2F5E24F40D14288C8F80020002A36D197
S214014F50E200C8F80020D8F80020B2F5807FE6D13C
S214014F60122B09BF384B00221A681B6905EB040691
S214014F7008BFD21800231846224412F801CD16F8AD
S214014F80011D0843B1EB0C010CBF4FF0FF3C4FF085
S214014F90000CB5420CEA030343EA0103EDD10028F5
S214014FA0AFD0002BADDA109B9C4249D82246294649
S214014FB0384624F0C4FE119B00201C60A3E707328C
S214014FC0B4EBD20FC7D09CE72A78042A99D1621E87
S214014FD0D2005208B2F5807FC8F80020A7D1122B64
S214014FE005F1010318BF4FF000094FF04002059389
S214014FF04FF000030ABF144E4E46D6F80C90CDE98A
S2140150000623FFF7BBFA00287FF47DAFCDF80C909E
S214015010D8F800300733DB08029308AB13E9030026
S2140150208DE80300059B96E807001AF079F9064615
S214015030FFF7B0FA00287FF466AF002EB3D060E722
S2140150406FF089005FE700BF88A203002DE9F04FEB
S2140150508FB00546DDE918A993461E46DDF868803F
S2140150601C9F09B300B3B8F1000F1DD0E7B1BAF128
S214015070000F02D1B9F1000F16D1284B26F47E128B
S2140150809A4247D128461AF0EBFA0446B0BB6B8821
S214015090BBEBD30F4FEAD30206D316F47C1FC6F33D
S2140150A0054504D0102D03D96FF0860426E010259F
S2140150B01B9B9D422BD80023CDE901121022CDE97E
S2140150C005930DF12809CDE9033ACDE90823CDF87A
S2140150D01C90FFF753FA044680B907AA04A901A851
S2140150E0FEF7ACFE0646FFF755FA044656B958B920
S2140150F02A464946404624F022FE3D6020460FB02F
S214015100BDE8F08F6FF0920400233B60F6E76FF086
S2140151108904F3E76FF08504F0E700BF0002C003DF
S2140151202DE9F041069F0C461646054610B309B315
S21401513002B9FBB96288B3EBD20F4FEAD20819D392
S2140151404C220021284624F021FE0D4B27F47E1226
S2140151509A4212D120461AF083FA044638B94246DA
S2140151603146281D24F0EBFDC5F824802F6020462B
S214015170BDE8F0816FF08604F9E76FF08504F6E785
S2140151800002C0032DE9F0410E46144605460028EC
S21401519040D000293ED012B90020BDE8F081036856
S2140151A01F4823F47E13834237D1AF6BE7B1C7F1B3
S2140151B0100807F128004245284404D224F0BFFD18
S2140151C03C44AC63E8E7424624F0B9FD1022103CAB
S2140151D03C19AA63E0D0284605F128011AF05CFACA
S2140151E00028DAD14644A863102C0CD9671E27F094
S2140151F00F073A46314628461AF04EFA0028CCD117
S214015200E41BC9D03E442246314605F1280024F06D
S21401521096FDD6E76FF08600BFE76FF08800BCE723
S2140152200002C0032DE9F04388461F4605468BB0B1
S21401523070B169B163B10368234923F47E108842D3
S2140152403ED113F47C1FC3F3054604D0102E03D9B8
S2140152506FF086042AE0102696422BD8FFF78EF9C7
S214015260044618BBAB6B05F12802CDE901236B6A36
S2140152702A1DCDE904231023CDE9083007AB1A46D1
S2140152800390069005F13C0901A904A8CDF81C90ED
S214015290FEF7F8FD0546FFF77DF904466DB928B916
S2140152A032464946404624F04AFD3E6020460BB051
S2140152B0BDE8F0836FF08904F8E76FF09204F5E734
S2140152C06FF08504F2E700BF0002C00307B56B4626
S2140152D0054A1068516803C36846FEF7F5F90020D1
S2140152E003B05DF804FB00BF2CA3030013B5002434
S2140152F0064A6846536F43F00103536700948DF8DE
S2140153000440FEF739F9204602B010BD00400050B7
S21401531030B58BB06C46154D0FCD0FC40FCD0FC4F5
S21401532095E8030084E80300114BD3F84C211203DF
S21401533014D4D3F85041E4B28DF81940FDF774FF48
S214015340204480F308008DF818000A48FDF738FB62
S2140153506846FDF79FFE00200BB030BD064B1C884B
S2140153604FF6FF739C4208BF8C24E5E734A3030085
S2140153700080E00F00F049020001E00F30B5094D52
S21401538087B001AC0FCD0FC42B6801A82360192389
S2140153908DF80530FDF74EFF6420FDF789FF0020EC
S2140153A007B030BD5CA303006FF00402502110B5B6
S2140153B00A480B4C12F0800FD3B21BBF03F00F0349
S2140153C0043BA3181B1802F101020CBF83F800135B
S2140153D01976402AEED1002010BD00BF00ED00E096
S2140153E000E100E038B500F045FE0446E0B900F003
S2140153F0F7FE4FF4167343430C4803F5742303F288
S2140154003F23B3FBF0F30A4A0A4913600A220D68E8
S2140154100948013A12F0FF0240F8043BF9D103EBC8
S214015420C3022B4413440B60204638BD40420F0094
S214015430FC180020CC180020D0180020012208B546
S214015440034B1A701AF0F4F9024B186008BD00BF3E
S214015450EA250020F8180020F8B5144C237823B369
S2140154601AF0E6F9124B134D1B68134EC01A0128A9
S21401547038BF0120114B124F18602B7856F82320A5
S21401548046F82300111A3A680E48521A0A213A6061
S2140154900932B2FBF1F20133DBB20260B3FBF1F287
S2140154A001FB12332B7000232370F8BDEA25002080
S2140154B0F8180020EB250020D0180020C81800207E
S2140154C0CC180020FC180020014B1868704700BF5C
S2140154D0FC18002020234FF400220A4981F82C33BF
S2140154E0094B5A66094A03F5405303F500504267D3
S2140154F002674FF48050C1F88401486003445A673C
S214015500704700BF00E100E000900050010000A0DD
S214015510044B9A6DD20702D40028FAD170470120B5
S214015520704700BF00C000500C4B10B51C6FE2075F
S21401553007D5012203F500531A67FFF78DFF00F028
S21401554059FB14F000521CBF054B1A67002CBEBF56
S2140155504FF00042024B1A6710BD00BF00C000505A
S21401556000E00050BFF35F8F074B5A6A22F4803287
S2140155705A62D3F8942022F00102C3F89420BFF3B4
S2140155804F8FBFF36F8F704700ED00E070B5264870
S214015590264CFFF7E7FF844208BF4FF08043244ABA
S2140155A018BF20F01F03D2F8C01018BF203B21F00F
S2140155B0FF0141F0A001B3F1005FC2F8C0100CD3A7
S2140155C01C4D1D4E296843F00103C2F898100131A5
S2140155D0C2F89C60C2F8A0302960844210D01548F9
S2140155E0164B0268124923F01F0343F00303C1F868
S2140155F09820C1F89C30124B0132C1F8A0300260ED
S214015600BFF35F8F05220A4BC3F894205A6A42F40F
S21401561080325A62BFF34F8FBFF36F8FBFF34F8F46
S214015620BFF36F8F70BD00BFD80C0020B00E0020F6
S21401563000ED00E00019002003000020CF0E00203E
S214015640E1FFFF3F10B51446FFF78CFF1F2C24D94E
S2140156501C4A1D4CD2F8C03023F47F4343F48073B8
S214015660C2F8C030C2061CBF20F01F002030CB0697
S214015670144A236818BF21F01F0120F01F0021F0F3
S2140156801F01C2F8983040F0030041F003010133D6
S214015690C2F89C00C2F8A0102360BFF35F8F0522FA
S2140156A0084BC3F894205A6A42F480325A62BFF318
S2140156B04F8FBFF36F8FBFF34F8FBFF36F8F0020F6
S2140156C010BD00BF00ED00E000190020BFF34F8FB2
S2140156D00549064BCA6802F4E0621343CB60BFF388
S2140156E04F8F00BFFDE700BF00ED00E00400FA05A4
S2140156F0034B1B78002B14BF01200220704700BF0C
S214015700F42500200329F8B598BF124B05460E462E
S2140157108CBF00245C5C032805D8DFE800F0020893
S2140157200B0E44F002040C4B1F684FB9F8BD44F051
S2140157300804F8E744F02004F5E744F08004F2E7B3
S2140157407B681A68144203D0314628465B6898473E
S2140157503F68EAE770A303002819002038B5104D0A
S2140157602B78ABB10F4C23781BB100F045FB00231F
S2140157702370002000F062FB0B4C50B100F068FB78
S2140157800023012120782B70FFF7BCFF0123237033
S21401579038BD0122054B1A702278054B1A70F7E7BF
S2140157A0F3250020EE250020EC250020F225002020
S2140157B0F925002010B519F0B2FA064B04461B78FD
S2140157C01BB1BDE8104019F0AEBAFFF7C7FF20467F
S2140157D0F7E700BFED250020002814BF0121FF21B7
S2140157E0074A13780B44137008D0064B1B78012B1D
S2140157F004D9054B1B780BB9FFF7B0BF704700BF44
S214015800F4250020EC250020F225002070B519F0C3
S21401581086FA114E054633788BB900F02BFC044608
S21401582020B1284619F07FFA204670BD0B4819F0C2
S21401583066F90B4B1C6000F0D3FC0A4B186000F0B5
S2140158401FFA19F0B0FF084B002418600123284600
S214015850337019F068FAE7E7EF25002028190020D1
S214015860301900202C1900202419002000292DE9C8
S214015870F34114BF0121FF21254A00F1FF30135CDB
S2140158800B4413543AD0234E3278012A36D9FFF707
S2140158902FFF0128044634D81F4F19F040FA3B78F1
S2140158A01BB31E4D2B781BB901222A701C4A13709C
S2140158B0DFF8708098F8003033B1019000F09CFA60
S2140158C00023019888F8003019F02DFA012000F025
S2140158D0B5FA19F024FA2B782BB1019000F0B8FA3A
S2140158E0002301982B7000233B7019F01CFA3078C6
S2140158F0A04203D02146FFF705FF347002B0BDE891
S214015900F081032AF3D10228F1D119F050FFEEE716
S214015910F4250020EC250020F3250020ED250020AD
S214015920F2250020EE25002010B5044619F0F7F9FF
S214015930002C14BF0121FF21064A13780B44DBB269
S2140159401370B3FA83F3BDE81040034A5B09137082
S21401595019F0E9B9F7250020F625002068B519F0F9
S214015960DEF9094B06461B78012B04D819F0DBF942
S2140159700025284668BD054B1D6800F09DFA0544C4
S214015980304619F0D0F9F4E7EC2500203019002054
S21401599038B54160044619F0C2F905462146044867
S2140159A019F0B0F82846BDE8384019F0BCB900BF78
S2140159B028190020054B1B685843054B00F5742039
S2140159C000F23F20B0FBF3F0704700BF2C19002017
S2140159D040420F002DE9FF47EFF3108672B600E054
S2140159E000BF19F045F8002800F09B806C4D6D4F04
S2140159F02B7823B10020FFF7EFFE00232B70FFF773
S214015A0077FE0446002800F09380841EE4B2012C41
S214015A1040F29680FFF76CFE0128804604D9624B5F
S214015A201B780BB919F0BDFE604CDFF8A091207809
S214015A30DFF89CA140450AD0002389F800309AF887
S214015A40003013B94146FFF75DFE84F8008099F8EF
S214015A5000303BB12378022B04D1002389F80030B3
S214015A6023F0CEFDB8F1010F0FD9DFF83C8198F88D
S214015A70003053B94E4B1B7823B900F0B7F9012219
S214015A804C4B1A70012388F80030207800F0FEF99C
S214015A909AF8003013B1484B1B78237000E000BF22
S214015AA006B962B6EFF3108672B6444B1A7852B155
S214015AB000221A70404B20781B78984203D10121AE
S214015AC02170FFF71FFE384600F00EFB18F0DBFFD3
S214015AD0804600288CD1344F89F800003B789BB172
S214015AE0DFF8D0908AF8000099F800301BB100F07A
S214015AF083F989F80080002000F0A0F9002845D03D
S214015B0000F0A6F900233B702B7823B10020FFF7A5
S214015B1063FE00232B7000212078FFF7F3FD00239E
S214015B20237000E000BF06B962B604B0BDE8F08796
S214015B302B78002B3FF46EAFFFF74EFE2C7069E713
S214015B40002003A900F014FB044600287FF462AF8E
S214015B501B4B039A1B689A4205D80120FFF73CFEAF
S214015B6001232B7056E7174BD3F8008000F0A4F9F9
S214015B70039940448842F0D20223091ACDE9004332
S214015B8038462346104A19F013FE43E7012000F079
S214015B907DF906B962B6EFF3108672B6ABE700BFC1
S214015BA0F825002004190020F3250020EC2500200C
S214015BB0F7250020EE250020F9250020F1250020FC
S214015BC02419002030190020B5570100F6250020C1
S214015BD0F225002010B519F0A2F80022044B1C781B
S214015BE01A7019F0A0F800F0E3FB2043C0B210BD14
S214015BF0F025002010B5094B1B786BB1084C2378B3
S214015C0053B100F025F90023064A237013700123CF
S214015C10054A1370054A137010BD00BFEC2500201D
S214015C20F2250020F3250020F0250020F125002094
S214015C3073B5114E04463378834212D000238DF893
S214015C40043080B102238DF8053001A8FDF744FC2D
S214015C500A4D402054B1FFF7ADFE2B68181A286094
S214015C60347002B070BD8DF80500EEE7FFF7A2FEB6
S214015C702B681844F3E700BFBE0C0020381900203B
S214015C8073B5002401A88DF80440FDF7D7FC204623
S214015C904FF40024FFF7CCFF3149324B0A6F02F074
S214015CA007021A60D1F82031D1F8240101F580519C
S214015CB04C664FF400344C6601F598318969032A25
S214015CC000F0070001F0020141D003F003039C1E1F
S214015CD063426341022808BF43F001032248234D73
S214015CE0037061B31E4A3BB9D2F8003103F00303D7
S214015CF0591E4B424B410370D2F8003103F00303A7
S214015D00022B26D0032B27D0012B18D1FCF752FEED
S214015D10A8B1174B411EDC68002302460846194607
S214015D20C4F30B04134E013404EB8404E4FB0601B4
S214015D3018F05AFBFFF73EFE2B68184428606420D3
S214015D40FFF738FE2B681844286002B070BD0123A7
S214015D50C0E7FCF749FEDBE718F0C9FED8E700BF4D
S214015D600080005034190020FC250020381900203E
S214015D7000C0015040420F00074B1A7852B1002272
S214015D801A70064A136F23F0070343F001031367E3
S214015D90FCF7FABD704700BFFA25002000800050CE
S214015DA00E4B10B51B7883B1022019F062FD60B16D
S214015DB000F010FA48B10A4B9A6DD20306D5DB6D96
S214015DC09B0703D50122074B9A6210BD0124064B9F
S214015DD01C70FFF733FB034B9C62F6E7FC250020A3
S214015DE000C0005000D00050FB2500200122014BCE
S214015DF01A707047FA25002038B50C4B1B786BB12A
S214015E000B4C23787BB90B4B0B4D9A6D12F4803FEC
S214015E1005D0DB6D9B0702D50123AB6238BDFFF7CA
S214015E200DFB0123AB6200232370F7E7FC2500205E
S214015E30FB25002000C0005000D00050034B1B780B
S214015E400BB1FFF765BB0120704700BFFC250020A2
S214015E5008B518F078FF094A0949136F096823F055
S214015E6007030B431367074B1B7813B10122064B3D
S214015E709A62BDE80840FCF787BD00BF008000506D
S214015E8034190020FC25002000E0005002280AD02A
S214015E9003280BD001280CD1064A136923F004030A
S214015EA0136130BF70470020FDF722BB0020FDF7CD
S214015EB043BB704700ED00E008B5054B187818B1F4
S214015EC0FFF702FB00EBD000024B1B68184408BD2D
S214015ED0FC250020381900200122014B1A7070475A
S214015EE0FC25002010B519F0B1FC0A4C0A4B1968C4
S214015EF02368C31A01B10BB9206010BD4A699A42E2
S214015F003ABF9B1A0022D21A4A6128BF0023896829
S214015F10F0E700BF3C19002048190020C38870B57F
S214015F2004460D463BB9FFF719FD8542064602D2E7
S214015F3019F02AFC35460F4965610B68ABB90C6050
S214015F40A36011E0AD1A9A68184665612AB1134636
S214015F505A69AA42F6D950B11A4613468460A3601C
S214015F6013B15969491B596170BD0020F0E70C60F7
S214015F70F5E700BF4819002038B5134D2B685B695B
S214015F8093B1124A022014681C4419F066FC20469C
S214015F9000F05CFA00230E492A680B70D08880074F
S214015FA009D501230B7038BD022019F056FC0220DA
S214015FB000F096FAEEE79268002AF4D0506903449E
S214015FC0012BEBD9EFE700BF481900203C19002050
S214015FD0FE25002070B516469DF81420C0E903364C
S214015FE00271049ABDF8183002600022C3808260F4
S214015FF004460D4619F02AFC3044A0613DB9E36819
S214016000656113B120462168984796B1354618F068
S21401601086FE0646FFF766FF29462046FFF77EFF07
S214016020054B1B68A34201D1FFF7A6FF304618F0C7
S2140160307AFE002070BD00BF4819002000220C49DE
S2140160400B687BB183420AD183687AB19360836817
S2140160501BB15A6941690A445A61002070471A46C1
S2140160609B68EEE70028EFD0022070470B60EEE752
S2140160704819002070B518F059FE144E05463478BC
S214016080FCB9134B1C60134B1C60134B1C8000F0B7
S2140160909BF9012019F0E1FB19F0FAFB0F4B0246C0
S2140160A0186020B9284618F047FE232070BD234605
S2140160B040F2E7310A4818F097F90A4B18600123B5
S2140160C03370284618F038FE0020EFE7FD25002043
S2140160D0481900203C1900208A2500204419002078
S2140160E018FCFFFF401900202DE9F0410546F8B1E4
S2140160F018F015FE0F4F0646FFF7F4FE2846D7F8B0
S2140161000080FFF79BFF044628B1304618F00BFECF
S2140161102046BDE8F081A8453B6803D123B1FFF7CF
S2140161202BFFF2E7002BF0D1022000F0C1F9ECE7DB
S2140161302224EDE74819002038B50C46054698B1EB
S21401614091B100230B7018F0F1FD0121074B1B687C
S2140161500BB122781AB118F0EFFD002038BDAB4222
S21401616014BF9B682170F3E72220F7E74819002047
S2140161702DE9F0410746884618F0D8FD0026054669
S214016180124B1C6824B9284618F0D6FD1B2016E0D1
S21401619063691E44E388BB4215D119F057FB0C4CCA
S2140161A02368C01AB0420CD219F050FB2268324460
S2140161B0121A2846C8F8002018F0BEFD0020BDE8D7
S2140161C0F0810022F5E7A468DCE700BF481900204B
S2140161D03C190020014B1878704700BFFE250020AF
S2140161E0014B1868704700BF441900200C4B70B56E
S2140161F01B680D46834211D340F2E73100248C46DA
S2140162002146084B4FF47A721E680023E0FB06C154
S214016210604618F0E9F82860204670BD2120FCE7AA
S21401622040190020441900200F4B10B51A689AB186
S2140162304FF47A71531E1342A0FB01010ED1B2FA3C
S21401624082F2C2F11F04531CD243E04001FA03F369
S214016250184321FA02F20243104610BD002318F03B
S214016260C3F80246F8E700BF44190020C2072DE92B
S214016270F04704460BD54B4A138801339BB2138073
S214016280FFF730FE484B1B680BB1FFF775FEA307FF
S21401629040F1858018F04AFD4FF0000980464D46D2
S2140162A0FFF720FE4F46404E34680CB163698BB150
S2140162B000223E4B012D1A7003D1B9F1020F08BF1F
S2140162C01D70002C5BD0FFF757FE4046BDE8F04737
S2140162D018F032BD23461A792179914288BF1C46AF
S2140162E09B6813B15A69002AF5D0404618F024FD80
S2140162F0D4F81090B9F1000F45D019F0A7FAA269A9
S214016300A0EB02084FEAE873C14577EB03033BDADB
S21401631023691344A36101232269CAB1C3B9A38BBC
S214016320B9EB080833B1E28B13449BB2B3F57A7F1D
S2140163301CD2E38318F0FAFC814641462046FFF75B
S214016340EDFDA369226948461344A36118F0F4FCE5
S214016350E368B4F80690013513B1204621689847E2
S21401636018F0E4FC8046FFF7BDFD9DE7A3F57A73C0
S214016370E383A36918F1FF38013BA361DAE7022042
S21401638000F096F8A1E7C84618F0D0FC82462046F1
S214016390FFF754FE504618F0CFFC0023BCE7BDE8DB
S2140163A0F08700BF8A25002048190020FF2500201D
S2140163B010B518F0BBFC034B1C7818F0BDFC20464A
S2140163C010BD00BFFF2500201FB500241C4B012176
S2140163D018689A880290D3F806009B7A00903E20AF
S2140163E0ADF80C208DF80430FCF74AFD02A88DF8B4
S2140163F008408DF80C40FDF745FA694601208DF8F6
S2140164000040FDF703FA4FF0B04240F2FF319369C6
S21401641023F47F7323F0030393610A4B5961936A54
S21401642013F00803FBD113620120FDF709FA4FF4BC
S2140164308052054BC3F880211A6004B010BD00BF1E
S21401644074A303000020005800E100E010B50446E4
S21401645018F065FC4FF0B042936A1907FCD4136A32
S214016460116C5269520604D4CA1A032A01D89942F9
S2140164700ED1E21A022A98BFDC1CB4F1FF3F38BFE6
S214016480013C4FF0B0431C649A6942F040029A61A5
S21401649018F049FC054A13783BB14FF0B041CB6B7D
S2140164A043F00203CB630023137010BDBF0C002022
S2140164B0820700F001030AD50121084A43F0400390
S2140164C011704FF0B041CA6B22F00302CA634FF05D
S2140164D0B0418A6922EA03038B617047BF0C002032
S2140164E0830742BF4022014B5A6170470010005893
S2140164F010B518F01BFC4FF0B04304465B695A0612
S214016500074A03F0010003F0510348BF40F00200C0
S2140165105361FFF7ABFE2046BDE8104018F00CBCF7
S21401652000200058024A0349034800F03FBD00BF5F
S21401653080A30300D0A30300A8A303000A4619B151
S214016540024B00211B681847704700BFF80A00205D
S2140165500E4B0340B3F1607F06D1B1F5885F14BFDF
S2140165606FF0860000207047B3F1707F0BD101F405
S214016570E043B3F5005F06D111F4E06F0CBF6FF096
S2140165808600002070476FF0860070470000C07FCD
S2140165908A42F8B507460D4600F021819B4822F055
S2140165A0FF01814210D09A4C22F4FF7323F00103BD
S2140165B0A34209D0974B994206D0974922F47F739C
S2140165C023F003038B4223D125F0FF01814210D033
S2140165D08F4825F4FF7323F00103834209D08D4BC6
S2140165E0994206D08C4925F47F7323F003038B422E
S2140165F00ED115F0FF030BD0884943F000738B4290
S21401660006D16A4032F0FF030CBF01200020F8BD1E
S21401661005F0FE43B3F1A06F17D102F0FE43B3F1CC
S214016620A06F40F0DE8082EA050333F47E1340F06B
S214016630D88015F40040EAD0C5F30540C2F3054200
S21401664090428CBF00200120E1E7B3F1407F40F08B
S214016650B38002F0FE43B3F1407F40F0C28082EA8D
S214016660050333F47E1640F0BC8039462846FFF712
S2140166706FFF002840F0B580694C12F47C1C04EAD8
S214016680020438D0B4F1607FC2F3054C7AD1654973
S214016690D3B243F000738B4278D003F17E410439C4
S2140166A0012975D960498B4276D001318B4275D06C
S2140166B001318B4274D001318B426BD001318B4258
S2140166C06AD001318B4269D003318B4264D00131EB
S2140166D08B4263D001318B4262D001318B4208BFBD
S2140166E0402615F47C1FC5F305435BD1664514BFF0
S2140166F0002001208BE7B4F1607F2BD14949D3B24A
S21401670043F000738B426ED003F17E4104390129B8
S2140167106CD945498B426FD001318B426FD0013124
S2140167208B426FD001318B4263D001318B4263D0F3
S21401673001318B4263D003318B425DD001318B42F4
S2140167405DD001318B425DD001318B4208BF4FF0E5
S214016750400C9CE7B4F1707FC3D107F4E043B3F576
S214016760005F05D14FF0010CC7F302230CFA03FCBE
S21401677007F4E043B3F5005FB3D10126C7F3022364
S2140167809E40AEE7B4F1707FABD1F1E71026A8E7E3
S2140167901426A6E74026A4E71C26A2E72026A0E7A3
S2140167A030269EE712F47C1F01D1B34217D02A048B
S2140167B07FF52DAF634544E7B3F1106F11D125F096
S2140167C01F6323F4702363B902F0FE43B3F1106F25
S2140167D007D11648104040F01060A84287E7012014
S2140167E015E7002013E74FF0100C50E74FF0140C9C
S2140167F04DE74FF0400C4AE74FF01C0C47E74FF0CF
S214016800200C44E74FF0300C41E700BF00130006B0
S214016810000200060009000600040006FF00000250
S2140168200000C07F03000002080000020000FFF61F
S2140168302DE9F843884617461C4600F0CBFA054674
S214016840002859D1D8F80060B6F8009009F4E04362
S214016850B3F5804FF36808BF27F0010737EA030353
S21401686042D1002C48D02F4A24F0FF03934211D086
S2140168702D4924F4FF7222F001028A420AD02B4AE3
S214016880934207D024F47F7222F0030201F50071CF
S2140168908A4234D114F0FF0231D022498B4211D002
S2140168A0214824F4FF7121F0010181420AD01F49D9
S2140168B08B4207D024F47F7323F00303A1F5A06174
S2140168C08B4204D142F00073194A93421ED02246ED
S2140168D048463169FFF75CFE074668B922464846D6
S2140168E07169FFF755FED0B96FF084050023304675
S2140168F0C8F8003019F068FE2846BDE8F88304F0B1
S214016900FE43B3F1407F04D12304E0D56FF0860542
S214016910ECE7B3F1A06FF7D0054B9C42D6E73D46B6
S214016920EAE700BF001300060002000600090006A1
S214016930FF00000200F0FE43B3F1407F70B505464C
S2140169400E4602D06FF0860070BDFFF701FE0028EC
S214016950FAD115F47C1F05D0C5F30543032B13703C
S2140169600DD86BE04D4B2B40B3F1607F69D14C499C
S214016970EBB243F000738B4231D110231370474CB6
S2140169802C40B4F1607F6AD14549EAB242F0007208
S2140169908A4279D002F17E410439012976D94149EA
S2140169A08A4275D001318A4274D001318A4273D04D
S2140169B001318A4211D001318A4269D001318A42BD
S2140169C068D003318A4263D001318A4262D00131F4
S2140169D08A4261D001318A42B4D140214DE003F1AF
S2140169E07E410439012901D81423C7E72D498B427A
S2140169F001D11C23C2E72C498B4201D12023BDE7DC
S214016A002A498B4201D13023B8E729498B4201D16B
S214016A104023B3E727498B42EBD001318B42EDD0BF
S214016A2003318B42E5D001318B42E7D001318B42F5
S214016A30E9D001318B42EBD0002313706FF0850053
S214016A4082E7B3F1707FF7D101F4E043B3F5005F5D
S214016A50F2D10123C1F302218B40DBB27EE7B4F110
S214016A60707F7FF46FAF06F4E042B2F5005F7FF40B
S214016A7069AF0121C6F3022291408B423FF662AF15
S214016A80202B7FF661AFD9E71021F6E71421F4E752
S214016A901C21F2E72021F0E73021EEE70000C07F5D
S214016AA00300000208000002090000020A000002BA
S214016AB00B0000020C00000237B50C4D0C462B787B
S214016AC0DB070FD500230A460193014601AB281DBB
S214016AD018F013FE20B9019BA34218BF6FF0930074
S214016AE003B030BD6FF08800FAE700BF4C190020F4
S214016AF02DE9F04F00240E4697B00546DDE920B893
S214016B009146214624220DA89A46229F089423F0F6
S214016B103DF906F0FE43B3F1806F74D12846334643
S214016B204FF4807208A9FFF783FE054600283FD17F
S214016B30DDF820C00DAC65460FCD0FC495E8070003
S214016B40BCF8003084E8070003F4E042B2F5005FC9
S214016B501BD113F4E06FC3F3022116D02F4826F49D
S214016B60807282420AD000F50070864206D02C4818
S214016B70864203D0A0F53F40824206D101248C40D4
S214016B80102C0DD96FF0830512E042F204029342F5
S214016B9002D1244B9E421ED0234B9E421DD10D2472
S214016BA0A04533D3214609A8FFF786FF0546A8B1BD
S214016BB0089819F009FD064665BB50BB24B122466C
S214016BC0584609A923F0BBF83B6823443B6030468E
S214016BD017B0BDE8F08F0C24E2E70024A8EB04030D
S214016BE005930BEB0403CDE903A3CDE9014908990D
S214016BF009AB009306973346D1E908120DA819F0A0
S214016C0046FC0546D4E76FF08605D1E76FF08905A7
S214016C10CEE7054600232E463B60D8E70010C004A9
S214016C2000FF4004000180040013C00408B500F012
S214016C3075F8084B0C211A78064812F0060F1CBF8F
S214016C400022C3E90122FFF779FCBDE8084019F0EC
S214016C5054BB00BF4C19002038B50F4D2B7813F0EC
S214016C60010213D1C5E90122022262F342032B700D
S214016C7000F048F8044658B919F03DFB044638B907
S214016C802B7843F001032B70204638BD0024FBE728
S214016C90FFF7CCFFF8E700BF4C19002000F10042D7
S214016CA00332022A38B504460D460ED82821144B65
S214016CB001FB02339A6882421CD1DA69511C1CD04E
S214016CC000200132DA612B6038BD012119F06CFC1D
S214016CD068B10B4B9A689442EFD01A6B944204D079
S214016CE09A6D944206D15033E7E72833E5E76FF013
S214016CF08700E9E76FF08B00E6E76FF09600E3E7C1
S214016D0058190020044A002092F8783043F0010315
S214016D1082F87830704700BF5819002038B5012531
S214016D200A4C2046E56118F084FF04F128006564EA
S214016D3018F07FFF04F15000E56618F07AFF94F82A
S214016D4078306FF3000384F8783038BD5819002086
S214016D50F8B51E4C064694F878300F46D8072ED55F
S214016D6000252346294618881A46A8B12DB91A794E
S214016D701AB1DA69002A08BF1D460131032903F159
S214016D802803F0D115B96FF08C001AE001232846CC
S214016D90EB6118F04EFF2A46D369591C02D16FF0F9
S214016DA096000EE000200133D361141B084BE4105B
S214016DB05C4304F10044033C34603A60F8BD6FF074
S214016DC0880000233B603360F8E700BF58190020B5
S214016DD0CDCCCCCC0023F0B50B60244B074693F802
S214016DE078300D46DC0785B03CD5FFF757FF10F12C
S214016DF08C0F044625D1294601A8FFF7A9FF0446B2
S214016E00F8B901232E68CDE90200B76030467360F9
S214016E1003AA02A919F06EFC044628B9DDE902129C
S214016E20304618F0B6FE0446DDE9020119F058FCBA
S214016E3054B1286818F0FDFE14F18C0F08BF6FF0EE
S214016E408704204605B0F0BD2B68DA68D00444BF3D
S214016E5042F48062DA60DA689104F2D542F40062A4
S214016E60DA60EEE76FF08804EBE700BF5819002000
S214016E7030B4224D2C681C606C685C6000241C7267
S214016E805C729C72DC725468250A1C735D73250C57
S214016E90240E9D73DC7314881C74240A5C74548855
S214016EA09C74240ADC74D468250A1C755D75250C4F
S214016EB0240E9D75DC751469250A1C765D76250CF5
S214016EC0240E9D76DC765269140A1A775C77140CC8
S214016ED0120EDA770A0A83F821200A0C83F8222098
S214016EE00A0E9C7783F8201083F8232030BC0A46CC
S214016EF0014603F1240022F022BF00BF1AA40300BA
S214016F002DE9F843232904460F4691469846089EE4
S214016F1004D86FF098052846BDE8F8830822194979
S214016F2022F0FDFE05460028F3D1A368002BF0D120
S214016F30216A243FB942C8F80010EAD8B1F5005FCB
S214016F40E7D271B9C9F80000E3687360238A338019
S214016F50638A73806369F360A3693361E36973616C
S214016F60D9E7012018F0CFFCC9F8000030B1D8F8F5
S214016F70002004F1240122F0E2FEE5E76FF08C0523
S214016F80C9E700BF1AA40300431C07B5014606D093
S214016F900023044ACDE90033034818F009FC03B086
S214016FA05DF804FB43080300E81A002070B50E469E
S214016FB01546044618B308F009FF10B3236813F406
S214016FC0807F18BF0122104B18BF1A700F4A1B781A
S214016FD014600F4A16600F4A15601BB91EF03CFE7E
S214016FE008F0DEFE06F04AFE08F04EFA0A4B0B48A1
S214016FF0197808F057FABDE870401EF012BE21203D
S21401700070BD40F20440FBE7012600200C1B002067
S214017010101B0020081B00203D27002095DC0100E6
S2140170202DE9F04188B006F0FDFD724B724D1A78DD
S2140170301120724906F02EFC2B6851215A68542300
S214017040B2FBF3F2002392B2184606F0B9FB20B168
S2140170500446204608B0BDE8F08106F075FC684B92
S2140170601968684B186810F039F900F0CFF9002854
S214017070EED12B681C7F002C3AD0102C28BF102490
S2140170801DF055F8621C81B200230820D2B206F02A
S21401709097FB0028DCD114205B4A5C4906F0C6FA4F
S2140170A00028D5D106F02AF90221322006AA00F0DE
S2140170B0EBF928B94FF0FF30BDF8181022F06CF943
S2140170C004AC224606212C2000F0DEF90646B8B9AB
S2140170D020461EF04DFC68B130280BD001213C2023
S2140170E00DF10F0200F0D0F9074660B1012713E059
S2140170F00424C5E73C2000F0E7F92C2000F0E4F971
S2140171000026374608E09DF80F60012E67D194E807
S21401711003000690ADF81C102B68186918B11EF014
S2140171205AFB002894D12B68586900F0FDF82B68AB
S21401713093F82220D20754D418F086FB002F8046FD
S214017140024614BF21460021286819F07EFB00285C
S2140171507FF47EAF11F0BCFB18F0BAFB04460028A2
S2140171607FF477AF012007F003FA294B18681DF06A
S2140171709BFB044600287FF46CAF1FF055F90446CC
S21401718009F076FD019006F03FFE01990246204681
S2140171901BF037FF044600287FF45BAF2B681B68A3
S2140171A09B050CD4B8F5FA7F09D917F0B8FD012173
S2140171B007460846FEF75AFB384617F0B4FD2B681B
S2140171C09A69144B1A6019F082FB134B186016B1BA
S2140171D006A807F08BFA114806F022FA39E70646A8
S2140171E084E793F823001EF038FD0028A4D040F26F
S2140171F00C442EE73D2700200C1B002095DC0100E7
S214017200D80A0020D40A0020D3080300CF080300C0
S214017210101B0020141B0020E41A0020896F0100B7
S214017220024B5878C0F3C000704700BFFC0A00202C
S214017230034B5B7813F0060F14BF01200020704744
S214017240FC0A00200022032101481CF019BF00BFE0
S214017250E020002038B5FFF7E3FF10B9FFF7E8FF9D
S214017260C0B119F034FB0C4C0C4D206020681EF0A8
S21401727018FBFFF7DDFF10B128461DF00DF808F0EA
S214017280EDF918B906F08CF80028EFD1BDE83840C2
S2140172901EF0C9BC38BD00BFE41A0020040B002054
S2140172A008B5054B1B782BB919F0B1FAB0FA80F086
S2140172B0400908BD0020FCE700260020012310B588
S2140172C0044C2370044B1B6803B1984700232370BA
S2140172D010BD00BF00260020141B00204FF0805276
S2140172E0014B5A60704700BF00ED00E00023044ADE
S2140172F052E8000F42E800310029F9D103F058BCEA
S214017300181B0020064A52E8003F034342E80031BA
S2140173100029F8D1034B1B6803B11847704700BF1B
S214017320181B00201C1B0020034B044A002818BF12
S21401733003461360704700BFDD7201001C1B00206E
S21401734037B51C68E10705D51EF09EFA16491748A1
S2140173501CF09EFEA20723D507F0CAFDD0B9144D36
S214017360019017F0E3FC044628461CF0B3FF019099
S214017370204617F0E1FC019890B143799B070CD4A5
S21401738001A802211DF0C7F9019807F0A1FD1EF022
S2140173902AFAE6E71EF027FADEE707F08DFDF6E7A4
S2140173A0002003B030BD00BF0C0B0020E020002001
S2140173B0201B002008B5054805F0C2FF044B01213B
S2140173C01870BDE8084005F0CDBF00BF1C0B0020BB
S2140173D00226002038B5044648B117F0A7FC05463A
S2140173E0214608481DF039F9284617F0A5FC064B3A
S2140173F0022193F9000005F0B5FFBDE83840FFF71C
S2140174005DBF00BF201B0020022600200C4B9842C7
S2140174100BD8023B98420ED860B1023B98420CD082
S214017420C0F30C0000F590607047064B9842F7D108
S21401743040F21C4070472120704740F21B407047C5
S2140174400AE000F00BE000F037B50D4DCDE9002164
S2140174500C490446096828680FF040FFFFF7D6FF7D
S21401746058B9DDE90023286844F4802110F00CF8AF
S21401747003B0BDE83040FFF7C9BF03B030BD00BF61
S214017480D40A0020D80A002037B50D4DCDE90021D9
S2140174900C490446096828680FF020FFFFF7B6FF7D
S2140174A058B9DDE90023286844F4802110F036F845
S2140174B003B0BDE83040FFF7A9BF03B030BD00BF41
S2140174C0D40A0020D80A002038B50A4B0A4D0446D3
S2140174D0196828680FF002FFFFF798FF40B928687F
S2140174E044F4802110F002F9BDE83840FFF78EBF62
S2140174F038BD00BFD80A0020D40A00202DE9F04389
S214017500134B0E461968134B05468DB0186817467F
S2140175100FF0E4FE80B933460A222846009702A9F6
S21401752021F0C0FC4FF0000804460DF1080944455F
S21401753005D1002CEFD120460DB0BDE8F0832846DA
S21401754059F8041B10F0D2F808F10108EFE700BF64
S214017550D80A0020D40A0020F8B50C4B0C4F06467A
S2140175600C46386819680FF0B9FEFFF74FFF05465D
S21401757048B9E24316FA82F2386842F4802246F4A9
S2140175808021FFF7BBFF2846F8BD00BFD80A0020C0
S214017590D40A00207FB505460C46194913460868EB
S2140175A0496802AA03C295F82A2010326A4412F8E2
S2140175B0086CB5F84420D20608D42246314628463F
S2140175C019F0B5FC00F5FA7004B070BD20460193C1
S2140175D01CF0E4FFB5F8442000F10A0412F0030F92
S2140175E0019B4FEAC40405D018461CF0D7FF04F5EA
S2140175F00C740444E823701E584304FB0600E1E7BC
S21401760022A40300014B9868704700BF241B00208A
S214017610F0B5104B02461E6893F804C035464FF08D
S214017620FF3400239C4508DC91B1631C10D09023E5
S21401763003FB046080F84620F0BD95F846702846A6
S2140176409742F9D0FF2F08BF1C4690350133E9E772
S2140176500020F1E7241B002070B50446204D0028C9
S2140176603CD0083002F06AFF0026FF2304F1300008
S21401767084F84630E6611CF00FFE04F134001CF07D
S2140176800BFE04F138001CF007FE04F13C001CF070
S21401769003FE2868134B201A00115843C0B202F0AB
S2140176A0C1FD014630461AF02EFD206C10B101F0E6
S2140176B065FF2664606E18B11EF048FB0023636602
S2140176C0A06E19F019F970BD286806FB0400FFF7D3
S2140176D0C3FF01342B79A342F6DCF4E79026F9E7E1
S2140176E0241B0020398EE338F7B504461CF02FFC26
S2140176F0C0F30F23542B3ED9AA2B34BF01230223F8
S214017700C0B27F2834BF0122022203218DF8043043
S2140177101344B3FBF1F000EB40001B1A8DF8053063
S2140177201344B3FBF1F202EB42029B1A8DF80630CA
S214017730002318461D461A46104901AF4B7517F827
S214017740016B44FA06FC1CF0010F06D053009E4064
S214017750012330430132C0B2D2B20135EDB2032D5E
S214017760EDD103B148754B7D43EA8212FF234A757A
S2140177700B7503B0F0BD0023C2E700BF241B002039
S21401778038B5294904460B7D4A7D0133DBB2B3EB9C
S214017790921F0B7503D3032300200B7538BD016AB6
S2140177A0090335D5032390F87E20243A92FBF3F3A0
S2140177B003EB4303D21A2532D2B2B4F8441094F83C
S2140177C07F3011F01001B4F95E0084F87E2003F0DA
S2140177D00F0323D119F04BFE05F0F2FCB4F9782023
S2140177E004F17005824204D0A4F8780005F034FB59
S2140177F06881284604F07CFF00221146104605F0F9
S2140178007FFA94F87E00002119F030FE0120C5E7CA
S2140178105B001A4102F003022532CEE70246194602
S214017820002005F025FCD7E7241B002038B5436966
S214017830044623F010034361B0F860302BB9836827
S21401784013F4601F08BFA0F86030236A13F0100518
S21401785018D003F00303144A002B08BF0025134B6E
S2140178601CBF012513462046E361FFF789FF58B187
S2140178706800617E04F0E6FF0D4B9868BDE838406D
S21401788004F06EBF094BEEE70A4B617E1A6820468C
S214017890D37A92780B449342D8BFDAB2627601214A
S2140178A0BDE8384019F06AB8430E0300350E0300F0
S2140178B0241B0020601D00202DE9F0410025314EDB
S2140178C088B03379AB4203DC012008B0BDE8F08113
S2140178D09023346803FB054494F84630FF2B0DD003
S2140178E0236A980106D504F1500840461CF04EFE66
S2140178F0074628B9226A12F0A06F13D10135E0E7D6
S214017900BB7994F846100C333B441A8AD868ADF814
S2140179101C209A7A069006AB3846C2F380121AF0FB
S21401792048FDE2E7B4F844301D2B1BD13C23FF2170
S2140179300020CDE90431CDE902000121CDE90000A6
S21401794004F15703C2F300221BF083F80028BCD0D1
S214017950203454E8003F23F0A06344E80032002AB4
S214017960F7D1CBE712F0807F18BF43214FF000021A
S21401797008BF3C2194F8293094F846001AF01DFF00
S214017980E4E700BF241B0020F8B51F46C369044680
S2140179900D46164693B1002940F0828017F0C6F9CD
S2140179A006462946A06E18F0A2FF2046294618F082
S2140179B0CDFF304617F0C0F92846F8BD0029FBD0A8
S2140179C0036A03F01203022B6CD0236AD80770D423
S2140179D094F84630FE2B0AD104F1470003F0D8F89C
S2140179E003F0CEF818B1236A43F480632362236A56
S2140179F003F4C062B2F5007F7DD0D90663D5404B53
S214017A00E361002384F82930236AE168B4F8605002
S214017A1023F4004284F82870226221613DB913F0F4
S214017A20100F14BF3C25C825257605F2B3154EB1B7
S214017A3040F27121E38C42F40042C3EB06134B4340
S214017A402262E362236A43F4802323622D4B1B6880
S214017A50DB78637617F06AF96369074643F010032B
S214017A6004F10800294663611AF09BFB012004F02B
S214017A70B9FA28B963691A075CBF43F00403636166
S214017A8026B11CF09DFAE36A1844E062204604F031
S214017A90B3FA384617F050F90121A06E18F027FF07
S214017AA0002589E7406B1CF079FD00288DD10C2557
S214017AB082E7236C002B8BD101F010FD2064002897
S214017AC086D1092578E72046D4E90C12FFF762FD36
S214017AD0012F0ED040F27123A28C5A43904208D94E
S214017AE0E28C5A43904208D800F51C70B0FBF3F0C4
S214017AF0A084054B84E712255EE745255CE700BFB9
S214017B00350E0300601D00201710030070B5002419
S214017B109026094D2B79A34200DC70BD286806FB30
S214017B20040090F84630FF2B04D000231A4619466D
S214017B30FFF72AFF0134EDE7241B002006222DE97A
S214017B40F0412A4B07469C688846A5790C35635D4B
S214017B50661903F04F036355B0F844307270103B5A
S214017B600D2B20D8DFE803F03F1F3B071F0C1F1F1C
S214017B701F1F1F1F1F0C635D6FF30303635512E086
S214017B800122635D62F3030363550C237370D0F81F
S214017B905730B360B0F85B30B381036A625D1B0A8D
S214017BA063F3C712625503F0CDF8430444BF635D27
S214017BB0B7F84420314644BF62F34513635538464F
S214017BC0B21C19F0E4FBA379717802330B44B8F1C7
S214017BD0000FE371A4BF41447170BDE8F081635D9D
S214017BE062F30303CAE70222635DF9E7241B002060
S214017BF02DE9F843354B8C79D3F808900C340C44B6
S214017C0099F8067022790C37D507064609EB070363
S214017C102AD594F80B80B8F1250F25D8056A991C4A
S214017C2015F0100F08BF0231062204F1120022F0EF
S214017C3076F8C8B919F80730A07AC3F38013B3EB06
S214017C40D01F11D115F4405512D14FF44055A77AE3
S214017C5007F00F03032B16D1E80405D5326A910706
S214017C6002D5B8F10C0F2FD04FF0FF30BDE8F883E6
S214017C7004F10C01C0F380101DF0FDFF0028E4D1D3
S214017C8085F44055E3E7052BEED1AA04ECD5356A19
S214017C9005F01403142B0DD1062206F1570104F149
S214017CA00C0022F03CF82B0A83EA971303F0010339
S214017CB00343D9D1EB07D7D504F1180019F03EF8E4
S214017CC00028D1D00520D1E71846CFE7241B002095
S214017CD02DE9F04F91F806B00E460BF10C0B01EBB7
S214017CE00B05A97A05F10C08044687B04046C1F396
S214017CF0801101F083FC30B1304605F065FE0020AE
S214017D0007B0BDE8F08FD4F84090206495F807A03E
S214017D1029895046276A56F80BB004F0C9FC07F0CB
S214017D20100758448FBBAAF1030ABAF1010F8CBFA2
S214017D300422062240F2712B184B0BFB02021B6831
S214017D4094F846E05B796376A97A05F11803C1F3E6
S214017D50801CE7B10120C1F3401195F90550CDE92A
S214017D6002E1CDE9040501214846CDE9008C01F088
S214017D707BFC2FB104F066FE0121204618F0E6FDDB
S214017D80304605F021FE0120BAE70222D2E794F838
S214017D908F00012100F00F00DFE700BF601D00200B
S214017DA000232DE9F3414FF0FF31044601A801936A
S214017DB004F04CFB019949B12046FFF719FF03284F
S214017DC006D005283FD001A81CF066FA012033E052
S214017DD0236A1B0533D5019904F150001CF03DFCC4
S214017DE04FF00071204618F0A7FD617E00201B4E63
S214017DF004F07CFD606BB7681CF0D0FB0546BB79D0
S214017E0020460C33FA5C07EB030802F0400242F00E
S214017E100402FA54414608F1020219F0B8FAB068B1
S214017E20636B002DA4BF063588F80150036004F08B
S214017E3097FC00200A4BE36102B0BDE8F08101A87F
S214017E401CF02AFAD1E7019804F0B6FB2046019906
S214017E50FFF73EFF80F00100C0B2EDE7241B0020D3
S214017E60757F01002DE9F84306460C46062876D8AC
S214017E70DFE800F00458607575706000084618F079
S214017E80A8FF40F27121E38CA28C9A1AE36803F5ED
S214017E909C53083301FB02332361236A13F0100558
S214017EA003D013F0030518BF012594F82A00FFF745
S214017EB01BFC2046FFF764FC2A4A2B4B206B002D47
S214017EC008BF1346E3611CF069FBDFF8A480014696
S214017ED02046FFF733FED8F80830226B67681A6031
S214017EE0636903F010091CF06BF8627EB9F1000FAC
S214017EF003D13F1AB7F59B7F0CD5002D11460CBF59
S214017F003046022004F09EFCD8F80800BDE8F8438D
S214017F1004F026BC002D0CBF30460220616804F038
S214017F20B3FCF1E704F0CAF9844218D1BDE8F8437E
S214017F3004F088BD0D4B20461A68637ED17AD2784C
S214017F405B1A9342A8BFDAB262760021BDE8F84315
S214017F5018F014BD0846BDE8F843FFF767BCBDE856
S214017F60F88300BF350E0300430E0300601D00209A
S214017F70241B0020032810B50C460FD1086B1CF0FB
S214017F800DFB01462046FFF7D9FD064B226B9B6889
S214017F902046BDE810401A60FFF748BCBDE8104017
S214017FA0FFF760BF241B00202DE9F0474D4D044626
S214017FB0A86818B105F008FD0023AB6018F05DFF56
S214017FC02B791BBB002002F0F3F81CBB0026032014
S214017FD02C712E60EE8205F041FCB4422BDC287930
S214017FE002F0E6F8E0B9BDE8F08708FB06F7286876
S214017FF00136384430301CF04FF9286838443430A4
S2140180001CF04AF92B79B342EFDCDBE700264FF090
S2140180109008F7E702201CF072F9A8600028D5D175
S2140180200024A8682C712C60002857D1002002F08B
S214018030BFF80720D7E704EBC40109013346012244
S214018040032089B205F0BCFB07460028E8D10320CF
S21401805005F034FC28600028E2D0902239466243BD
S21401806021F094FEDFF880A0DFF88080DFF88090B2
S2140180702B79BB42B3DD902300262C68314603FBE7
S2140180800744C4E90366DAF80030E6616661DB7826
S21401809004F1080063761AF084F81323A4F8443038
S2140180A0236A204643F0130323624FF008236362DA
S2140180B0072384F82A30FF23C4E90C66C4E90E6658
S2140180C0C4E91C98C4E92098A4F86060268584F861
S2140180D04630266518F014FC0137C9E705F074FC34
S2140180E0AC60A3E7241B0020601D002055555500F9
S2140180F0D6BE898E034B1B68C01A034B001158432A
S214018100C0B27047241B0020398EE33870B505468F
S2140181100C4CB0F85460237DE16806F5FA7606FB50
S2140181201311A06800F05AFB217D6B68002006FB46
S21401813001316A7E04F0A8FBA068BDE8704004F037
S2140181400FBB00BF241B002070B5002490260C4DE9
S2140181502B79A34200DC70BD2B6806FB043393F831
S2140181604620FF2A03D0986E18B118F0C6FB0134DA
S214018170EEE7586E0028FAD01DF0ADFDF7E700BF18
S214018180241B00202DE9F84F16469B4688460446D8
S214018190FFF738FA0546304698F800701CF0FEF9ED
S2140181A0DFF858A10021BAF91060801B20EAE076BA
S2140181B0384600F0F3FA7B0748BF07303318FF2B29
S2140181C0C4BF47F01007C0F1FC0617F010090CD029
S2140181D01BF0BDFE2521B0FBF1F303FB11010020CE
S2140181E0C9B200F0DDFB84F88E00BBF1000F01D0B0
S2140181F094F844B000235A463946284618F077FFCB
S2140182002146284619F0DFF82146284618F09EFF39
S2140182102046FFF76FFF02F005F80146284618F0E2
S214018220B8FF2146284619F00FF8B9F1000F56D0CD
S21401823094F88F2094F88E1002F00F02284600F072
S21401824083FA2146284619F00FF8B0B1636895F80D
S21401825006C0DAF80C10EA791944A06E0CF10C038A
S2140182602B44A2EB0C0253FA82F200283ED018F0FF
S2140182703FFBC1B228461BF0E7FFB9F1000F39D02A
S214018280B4F98810284618F0F2FF2046FFF732FFAF
S21401829001F0C8FF0146284618F0BDFF21462846D2
S2140182A018F0E2FF20B1A06E10B1294618F022FBAB
S2140182B03146284618F0EFFFB9F1000F0AD094F8BE
S2140182C08F00FF2100F00F0019F059F801462846EB
S2140182D000F084FA304688F80070BDE8F88F94F80C
S2140182E07F2094F87E1002F00F02A7E7606E07F079
S2140182F0F1FDBEE7B4F97810C4E700BF241B0020E7
S2140183002DE9F7431D4690F88F3004468DF8071087
S21401831003F00F030021164690F88E20B0F95E0098
S21401832019F0A5F804F04CFFB4F9882004F1800791
S214018330824204D0A4F8880004F08EFD7881384685
S21401834004F0D6F900221146104604F0D9FC9DF837
S21401835007305B0709D52046FFF7CCFE01F062FF28
S21401836000210246042004F0CBFCFFF74BF99DF8F0
S2140183700730074623F010038DF8073032462046B3
S2140183809DF828300DF10701FFF7FCFEDFF85C8051
S2140183908146A8F81200C5B10220114BE36163685B
S2140183A0D8F80C10627E194404F06EFA4B4631463A
S2140183B03846B8F9102004F0FFF9002194F88E0031
S2140183C019F054F803B0BDE8F0839DF80730054A6C
S2140183D013F0100F044B08BF13462846E361DEE78F
S2140183E02510030005100300C5850100241B00208D
S2140183F073B5044690F85650406E05F0EF0548BB3D
S214018400A06E002830D1204645F00806FFF772FE20
S21401841001F008FF48B1C3799B0606D5636E23B900
S214018420838845F00C060133838000220121114B1D
S21401843020461A82236A226B13F0020F18BF00220D
S21401844013F0030318BF0B4600913146FFF758FFA0
S21401845002B070BD1DF099FC0028D1D0236A9A079E
S214018460D1D145F02005CEE718F03FFA0028F5D126
S214018470C9E700BF241B0020436910B523F0100391
S2140184804361B0F8603004462BB9836813F4601F6B
S21401849008BFA0F86030124B2046E361FFF770F981
S2140184A020B12046BDE81040FFF730BE2046216BC4
S2140184B018F0F6FC20B12046BDE81040FFF798BF43
S2140184C0084B617E1A682046D37A92780B44934211
S2140184D0D8BFDAB262760121BDE8104018F04EBA74
S2140184E017100300601D002037B5044618F071FC14
S2140184F028B12046216B18F0F5FC84F85600174D7C
S21401850094F82A00FFF7F0F8B4F854306A7D03F5C2
S214018510FA7392095343204603F59673EB60FFF70F
S2140185202FF90F4B94F85610E3616369204643F028
S2140185300103636118F0ECFC0DF107018DF80700EB
S214018540012300222046FFF71DFE0022AB682046CD
S2140185501A60FFF7DBFD03B030BD00BF241B00200F
S2140185601710030010B50C46062827D8DFE800F0E0
S21401857004091126262111000846BDE81040FFF720
S214018580B3BF03F09BFE844218D1BDE8104004F04F
S21401859059BA0B4B20461A68637ED17AD2785B1A99
S2140185A09342A8BFDAB262760021BDE8104018F007
S2140185B0E5B90846BDE81040FFF75EBF10BD00BF35
S2140185C0601D0020032837B50C4622D1134D91F8C3
S2140185D08F002B8A6A8AFF21134400F00F002B823A
S2140185E018F0CDFEEB6894F856101844B4F84430F1
S2140185F0E86013F0020F4FF00003D4E90C2000935B
S21401860018BF024601F048012046FFF779FE03B085
S21401861030BD03B0BDE83040FFF7A4BF241B0020E7
S214018620F7B500264FF0FF31044601A8019603F086
S2140186300DFF019949B12046FFF7DAFA032806D063
S214018640052856D001A81BF027FE01204AE0FEF7B8
S214018650D9FF09230546626B8DF803300DF103013E
S21401866001232046FFF78EFD0746A8790544AB7B1C
S214018670304666F38713AB732F4D617E04F036F9EF
S2140186803B46616BA86832466F822E8204F094F8EE
S2140186909DF80330294A13F0100F294B08BF1346E3
S2140186A00198E36103F088FF019A93790C33D0189F
S2140186B00189C079D75803F0FBFF6368C3F19603BD
S2140186C03B441844E860206A10F400650CD0019918
S2140186D004F150001BF0C1FF20464FF0007118F066
S2140186E02BF9304603B0F0BD01A81BF0D5FD284696
S2140186F0F8E7019D134BAA7930460C321544617E8A
S214018700E36104F0F3F80C4FA97A05F10C02CB09EA
S214018710B868C1F3801118F06FFEB868066004F0FF
S2140187201FF8019803F048FF20460199FFF7D0FA99
S21401873080F00100C0B2D5E7241B0020051003001D
S214018740C58501008B0E030030B50D4685B010219E
S214018750044618F0BFFCE0B10F4B18681B79029075
S2140187608DF80C300023ADF8043065F305038DF861
S214018770043053180DEB03024FF0000312F8082CD7
S214018780204662F3471301A903228DF806301BF039
S21401879066FD05B030BD00BF32A4030003460E4A95
S2140187A082B01068009090889279ADF804008DF838
S2140187B006202BB900290CBF0120022002B0704709
S2140187C06A460220D90748BF117802F1010248BF64
S2140187D040185B08F6D1F1E72AA4030038B583797F
S2140187E00C460C33C518C35C03F00F03072B25D1C9
S2140187F0AB789A0622D0E878C3061FD5012100F08F
S2140188000F00FFF7CBFF0E4B02359C4295BF1E2192
S2140188104FF49671B4FBF1F4B4FBF1F494BF00216C
S21401882001212B5C2A1861F3C7132B5493785470DB
S21401883023F01F03C4F304241C43947038BD00BF07
S214018840C3BF0300F8B51646BDF818205B080282C0
S2140188500022438002704270D1F801300446436022
S2140188604B79079D03F01F0303729DF8207004F0F7
S21401887051F8237A43EA40103346207253F8042B0A
S214018880C4F80920B288A4F80D209B78E3731FBBB7
S214018890124B9D421FD8124B9D420CD96378B5F5F9
S2140188A0161F43F02003637021BFDBB243F0400381
S2140188B0A5F516156370637813F0200F0CBF1E2202
S2140188C04FF49672B5FBF2F523F01F032570C5F33E
S2140188D004251D436570F8BD024BDAE7D47E2500FA
S2140188E0C3BF0300D4FE4A00054BD3F80120026043
S2140188F05A79027118788842B4BF00200120704767
S21401890003260020254BF0B5002918BF0B46116839
S2140189100125C3F8011011798BB059710021197026
S214018920C1F3C404165D01F0070405FA04F42642F7
S214018930CFB207D01C7804F128066E44013406F83D
S214018940287C1C7001312529EAD11C7830B12246D9
S2140189506946981D21F0F3F90BB0F0BD002CFBD051
S21401896001260633C0F3C405575D00F0070506FA75
S21401897005F5C1B22F4201BFB1FBF4F504FB151199
S2140189800AAD55FA81F108BF11F8281C01302528D7
S214018990197003F10103E5D1DEE700BF03260020CD
S2140189A0034B002818BF034619448879704700BF57
S2140189B003260020214B10B5002814BF84469C4690
S2140189C04FF0010E82EA124290B2414091FAA1F1B3
S2140189D009BA8BB203EB031303449BB293FAA3F3D6
S2140189E01BBA9BB203EB031303449BB293FAA3F3A4
S2140189F01BBA9BB203EB031303444340104C9BB2D8
S214018A00A4FB03241A1B04EB5204620902EBC20402
S214018A1002EB84029A1AC2F3C4016144D0B24978C7
S214018A2002F007020EFA02F2114201BF9CF80000A2
S214018A3043430CEB134C9CF8060010BD03260020A4
S214018A404D91CFBA30B5184B826A1B6812065D7914
S214018A5001D4457630BD018F1C79436B0903B1FB08
S214018A60F3F1B0F8A020631BB1FBF3F102B1013AB8
S214018A70D0F8A43003B152101302B3FBF1F35B1923
S214018A800DD090F8992012F0F00F08D01209B3EB30
S214018A90820FB8BF00234FEA8201A8BF5B1AA34228
S214018AA0A8BF23464376D5E7601D002008B50420FD
S214018AB002F0EEF880B1094A937F6BB1D37F0133A0
S214018AC0DBB2D37792F821209A4205D1BDE808405F
S214018AD04FF08060FEF716BC08BD00BF3C1B0020AF
S214018AE00123074A03FA00F002F1140353E8003F9A
S214018AF0034302F1140C4CE800310029F4D170470D
S214018B003C1B0020F8B5214F05467B690C4613F443
S214018B10C07F04D0990636D401242046F8BD39B169
S214018B205A0705D4D5F8A83013B90820FFF7D8FF9F
S214018B307B699B0601D50024EFE77B7FAE6A022B9B
S214018B4006F0080602D9DEB1002CE5D095F896109D
S214018B5095F83701063100F00F0003F0A9FD85B244
S214018B600EB904B16D0003F033FAA842D4DB7B6979
S214018B7013F01C0FDFD1002ECFD084F00104CCE718
S214018B80002CE3D0C8E7002CCAD1D4E73C1B002058
S214018B9070B50446343015460E461AF056FA40F2C1
S214018BA07122636802FB0633A3EB1021A36A61609E
S214018BB01B0749BF0649554301FB0500656F53BFB7
S214018BC001EB550105EB40006067616070BD00BFB9
S214018BD08038010013B5019016F0A8F804460199F3
S214018BE0064818F06DFC4FF48070FEF78BFB2046AC
S214018BF002B0BDE8104016F09FB800BF601B002011
S214018C00084B9A7E82420AD94FF4A4721B6802FB73
S214018C100030836A13F0100F08BF00207047002051
S214018C20704700BF3C1B002008490A68821A0848A2
S214018C30D310002A03FB00F005DB8B7E8342D8BFEE
S214018C404FF0FF3070474FF0FF3070473C1B00205D
S214018C50199C8FC137B50446019116F067F8019942
S214018C60054604F1300018F02BFC2046FFF7DCFF28
S214018C7001218140064818F023FC4FF48070FEF76E
S214018C8041FB284603B0BDE8304016F055B800BF9A
S214018C90601B0020002337B50193836A04465805FC
S214018CA014D5D4F8A43004F1A80001931BF012FBEC
S214018CB0C4F8A40050B194F846314FF48061013BEA
S214018CC084F8463104F1280018F002FCD4F8A450C8
S214018CD00DB9374B9D6894F94631012B0ADCD4F85F
S214018CE0AC303BB1A36AD90504D44FF48051204679
S214018CF0FFF7B0FFD4F8A810A36A002914BF01211A
S214018D000021AA794FEA830302F10C0203F00C0357
S214018D1043EA0113A95C21F01C0143EA0103AB54A9
S214018D200DD1234A02F1140353E8003F23F0080350
S214018D3002F1140040E800310029F3D102E00320DB
S214018D40FFF7CEFE284603F00BFD019BFBB15B79D6
S214018D5003F00A03082B17D1B4F8983004205A1CE4
S214018D6062F30B03A4F8983001F092FF60B1104A49
S214018D70937F0133DBB2937792F820209A4203D196
S214018D804FF08060FEF7BEFA01A81BF085FA6B79FA
S214018D909A070BD5A36A1B0408D50820FFF7A0FE87
S214018DA04FF4004104F1280018F092FB03B030BDE7
S214018DB03C1B0020064B5A69510608D5826A1207E9
S214018DC005D51B69143B43604FF420534367704736
S214018DD03C1B0020F8B5594E0446338D0F4623B987
S214018DE0836813F4601F08BF3385002F33D0258FA7
S214018DF0636B2D01B5FBF3F503F024FE2046FFF768
S214018E00D9FF618FB4F8A020ABB25B1A9A421BDC83
S214018E10736994F836019B074CBF0021022118F0B4
S214018E2025FB40F202237269934314D1A4F8A050A3
S214018E303D462046FFF706FE27B1A36A190701D56E
S214018E40628FB2B9012331E0737F002BE9D0032191
S214018E5094F83601E3E7B4F8A05045B9A36A13F0D5
S214018E60800F14BF08233E2384F87330E1E7012501
S214018E70DFE713F4C05FE5D1736913F00C0FE1D19E
S214018E8040F2022232EA0303DCD1D4F8A830002BE8
S214018E90D8D1A18F1AF071FA031E42DD628F01321A
S214018EA093423EDC012BCDD0013B9BB2A4F880302F
S214018EB0236B5A0409D54FF4804104F1300018F0B1
S214018EC007FB00212046FFF7C5FEB4F88020A38FDC
S214018ED094F86C101344A387B4F8A0309B1AA4F836
S214018EE0A03094F86B3002FB01332522B3FBF2F17C
S214018EF002FB113384F86B303DB1204619F0B1F80E
S214018F002046A18F1AF0D0F80546A36A1B0702D4A3
S214018F100B4B1B6898473DB12046BDE8F84018F05A
S214018F2082BB638F0133C0E720460221FFF792FE22
S214018F302046BDE8F840012103F0ACB83C1B0020F8
S214018F40741B002000232DE9F04387B0044603215B
S214018F5004A8049303F07AFA049E36B90121204648
S214018F60FFF738FF07B0BDE8F083B379754F0C33D0
S214018F701E4435797B6915F0010852D113F01005AE
S214018F8004D00720FFF7ACFD002502E00420FFF720
S214018F90A7FD01212046FFF7B5FD064658B97B69B6
S214018FA0617E13F4807F0CBF0220002003F09EFC3C
S214018FB02046FFF76FFE049803F0FEFADDF81080F6
S214018FC07A6998F80630510603F10C0308EB030999
S214018FD010D458F8033006203B61FFF781FDA36AE1
S214018FE01A0607D404F12800802118F069FA012036
S214018FF0FFF776FD99F80430DB0740F186802046BE
S21401900099F9051018F0B5FA204699F8071018F0E6
S2140190108AFA002D4BD1002E6FD104A81BF03CF923
S214019020A0E723F0100301207B61FFF759FDB37A17
S214019030D8062CD50220FFF753FDA36AB27A83F037
S2140190400203C2F38002C3F340039A422CD14FF4C9
S214019050006104F1280018F03BFA4FF4806118F023
S2140190602FFAA36A83F00203A36200237B77B57A03
S214019070A36AC5F3C00103F00102914284D183F0D3
S214019080010315F0030518BF0125A36281E707F167
S214019090140353E8003F23F0040307F1140141E8E9
S2140190A00032002AF3D1C8E77B7F0133DEE7204692
S2140190B0FFF7BAFDC0B201F091F803902046FFF722
S2140190C0B3FDA38F82B20093022000230399CDF84B
S2140190D0048001F0CBF84FF0FF3104A803F0B6F995
S2140190E0049B9A7905930C321344DA7A82B905A85F
S2140190F01BF0D2F8002E3FF435AF01212046FFF7D2
S21401910069FE002D7FF42EAF87E7002D83D0E2E7BE
S2140191109B7A03F00303032B0AD1012104F12C00EF
S21401912018F0CEF94FF4006104F1280018F0C8F9E0
S214019130059905488C601BF090FA4FF00050FEF739
S214019140E1F8D7E73C1B0020481B002038B5044651
S214019150114D4FF480616B69283043F400736B61E5
S21401916018F0B6F9012104F12C0018F0B1F900212C
S2140191702046FFF7C7FC28B12046BDE8384001214C
S214019180FFF728BE6869617E80F48070C0F3002016
S214019190BDE8384003F0CEBA3C1B00200022184B35
S2140191A013B504465A7720225A61A36A818F9B041D
S2140191B000F140001ED5D4F82821FFF7FBFB84F808
S2140191C03601204618F095FA04F5947003F090FAEB
S2140191D02046FFF729FDC4B2204600F0FFFF0190AC
S2140191E0204601F007F801990246022003F088FDA7
S2140191F002B010BD94F86B10FFF7D2FBDFE700BF9B
S2140192003C1B002010B50C46062837D8DFE800F0D6
S21401921004194326213D370091F8993008466FF32B
S214019220071381F89930FFF7B9FF2046FFF732FDA3
S214019230627E6168022003F027FBBDE81040FFF75D
S21401924035BC03F03BF8844218D1BDE8104003F06A
S214019250F9BB0846BDE81040FFF774BE0846FFF7A5
S21401926075FF124A02F1140353E8003F23F020036E
S21401927002F1140040E800310029F3D110BD4FF48B
S214019280806104F1280018F023F901212046BDE889
S2140192901040FFF79FBD91F89930C3F303120132D6
S2140192A062F3071381F899300021EFE73C1B002099
S2140192B010B50C46062832D8DFE800F004193D3216
S2140192C02137370091F8993008466FF3071381F874
S2140192D09930FFF763FF6168626F637E112001EBCF
S2140192E0122203F053FBBDE81040FFF7DFBB02F08C
S2140192F0E5FF844213D1BDE8104003F0A3BB084646
S214019300FFF720FE114A02F1140353E8003F23F051
S214019310200302F1140040E800310029F3D110BD0A
S2140193200846BDE81040FFF711BF01212046BDE801
S2140193301040FFF74FBD91F89930C3F30312013285
S21401934062F3071381F899300021EFE73C1B0020F8
S21401935010B501F0FDFCFB2210F0020F0CBF01213D
S2140193600321104B1A771A7E61F303021A7642071D
S21401937042BF1A7E42F007021A761A7EC2F3030132
S21401938061F307121A764FF4417100221984DA76D6
S214019390DA835A621A611A85034BBDE810401B68CE
S2140193A0184700BF3C1B00206C1B00202DE9F8432A
S2140193B0434C0546A06818B104F006FB0023A360E1
S2140193C0022004F04BFAEFB2002000F0D9FE384636
S2140193D018F0A6F80646002861D1002D58D005EBF6
S2140193E0850105EBC101C90003460122022089B2AD
S2140193F004F0E6F9002860D14FF4A4790220A7769C
S21401940004F05CFA09FB05F831464246206020F07C
S214019410BDFC32462368681E03EB090182422FDB3E
S214019420002DA8F5A4724FF00001D8BF0022995074
S2140194306360284600F0A4FE88BB384618F06CF836
S214019440074660BB002D16DD02201AF058FF0223E6
S214019450A060C37183793946C3F102020C33D2B2DC
S214019460184420F093FC0121A3689A7913441A7BCF
S21401947061F301021A73FFF76BFF3046BDE8F8830C
S21401948009FB02FC013243F80C1001F5A471C5E793
S2140194902A460023C4E90033A376002AC9D0002057
S2140194A018F03EF80020C4E90000A07600F068FE3F
S2140194B0022004F0D3F90726DFE741F20702E8E7C6
S2140194C03C1B0020014B987E704700BF3C1B0020D0
S2140194D0014BD87E704700BF3C1B002070B5244D61
S2140194E015F024FC6C6824B123686B60EB7E0133B5
S2140194F0EB7615F021FCCCB34FF4A476002132466E
S214019500204620F043FC1B4BA4F88A60C4F88C303C
S21401951003F1CE5303F59813C4F8903041F61B338C
S2140195200126A4F894301B23402184F8963004F1D8
S2140195302800666117F0C4FF2B8B0021A4F8443184
S21401954094F8373104F1080066F3030384F83731E1
S214019550094BE3672B7F84F8423144F29023A4F849
S2140195604031072384F8893018F01BFE204670BD71
S2140195703C1B0020480148010000FFFF38B50446A7
S2140195804021283017F0A4FF204619F057FF04F1B8
S214019590A8001AF081FE04F1AC001AF07DFE04F179
S2140195A0080000F0CBFF04F1A4001AF075FE114B81
S2140195B020461B68984715F0B9FB0F4B5A68226086
S2140195C0DA7E5C60013ADA7615F0B6FB00232046B7
S2140195D0C4E90A33FFF728FBC4B2204600F0FEFDBB
S2140195E00546204600F006FE0146284618F08BFD8B
S2140195F038BD00BF681B00203C1B00202DE9F04150
S21401960006464FF480400F4601F042FB044630B94F
S2140196100E4B1D6893F81A806D35A04502D80020C0
S214019620BDE8F08155F8453CDA0609D5C3F3800359
S214019630BB4205D106222946304620F070FB18B100
S214019640013405F5A475E8E70B20E9E73C1B00208B
S214019650014B1877704700BF3C1B0020014B187F59
S214019660704700BF3C1B00202DE9F74F1D461646EC
S2140196709DF83820044680F89F202A469DF83C70C5
S2140196808A4652F8101B9DF83430C0F8281100F1B4
S2140196904001381E18BF01200193DDF830909DF877
S2140196A040809DF944B0FFF72DF9204619F023FDBF
S2140196B017F0E2FE41460246204617F038FF47F60D
S2140196C0FF72A4F83021AA88019BA4F82C21AA795C
S2140196D084F82E21D9F80020C4F86D20B9F80420AA
S2140196E004F12809A4F871201BB10421484617F09B
S2140196F0E7FE27B14FF40051484617F0E1FE4FF45C
S214019700607001F0C5FA10F0800718BF4027C30546
S21401971048BF47F08007810548BF47F4807715F0BA
S21401972005FB4FF482610190484617F0C9FE3946A1
S21401973004F12C0017F0C4FE019B184615F0FCFA44
S214019740AAF10203012B00F28E804FF40021484655
S21401975017F0B6FE01212046FFF77CFA04212046C9
S21401976019F0D0FC6B7D2046C3F3040384F86C30FB
S2140197706A8952006263697B2A7B42EA0122628718
S214019780E97BAA7B42EA012222876A7D84F86B3054
S214019790C2F3421284F83E2000220523A28701224A
S2140197A0A4F8A030A4F88020594617F0E2FE01F094
S2140197B0C9FA20F40060C4E908012046FFF742F91F
S2140197C042482AF00203078D2FB9002B40F2C71733
S2140197D018BF4FF4D77740F2712A298949000AFB4E
S2140197E001626260002B45D1394B0261E361EB797E
S2140197F05B000AFB03F302EB5302B4F87C306260B1
S2140198000AFB03F3B3F5487FB8BF4FF44873B8F1CA
S214019810010FE3600AD094F83731204668F303035A
S21401982084F8373108F00F0117F0D7FF04F108006C
S214019830394618F0B6FC012002F0D4FB28B963695A
S2140198401A075CBF43F00403636140F271216B8920
S2140198502046013B594317F044FE204603B0BDE8BD
S214019860F04F02F0C9BBBAF1010F40F2014118BF37
S214019870012170E704F1340B0231584619F0E5FB7B
S214019880636800F5A056A3EB16236360114B40F600
S21401989008014846E36117F013FEE8790E4B4000D5
S2140198A003FB006676005846616B666719F0CDFBD0
S2140198B0B4F87C30A0670AFB03FA636F1B0ABAF59B
S2140198C0487FACBF534403F54873A0E73C1B002018
S2140198D005920100B19201008038010070B51D4665
S2140198E0C36A04461B07164611D408212C3017F00C
S2140198F0E7FD25F48265064BED043340ED0C20466A
S214019900C4E90835BDE870404021FFF7A3B970BD32
S2140199102FCF87F72DE9F04F85B004460191084611
S214019920002935D04B79990720D41AF037FE78B93B
S214019930019B5B79DA0705D54FF4803104F12800E5
S21401994017F0BEFD01A81AF0A7FC05B0BDE8F08F20
S214019950A36ADB030AD54FF4803104F1280017F01F
S214019960B7FD019A537943F001035371019D15F038
S214019970DDF96B7906469F072BD543F001036B7122
S214019980D4F8AC302B60C4F8AC50304615F0D4F99E
S214019990DFF8809115F0CAF994F946310746022B93
S2140199A013DCD4F8AC3083B15979A26A8D0702F47E
S2140199B0807214D5002A77D09A7913441B7B1E2B0C
S2140199C003D829FA03F3D8076ED4384615F0B4F94C
S2140199D0BBE7294604F1AC001AF03FFED5E7002AA2
S2140199E0F3D194F89680039204F1AC0BD4F8AC60F2
S2140199F096F807A0B379AAEB030A5FFA8AFAC2457A
S214019A005FDC58461AF0C2FD0546A8EB0A086B79DA
S214019A1029466FF3C3036B7103A81AF01EFED4F830
S214019A20AC302BB15B79990702D1B8F1000FDDDCC0
S214019A30039B9B79022B12D800201AF060FC0028A9
S214019A4044D0039B4279597961F3000242715A79F5
S214019A5001466FF300025A7103A81AF04DFEE36A3D
S214019A609A0511D50398034600680028FBD1DB79D7
S214019A70C3F14503DBB2032B06D81AF040FC0146BE
S214019A8020B303A81AF0E9FDD4F8AC3013B15B7922
S214019A90DB0704D5039A537943F00803537138461C
S214019AA015F04AF9039908E004F1AC001AF06EFDCE
S214019AB00090384615F040F90099204618F054F801
S214019AC068E700201AF01BFC054628B9039904F143
S214019AD0AC001AF016FE78E78079B1790C300C31BB
S214019AE042463144284420F02AF9EB7953FA88F3A8
S214019AF0EB71B379727953FA88F3B3716B794FF0DE
S214019B00000862F300036B7173796FF300037371DE
S214019B107DE700BF7C2C020070B5036B0446DE07B0
S214019B2086B034D5866A300724D516F4002F14BFC4
S214019B30032501252046FFF777F894F89F3029463C
S214019B4005930023049394F83E30C6F380020393F2
S214019B50238F80B20293638F0193636BC3F34F032A
S214019B60009304F16D0318F074FF38B900252846F8
S214019B7006B070BDB50C05F00205DBE7012104F166
S214019B80300017F0A5FC4FF4005117F099FC236B39
S214019B90990410D52046FFF747F8A16AC0B2C1F371
S214019BA0403118F01FFC0028E0D04FF4005104F1BA
S214019BB0300017F08DFC236BDA0409D5002120460E
S214019BC0FFF7A8FE4FF4805104F1300017F080FC37
S214019BD0236B5B0511D52046FFF726F80023C2B29A
S214019BE0194694F89F0018F0E8FD0028BED04FF4FF
S214019BF0806104F1300017F06BFC236B5E0711D512
S214019C002046FFF711F8616B238F628FC1F34F0176
S214019C1080B218F0FEFE0028A8D0042104F130001E
S214019C2017F056FC236B1D0709D5204619F0CDFE0B
S214019C3000289BD0082104F1300017F049FC236B63
S214019C40D80618D52046FEF7EFFFE16A80B211F478
S214019C50805100F0CF80002118F074FF002885D0D5
S214019C604FF4805104F12C0017F032FC102104F15E
S214019C70300017F02DFC236B590615D52046FEF74C
S214019C80D3FF94F8733080B20093D4E9082318F018
S214019C9039FF00283FF46AAF0023402184F873306F
S214019CA004F1300017F014FC236B1A0516D5204674
S214019CB0FEF7BAFF0023B4F89A20009394F89E109A
S214019CC0B4F89C3080B218F040FB00283FF44EAF49
S214019CD04FF4006104F1300017F0FAFB236B13F424
S214019CE0804532D19B0516D52046FEF79DFF94F898
S214019CF0371194F8732001F00F0180B200F0C6FE10
S214019D0000283FF433AF4FF4007184F8735004F128
S214019D10300017F0DDFB236B1E0616D52046FEF736
S214019D2083FFB4F89030B4F88E20009394F8941022
S214019D3094F8953080B218F037FF00283FF416AF3C
S214019D40802104F1300017F0C3FB236B9D0612D56A
S214019D502046FEF769FF94F8731080B218F009FFE9
S214019D6000283FF403AF0023202184F8733004F168
S214019D70300017F0ADFB236BD80508D504F1300091
S214019D804FF4807117F0A4FB204619F072FB236B89
S214019D90190408D504F130004FF4004117F098FB80
S214019DA0204617F016FD236BDA0308D504F13000C0
S214019DB04FF4803117F08CFB204617F0B3FB236B72
S214019DC09B071AD52046FEF72FFF94F8731080B232
S214019DD018F085FF054600283FF4C8AE022104F1BD
S214019DE0300017F075FB2046FFF7C8FB044B1B68D5
S214019DF09847BCE618F0BDFE30E70125B7E600BF80
S214019E006C1B0020F8B50023114A02F1240151E829
S214019E10005F41E80034002CF7D101272DB9B4B119
S214019E202046BDE8F840FEF7D5BE95FAA5F0B0FA93
S214019E3080F007FA00F625EA0605FEF7E1FE00289F
S214019E40ECD0FFF769FE0028E8D13443E6E7F8BD19
S214019E503C1B00202DE9F74F04460190002860D0F6
S214019E60C5794FF000080C35054414F05FFF4646EF
S214019E70814640462C4FBA7E5FFA88FA524519D978
S214019E804FF4A47303FB0AFB3A685A44916ACB0663
S214019E9044D5B2F89820C2F30B02002A3ED0E279EC
S214019EA0C2F14502D2B2032A15D802201AF027FAC7
S214019EB0044640B900234846FB8314F03DFF304674
S214019EC003B0BDE8F08F014601A81AF0C6FB0020DA
S214019ED0E5790C35254404220123002112FB0033C9
S214019EE005F820A0E9543B6802FB005C5B44B3F82C
S214019EF0983001368CF80230032312FB0032A95445
S214019F003B6801305B44B3F89820C0B261F30B02A2
S214019F10A3F89820E379F6B20433E37108F1010857
S214019F20A9E70646CBE700BF3C1B0020F7B517F0B4
S214019F30A3FA002814BF0F2102216846FEF7D4FCBD
S214019F4010BB03B0F0BD346807FB0544A36A03F0F9
S214019F501803102B13D10522694604F141001FF0A6
S214019F60DEFE60B10121204619F0A4FA38B90120BD
S214019F701AF0C5F9014610B1204601F09BFA0135E9
S214019F80B37EAB42DFDCDCE700254FF4A477014E5D
S214019F90F6E700BF3C1B00202DE9F74F14F0C6FE84
S214019FA0434BDA6800920022DA6014F0C5FE009B8B
S214019FB013B903B0BDE8F08F68461AF08BF98379C0
S214019FC0856803F10C040444A27A0A3312F0200FC8
S214019FD00CBF0222032213448371EB6A01465A0521
S214019FE0019013D5A37AE27A284643EA022217F0B3
S214019FF0ACFF58B901A81AF04FF928463D2100F0E8
S21401A000B7FF3D21284617F07BFED0E7AE6AA37A5C
S21401A01016F40076019903F0030213D0032AE9D15E
S21401A0208B790B441B7B1E2BE4D8224A22FA03F3BE
S21401A030DB07DFD54B79284643F002034B7100F06E
S21401A04073FFB4E7032AF5D04A79084666F341025E
S21401A0504A7103F0030894F806A094F905B01AF0C3
S21401A0609DFA019E0746B4792846063CE4B2B471CF
S21401A070FEF7DAFD0C34C0F3032306EB040943EACA
S21401A080081389F803303346FFB289F80200A9F8AD
S21401A090047006F804B089F801A05A796FF34102FA
S21401A0A05A711B68002BF8D1304618F0B2F97EE7DA
S21401A0B03C1B00207C2C0200F8B504460026084F05
S21401A0C00CB90748F8BDA179E579B8196D1AEDB252
S21401A0D00C3121442A461FF032FE2E442468EFE755
S21401A0E07C1B0020F8B504460026084F04B9F8BDCD
S21401A0F0A079E579B9192D1AEDB20C3020442A461B
S21401A1001FF01DFE2E442468F0E700BF7C1B0020D4
S21401A110074B084A1A60084B084A1A60084B094A56
S21401A1201A60094B094A1A60094B0A4A1A607047B5
S21401A130701B0020B71F0300781B0020B11F03000F
S21401A140741B0020B31F0300681B0020B51F03000B
S21401A1506C1B0020F11F0300084A08B5D36B990752
S21401A1600AD443F00203D36301F036FA18F025FE51
S21401A17000F0FAF802F08CFD002008BD8C1C0020CF
S21401A18038B50A4D0446E86818B103F0A3FD00236C
S21401A190EB600CB9002038BD142060431AF0ABFB0D
S21401A1A0E8600028F6D11920F5E700BF8C1C0020D6
S21401A1B038B5094D0446286918B103F08BFD002314
S21401A1C02B610CB9002038BDE0001AF094FB286121
S21401A1D00028F7D11920F6E78C1C0020044BDA681A
S21401A1E01AB100EB800302EB83021046704700BFF2
S21401A1F08C1C0020044A0346D06820B103EB83037D
S21401A20000EB83000C3070478C1C0020044B5A690D
S21401A2101AB100EB400302EB83021046704700BF01
S21401A2208C1C0020034A0346106908B100EBC300EA
S21401A230704700BF8C1C002038B514F077FD002352
S21401A240094CA56BA36314F077FDEA0701D500F06E
S21401A250A5FBAB0707D594F84210B4F84000BDE85B
S21401A260384018F0AEBE38BD8C1C00202DE9F74FE3
S21401A27099460D9B0E469D7980460C351D4405F189
S21401A2800A0117F00AFF93460746002868D02EB940
S21401A2904FF0010A504603B0BDE8F08FB37AC3F31E
S21401A2A0001ADB06F4D5012002F09AFD80B1B8F160
S21401A2B0020FEDD12B4B9A6BA3F840B042F002028D
S21401A2C083F842009A634FF40000FDF71BF8E1E7BC
S21401A2D0244CB8F1040F84F858803ED184F84AB073
S21401A2E0D9F800300D98C4F84B30B9F804300CA9F1
S21401A2F0A4F84F3017F00EF83B7884F85630AB7957
S21401A30084F8523002F0A0FD84F8540002F08EFD6D
S21401A310BDF83030E065A4F84830EB7902AA84F83D
S21401A32057306B79666484F85530B37AC3F3030308
S21401A3308DF8043001238DF8053002238DF80630A0
S21401A34094F8563002EB931313F8043C84F8533018
S21401A350A36B43F00103A363B5E7A4F84AB0CBE7C8
S21401A360824697E78C1C00200022014B1A6070473A
S21401A370EC1C0020284B2DE9F0411C6805460E46D2
S21401A38003464FF0AA08013BDBB2FF2B23D144BBA7
S21401A390022019F0B4FF0446D0B121461E481AF037
S21401A3A05CF9E91C2046C9B219F04EFF2B46AA22D9
S21401A3B0A0790C302044013BDBB2FF2B22D10123D4
S21401A3C00270437085702A46314603301FF0B7FC91
S21401A3D02046BDE8F081F25C82EA48085FFA88F818
S21401A3E0D1E7A3790C33E718E35C434508D1BB7882
S21401A3F0AB4205D12A463146F81C1FF090FC30B11D
S21401A4002468C4E7F15C81EA4202D2B2D3E77B78E2
S21401A41001337B70DCE700BFEC1C002098B1827929
S21401A4200C3202445378013BDBB253705BB9064AE7
S21401A43013681BB1984203D10368136003F0C4BAD2
S21401A4401A461B68F5E77047EC1C0020104B1A787B
S21401A45042F0F0021A701A7C42F0F0021A7493F875
S21401A460202042F0F00283F8202093F8302042F0BA
S21401A470F00283F8302093F8402042F0F00283F88F
S21401A480402093F8502042F0F00283F850207047A5
S21401A490F01C00200368054A23F07F6323F40023A1
S21401A4A002EAC1410B430360704700BF0000F80F8A
S21401A4B070B54688054606F00702072A16461D4C63
S21401A4C015D114F033FC00231A01A25C9EB21209C6
S21401A4D00F2A04EB031125D00133062BF4D1164ABB
S21401A4E013880133138014F027FC192019E0120198
S21401A4F0A35CC3F30311013101F00F01042994BFDA
S21401A50061F307136FF30713A35419F059FD04EB16
S21401A5100614E06000202B6823F4E02343EA064695
S21401A5202E6070BD2B684B8011230B7014F004FC59
S21401A530EBE700BFF01C00208C25002038B54488CE
S21401A540054604F00704072C0FD014F0EFFB074A6A
S21401A5502401135D43F0F00313552B6843F4E02305
S21401A5602B60BDE8384014F0E7BB38BDF01C002076
S21401A5702DE9F0474488074604F00705072D89466C
S21401A58037D01D4C4FEA051814F8086019F018FD6D
S21401A59004EB051ADAF80C30360906EBC506C01AC4
S21401A5A004EB4606708014F8083003F00F02042A04
S21401A5B09EBF013262F3030304F80830B9F1030FBA
S21401A5C014D114F8081004EB0514A01C01F00F01B7
S21401A5D019F04BFC044614F0A9FB3A68074B1340EC
S21401A5E023433B60BDE8F04714F0A6BB4FF6FF746B
S21401A5F0F1E7BDE8F08700BFF01C00200000FF7FF8
S21401A600064A08B59268824207D0427922F00302D0
S21401A61042F003024271FCF7DDFE08BD501D00202A
S21401A62010B5064C204619F037FE201D19F034FEF1
S21401A63004F10800BDE8104019F02EBE501D0020A0
S21401A64010B5022019F05BFE034C6060022019F081
S21401A65056FEA06010BD00BF501D002008B5FFF7D4
S21401A660DFFF0022024BDA60BDE80840FFF7E8BFD3
S21401A670501D0020014B5868704700BF501D002038
S21401A680014B9868704700BF501D002038B50C4C30
S21401A690E3681BB1E36898470023E36023686BB166
S21401A6A0074819F017FE054640B123681BB14FF065
S21401A6B00040FCF727FE284618F02AFB38BD00BFED
S21401A6C0501D002010B5084CE0604FF00040FCF72C
S21401A6D019FE00BF00BF00BF00BFE3681BB1E368FF
S21401A6E098470023E36010BD501D002038B58379DC
S21401A6F0044603445B7B13F0300F437923F00303D6
S21401A70008BF43F00103437114F010FB05462146D0
S21401A710054819F0A2FF4FF00040FCF7F3FD28466C
S21401A720BDE8384014F008BB501D002008B5074BA3
S21401A7300022986841F20901062317F03AFDC37911
S21401A74006331844BDE8084000F0F2B9501D002059
S21401A7502DE9F041164E7468A3790C331C44B4F805
S21401A76003801FFA88F0FEF74BFA0746E8B1A27994
S21401A770617916F0D8FF0546B06802232A4642F2F0
S21401A7807A0117F016FD83790344A3F81280FFF7C8
S21401A79037FF45B9A37933B1384617F09FF901461B
S21401A7A0384616F0C7FEBDE8F0810225E4E700BF93
S21401A7B0501D002020F00403202B0AD01D289FBF27
S21401A7C0054B23FA00F0C04300F0010088BF0120CA
S21401A7D070470020704700BF66002D202DE9F34129
S21401A7E0804601200F46164619F089FD0446019061
S21401A7F0D0B34279EE2142F001024271132217F0E2
S21401A800EBFC01981B4C837994F84A200C330344E3
S21401A810DA70D4F84B2039465A60B4F84F201A81C2
S21401A82094F857209A7294F85220DA72002294F91A
S21401A83055509A7394F8562005EB8505C2F381129C
S21401A8406D00DA739D8194F8532083F811801A7491
S21401A850B4F848201E755A82324618F078FA044633
S21401A86030B901A819F018FD204602B0BDE8F08104
S21401A870019CF9E78C1C00202DE9F341804601205C
S21401A8800F46164619F03BFD0446019090B34279F7
S21401A890152142F0010242710D2217F09DFC01982C
S21401A8A0174C8379B4F84A200C330344A3F80320E9
S21401A8B094F8522039465A71002294F955501A726A
S21401A8C094F8562005EB8505C2F381126D005A7285
S21401A8D0DD8094F8532083F80B809A72B4F84820F0
S21401A8E09E739A81324618F032FA044630B901A8AE
S21401A8F019F0D2FC204602B0BDE8F081019CF9E7D0
S21401A9008C1C00202DE9F341804601200F46164697
S21401A91019F0F5FC04460190B8B34279162142F0CD
S21401A920010242710E2217F057FC01981A4C8379E6
S21401A930B4F84A200C330344A3F8032094F85720B4
S21401A94039465A7194F852209A71002294F955505A
S21401A9505A7294F8562005EB8505C2F381126D00F4
S21401A9609A72A3F8075094F8532083F80C80DA7291
S21401A970B4F84820DE73A3F80D20324618F0E7F944
S21401A980044630B901A819F087FC204602B0BDE89C
S21401A990F081019CF9E700BF8C1C00202DE9F043F3
S21401A9A0374D85B095F85830013BDBB2032B4CD8B8
S21401A9B0344A402052F82370002395F854800393BC
S21401A9C0D5F85C9000F064F995F856300646DB0041
S21401A9D000B34A46414603F0F80005F087FD2A4ECB
S21401A9E095F856306421DB003046CDE9008995F8AC
S21401A9F0532003F0F80305F039FD044640B3024640
S21401AA003146FE20B847014620B303A8A04419F0FA
S21401AA1024FEE5E76421CDE9008995F853201A481C
S21401AA2003F0F80305F0E8FB0446002002F0D8F92D
S21401AA30FF2E17D0144922460020B847014688B198
S21401AA4003A819F00AFE039B33B905B0BDE8F083ED
S21401AA500646EAE7FF26E8E703A819F03BFCFFF7FE
S21401AA60CFFDF0E703A819F017FC95F85830022B34
S21401AA70EBD10721B5F84A0018F0A3FAE5E700BFC5
S21401AA808C1C002038A403002E260020F8B50746AB
S21401AA9001200D46164619F032FC0446C0B10622C6
S21401AAA00C2117F099FB691EC9B2032988BF002241
S21401AAB0A37998BF074A03F10C0398BF525C23445D
S21401AAC020469F80DE70DA719A71FFF799FD0120AA
S21401AAD0F8BD00BF48A40300F8B5FFF7CBFD8379A6
S21401AAE01844B0F80F60B0B2FEF78AF80446C0B159
S21401AAF016F0F4FF0138C0B2032814D800270B4B18
S21401AB001C5CFFF7BDFD054604233A4642F23001C0
S21401AB1017F04FFBA8790C302844C68004724472A3
S21401AB20F8BD0227EDE700242746EAE748A403001C
S21401AB30024B1A6802609B8883807047F7260020C4
S21401AB400D4B82B028B102681A6082889A8002B0E2
S21401AB5070470A4A916CD26CCDE900129DF802202A
S21401AB60BDF800109A70BDF805201980A3F80320DF
S21401AB709DF807205A71EAE7F72600200080E00FCB
S21401AB80024B1878003818BF01207047F6260020BF
S21401AB90024B1A6802609B8883807047FD2600205E
S21401ABA0024BD86808B1FCF7ADBB7047080F002010
S21401ABB0002310B5314A02F10C0151E8004F8C46D2
S21401ABC04CE800310029F6D10443A30201D501F077
S21401ABD07DFA200101D501F053FF002C01DAFFF7C1
S21401ABE055FD610001D505F031FDA20001D5FFF745
S21401ABF0D3F9E30007D5FCF75FFE20B94FF080518B
S21401AC001F4818F0F6F9600107D517F033F820B998
S21401AC104FF080611A4818F0ECF9A10105D516F03D
S21401AC2024FCFFF783F915F066FEE20108D501F072
S21401AC3085F8072804D14FF08071114818F0D9F92A
S21401AC40630201D5FDF780FA200201D5FFF7F4FA79
S21401AC50E10501D5FFF7D6F8A20507D500F004F9FE
S21401AC6020B94FF40071064818F0C3F9630503D5FF
S21401AC7017F09DFA17F09CFA10BD00BF080F0020D0
S21401AC80140F00200146014818F0B3B9080F002040
S21401AC90014B1B6818407047080F002010B5044B85
S21401ACA0D3E9044220431143C3E9040110BD00BFA8
S21401ACB0080F0020F8B51E4F05463B680024002B00
S21401ACC002DAFFF7CBFC30E01A4E4CF20C00002102
S21401ACD0FFF7E4FF346025B16B683B60AB6803B1F6
S21401ACE033604FF00040FFF7CDFF33680BB9124BCE
S21401ACF03360124B1248BB6002F074FFFFF7A6FBED
S21401AD002846F7F71DFA044678B92DB1B5F90E10A5
S21401AD10B5F90C0002F03CFA16F0B2FB05F094F817
S21401AD2002F0A2FA04460028CBD02046F8BD00BFA8
S21401AD30080F0020601D0020C00C0020A1AB010000
S21401AD400C0F0020014BD3E904017047080F0020C7
S21401AD50054B1B69DA054CBF032001201B0548BFC4
S21401AD6040F00400704700BF080F002038B50546C4
S21401AD700C4601F0CFFD0B4AAB7A52F8200052F890
S21401AD802330094A0344A3FB0401084B090241EAA4
S21401AD9010610002C01841F10001002313F024FBEA
S21401ADA038BD00BF80A4030040420F003F420F00A1
S21401ADB0024B1A6802601860704700BF641D0020CD
S21401ADC00022024B1A6000F0F5B900BF641D002096
S21401ADD02DE9F047064616F0C9FB044608B90120DE
S21401ADE03AE045784DB913F0A1FF237863701D4B07
S21401ADF01B682570636013F09FFF0127DFF86480EE
S21401AE0094F80190B9F1000F07D12378002BE6D012
S21401AE104FF40070FCF776FAE1E799FAA9F5B5FA6E
S21401AE2085F507FA05F55FFA85FA636833B929EA05
S21401AE3005056570D8F800306360E1E79B681BB9CB
S21401AE4063681B686360F0E75146304698470128FF
S21401AE5004D163681B686360BDE8F0870228EFD100
S21401AE600020F9E7641D002070B500250D4EFEF7A1
S21401AE7029FBA84201D8012012E03068FDF7C0FE88
S21401AE8050B93468FEF71EFB0134B4FBF0F303FB44
S21401AE90104401353460EAE7FFF79AFF0028F0D145
S21401AEA070BD00BF681D0020F0B505461D4B8FB074
S21401AEB0019103AA03F12806144618685968083355
S21401AEC003C4B3422246F7D119889B782846A3705B
S21401AED0218016F03BFB830602D401990C682CB145
S21401AEE001A819F0D9F900200FB0F0BD8F7907F14C
S21401AEF00C000A5C0E182A2A07D907230B54727015
S21401AF002846012218F014F9EDE7CB79DB1B02F194
S21401AF1038076F4417F82C7CDBB2013BBB42ECD1FF
S21401AF200120E1E74CA4030070B505460C46FFF787
S21401AF30BBFFC8B10D4B1E686EB90720A3790C3351
S21401AF40E15CE218E054517028462146BDE87040A5
S21401AF50012218F0EDB873680BB93668ECE72146A4
S21401AF60284698470028F8D070BD00BF641D002011
S21401AF7037B504460D46202116F0EAFA2946204642
S21401AF8016F04EFB2146012018F094F921460020C8
S21401AF9018F090F9012000232146034A009018F08A
S21401AFA01AF903B030BD00BFA530030030B585B037
S21401AFB00C460392054618F008FB80F0010029466E
S21401AFC0C0B216F0BAFA012C039A06D021462846DA
S21401AFD005B0BDE8304018F0FEBAC36829469A7934
S21401AFE0002013441022DB8A0092034A18F0F3F87B
S21401AFF0204605B030BD00BFD735030037B504463F
S21401B00018F028FB0321204616F0DBFA002503463C
S21401B01021460120034A009518F0DDF8284603B0C2
S21401B02030BD00BFC93403002DE9F34707460220AF
S21401B0300E4619F064F9054600284BD0B379002175
S21401B0400C333344B3F80480B3F806A0B3F8089081
S21401B05018F0B7F802210446384616F0B2FAA4F8FA
S21401B06004806081A4F806A0A4F8089018F06FFF89
S21401B07008F10108B0FBF8F303FB18080223A4F853
S21401B0800280637006F10C0205F10C0305F1340130
S21401B09053F8040B8B4242F8040BF9D119880120AE
S21401B0A011809B7839469370AB79B37116F045FAE7
S21401B0B01022C6606389394601200092064A18F0BC
S21401B0C08AF838460B22294618F032F8002002B0DA
S21401B0D0BDE8F0870720FAE7D73503002DE9F341ED
S21401B0E004460F460146012016F027FA01210646BE
S21401B0F0384618F066F8054600F101080221404678
S21401B100FDF7F2FBD5F801300221C6F812306B7953
S21401B1102046B37516F055FA39460646E8800722EA
S21401B120204618F005F820232146009301203346D7
S21401B130034A18F050F8002002B0BDE8F08100BFC5
S21401B140A3350300F7B504460D460146012016F067
S21401B150F4F950E8003F43F4806340E80037002FDD
S21401B160F7D1204618F031FA002814BF0E21082125
S21401B170284618F026F80646FFF7E4FDC6F805103F
S21401B180FFF7E0FD08222946C6F80100204617F021
S21401B190CFFF0321204616F014FA21460346044A3F
S21401B1A00120009718F017F8384603B0F0BD00BF2D
S21401B1B0CD34030008B50548054A064918F075F967
S21401B1C0BDE808400148FFF7F3BD00BF6C1D002035
S21401B1D09136030039B30100F0B58B7904460C3380
S21401B1E0CD18CB5C0E46023B85B00F2B00F29C803F
S21401B1F0DFE803F0089A9A9A9A729A829A9A2363D7
S21401B2009A9A9A46697816F00BFA2021204616F08B
S21401B2109FF92146012018F04DF82146002018F02C
S21401B22049F80125002321461846404A009517F0A3
S21401B230D2FF304602F0C8FB2FE0AB886A886978F7
S21401B24016F019FC204616F089F9830708D4314612
S21401B250204618F0FFF90121204617F053FF1CE0A5
S21401B2602146012016F069F9314B82689A4203D1D2
S21401B2702146012017F0EEFF304602F0A5FBEAE773
S21401B280AA786F780846039202F09EFB162F039A5F
S21401B29006D10321204618F0C4FC012005B0F0BDFC
S21401B2A021460120039216F048F98368039A002B81
S21401B2B0F3D0032120469847EFE70146012016F018
S21401B2C03CF907466A783046039202F07DFBBB687C
S21401B2D0002BE2D0039AECE70146012016F02DF987
S21401B2E007466A783046039202F06EFBBB68002B75
S21401B2F0D3D00421039ADDE70146012016F01DF99B
S21401B3000C4B82689A4294D1D5F80120D5F80530C5
S21401B3102046FEF7E3FA304602F056FB21460120AE
S21401B32017F098FF022197E70020B7E74936030098
S21401B330C9340300CD3403002DE9F3410C4606461B
S21401B34018F043F9A3798046002868D00C33E71833
S21401B350E35C012B40D0082B38D0002B52D17989E1
S21401B360304617F0E1FF7B88B9887A788B4294BF24
S21401B37005460025092992BF082301F1FF339BB238
S21401B3809A4288BF00250846002AFB883A8908BFEA
S21401B390002517F05FFE38B9204602F015FB45463A
S21401B3A0284602B0BDE8F081002DF5D031460020D8
S21401B3B016F0C3F81022C4607B890092013B1C4A38
S21401B3C09BB23146002017F006FFE9E721463046DA
S21401B3D018F0A0F80125E3E73046F98817F0A4FF36
S21401B3E00546781C16F05AF80028D5D0002DD3D083
S21401B3F03146002016F0A1F82023C4600093FB8894
S21401B4000C4ADEE72146304618F01DFD0028E1D142
S21401B4102146304602B0BDE8F041FFF7DDBE2344C9
S21401B4201B7B0E2BD2D02146304618F0FBFCEDE7F5
S21401B430ADAF01005B35030038B504460D4616F086
S21401B4408DF8420709D5284602F0BEFA4FF400618E
S21401B4502046FDF7FFFB002038BD204616F07EF89B
S21401B460830703D5284602F0AFFAF4E729462046BB
S21401B470BDE83840014A17F0ACBF00BFFDAF010080
S21401B48013B50446019116F061F800F01800102873
S21401B490019906D12046064A02B0BDE8104017F0D1
S21401B4A098BF084602F090FA0C2002B010BD00BF0B
S21401B4B029B00100014A17F08CBF00BFDDB00100C2
S21401B4C070B504460D460146012016F036F80646CC
S21401B4D0204616F043F8020708D5284602F074FA0B
S21401B4E040212046FDF7B6FB002070BD33685B05A2
S21401B4F003D5284602F068FAF6E729462046BDE855
S21401B5007040014A17F065BF45B1010037B50446E2
S21401B5100D4616F01BF800F0300010284FF0020020
S21401B52030D118F0ECFE78B30221437943F00203E0
S21401B530437183790C33C218C154014655702046B5
S21401B540012217F0F5FD1621204616F069F8202194
S21401B550204615F0FDFF2146012017F0ABFE2146DF
S21401B560002017F0A7FE204617F068FF01212046AD
S21401B57016F027F80346012021460090034A17F0EB
S21401B5802AFE002003B030BD0720FBE7F934030094
S21401B590002273B50E461146044616F0D7FD054641
S21401B5A038B14FF40051204615F0DDFF284602B0B1
S21401B5B070BD01223146204617F0BAFD0321204610
S21401B5C015F0FFFF21460346024A0120009517F0B9
S21401B5D002FEEBE78D37030008B50749002207484E
S21401B5E017F063FF0548FFF7E3FBBDE808404FF49B
S21401B5F0C0200021FFF752BBD93703008C1C002066
S21401B6002DE9F8430546FDF70FFBC0B2FEF7E6FD50
S21401B610044660B1837A99060BD500222846114666
S21401B62016F094FD28B1A37A6FF34513A372BDE813
S21401B630F883A37A9A06FAD5284617F08EFE402894
S21401B640F5D00021284615F0BCFFA38807461B1A33
S21401B6501BB2002BEBDC13F069FB8046284694F8FE
S21401B660089015F07BFF83041BD4022018F047FED8
S21401B6700646B0B14FF40051284615F071FF1A2165
S21401B680304617F09EFD314680F801900C4A284658
S21401B69017F09FFE28B9E18841B9A37A61F34513F3
S21401B6A0A3724046BDE8F84313F046BBA3880B449B
S21401B6B09BB2DA1B12B2002AF9DDA380F1E700BFC4
S21401B6C091B501002DE9F04188B006460D4615F00A
S21401B6D045FF00F4C060B0F5C06F06D1022018F037
S21401B6E00EFE044610B9072051E000243146012021
S21401B6F015F023FF0746AB7900F112010C332B44FA
S21401B70003F10F021F3352F8040B9A4241F8040B5F
S21401B710F9D1AB790C211A1D0E33EB710323D2B28A
S21401B720AA710C32AB5405A805EB020801F0B0FD76
S21401B730079B0DF1140CBCE8030008F10B02C8F8D6
S21401B7400B00C8F80F10C8F813301CB363792146F4
S21401B75043F00203637140F20333E3800A23304669
S21401B7600022E37317F0E4FC4FF480713046FD606D
S21401B77015F0EEFE0321304615F023FF00240346A4
S21401B780314601200E4A009417F025FD204608B0E8
S21401B790BDE8F0812046039202F016F93046039A7E
S21401B7A008F11303012116F010FB30461622294634
S21401B7B017F0BEFC3046FC6016F023FBDAE700BF4C
S21401B7C0A73803002DE9F04188B00D46044618F06D
S21401B7D064F8AB790646002800F09C800C33E95CDF
S21401B7E0EA180339082900F23281DFE811F009006E
S21401B7F0300130017F003001300130015C007900FA
S21401B800D2F80100D2F8051003ABB2F8097003C3F1
S21401B81002F1130301210B32204616F0D6FA4FF03F
S21401B820030804230C21EB7305A885F8068001F0B4
S21401B8302FFD05AB03CB2B46079A2861696120468D
S21401B84043F8182F002105F1100216F0BEFA214622
S21401B850002015F072FE034603AA478303CAC3F805
S21401B8601200C3F8161020460821FDF7F3F94FF42D
S21401B8700071204615F06CFE204616F0C2FA0C2226
S21401B8802946204617F054FC4146204615F099FEFD
S21401B8900346002021466F4A009017F09CFC304674
S21401B8A008B0BDE8F0810B222946EA542046002262
S21401B8B017F03EFC13F03AFA05464FF44071204665
S21401B8C015F046FE4FF48051204615F049FE2846F5
S21401B8D013F032FA4FF48061204615F044FEDEE79D
S21401B8E0284602F071F84FF40071F5E70621284664
S21401B8F017F067FC204616F0E9F829460022204694
S21401B90017F016FC204616F0A2FA2146002017F082
S21401B910A1FCC4E72B441B7B043B072BBFD801A229
S21401B92052F823F045B901006DB90100CDB9010007
S21401B9309FB801009FB801009FB801009FB80100A1
S21401B940E3B901004FF40071204615F001FEAA7913
S21401B95020460C322A4402F109030021013216F076
S21401B96034FA284602F030F8012698E74FF4806052
S21401B970FFF78EF90646B0B100274FF40061204666
S21401B98015F0E6FD2046CDE90577FDF74DF90646AB
S21401B990204615F0D9FD39460346009505AAB0B2F2
S21401B9A017F045F9E0E72146012015F0C6FD00F144
S21401B9B01201204616F060FA0621284617F001FC0F
S21401B9C032462946204617F0B3FBCDE7284601F05C
S21401B9D0FBFF2146012017F06DFC204616F037FAD2
S21401B9E0C2E713F0A3F906464FF40071204615F09E
S21401B9F0AFFD4FF48051204615F0B2FD304613F0EE
S21401BA009BF94FF4C061204615F0ADFD0022294692
S21401BA10204617F08DFB2146012015F08EFDC268E9
S21401BA2005468AB1937901210C331A4402F11303B6
S21401BA3020460B3216F0C9F9204616F0E2F9162216
S21401BA402046E96817F074FB0023EB608CE70026BC
S21401BA5025E700BFA738030008B5074900220748B5
S21401BA6017F023FD0548FFF7A3F9BDE808400120BC
S21401BA700021FFF713B900BFC5B70100781D0020EC
S21401BA8013B50446019115F061FD00F01800102869
S21401BA90019906D12046064A02B0BDE8104017F0CB
S21401BAA098BC084601F090FF0C2002B010BD00BF04
S21401BAB0C5B6010038B50C468B7905460C331944DA
S21401BAC0E35C142B03D0152B10D0002038BD0131B8
S21401BAD017F0C0FF22461521284617F0F8FF082266
S21401BAE02146284617F024FB0120EFE701460120F6
S21401BAF015F023FD0A4B82689A4203D0204601F0D6
S21401BB0063FFF1E7A179284621440D3117F0A2FF22
S21401BB10204601F059FF2946012017F09BFBE3E779
S21401BB20FF3A030037B504460D460A46142117F0BE
S21401BB30CEFF08222946204617F0FAFA03212046AE
S21401BB4015F03FFD30220346009221460120034AAC
S21401BB5017F041FB002003B030BD00BFFF3A0300E1
S21401BB6008B507490748084A17F09FFC0548FFF73C
S21401BB701FF9BDE8084020200021FFF78FB800BF5D
S21401BB80B5BA0100841D0020033B030037B5ADF8AC
S21401BB9000208DF80230009B044601A8019317F09F
S21401BBA043FF9DF806209DF802300D469A4205D1C6
S21401BBB0BDF80420BDF800309A4205D0284601F0B1
S21401BBC003FF122003B030BD204615F004FE9DF899
S21401BBD00230827A9A4209D18288BDF800309A42B0
S21401BBE004D1284601F0F0FE0020EBE76946204626
S21401BBF016F09BF829462046014A17F0EAFBE1E7D2
S21401BC0025BB01002DE9F04116461A4307460C46AE
S21401BC101D46BDF8188005D12046BDE8F041114605
S21401BC2017F0C3BF4146204617F06DFB78B1214699
S21401BC30384615F082FC40238674C5742146069367
S21401BC4038464346BDE8F041024A17F0C4BABDE89B
S21401BC50F08100BF6D3C0300F7B505460E46014670
S21401BC60012015F06AFC036813F0F00F03D0294693
S21401BC70012017F01FFB284615F02DFFB3790C3372
S21401BC8033445F789B781F400378C3F3030000EAD0
S21401BC901310384017F062FF044668B9284617F0BB
S21401BCA067FF384017F05AFF044628B9284615F0B2
S21401BCB015FF00F0BDFF04462846002115F08DFD56
S21401BCC01721304617F07DFA0222314644708470FF
S21401BCD0284617F02DFA0321284615F072FC40225B
S21401BCE00346009229460020024A17F074FA03B070
S21401BCF0F0BD00BF233C030038B58368044613B18A
S21401BD000830FEF71BFC0025D4F89000C4E907555F
S21401BD1018F015F9074BC4F890505868201A064CCD
S21401BD2080106043C0B2FEF771FA294616F0EBF9AF
S21401BD3038BD00BF901D0020AD1B4C912DE9F0438E
S21401BD4000278C4CDFF838828BB0237A9F4211DAB9
S21401BD509423656803FB075542F220032A6A93433E
S21401BD602BD1022018F0CBFA0646B8B94FF08070F6
S21401BD70FBF7C8FA00259426237A9D4258DB7E4FAE
S21401BD80A669002E5ED1DFF8F881DFF8F091237AFC
S21401BD909E4267DB00200BB0BDE8F08300222B6AD1
S21401BDA0D5F8901023F4205343F4801322602B62BD
S21401BDB029B10146284618F0C3F80137C5E795F8BA
S21401BDC03FC0CDE90411CDE90211626895F82E3025
S21401BDD0AA1A9210019308FB02F26B6AD2B2C3F35D
S21401BDE04F0300930CF00F0318F0A7F80146002844
S21401BDF0E3D1CDE90700CDE9050095F82E3062685C
S21401BE0004936B6AAA1AC3F34F03039395F83F3062
S21401BE10921003F00F0308FB02F20293574B3046D1
S21401BE200193A37AD2B20093637A16F00CFAC4E7B0
S21401BE30606806FB0500036A9F0601D518F081F8C5
S21401BE40013599E712F072FF0646384618F042FAB5
S21401BE500546304612F070FF002D91D0284616F0A8
S21401BE6048FA8DE79423656803FB065544F22003E0
S21401BE702A6A934314D1022018F041FA0746002893
S21401BE8075D02B6A13F480120CD06168691A891078
S21401BE9008FB01F1C9B216F01DFA2846FFF72CFF80
S21401BEA0013674E7980322600ED419030ED413F4F6
S21401BEB0001F0CBF3E220722D5F8901041B139462B
S21401BEC0284618F03DF8E8E71A22F5E74422F3E79A
S21401BED095F83F30CDE90411CDE90211626895F875
S21401BEE02E10AA1A921008FB02F20191696A3846CE
S21401BEF0C1F34F01009103F00F033E21D2B218F0B7
S21401BF001CF80028C9D12B6A13F400322DD118036E
S21401BF1025D544216272C9F80020A9F80420A2722E
S21401BF200023CDE90733CDE9053395F82E30626855
S21401BF3004936B6AAA1AC3F34F03039395F83F3031
S21401BF40921008FB02F203F00F03CDE90193A37AE6
S21401BF5038460093D2B2637A16F075F99DE713F46A
S21401BF60001F0CBF3E210721DAE71A21D8E7072078
S21401BF7011E700BF901D0020A81D00209B1D00207A
S21401BF80AD1B4C9110B5074C2368DA0607D523F094
S21401BF901003236018B90120A16814F0A4FC002343
S21401BFA0A36010BDB81D0020014610B5044602204E
S21401BFB014F099FC054B1B68D90305D463691A076D
S21401BFC05CBF43F00403636110BD00BFB81D0020D1
S21401BFD0034B10B5DC6817F0F3FFDC3C201A10BDEC
S21401BFE0B81D0020034B1B6813EA004314BF012051
S21401BFF000207047B81D002038B500230360436950
S21401C000044658070DD5204650F8081FC90C01F400
S21401C010FC7141F00501FEF73DFA636923F0040364
S21401C02063616369D90602D517F0CAFF60601848D4
S21401C030024652F8043F8BB92360146083684BB103
S21401C040617E5A7E914219D26269D2060ED50020CF
S21401C050FFF798FFBDE8384016F0EFBF59686568EE
S21401C060491B0029E8DA1A461B68E4E75A681B6987
S21401C070134462689B1A002BECDBE8E71A895B68BD
S21401C080D31A62681344E268D342E3D5DFE700BF00
S21401C090B81D002038B504460A4D0846AB68A342D1
S21401C0A001D1FFF76FFF6B68074A1BB1A3421968FE
S21401C0B004D11160BDE8384016F0BFBF1A460B46E2
S21401C0C0F3E700BFB81D0020BC1D00202DE9F34793
S21401C0D0744D2B68580700F1DB80AB68002B40F0ED
S21401C0E0D78055E8003F43F0040345E80032002AB4
S21401C0F0F7D16C683CB317F063FFD4E90437064602
S21401C10017F0100FA06805BF616882B216FA80F2B8
S21401C1108A1A16BF6260921B0022F90723D4002AEE
S21401C12009DAE168591AD1421FD4626816FA80F01A
S21401C13013441B1A60602068D4F80480B8B9DC3355
S21401C1404344C5E9024355E8003F23F0040345E8AC
S21401C1500032002AF7D1AC68002C66D102B0BDE8E7
S21401C160F04700F05BBA002AE5DA204651E0416963
S21401C1700289CF06D0F804E048BF06EB020EAEEB0C
S21401C180020211F0010C11BF1146D0E90371C91B5F
S21401C190891808EB03077F1A002F2ADDBB4205D951
S21401C1A0E768A1EB0801DC378F423CD9D4F814A02C
S21401C1B01AF0010F1FD12169D0F80C904144B4F850
S21401C1C00880E768A1EB0901A1EB0801A1EB0E01CC
S21401C1D0DC37B9420FDD971BBCF1000F03D10169B3
S21401C1E0A1EB09010F44002F05DB4B46C0F804E024
S21401C1F004460068A0E7477E617E8F42F9D2921B13
S21401C200BCF1000F03D1D0E903135B1A1A44002ACC
S21401C21002DAFFF7C9FE6CE71AF0100FA5D0C36863
S21401C220C0F804E0E4E70B46E3E7A36813F4601FF5
S21401C230C3F3C2462FD100262B68214643F01003D4
S21401C24000202B6014F04FFB16B3A36804F108001E
S21401C25013F4601FC3F3C841C3F3C24508D0013DC0
S21401C260EDB201F4FC7129430190FEF713F9019830
S21401C27003210190FEF77CF901980DB9FEF75EF9EE
S21401C280A268237E1344120C9BB212041343A360CC
S21401C29002B0BDE8F08704F10800FEF709F90028AE
S21401C2A0C9D1C9E7B81D002008B5034B996809B183
S21401C2B014F019FB08BD00BFB81D0020014B98689B
S21401C2C0704700BFB81D00200A4B70B59C688442B9
S21401C2D00FD12146012014F006FB6668258917F068
S21401C2E06FFEAD1BC54221464CBF0020022014F054
S21401C2F0FAFA70BDB81D0020C04310B5054A131DDB
S21401C30053E8003F0340141D44E800310029F6D1EC
S21401C31010BD00BF200F002010B5054A131D53E8BD
S21401C320003F0343141D44E800310029F6D110BD37
S21401C330200F002007B50C4B10F0020F1B884FF0A2
S21401C3400200ADF804300BD0FFF7E6FF8DF80400CD
S21401C350064B01A9986A1CF0ADFF03B05DF804FB1B
S21401C360FFF7CAFFF4E700BF77A40300200F002001
S21401C37013B50446104B01205B88ADF80430FFF777
S21401C380BBFF04F00F0001280CD0022810D010B912
S21401C39001238DF80430094B01A9986A1CF0A0FF0F
S21401C3A002B010BD04238DF80430FFF7B5FFF2E7A5
S21401C3B08DF80400EFE700BF77A40300200F0020EC
S21401C3C0014B986A704700BF200F002010B5064C3D
S21401C3D0A06A1DF08CF828B9A06A1DF08AF800F052
S21401C3E0010010BD0120FAE7200F0020014B986ADA
S21401C3F01DF083B8200F0020014B986A1DF07BB812
S21401C400200F0020024B5868C0F34020704700BF41
S21401C410200F002010B504464FF40070FFF76CFFA4
S21401C420094B986A1DF06BF830B154B14FF40070A7
S21401C430FFF772FF002010BD002C0CBF00200C205F
S21401C440F9E72046F7E700BF200F00202DE9F04F5F
S21401C450046806468846574D89B0002C48D02046C9
S21401C460A77918F09BF80C3727443C890A38B8F1AD
S21401C470FF3FA4EB000402D04445A8BF4446B5F8EC
S21401C4803890B0EB090713D4002C0EDD6D6B3668BF
S21401C4903D44FF2C224629463046A8BFFF2217F00E
S21401C4A0DEFE241A36680544F3D109B0BDE8F08FE4
S21401C4B0A9EB0009A145A8BFA146296BC846D6F835
S21401C4C000A001EB000BB9F1000F0DD04246FF2A88
S21401C4D059465046A8BFFF2217F0C1FEB8EB000828
S21401C4E0DAF800A08344F1D1A4EB09044F44CBE76A
S21401C4F00321A86A03AA1CF057FFBDF80E70A146D7
S21401C50002940A3702ACE86209E023601B682B60DC
S21401C5102368C3F800902368002F1C4611DD2B68A2
S21401C520453F002BF1D1012017F0E9FE03462060BC
S21401C5300028F1D1019002A817F0AEFE019B3360EE
S21401C540B3E72B1D53E8003F43F008032A1D42E8DA
S21401C5500034002CF5D14FF00060FAF7D3FE0298B4
S21401C560BDF8102043790A2143F001034371069B6D
S21401C57030606B63059B2A872B638379BDF80E2099
S21401C5800C3303441C711A812A7ADC719A719DF866
S21401C5900C20072A0BBF0122AB8C1A7101331FBF77
S21401C5A0AB846B8C03F1FF336B8417F04DFE34685C
S21401C5B055E700BF200F0020F0B505468779164ED7
S21401C5C087B00C37C41901AAD6E90A011CF0F0FE9F
S21401C5D0238901A90333B06AADF808301CF0EAFEDE
S21401C5E0019B9DF90E00EB5100F0E2FD6071B37AFC
S21401C5F0022B02D8E37107B0F0BD9DF81130012B74
S21401C60004D0022B04D02BB90423F3E70323F1E76C
S21401C6100123EFE70023EDE7200F0020002210B5ED
S21401C620084C1046114617F0BCFCA06A0BF08EFAB7
S21401C63017F0BFFC204617F02FFEBDE8104008207B
S21401C640FFF75ABE200F0020014B986A1CF093BFDB
S21401C650200F002038B5154C0546A37A834210D02A
S21401C660431E042B08D8DFE803F0030D111618004B
S21401C670A06A0BF051FF20B92846A57200F032FEE1
S21401C680606138BDA06A17F09DFCF4E70121A06A3D
S21401C69017F09AFCEFE70321F9E7FFF7B3FE00284E
S21401C6A0EAD0A06AFFF7D0FFE5E700BF200F002021
S21401C6B010B50C4630B9054B58690279408804FB21
S21401C6C0020010BD00F00EFEF7E700BF200F0020AD
S21401C6D010B50C4638B9054B586941880079641A7B
S21401C6E0B4FBF0F010BD00F0FDFDF6E7200F0020D2
S21401C6F073B50446408900F013FD0D4DA07B00265E
S21401C700287217F026FC6872E07B00F00F00FFF736
S21401C710A1FFD4E90021A37BA86A00961CF050FF74
S21401C72032463146304600F0EBFA02B070BD00BF2B
S21401C730200F00200122094B10B50C46DA72FFF7D4
S21401C74017FE10B1042017F019FC22460021012023
S21401C75017F027FC00F0F0FA10BD00BF200F0020F4
S21401C76070B5044600F00CFB0546A179E279114E3E
S21401C770521A0C310123B06AD2B221441CF00EFECB
S21401C780E079A379C01A55FA80F524680CB93561A9
S21401C79070BDA179E2790023521A0C31D2B2B06A87
S21401C7A021441CF0FBFDE379A2799B1A55FA83F527
S21401C7B0EBE700BF200F00202DE9F84305460C46A5
S21401C7C01646984600F0DCFA0746A979EA79DFF8BA
S21401C7D07090521A0C310123D9F82800D2B229449C
S21401C7E01CF0DCFDE879AB79C01A57FA80F704B380
S21401C7F0E379A2799B1ADBB2B3421ED3B8F1000FDC
S21401C80017DDA179E57900236D1AEDB2AD1B45451B
S21401C810A8BF45460C3131442144D9F82800AAB2B4
S21401C8201CF0BCFD246800262F44A8EB0508002C4C
S21401C830E4D1C9F81070BDE8F8832468F61AD6E783
S21401C840200F0020022370B50E4E0D46F372FFF73F
S21401C85071FD044620B1BDE87040042017F08EBB80
S21401C860284617F0A3FB717A03462246B06A0BF0FE
S21401C87099F906462A462146012017F092FB002E1A
S21401C880E9D170BD200F00202DE9FF411646022395
S21401C89000270C46144D8046A86AEB72CDE9027754
S21401C8A00BF054F9304602948DF80C7017F07EFBAD
S21401C8B00090697AA86A3A4602AB0BF081F9054600
S21401C8C028B1042017F05AFB04B0BDE8F0814046B9
S21401C8D0FFF730FD074633462A460121204617F06A
S21401C8E061FB002FF0D0ECE7200F00200222084B5E
S21401C8F010B50C46DA72FFF71DFD10B1042017F0D3
S21401C9003DFB22460021012017F04BFB10BD00BF66
S21401C910200F0020014B187B704700BF200F00201E
S21401C92058B1094A134652F8041B51B9074A9B1AD3
S21401C9309B10074A013B137370470122044B1A737D
S21401C94070478142EED2F1E784A4030080A403007D
S21401C950200F0020024B1B6803B11847704700BF29
S21401C960C81D002010B5084C606810F480700AD00D
S21401C970A06A1CF030FD30B90121A06A1CF029FD27
S21401C98080F00100C0B210BD200F00202DE9F04359
S21401C9904FF0010985B0244D04460E46904600210D
S21401C9A0102268461F4685F80B901DF0EFF9A86A1D
S21401C9B00BF0CCF80023E20600968DF80430CDF893
S21401C9C0088005D56B691A888DF80D90424402924D
S21401C9D0002338468DF80C30C4F340138DF80E3022
S21401C9E017F0E4FA6A460346697AA86A0BF00EF96C
S21401C9F028B1042017F0C2FA05B0BDE8F08320463E
S21401CA00FFF7B6FC3B460121C4F3801205463046CB
S21401CA1017F0C8FA00F090F9230601D5FFF7A2FF38
S21401CA20002DE9D0E5E700BF200F0020044B5A682F
S21401CA30D20503D50021986A1CF0CBBC704700BF15
S21401CA40200F002010B50D4CE37A23B100221146C9
S21401CA50104617F0A6FA0023A06A01220321E3720A
S21401CA601CF0CBFB0122A06A11461CF0A5FCFFF7C7
S21401CA70DDFFBDE810408020FFF73EBC200F002000
S21401CA80F8B51F4C636859070AD50420FFF734FC34
S21401CA90E38C0133E384FFF7D5FF0620FFF704FCA0
S21401CAA063681A070FD512F041F905270646144D9B
S21401CAB02B681BB9012017F022FC28602D68DDB910
S21401CAC0304612F039F96368DB0618D51020FFF7F7
S21401CAD013FC03F0E7FD90B112F028F90546FFF7C5
S21401CAE0B1FFE38C06200133E384FFF7DDFB284624
S21401CAF0BDE8F84012F020B9013FD9D1E0E7F8BD12
S21401CB00200F002070B5054682B0104619460192E6
S21401CB10009317F04DFADDE90032284617F04AFA7D
S21401CB20404CD4E9062300EA020501EA030655EA69
S21401CB30060313D06A0113D563681B062DD43A4A3F
S21401CB4000232A40002A53D1384B06F020012B40FF
S21401CB500B432DD12846314617F026FA02B070BD98
S21401CB60A5F10803334349D005F17F433343E6D1AA
S21401CB70E37A022B34D16268032012F0020F14BF4D
S21401CB8004220022238CE27201332384FFF78CFBFC
S21401CB902846314617F008FAE0E7231D53E8003F20
S21401CBA023F08003211D41E80032002AF5D1D5E7A4
S21401CBB0E37A8BBB002301220321A06AE3721CF0F7
S21401CBC01CFB0122A06A11461CF0F6FBFFF72EFFA4
S21401CBD08020FFF791FBE38C06200133E384D5E741
S21401CBE0042017F0CBF92846314617F0DDF9B5E7F2
S21401CBF0E27A012AF4D10520E372C7E7E37A012B32
S21401CC00EED16268042012F0010F18BF0323628C74
S21401CC10E37201326284B9E71146104617F0C1F992
S21401CC20C8E700BF200F00200150010009D50155BB
S21401CC300138C0B203289ABF014B185C0020704728
S21401CC407BA4030007B501AA0DF1030115F09EFAB6
S21401CC50044B019A9A609DF803201A7303B05DF89D
S21401CC6004FB00BFE81F0020074A01281388064975
S21401CC7096BF23F0010343F001039BB21380034BDD
S21401CC80986A1CF0B4BC00BFE81F0020200F0020EB
S21401CC9008B5054B1C22002118461DF077F8034AFB
S21401CCA042600422428008BDE81F002004200020C4
S21401CCB0014B5868704700BFE81F002010B50A4CAA
S21401CCC00A4B62689A420BD141F2AB3000F0E2FFA8
S21401CCD0033020F00300606020B141F2A833638086
S21401CCE0002010BD0720FCE7E81F002004200020DC
S21401CCF00122024B00209A76704700BFE81F0020F1
S21401CD000C4B10B59C7E24B121B91AB91A760022B3
S21401CD101A8010BD0228187604D80028F7D00420FF
S21401CD20188002E00338012802D9C3E90412F0E7AB
S21401CD300220F5E7E81F002070B50F4CA37ED3B1A3
S21401CD400E4EB37A022B16D82369A3B1257E45B1C0
S21401CD509A7A12F0100504D0186802F00F05FFF752
S21401CD6071FF2846FFF780FF617E21B9B06ABDE8F2
S21401CD7070401CF034BC70BDE81F0020200F00205E
S21401CD8070B5154EB47E64B1144B9B7A022B21D834
S21401CD90746934B1337E33B900252C462846FFF733
S21401CDA063FF204670BD81790C310144184615F0A9
S21401CDB074F90028F0D0057805F01F04AD09012D9F
S21401CDC003D0022D14BF0025022573691868FFF7EA
S21401CDD039FFE3E70024E4E7E81F0020200F0020E6
S21401CDE070B5044611F0A2FF0E4D064684B16C7E66
S21401CDF02CB11F24304611F09FFF204670BD0A4B10
S21401CE00986A1CF0EEFB0028F3D001236B76F1E75D
S21401CE106B7E002BEDD0044B2146986A6C761CF095
S21401CE20DEFBE7E7E81F0020200F002008B5044BD3
S21401CE30986A1CF0DAFB034BB0FBF3F008BD00BFA9
S21401CE40200F0020A086010008B5024B986A1CF04E
S21401CE50CAFB08BD200F002073B50F4B04469B7D0F
S21401CE600E4EFF2B15D10023ADF804000DF1030281
S21401CE70B06A01A98DF803300BF012FB9DF8035040
S21401CE8022462946B06AF6F74DFD40EA052002B073
S21401CE9070BD034B1D78F3E78E250020200F002080
S21401CEA0A6250020054B82B0ADF80400C2B2C0F33F
S21401CEB00721986A02B0F6F7A9BD00BF200F00202F
S21401CEC010B50D4C0021A06A1CF0DAF90B49A06AD6
S21401CED01CF038FAFE21A06A1CF020FAA06A0BF0BA
S21401CEE0FFF8074BB3F910208242C8BF18821A8A8E
S21401CEF09A805A8ADA8010BD200F0020A6250020CD
S21401CF008E250020F0B585B0ADF80630C823ADF803
S21401CF100420ADF808306A46ADF80A308223ADF831
S21401CF200210ADF80C30ADF80E30042113460E4C4D
S21401CF30ADF80000B4F9100002AD32F9026B86427A
S21401CF40C8BF22F8020C35F9026B32F9027CB742EF
S21401CF50C8BF22F8026C0139EFD103CB034BA060A6
S21401CF60596005B0F0BD00BF8E2500209625002033
S21401CF7073B50646F6F7B4FD344D0368344C2B60A2
S21401CF808388FF2EAB804FF00003A37023802B789D
S21401CF9008BFA6752F4E8DF8013018BFA3750DF189
S21401CFA00303B06A0DF102020DF101011CF09AFAB9
S21401CFB09DF8013040B90133DBB2012B8DF8013009
S21401CFC0EDD9012002B070BDA27DFF2A00D0A37565
S21401CFD08DF805302B709DF802308DF804300198DD
S21401CFE0FFF760FFC828C4BFC82323829DF803301B
S21401CFF0D8BF20828DF804300198FFF753FF10F553
S21401D000FA7FB4BF4FF60C636082B4F91000B8BF64
S21401D0106382FFF721FFADF804000198FFF742FF96
S21401D0202082B4F91200FFF717FFADF8040001984B
S21401D030FFF738FF4FF6FF73A382642360821A4618
S21401D04018461946FFF75EFF0020BBE7A62500201D
S21401D0508E250020200F0020044AB2F9063010B1B8
S21401D06010881B1A1BB21846704700BF8E25002079
S21401D070084B10B5B3F9044030B903EB4103B3F9DB
S21401D08006309C42A8BF1C46A242A8BF22461046B4
S21401D09010BD00BF8E25002073B506460E4D11F05B
S21401D0A045FEB5F912300446B342B8BF33461846BA
S21401D0B0B5F910309842A8BF1846FFF7CDFEADF877
S21401D0C004000198FFF7EEFEE880204602B0BDE8B6
S21401D0D0704011F031BE00BF8E25002073B50646A4
S21401D0E00E4D11F023FEB5F910300446B342A8BF29
S21401D0F033461846B5F912309842B8BF1846FFF7BE
S21401D100ABFEADF804000198FFF7CCFEA8802046E0
S21401D11002B0BDE8704011F00FBE00BF8E250020A2
S21401D120F0B5C0F3072585B0FE2DADF8040027D075
S21401D1309DF8047011F0FAFD124C0646637DAB4271
S21401D1400ED0114B02A918689B880290ADF80C30DE
S21401D1500E4B8DF80850986A1CF0F4F8FF232375DF
S21401D160237DBB4206D0094B3946986A1CF0D6F897
S21401D17027756575304605B0BDE8F04011F0DCBD99
S21401D18005B0F0BD8E250020A6250020200F00202A
S21401D1908BB200294FF00A01B4BF053B05331BB221
S21401D1A093FBF1F3014A1080937070478E2500209F
S21401D1B0024B9B78C01A40B2704700BF8E250020F4
S21401D1C0024B1B88C01A00B2704700BF8E25002094
S21401D1D02DE9F04707460E461446DFF8409086B024
S21401D1E00DF10808A9F1100A3A4680215046CDE90A
S21401D1F000980A4BF7F72CF90028F5D1102C254694
S21401D20028BF102530462A4641461CF098FD641B6F
S21401D2102F442E44E8D106B0BDE8F087132700203E
S21401D22030B589B020226946FFF7D2FF6A460C4D19
S21401D23004AB144603CC9C4228606960224605F183
S21401D2400805F6D1074C08AD1A4603CAAA42206063
S21401D2506160134604F10804F6D109B030BD00BF81
S21401D260032700201327002010B588B06946202028
S21401D27000F052FD044630B96846FFF7D1FF01229F
S21401D280024B83F82020204608B010BD032700205B
S21401D29070B5134B054693F820300C468CB00BB98D
S21401D2A0FFF7E2FF0023CDE90033CDE9023354B99D
S21401D2B01C22214605A804941CF068FD04A8FFF76B
S21401D2C0AFFF0CB070BD102C264628BF102629468D
S21401D2D032466846FFF77CFF3544A41BE7E700BFEC
S21401D2E003270020052808BF03200622024B013829
S21401D2F002FB0030704700BFA4A403000021034BCB
S21401D3002822C3E9001102481CF040BD0820002075
S21401D31010200020094A5168C84390FAA0F048B18D
S21401D320B0FA80F0042805DC012383400B435360E8
S21401D33040B270474FF0FF30704700BF0820002012
S21401D34013B50190FFF7E6FF0446054B00B203EB69
S21401D350C000019916F09CFE204602B010BD00BF29
S21401D3601020002010B5C4B2042C14D80A4B03EBCD
S21401D370C000043050E8003F0B4340E80032002A6A
S21401D380F8D101220549A24051E8003F134341E884
S21401D39000300028F8D110BD102000200820002001
S21401D3A0F7B501250826042719491A4A1A4C0868B0
S21401D3B010B3137805FA03F318421FD0DB4351E884
S21401D3C0000F184041E8000CBCF1000FF7D11378AC
S21401D3D016FB0373234453E8000F43E800CEBEF167
S21401D3E0000FF8D1019048B110780C4901AA04EB5E
S21401D3F0C00016F085FE012003B0F0BD1378486822
S21401D40083422EBF00230133DBB21370CFE700BF88
S21401D41008200020242700201020002078563412EF
S21401D420024B1868003818BF0120704708200020FA
S21401D43010B5044611F07AFC074B1B684BB1DB684C
S21401D4401B1B002BCCBF0024012411F075FC2046C9
S21401D45010BD1C46F9E700BF3C20002038B54FF050
S21401D460FF34054611F062FC084B1A681AB911F030
S21401D47063FC204638BDD2E903310B445B1B23F025
S21401D48000439C4228BF1C465268EFE73C20002020
S21401D4902DE9F3470C9F0D469846114606469DF822
S21401D4A02C9008B103687BB937B12846B84740F2DB
S21401D4B0034002B0BDE8F0870029F8D0002DF6DB66
S21401D4C0084600F007FCF2E7019211F02FFC8246B5
S21401D4D0484600F0F3F90446504611F02DFC019938
S21401D4E064B91FB12846B8471A20E2E70029FBD0E5
S21401D4F0002DF9DB084600F0EDFBF5E7A5600025F9
S21401D5000A9B84F81890DFF87090C4E90787616178
S21401D510266023616560D9F80030984708EB00065D
S21401D52011F004FC07461248E66003681A4632B159
S21401D530D168891B002913DBD1688E4210D09DB9B2
S21401D54063600C4B04601C682CB1D9F80030984716
S21401D550FFF784FFA047384611F0EEFB0020A8E74E
S21401D560516815460A46E2E76A6862606C60F2E74F
S21401D5703C2000204C200020442000202DE9F74FBD
S21401D5800C4690461D46009011F0D0FB002706463B
S21401D590DFF88490DFF884B0D9F800A0BAF1000F64
S21401D5A005D1304603B0BDE8F04F11F0C5BBDAF83F
S21401D5B00020009B9A421FD134B1DAF80820216876
S21401D5C022F000428A4217D185B9DAF80420BFB9A1
S21401D5D0104BC9F800201A68019292B1DBF80010CE
S21401D5E08847FFF73BFF019A90470AE04146DAF881
S21401D5F01400A8470028E8D05746DAF804A0CDE77B
S21401D6007A60DAF804205046019216F0F2FC019A8C
S21401D6109246C3E74C2000203C20002044200020F6
S21401D620014B1860704700BF4C20002070B50B4BB3
S21401D63004460E4615461978094A0A4817F056F95F
S21401D6400023094A24211360084A07201660084A65
S21401D65015602246BDE8704000F0B2B83D270020B4
S21401D660BCA40300252700203C20002044200020E5
S21401D6704820002030B504461846002387B005939D
S21401D680094B0D461B6813B9212007B030BD05A90B
S21401D690039298470028F7D1009029462046059B1B
S21401D6A0039A16F0D9FCF0E748200020F8B50546A5
S21401D6B010200F46164600F0EDFA0A4B044618787D
S21401D6C018B11022214617F014F944B101230020A5
S21401D6D0E3602B68C4E9017623602C60F8BD1A204C
S21401D6E0FCE700BF252700202DE9F843254FDFF88A
S21401D6F0A480254D38603868FFF79AFE30B9234B71
S21401D7001B689847BDE8F843FFF7A8BE11F00EFB6B
S21401D710D8F80040064674B16368C8F800301C4B60
S21401D720D3F80090B9F1000F05D0184B1B68984745
S21401D730FFF794FEC847304611F0FEFA2C60002C25
S21401D740D9D0A36833F0004305D1286816F051FC00
S21401D75000232B60CFE72368002BF6D0186800283B
S21401D760F3D0A26832F00043EFD0D0E900696369D4
S21401D77021688068C8470028E7D1002EE5D03046EA
S21401D780EFE700BF40200020382000204420002082
S21401D7904C2000203C20002038B505460C4611F0F0
S21401D7A0C5FA064B1B683BB1DA692A601B69236020
S21401D7B0BDE8384011F0C0BA2B60F8E738200020E9
S21401D7C02DE9F74F4FF6FC7700241646DFF88490D4
S21401D7D00331DFF884B009EB00150F404FEA001A59
S21401D7E0DBF80030804629F80A7002FB07F06A80F1
S21401D7F0EC60984717FB06F39BB268602B8110B369
S21401D8000093124A0346124852F828209BF8041047
S21401D810404417F06CF821462A8968681CF0B6FA6D
S21401D820214623469E4206DC0020D144A9F8026028
S21401D83003B0BDE8F08F6A68E868541850500133A9
S21401D840EC603944EEE71A20F2E700BFBCA50300FE
S21401D85026270020D41900205020002070B50B4E3A
S21401D860044606EB0015696839B1094B2A89185C2C
S21401D87017F03EF8686800F02DFA06EB0410102247
S21401D880BDE8704000211CF081BA00BFD419002009
S21401D89026270020044B19601A71986002010021A6
S21401D8A002481CF073BA00BF50200020D419002093
S21401D8B0014B185C704700BF2627002070B50A4C44
S21401D8C0060104EB0013DD68084B185C18B1294605
S21401D8D0A25B17F00EF82DB12B683444E360638821
S21401D8E0013B6380284670BDD419002026270020FE
S21401D8F0024B03EB00108078704700BFD41900205C
S21401D900094B10B403EB00135A88DC6801320C6033
S21401D910D9605A80054B185C18B15DF8044B16F0B7
S21401D920E9BF5DF8044B7047D41900202627002074
S21401D930044A010102EB0013505A10B11B89B3FBD4
S21401D940F0F07047D419002037B50024164B174D58
S21401D9501C70174B20461C60164B2C601C706C60AC
S21401D960AC60FFF7E5FF80B2A0F10E036B80A0F17B
S21401D9701403013068812046EB80FFF799FF0E4CB7
S21401D980014601900D4A601C16F0B0FF2046019931
S21401D9900B4A16F0ABFF0B4A0199A01C03B0BDE879
S21401D9A0304016F0A3BF00BF37270020AC2500206B
S21401D9B05C2000203B2700203827002000A603001B
S21401D9C009A6030013A6030070B5044658B311F068
S21401D9D0ADF9637905466FF382036371237913F01A
S21401D9E0100605D010232371BDE8704011F0A4B9CC
S21401D9F00D4903F0030331F823203046013A21F89C
S21401DA0023202146FFF77CFF084B1A780AB92846DF
S21401DA10EAE71E70064B1C68002CF8D020466368A7
S21401DA2098472468F8E770BDAC250020372700200A
S21401DA305C2000202DE9F04F0446450748BF00F062
S21401DA40F70489B004F0EF0303920093019111F0FB
S21401DA506DF95F4F04F0030507EB850337F82520C2
S21401DA605B8880469A424FEA850627D20020FFF758
S21401DA7025FF8346F0B137F82520013227F8252007
S21401DA80404611F059F9BBF1000F7AD1200718D49E
S21401DA9084F004000099C0F3800000F0DFF84D4ADE
S21401DAA0505D18B14522594616F023FF584609B075
S21401DAB0BDE8F08F0121484A1170E1E74FF0000BF5
S21401DAC0DEE714F0E0030293E2D0D94611F02EF916
S21401DAD0BA19528837F82560DFF8F48096422CBFD1
S21401DAE0002601263D4F11F027F908EB8503049324
S21401DAF03B4A12789145CBD23A78029B134204D026
S21401DB00D7F804A0DAF800201AB909F10109083794
S21401DB10EEE7002007925179C9074ED511794B07D8
S21401DB204BD5002E45D000B10792504616F0D2FBD9
S21401DB300179079007A8059116F0AEFB059900201C
S21401DB4000F08CF811F0F2F8049B01465A8838F878
S21401DB502500904234BF012600260BD200200591F5
S21401DB60FFF7ACFE0599079068B338F82520013217
S21401DB7028F82520084611F0DFF8079A002AC1D0B8
S21401DB8093460022019BCBF804200399CBF8002092
S21401DB90CBF808209BF8052019448BF80630009B2B
S21401DBA042F004028BF805208BF807108BF804303E
S21401DBB075E701F003018D42B5D092461268012047
S21401DBC0002AA8D19EE70120034A1070D2E700BFC1
S21401DBD0AC250020382700203727002060200020B1
S21401DBE03B27002010B5044611F0A0F8034B1A6835
S21401DBF01C602260BDE8104011F09EB85C20002039
S21401DC0010B5064B00F0E0001A78541C1C70044B4B
S21401DC1003F8320003EBC203596010BD3B27002016
S21401DC20602000200022014B1A60704778200020F7
S21401DC3010B5044611F07AF8074A13682BB9146038
S21401DC402360BDE8104011F077B8A34202D01A460F
S21401DC501B68F3E710BD00BF7820002070B50546AD
S21401DC600E46054B1C6804B970BD636831462846EC
S21401DC7098472468F7E700BF78200020024B034A44
S21401DC801978034816F032BE3C27002020A6030070
S21401DC903D27002013B5033020F003021046019201
S21401DCA011F023FE0A4B04461878019A18B1214652
S21401DCB016F01FFE019A34B911460220FFF7CEFF77
S21401DCC0204602B010BD002120461CF05FF8F7E7A1
S21401DCD03D27002010B5044628B1054B187810B131
S21401DCE0214616F007FE2046BDE8104011F01CBE86
S21401DCF03D27002010B5074C23782BB9F8F7ACFF69
S21401DD0020B90123237010BD0020FCE740F2074034
S21401DD10F9E700BF3E27002038B50B4B04461B78B9
S21401DD200D464BB121462846F8F7C6FE002840F2BC
S21401DD30074008BF002038BD04490548FFF7DAFF51
S21401DD400028EFD0F7E700BF3E270020EFBEADDE8C
S21401DD50BEBAFECA2DE9FF4706460F461546002401
S21401DD604FF00109DFF84480DFF844A0D8F800201E
S21401DD7009FA04F3134213D046EA042040EA0A00E3
S21401DD806A46E9B280B2F9F77FFB48B92A463946B6
S21401DD9068461BF0C4FF18B960B204B0BDE8F0874E
S21401DDA00134202CE2D14FF0FF30F6E77C20002032
S21401DDB00080FFFF0022034B1A609A80FF229A71AF
S21401DDC0704700BF61270020074A1379984208D29E
S21401DDD0012303FA00F01368184214BF0120002043
S21401DDE070470020704700BF7C200020054A03468C
S21401DDF01068002208B91A607047C10748BF01328F
S21401DE004008F7E77C200020014B1879704700BFD7
S21401DE107C200020F0B541EA002087B040F490262F
S21401DE2005200F461546F6F7EDF916F064FD044693
S21401DE3040B901461A2004F0B3FC6FF08C05284661
S21401DE4007B0F0BD43688660DAB222B923F0FF035B
S21401DE5043F001034360062F204B0CBF40F2011133
S21401DE604FF48071204616F048FD2361E3696BBBD1
S21401DE704FF4105323808023638002AB2A461E464C
S21401DE8005F110071D4610685168083203C5BA42ED
S21401DE902B46F7D11021304618F071F81022314682
S21401DEA0204601AB11F0D4FF054620B1014640F2F1
S21401DEB0074004F075FC1021304618F06EF8204635
S21401DEC012F0EDF92046FFF705FFB8E700234FF4FF
S21401DED010511A4612F0EFF9CDE700BF0044400496
S21401DEE02DE9F347204D04460146062228461BF03D
S21401DEF016FF28B995F90670384602B0BDE8F087D6
S21401DF000026B14604F1030830465FFA86FA77B276
S21401DF10FFF75AFFE0B1B8F80030CDF80090ADF841
S21401DF20033098F80230694650468DF8053019F0EE
S21401DF3061FE21280CD0A0B90322214668461BF0B9
S21401DF40EEFE28B923682B60A388AF71AB80D3E7B8
S21401DF500136202ED8D123682B60A388AB80FF23FF
S21401DF60AB714FF0FF37C7E761270020034B93F9EA
S21401DF700630013301D1FFF71DBF7047612700202E
S21401DF80F0B5431C044685B05DD117F0FEFC0025B4
S21401DF90FFF710FF644E3379AB422FD84FF40041A0
S21401DFA000250846F9F7D8FA20224FF0FF315F48DE
S21401DFB035601BF0EBFE284602F074FCFF27054691
S21401DFC05B4E75BB5B4811F045FE014630B110F162
S21401DFD0880F03D040F2074004F0E2FB0C21524ABE
S21401DFE043F6FF70F9F730FA2021504A3820F9F746
S21401DFF02BFA204617F025FE002029E02846FFF7D9
S21401E000E3FE60B168B20521019016F078FC0321A9
S21401E010019816F074FC0621019816F070FC013583
S21401E020B9E795F97530013305D0337843B9132133
S21401E030284618F0FBF9284602F034FC0546C0E7EE
S21401E04085F87570F7E7FFF7BFFE18B940F206408E
S21401E05005B0F0BD06220021204602AB16F0A8FC52
S21401E060002847D0002002A917F093FC4FF47F4107
S21401E070314840EA04200840F9F76EFA05212046A7
S21401E08016F03DFC0321204616F039FC06212046F9
S21401E09016F035FC01232449E2B203FA02F20B68BA
S21401E0A023EA02030B60254B93F90630A34201D104
S21401E0B0FFF780FE002005460B791C4A013BC1B2E2
S21401E0C0994222DBFF260020D65402F0EBFB0546E0
S21401E0D0174F002D82D095F97530A34205D13B78B4
S21401E0E0F3B91321284618F0A1F9284602F0DAFB05
S21401E0F00546EEE706220121204602AB16F058FC43
S21401E1000028B3D0012002A9AEE75656A64200D099
S21401E11025B1551895F90150555401250130CEE722
S21401E12085F87560E1E700BF7C2000203F270020CE
S21401E1305F270020370004000080FFFF61270020D2
S21401E1402DE9FF41334C064601A8FFF74FFE237920
S21401E150019A93421ED86279012A3AD100274FF0DC
S21401E160FF383D4610E02368EB40D9070BD508225F
S21401E17002AB114668B216F01BFC20B1039B434567
S21401E1803CBF2F469846013523799D42EBD378B2A2
S21401E190FFF7F6FE00250122236802FA05F73B4247
S21401E1A033D13B432360A3680C21013343F6FF7050
S21401E1B0184A7361A360F9F747F998B1236823EA0F
S21401E1C007032360A368013BA36073614FF0FF352B
S21401E1D017E0022AFAD1104A134413F90109421C26
S21401E1E0FBD0D5E722790D4C013A2146D2B2601C0C
S21401E1F06DB21BF0B1FD2246202138202570F9F7BB
S21401E20023F9284604B0BDE8F0810135202DC4D19C
S21401E210DCE700BF7C2000203E2700203F270020AF
S21401E2202DE9F043002489B0B34D04213F2001AA13
S21401E2302C70F9F729F900B10194019F002F50D0F5
S21401E240012F8CBF00270127002600242C70AB4D20
S21401E2500C212A4643F6FF70F9F716F9C0B10D23D3
S21401E260AB80019B2C60032BAC6011D803AC22461B
S21401E270142143F6FF70F9F707F948B994E8070047
S21401E28085E807002A460C2143F6FF70F9F7DCF80B
S21401E290019B042B06D004213F200DEB01020191C6
S21401E2A0F9F7D2F820213820954AF9F7EDF828B188
S21401E2B020224FF0FF3192481BF068FD03222B7994
S21401E2C05B00B3FBF2F38F4A1370FFF773FDF8F7A9
S21401E2D0C3FC014618B140F2074004F061FA00247D
S21401E2E013E001263746B0E72B68E340DB070BD582
S21401E2F008224FFA84F81146404603AB16F058FB45
S21401E30010B94046FFF73CFE01342B799C42EBD313
S21401E3108EB11021372003AAF9F7B6F8002853D199
S21401E3200520F5F76FFF16F0E6FA044690B90146A8
S21401E3301A2004F035FA3FB13D20F9F7C5F800245C
S21401E3402B799C42C0F0B38017F025FB002009B062
S21401E350BDE8F0836C4A43688260DAB222B923F0E2
S21401E360FF0343F001034360684B40F2011120466E
S21401E37016F0C3FA2361E36943BB4FF410532380BD
S21401E38080231021638003A817F0F9FD102202AB49
S21401E39003A9204611F05CFD0646102103A817F0DC
S21401E3A0FCFD204611F07BFF2046FFF793FC37204B
S21401E3B0F9F78AF846B140F20740314604F0F0F921
S21401E3C04FF0FF30FFF7DCFD00262AE000234FF474
S21401E3D010511A4611F06FFFD2E73046FFF7F4FCF2
S21401E3E0F0B174B210220321204603AB16F0E0FA16
S21401E3F01028814620D10321204603AAFFF70AFDF3
S21401E4008046494603A817F0C8FDB8F1000F0CD0A6
S21401E41040F20740414604F0C3F92046FFF7B0FD3D
S21401E42001362B799E42D8D385E748F2030040EAAD
S21401E430062080B2F9F748F810220521204603ABE2
S21401E44016F0B6FA1028814613D10521204603AAF4
S21401E450FFF7E0FC8046494603A817F09EFDB8F199
S21401E460000FD5D148F2050040EA062080B2F9F740
S21401E4702BF810220621204603AB16F099FA102835
S21401E4808146CDD10621204603AAFFF7C3FC80466C
S21401E490494603A817F081FDB8F1000FB8D148F23C
S21401E4A0060040EA062080B2F9F70EF8B8E72046E3
S21401E4B0FFF78AFCF0B166B204220C21304602ABAB
S21401E4C016F076FA04280AD1029B0122C3F3002330
S21401E4D08DF80C300C21304603AB16F025FA0023DC
S21401E4E01022CDE90333CDE905330D21304603ABC8
S21401E4F016F01AFA013423E75F2700207C2000205B
S21401E5003F27002060270020370004000044400415
S21401E510F8B5104B044618790F4B00221D46D1B2B0
S21401E520884204D913F9017B561CA74204D10B4B30
S21401E5301B788B4202D9F8BD3246F0E70649481CE3
S21401E5401BF00AFC2C702021BDE8F8403820024A56
S21401E550F8F77ABF7C2000203F27002060270020A4
S21401E5600149024815F094BD2C0B0020E020002044
S21401E5704FF4C802084B094983F82500C3E9051280
S21401E580A2F5CA02DA6108225A60002283F8232023
S21401E5900F2283F8242070478820002010002800CE
S21401E5A038B516F051FA40B9094B38241A6893F871
S21401E5B02210034624328B4200DB38BD04FB03F5F0
S21401E5C05559ED0601D40133F5E70120F5E700BF03
S21401E5D08820002013B5114C94F82330DBB1626813
S21401E5E012F0020217D104F10800019204F05CF95E
S21401E5F0FFF7D6FF019A70B14EF6602194F82430E9
S21401E60007484B434FF48271FFF734F818B9636833
S21401E61043F00203636002B010BD00BF88200020F3
S21401E620E020002022F00042052A10B50DD0B2F5F8
S21401E630827F13D0032A06D1114A536823F00803B8
S21401E640536016F003FA002010BD0D4A1B88118C8A
S21401E65000209942F8D110840120F5E7084B5A684A
S21401E66093F8234022F00202012C5A60F4D102F002
S21401E6701BFCFFF7AFFF204616F0EAF9ECE700BFF8
S21401E6808820002040F20442034843680E301A42B4
S21401E690024B08BF1846704788200020D42000206F
S21401E6A0044B5B6813F004001CBF83F40063C3F3E0
S21401E6B0C02070478820002008B5054890F8233010
S21401E6C0012B02D0FFF7DEFF08BD0830FCE700BFD4
S21401E6D088200020044B93F8230001281CBF5868AB
S21401E6E0C0F38000704700BF88200020064B5A68A0
S21401E6F042F014025A600268C3F80E208288022093
S21401E7005A8216F0A5B900BF88200020F7B5044646
S21401E7100C2016460F461D46FFF7BCFA024620B9E6
S21401E72008A815F0B9FD03B0F0BD204650F80C3B23
S21401E73040F2035193F86E3057801370089B1671A0
S21401E7409360044BD58001930023009315F08DFC54
S21401E750E9E700BF17590300F7B504460C20164633
S21401E7600F461D46FFF796FA024620B908A815F08F
S21401E77093FD03B0F0BD204650F80C3B40F201512A
S21401E78093F86E3057801370089B16719360044B94
S21401E790D58001930023009315F067FCE9E700BFDD
S21401E7A01759030070B50D46094E0446318817F017
S21401E7B0A2FC33886189AB4228BF2B46172BB8BF12
S21401E7C0172320466381BDE8704017F05BBE00BF8B
S21401E7D0B20C00202DE9F04385B00446039117F0F2
S21401E7E06AFE039883790C33C75CC51815F0D6FE0C
S21401E7F01E2F804615D8012F52D9BB1E1C2B4FD871
S21401E800DFE803F0134E134E134E134E134E134E02
S21401E810134E134E134E4E4E134E134E4E4E4E4E39
S21401E820130007F07F03522B3AD1DDF80C904846CF
S21401E83099F8066015F0B2FE0C3619F80620431E4C
S21401E8401E2A9BB215D8012A17D9023A1C2A14D8B7
S21401E850DFE802F0401342133D133813401342130E
S21401E860441338135A1313135E136013131313133D
S21401E8706200522A48D0D22A48D017F001020AD1A3
S21401E88007F07F03522B06D01E2F04D004233946EF
S21401E890204617F01CFC03A815F0FEFC21260AE012
S21401E8A0062300223946204617F011FC03A815F06E
S21401E8B0F3FC41F20616204617F002FE304605B07C
S21401E8C0BDE8F083062B0DD0142BD6D10AE0052B1C
S21401E8D0D3D907E0022BF8E7042BF6E7032BCCD9B4
S21401E8E0D907CAD4022F1FFA88F900F0AB80236833
S21401E8F09E6816F4007640F0068104F1440015F097
S21401E900CBFC039B6364D6E7012BE1E70D2BDFE726
S21401E910032BDDE7012BD8E7002BAED1E2E720463B
S21401E92017F05CFE064600283ED1204617F051FE41
S21401E930002839D007F07F03522B00F08880082F7B
S21401E94027D1B9F1150F0CBF10200220691D17F051
S21401E9502BFEF0B163692046DA074BBF23F00103B3
S21401E96043F00103314601214CBF6361636117F037
S21401E9704CFEB5F80110B5F80320B9F1150F05F1F5
S21401E98005050CBF102302232046009516F0D4FA85
S21401E9905DE0636913F001023ED023F0010300211C
S21401E9A02046636117F031FE1E2F44D8012F46D949
S21401E9B0BB1E162B43D801A252F823F045EA0100EC
S21401E9C03FEA010077EA01003FEA010087EA010019
S21401E9D03FEA010073E901003FEA0100A9EA0100EC
S21401E9E03FEA0100B5EA01003FEA0100C5EA01007D
S21401E9F03FEA010057EA01003FEA0100D5EA0100BB
S21401EA003FEA01003FEA01003FEA0100F3EA0100A4
S21401EA103FEA0100FDEA010043F0010363610121C1
S21401EA202046029217F0F1FD1223029A394620463B
S21401EA3017F04DFB0BE0522F54D0D22F07D00623F0
S21401EA400022F3E72046B5F80110FFF7ABFE03A856
S21401EA5015F022FC44E0B5F80110B5F80320B9F131
S21401EA60150F05F105050CBF3B4602232046009510
S21401EA7016F0BAF9EBE72046B5F80320B5F8011011
S21401EA8016F00EFBE3E7A9F10709B5F80530B5F86E
S21401EA900320B5F801101FFA89F00735019000959B
S21401EAA0204616F080FBD2E72046B5F8011016F096
S21401EAB0E7FBCCE72046B5F80320B5F8011016F0C1
S21401EAC0E4FBC4E71FFA88F22046013A691C16F0F7
S21401EAD0E0FBBCE72046039AB5F8011016F04EFCA1
S21401EAE00026E8E62046039AB5F8011016F096FCD3
S21401EAF0F6E72046039916F0D0FCF1E72046697840
S21401EB0016F031FDA3E71E2F7FF409AF204616F05D
S21401EB104AFD9CE77FB5174A0646136842F605206C
S21401EB2023F00803136018F06AF8054650B16846EA
S21401EB3003F068F8002017F020FD044620B92946A6
S21401EB4016F0CBFD04B070BD1022684604F1210119
S21401EB501BF0E5F838B10121204617F056FD636930
S21401EB6023F0010363611EB13146204618F01EF9F9
S21401EB702046E0E71422002007B5837801916A4613
S21401EB80082104488DF8003015F0BAFA03B05DF894
S21401EB9004FB00BFE020002010B50421044642F229
S21401EBA0240016F026FE4FF0FF33A0F80340437111
S21401EBB083710648FBF786FD16F05FFE407920B1AB
S21401EBC016F05BFE407940F4805010BDEB2903003F
S21401EBD00022054BC3E90322C3E905221A70DA6154
S21401EBE04FF6FF721A857047B4200020014B18605B
S21401EBF0704700BFB020002082780D4B13B55A60D5
S21401EC00B0F8032091B2102910D040F60344A14277
S21401EC100CD041791B8D8DF80210ADF8042005212A
S21401EC206A460448ADF8003015F06AFA02B010BD25
S21401EC30B4200020E0200020034637B582790190F9
S21401EC400C329B5C10440F2B0CD8042B0ED9053BC1
S21401EC500A2B0BD8DFE803F01B0A0A1B0A0A0A0A6A
S21401EC600A141700302B12D03E2B14D0FBF708FDE8
S21401EC70019B834202D001A815F00EFB03B030BD04
S21401EC80FFF7BAFFF2E7C2780B4B5A60EEE701A92D
S21401EC9002F0D0FCEAE70024084D019B43B155F889
S21401ECA0043B01A90134009098470B2C0098F4D13D
S21401ECB001A815F0F1FAD9E7B420002034A6030024
S21401ECC007B500F0FFF820B103B05DF804EBFFF7DD
S21401ECD0B3BF00F003F9019018B1054B1B681BB1D7
S21401ECE0984703B05DF804FB01A815F0D5FAF8E7DC
S21401ECF0B0200020024610B1022804D0704703213C
S21401ED00024815F0BDB9FFF7DBBF00BFE0200020C9
S21401ED1008B5002141F2090016F06BFD0A48FBF721
S21401ED20D1FC16F0AAFD0346084AD0F80600106288
S21401ED305B89938416F0A1FD407920B116F09DFD04
S21401ED40407940F4805008BD2DA70100B420002072
S21401ED50024B1A78024B53F822301847B420002091
S21401ED6060A6030010B504460120FFF7F1FF034B30
S21401ED7000201C70BDE81040FFF7EABFB420002059
S21401ED8008B550B9054B1888FFF706FFFFF7C0FF17
S21401ED90BDE808400120FFF7E5BF08BDB00C002024
S21401EDA038B505460C4669B9022142F21B0016F039
S21401EDB020FDB5F86C30A0F803300D48BDE83840AA
S21401EDC0FBF780BC122142F21A0016F012FD214612
S21401EDD0B5F86C30053020F8023C04F1100351F808
S21401EDE0042B994240F8042BF9D10248E6E700BF0C
S21401EDF083280300BF280300014815F06BBA00BF43
S21401EE00C420002040F6FF73F7B5B0F86C200191DE
S21401EE109A4204D101A815F03FFA03B0F0BD0B46A3
S21401EE20012463BB1A4815F018FCFFF7E5FF0446FA
S21401EE300028F2D015F0B2FB6379054603F001070E
S21401EE406FF30003637104212046A66815F0E8FA03
S21401EE504279847967F300024271D243B6F86C10A6
S21401EE600C34866002F001020155C1F30321071933
S21401EE7041EA02127A707D80FBF738FCD5E75A79B1
S21401EE80986022F0030222435A7100241B68C8E7E7
S21401EE90C420002070B50546064C206800B970BD38
S21401EEA08368AB4204D10668FEF78EFD2660F4E760
S21401EEB00446F2E7C42000200146014815F0CDBB08
S21401EEC0C8200020014815F005BA00BFC820002060
S21401EED00146014815F0C1BBC0200020034BD8688D
S21401EEE018B103F10C0015F0F5B97047B4200020F5
S21401EEF0044BDA6822B95869003818BF01207047F8
S21401EF0001207047B42000200138C0B20A289ABFF9
S21401EF10014B185C0020704768A6030007B5064839
S21401EF2015F0D8F9042101900DEB010015F0F3FB63
S21401EF30019803B05DF804FBE4200020F7B51868DB
S21401EF4010F002001ED0164E3168D1B10024042202
S21401EF5023460DEB0200019415F094F9BDF8063036
S21401EF60DB0702D4FFF7DAFF044600250D4F57F8FA
S21401EF70043B23B12146BDF80400984720B133680D
S21401EF8033B9012003B0F0BD0135062DEFD1F6E708
S21401EF90054B022193F90000FEF7E4F9F1E700BF03
S21401EFA0E4200020E82000206827002010B509484A
S21401EFB0FEF7C6F90024084B0849187020200C609B
S21401EFC0FEF71EFE064BC3E90044C3E90244C3E94B
S21401EFD0044410BD3C0B002068270020E4200020DC
S21401EFE0E820002013B5C37A0093B0F80930D0F8B2
S21401EFF00520D0F80110007802F0A4F80446034872
S21401F00000F03AFB848002B010BD00BF200204036A
S21401F010FF2337B50DF107008DF8073002F048F9E8
S21401F020044604489DF8075000F026FB848085714D
S21401F03003B030BD2003040110B5007802F01EF9BC
S21401F0400446024800F018FB848010BD2002040A22
S21401F050837810B5132B0C4608D1054B1B6803B1FA
S21401F06098472046BDE8104015F016B910BD00BF00
S21401F0700021002010B500210446007816F092FC0D
S21401F08048B16178207817F086F90446034800F005
S21401F090F3FA848010BD0224F8E700BF200256016F
S21401F0A010B54178007802F0B9F80446024800F03D
S21401F0B0E3FA848010BD00BF20025602002110B57D
S21401F0C0421D03790446084615F001FB024648B185
S21401F0D06188208815F053FE0446034800F0CCFAF8
S21401F0E0848010BD1A24F8E720020A0213B50446EC
S21401F0F0007817F03CFA70B10023CDE90033E278CE
S21401F100B4F8011016F07BFA0446044800F0B4FA8D
S21401F110848002B010BD2524F7E700BF20020A0450
S21401F12008B50649064814F0B3FF0649064814F028
S21401F130AFFF0648FEF77CFD002008BD640B0020EB
S21401F140082100204C0B0020042100205C0B00202D
S21401F15030B5114B0D469942144685B018D193002F
S21401F1600FD503A902A8FEF717FB08230193039BFB
S21401F170E1B2009300222846029B41F0005114F0B0
S21401F1805FFF064816F0EBFC00B10471012000E0B9
S21401F190002005B030BD00BF04210020E0A603001A
S21401F1A022F00042B2F1A04F08B504D1034816F090
S21401F1B0D6FC012008BD0020FCE700BFDCA603004A
S21401F1C037B500248DF800408DF801408DF80240D7
S21401F1D08DF803408DF804408DF80540F8F720F8C7
S21401F1E0C0B1FFF74FFA034600689B880090ADF860
S21401F1F00430FFF755FA0546074800F03DFA034686
S21401F2008480BDF8042000985A81C3F806001D7357
S21401F21003B030BD0224EEE72009011510B50078D1
S21401F22017F000F9044618B90249034814F030FFF4
S21401F230204610BD740B0020E020002022F0004282
S21401F240B2F5037F2DE9F8431C460AD840F20523A0
S21401F2509A4209D80E2A00F0DA8040F203139A4245
S21401F26053D00020BDE8F883A2F20622062AF8D879
S21401F27001A353F822F000BFA9F2010045F30100F3
S21401F28063F2010063F2010063F2010095F20100EE
S21401F2906BF3010064486588247816F060FC00284A
S21401F2A0DFD085808471DCE7256895F8713095F8A4
S21401F2B05940012B23D1A40923D0012C23D0E21ECF
S21401F2C054425441594895F8736095F86E9095F9F3
S21401F2D0758095F8767016F042FC0028C1D06B6DEB
S21401F2E04360B5F8583084720381731E5E425E41F6
S21401F2F0C67280F80C9080F80D808773B1E7002401
S21401F300E0E70324DEE70224DCE7207801F0A4FA34
S21401F3100028A6D0464894F80090B4F80280A78842
S21401F320E688257A648916F01AFC002899D080F8B8
S21401F3300490A0F80580A0F80770A0F80960C572CF
S21401F34084818EE7207801F087FA002889D06078DA
S21401F3502578FFF7D9FD0446364816F000FC00284C
S21401F3603FF47FAF057144717BE7A578012D1ED070
S21401F370022D2DD0CDB9E37894F80080023BDBB2A4
S21401F380022B8CBF01252C4A94F90470667998BF2C
S21401F390D55C94F90640294816F0E1FB28B180F8BF
S21401F3A0048045718771C671047201205AE7E378BB
S21401F3B094F80080023BDBB2022B98BF1E4A94F9F8
S21401F3C00470667998BFD55C94F906401C48E3E75B
S21401F3D0E3781C48023BDBB2022B94BF164A012598
S21401F3E094F80180277898BFD55C94F904906679E3
S21401F3F094F9064016F0B3FB0028D6D0A0F8048096
S21401F4008771C57180F8089046728472CDE72346ED
S21401F4100822002113F8014B0B4816F0B1FB002817
S21401F420C3D00471C1E700BF00A7030008A703000B
S21401F4300CA7030010A70300FCA603001CA70300EB
S21401F44014A7030004A7030018A7030010B500784B
S21401F45001F002FA40B1132116F0E8FF0446034812
S21401F46000F00AF9848010BD2524F8E7200206057D
S21401F470044A0346106810B102789A4200D17047D8
S21401F480C068F8E710210020142208B500210348BF
S21401F4901AF07CFC0022024B1A6008BD1C210020D9
S21401F4A01021002038B5104D0446104A284615F0A4
S21401F4B01DFA4FF48270A0470D4B0146186028785C
S21401F4C018B14FF4827215F014FA4FF48270A04707
S21401F4D0084B01461860287828B1BDE838404FF43B
S21401F4E0827215F006BA38BD6927002038A70300D6
S21401F4F014210020182100202DE9F04180461B4FE1
S21401F5003E687EB9D8F80420B2B90025202008F15B
S21401F5100801FEF775FBC7F80080C8F80C502846AE
S21401F520BDE8F081317898F8002091421CD006F1B0
S21401F5300C07F668E5E7013652F826100029FAD1DD
S21401F540B142E2D0D8F804304C1C53F821309B6805
S21401F55043B19847054628B12146D8F8040016F06D
S21401F56060FADCE72146EBE70025D8E7102100200A
S21401F57010B5044616F058FB28B9034B22681C60E8
S21401F580024B1B681A6010BD0C21002014210020BC
S21401F5902DE9F34704680F464FEA0429194609F492
S21401F5A0E069C4F3072349EA030909EB0205B5F547
S21401F5B0807F8246164605D94FF01D08404602B0A8
S21401F5C0BDE8F087019116F02FFB80460028F5D1A3
S21401F5D0104B24F47F4424F0C704C3F800A044EA87
S21401F5E015240D4B2D02ADB22C431D68324645F84D
S21401F5F0044B4D44284601991AF0A1FB012F04D172
S21401F600FF2ED9D805F8016CD8E7022F08BF25F8D8
S21401F610026CD3E70C2100201421002008B5074B0B
S21401F6201A68074B52F8040B1968064B49681B68A1
S21401F6309847054B1B68988808BD00BF1421002019
S21401F6400C210020840B0020182100200022024BF0
S21401F6501A6016F0EBBA00BF0C210020054B1868A3
S21401F66008B183681BB1003818BF01207047C06815
S21401F670F6E700BF1021002010B5034C2368186080
S21401F680F7F71CFE206810BD18210020F8B50D46BE
S21401F69000211C4B1C4E1B68044618603368174635
S21401F6A0197059709970D97016F0A8F928B1B5B9C2
S21401F6B04368220E0BB11D6865B924F47F4020F023
S21401F6C0C70040F40070FFF7D7FF0F230371002334
S21401F6D04371F8BD5979914201D00833EAE73846BB
S21401F6E0A84733681D68002DF3D124F47F4020F02D
S21401F6F0C70040F40070FFF7BFFF01234571037197
S21401F700E7E700BF142100201821002070B5054648
S21401F7100FF00CFB204C0646617911F0040121D153
S21401F720142220461AF032FB21220C21204614F026
S21401F73000FD0721204614F087FD6FF05F02A379D4
S21401F740212123441A7303225A7301229A73082231
S21401F7502046DA7316F072F920B13046BDE87040E3
S21401F7600FF0EABAA3790C331C442DB92379FF2B89
S21401F770F3D001332371F0E7012D05D16379FF2B17
S21401F780EBD001336371E8E7022DE6D1A379FF2BB5
S21401F7901CBF0133A371E0E71C21002073B51C4692
S21401F7A040F20A6322F000429A4209D8B2F5C06FCD
S21401F7B009D80D2A65D023D8032A33D0042A58D075
S21401F7C0002002B070BD6FF4C0631A44092AF7D84E
S21401F7D001A353F822F000BFEFF8010099F80100E9
S21401F7E0BDF80100CFF80100E7F80100C1F70100FC
S21401F7F007F901001DF901003DF9010089F9010031
S21401F800B2F5817FDCD16248257816F0A8F9002888
S21401F81040D101A90A2011F05CF80199207801F085
S21401F82053FACDE701A8F4F75BF85A48BDF804404F
S21401F83016F095F90028C3D000234371C3710372F3
S21401F8404372C372037343738373C3736FF04A03C4
S21401F8500522837420230271C3740122342382712A
S21401F86003756FF06F026FF01E0382720482437598
S21401F870A6E74948248816F072F90028A0D08480AB
S21401F8809EE723460422002133F8044B434816F032
S21401F89077F9F2E7057193E7207800F0DDFF00289D
S21401F8A08ED03F48267894F90150A47816F057F97F
S21401F8B0002885D006714571847181E7247839481E
S21401F8C016F04DF900283FF47BAF047178E72578F0
S21401F8D03548646816F043F900283FF471AF0571A6
S21401F8E0C0F805406CE7257830486468F2E7304890
S21401F8F02578648816F033F900283FF461AF057166
S21401F900A0F805405CE72B482578646816F027F9CF
S21401F91000283FF455AF0571447151E763782648D6
S21401F9200D2B96BF254A0125D55C247816F017F9CC
S21401F93000283FF445AF0471457141E76378002123
S21401F9400D2B98BF1D4A1E4898BFD55C6368A278E8
S21401F95088BF0125267816F013F908B1067145719E
S21401F9606378012B3FF62CAF8DF80430012200217D
S21401F970134801AB247816F003F900283FF420AFB2
S21401F9800123047143711BE724780E4898E700BFF2
S21401F99054A703007CA7030084A7030080A70300E5
S21401F9A064A7030078A7030074A7030070A70300E9
S21401F9B068A703006CA7030060A7030046A703001F
S21401F9C058A703005CA7030038B5F7F729FB0446E0
S21401F9D060B9074B074D1B6828466B60FFF78CFD27
S21401F9E0044618B908236B70F7F72CFC204638BD7F
S21401F9F0081B0020FC0A00200346024613B513F834
S21401FA00030B012100939378527818F0DBFC04462F
S21401FA100248FFF731FE848002B010BD2002440088
S21401FA20002313B51A4619460078009318F0CAFC4D
S21401FA3004460348FFF720FE848002B010BD00BFD5
S21401FA40200244011FB50346024613F8050B0121A7
S21401FA50029313790193D37800939378527818F030
S21401FA60D2FC04460248FFF707FE848004B010BDAE
S21401FA702002440610B582784178007801F072FCC5
S21401FA8004460248FFF7F8FD848010BD20025700A7
S21401FA9010B501210446007815F084FF60B12246B6
S21401FAA06378002112F8020B01F0DAF904460348E4
S21401FAB0FFF7E2FD848010BD0224F8E7200257011B
S21401FAC0002313B5CDE90033D0F802204178007841
S21401FAD001F080FC04460348FFF7CEFD848002B0A7
S21401FAE010BD00BF2002570438B505460848FFF789
S21401FAF03FFD044648B9FFF791FD04461DB1054B8D
S21401FB001B689B792B70FFF7A1FD204638BD00BF0F
S21401FB10B8A70300182100202DE9F84380460D48B8
S21401FB200F4616461D469DF82090FFF721FD78B931
S21401FB30094B1C6884F80480C4F80570C4F8096091
S21401FB40A4F80D5084F80F90BDE8F84315F0C4BF33
S21401FB50BDE8F883C0A703001421002010B50446B1
S21401FB600548FFF705FD30B9044B1B681C71BDE85D
S21401FB70104015F0B1BF10BDC8A703001421002026
S21401FB8038B5054606480C46FFF7F2FC38B9054B72
S21401FB901B681D715C71BDE8384015F09DBF38BD0E
S21401FBA0D0A703001421002038B5054606480C46A8
S21401FBB0FFF7DEFC38B9054B1B681D715C71BDE8AB
S21401FBC0384015F089BF38BDD8A70300142100209E
S21401FBD070B5064607480D461446FFF7C9FC40B9FE
S21401FBE0054B1B681E715D719C71BDE8704015F078
S21401FBF073BF70BDE8A703001421002010B513469B
S21401FC0004460A4606480121FFF7C2FC30B9054BF7
S21401FC101B681C71BDE8104015F05EBF10BD00BF2B
S21401FC20E0A703001421002070B5064608480D46DB
S21401FC301446FFF79DFC48B9064B1B681E715D71A3
S21401FC40C3F80640BDE8704015F046BF70BD00BF62
S21401FC50F0A703001421002010B504460548FFF75D
S21401FC6087FC30B9044B1B681C71BDE8104015F0C9
S21401FC7033BF10BDF8A703001421002038B5054690
S21401FC800C4607480121FFF783FC38B9054B1B6872
S21401FC901D715C71BDE8384015F01EBF38BD00BF50
S21401FCA008A803001421002010B504460548FFF7F4
S21401FCB05FFC30B9044B1B681C71BDE8104015F0A1
S21401FCC00BBF10BD00A80300142100202DE9F04150
S21401FCD080460F4616461D46DDE9062301210848E3
S21401FCE0FFF756FC50B9074B1C6884F8048067710F
S21401FCF0A671E571BDE8F04115F0EEBEBDE8F081F4
S21401FD0010A803001421002038B505460C46074804
S21401FD100121FFF73DFC38B9054B1B689D80DC804F
S21401FD20BDE8384015F0D8BE38BD00BF20A8030096
S21401FD301421002070B5064608480D461446FFF704
S21401FD4017FC48B9064B1B681E71A3F80550DC71F9
S21401FD50BDE8704015F0C0BE70BD00BF18A8030016
S21401FD601421002070B505460B480E46FFF700FC2F
S21401FD70044678B9FFF752FC084B04461B6825B1C8
S21401FD80D3F806202A605A89AA800EB11B7B3370ED
S21401FD90FFF75CFC204670BD28A803001821002050
S21401FDA04022094B83F8212383F8222383F8232357
S21401FDB083F8262383F8252383F8202383F8242336
S21401FDC0502283F8222C704700E100E0044BD869EA
S21401FDD010F480501CBF186A00F00100704700BF85
S21401FDE00080E00F174B2DE9F047D3F8048098FA0E
S21401FDF0A8F4B4FA84F406464FF0010A1D680F46CB
S21401FE0093F8089004EB440105EB81054C4504DBAF
S21401FE104FF0FF342046BDE8F0870AFA04F313EAF0
S21401FE20080F0BD0AB6803F00103B34206D10622DC
S21401FE302946384619F073FF0028EBD001340C35FB
S21401FE40E4E700BF302100200022014B5A607047D2
S21401FE5030210020F8B5044624EAE4740EF066FF6B
S21401FE60202CA8BF2024104D06462B7AA34205D18C
S21401FE70002430460EF060FF2046F8BD00272868B3
S21401FE802C726F6010B1FDF725FF2F602B7A002BC7
S21401FE90EED00C206043FDF7FDFE28600028E7D178
S21401FEA007242872E5E700BF30210020002230B584
S21401FEB0074B1C791B68944202DC0021084630BDC2
S21401FEC019465D6E90338542F8D00132F3E700BFE4
S21401FED0241B0020036A73B513F0010304460D4684
S21401FEE0164631D0C369BBB915F0D7FE174BE3618F
S21401FEF014F066F800F5BB501030606004F1200283
S21401FF0052E8003F43F0040342E800310029F7D1EC
S21401FF104FF48000F7F7F6F96168A28D4B1B05F6E2
S21401FF20B8356D1A002D06DB501C82B240F27120E6
S21401FF30616A00FB0133002120460091314615F02D
S21401FF40F4FE122002B070BD1846FBE70D01020058
S21401FF502DE9F84314460E4699460746F7F752FB35
S21401FF600546204614F01AFBDFF888800021B8F811
S21401FF700440001B20EAE0743078F8F70FFC2318E1
S21401FF80FF2B08DD317801B90130033041F0100153
S21401FF903170C0F1FF04089BC9F800001C6033787B
S21401FFA0DB060DD513F0D3FF2521B0FBF1F303FBE0
S21401FFB0110107F14000C9B2F8F7F2FC88F8060013
S21401FFC0002328461A46317811F091F828460999F7
S21401FFD011F0DFF897F83F20284698F8061002F04F
S21401FFE00F02F8F7B1FB2846214611F054F92846CE
S21401FFF0BDE8F8833C210020F0B587B0044615F033
S21402000044FE0646002504F13000FCF771FB32463A
S21402001000210320FCF774FE294F8DF80F50002EA6
S21402002048D0F37913F0200246D0FA7903F01F0382
S2140200309B1AAB4209DD012B0CBF04231423B579AE
S2140200408DF80F3005F01F05ED0005ABE26E019648
S21402005000930DF10F0104AB2046FFF779FFDDE9AF
S2140200600413064694F83F00194400F00F0011F0FE
S21402007086F99DF80F300544DB061FD52946304623
S214020080F8F7ACFB0F4B6168E3613B68627E19448C
S2140200900020FCF7F9FB059BBA883046E16EFCF7B8
S2140200A08BFBBB88059A1A443B68BA802B443B609C
S2140200B007B0F0BD3546C8E71546C6E7024BE2E78D
S2140200C03C210020D50102000D0102000E4B10B5A6
S2140200D0DA8A044622B9826812F4601F08BFDA82FE
S2140200E0A38D20460133A3850121FBF7D3FF40F2FF
S2140200F071216368626A204601FB02336360BDE8D1
S2140201001040FBF779BF00BF241B002070B50C46D9
S21402011006285AD8DFE800F004242C3659592C0059
S21402012000260B6A294D1A07AE802E6009D523F0E9
S21402013008030B6201F16C0014F0AEF8236FC4E9F9
S2140201401B360023226BA18D04F14000EB71F8F7F9
S21402015031FC84F83E002046BDE87040FFF74CBFF5
S214020160FCF7ACF8844230D1BDE87040FCF76ABCBC
S214020170174B1A68637ED17A52795B1A93421EDB5A
S214020180DAB21CE0114DEB790133EB710B6ADB0638
S2140201900DD5C86E14F002FAAB88984207D1236ACE
S2140201A04FF4800043F020032362F7F7ABF8084BC6
S2140201B0617E1A68D37A12790B449342E0DD2046B8
S2140201C06276BDE87040FFF781BF70BD3C2100201B
S2140201D0601D002003280B4609D1064A1846D1792D
S2140201E00131D171927983F83E20FFF705BFFFF700
S2140201F08DBF00BF3C2100202DE9F04F1D4685B083
S2140202000F9E0E9F06EBD67E4FEA6E0E07EB870713
S2140202100EEB47078A4601920446FCF749FD924ACE
S2140202204FEAE77882FB0713C8EBA3082B1FDBB263
S21402023006FB03F3DB1B82FB0312DB17C3EBA203F3
S2140202409845844600F30C810022013300EB8303B9
S2140202504FEA880900EB8800B0F90010B0F902E016
S2140202600029B8BF4942BEF1000FB8BFCEF1000E5A
S21402027009B20FFA8EFE7145B8BF714604308A4243
S214020280B8BF0A468342E7D13CF92810E144B9F9DF
S2140202900200C1EB8111490091FBF2F1C0EB801024
S2140202A0400090FBF2F021700199A5F10C03DBB23D
S2140202B060704800B3FBF0F06B4D06EB070E029041
S2140202C085FB0E3006EB0E01039085FB013006EB34
S2140202D00109C917C1EBA001029806EB090808300C
S2140202E05045A8BF504685FB09A34FEAE979C9EBFA
S2140202F0A30985FB08A308EB06074FEAE878C8EBD4
S214020300A30885FB07A306EB070BFF17C7EBA3079C
S21402031085FB0BA302974FEAEB7B039FCBEBA30B6A
S2140203204FEAEE73C3EBA7030CEB830A3CF92330C8
S214020330BAF902A0C3EB83135B0093FBF2F3A3703C
S2140203400CEB8103B3F902303CF92110C3EB8313A3
S214020350C1EB81115B0093FBF2F3490091FBF2F1D2
S21402036063710CEB89032171B3F902103CF9293051
S214020370C1EB8111C3EB83135B0093FBF2F34900DD
S21402038091FBF2F1A3710CEB8803E171B3F9021051
S2140203903CF92830C1EB8111C3EB83135B0093FB5E
S2140203A0F2F3490091FBF2F1029F23720CEB8703F2
S2140203B06172B3F902103CF92730CAEB8A1AC3EB12
S2140203C08313C1EB81115B0093FBF2F34FEA4A0AF7
S2140203D0490091FBF2F19AFBF2FAA3720CEB8B0343
S2140203E0E17284F803A0B3F902103CF92B30C1EB9A
S2140203F08111C3EB83135B0093FBF2F3490091FB7D
S214020400F2F12373072806EB460361730EEB430EE5
S21402041023DD0199A4F10E0706FB01F107EB400765
S2140204204E0085FB0E314FEAEE73C3EBA1030CEBD5
S2140204308301B1F902103CF92330C1EB8111C3EB01
S214020440831349005B0091FBF2F193FBF2F3023453
S214020450A742B64461732373E3D105B0BDE8F08FBB
S21402046000224FEA88090FE767666666F8B50F4608
S214020470079D043BDBB205FB03F3194A194C82FBCA
S2140204800312069EDD17D4F800E0C5EBA205AD1BED
S21402049075440446FCF70CFCAF42A8BF2F46002F5B
S2140204A01CDD0021104B00EB8600B3F900E0861C31
S2140204B0651C36F9213030F92120C3EB8313C2EBD9
S2140204C082125B00520093FBFEF392FBFEF204F8EC
S2140204D0112005F8113001318F42EAD13846F8BDB5
S2140204E06766666644210020B825002038B502FB00
S2140204F000F5154B154C196084FB05344FEAE57C74
S214020500CCEBA404FCF7D4FB8B2D4FF0000118DDD6
S21402051000EB840CACF1340CB0F91030B0F91220B8
S214020520002BB8BF5B42002AB8BF52421BB212B2BF
S2140205309342B8BF134604309942B8BF1946844561
S214020540EAD1034B198038BD4421002067666666EF
S214020550B8250020F0B5174C87B0606B08B3A76BC0
S214020560D7B1BE79F8F760FB0223FF210C36BA5DDD
S214020570CDE90431BD1995F8233000215B090393B8
S214020580AB8BD20902936B8B80B201932B8B0093B9
S21402059005F1080312F05DFA606BF8F7EFFF00232F
S2140205A06363A06B18B1FDF70FFA0023A36307B0CD
S2140205B0F0BD00BF4821002038B50C4D0446E86B5C
S2140205C018B1FDF701FA0023EB6311F012FD08489B
S2140205D0F9F7B4FFFFF7BEFF21460448FBF75AFDC2
S2140205E0BDE83840034813F057BE00BF482100203C
S2140205F05021002068210020034B586A10F00500A5
S21402060001D1FFF7D9BF704748210020024B586A34
S214020610C0F38000704700BF4821002010B50EF0DE
S21402062085FB0446FFF7F2FF40B1074A536A23F000
S21402063004035362FFF7E0FFFFF78CFF2046BDE896
S21402064010400EF079BB00BF4821002013B5114CB4
S2140206500EF06CFB236A0193002323620EF06CFB00
S214020660019B5BB9636A1B0406D511F095FE58B16F
S214020670636A23F40043636202B010BD01A813F05C
S21402068029FE12F0BCF8EBE74FF08040F6F73AFE90
S214020690F2E700BF48210020014B186E80B2704777
S2140206A000C001B80A4BD86800F07060B0F1106F55
S2140206B00CD008D8B0F1E06F08D0B0F1006F14BFCC
S2140206C0002001207047B0F1406FF8E70120704724
S2140206D0000002B822F00042012A10B50C461FD1D3
S2140206E08B68590513D51A0511D443F40063042008
S2140206F0A360FDF7CFFA024648B194F86E3040F296
S2140207000B210370A3894380064813F0B9FC2046E8
S21402071013F0E2FC01202146FDF7F2F8012010BD9D
S2140207200020FCE7E02000202DE9F04106460120EB
S214020730884615461F46FDF7C1F8044640B37822A0
S214020740002119F023FB84F872803368FF22C4F874
S2140207505A30B38884F87170A4F85E302B68114959
S2140207606365AB880868A4F85830002384F87520BF
S2140207702361636184F8762002460133DBB252B904
S21402078084F86E3040F6FF736060A4F86C300C603C
S2140207902046BDE8F08192F86E509D42ECD0526839
S2140207A0EDE700BF04220020012313B503FA01F18E
S2140207B090F86F30044623EA010149B280F86F10C0
S2140207C0002934D117F03DFA102104F1180015F073
S2140207D0E4FB2046FEF75EFB04F1400013F05CFDEE
S2140207E0204617F098F9134A13681BB1A34215D195
S2140207F063681360A36813F4005218D143F40053DD
S21402080020460D49A3600192FCF750FF01212046C5
S214020810019A02B0BDE8104013F032BC1A465B687B
S214020820002BE7D0A342F9D163685360E2E702B037
S21402083010BD00BF04220020D5060200054A03466A
S214020840106800B97047B0F86C209A42FAD0406837
S214020850F7E700BF04220020054A0346106800B9E5
S214020860704790F86E209A42FAD04068F7E700BFC9
S2140208700422002070B505460E46094B1C680CB9CA
S214020880204670BD94F87130B34207D1062229463D
S21402089004F1540019F043FA0028F1D06468EEE738
S2140208A00422002010B9024B18687047406870474F
S2140208B0042200200023034902460B60012078210F
S2140208C0FCF77EBF042200200020064B1B6803B9FB
S2140208D0704793F870205B68012A84BF0130C0B26B
S2140208E0F5E700BF0422002090F8743003F00B03F3
S2140208F0013BDBB20A2B9ABF014AD05C002070474C
S21402090030A8030010B504460C20FDF7C3F90146D3
S214020910D0B194F86E3003702046FFF7E5FF0872F8
S214020920B4F860300A464B80B4F862300748CB8091
S214020930B4F864308B80B4F86A30BDE810404B815E
S21402094040F2031113F09CBB10BD00BFE020002054
S21402095038B5054602200C46FDF79CF9024650B112
S21402096095F86E304470037040F20721BDE83840B7
S214020970014813F085BB38BDE020002038B50A4B8D
S21402098004461B680D462BB143699B0702D515F03A
S2140209909CFD30B12A4620680421BDE8384016F096
S2140209A097BFA3699D6138BD08220020014B1860DD
S2140209B0704700BF08220020024B1868003818BF94
S2140209C0012070470822002013B50446019120B981
S2140209D001A813F061FC21200FE008460029FAD096
S2140209E013F0DCFD80B20028F2D0084B01991B6898
S2140209F02BB920460199FDF7EDFE02B010BD204648
S214020A0098470028F5D00020F7E700BF082200200C
S214020A10436A70B59E04044608D41F494A685505C1
S214020A2005D5D1F80E3003604B8AA38070BD91F8CD
S214020A30236090F83350012E17D1866AF60414D438
S214020A40032D0AD10146284614F004F80028EDD1F9
S214020A50636A43F008036362E8E701F025FF0028B3
S214020A60E4D1022384F83330F2E7032DDED012F00D
S214020A7004020BD0012243F008036362D1F80E3061
S214020A8084F833202360054B9B88CEE784F8332016
S214020A9023F00803DFE700BF88200020962000200E
S214020AA02DE9F047244E86F82200002841D0C0EBFC
S214020AB0C000C10000230122042089B2FCF780FE98
S214020AC0054668B90420FCF7F9FE2F464FF03809B0
S214020AD0A8464FF0A00A306096F82230BB4202DCED
S214020AE02846BDE8F0874FF4A073346809FB074434
S214020AF02362072304F1140084F83130A4F812802C
S214020B00C4F81CA084F8338013F0C6FB04F1180066
S214020B1013F0C2FB40F20113E3857F232046C4F89C
S214020B20288084F83230C4F8248013F08CFF013712
S214020B30D2E705463060D3E788200020074B93F8BB
S214020B402220824281BF1B68C0EBC00003EBC000BC
S214020B50406A8CBF00F00100002070478820002009
S214020B6008B50146FFF7EAFF40B1054BC1EBC101EC
S214020B70186800EBC101486AC0F3802008BD00BFB8
S214020B80882000202DE9F04F0646374A93B01068B9
S214020B9051680FAB03C39068344A18601468C6EBFA
S214020BA0C60304EBC304E37C12AA02EB430333F846
S214020BB00C1C636A1D0544D401252F4641F0100122
S214020BC094F8338094F83490B8F1000818BF4FF0C8
S214020BD00108D4E90723B9F1000918BF4FF001094B
S214020BE0012F94F831A004F1060B89B294F9324031
S214020BF005D0022F03D0042F0CBF03270027012D98
S214020C0005D0022D03D0042D0CBF03250025304647
S214020C10CDE90C230B91FFF7A3FFDDE90C23CDE909
S214020C2007500020CDE90547CDE903B0CDE901899B
S214020C3030460B99CDF800A001F0D2FB13B0BDE808
S214020C40F08FA26A94F82E70900648BF41F02001F9
S214020C50520648BF41F040011B0494F82F5048BF8B
S214020C6041F00401ACE700BF3CA803008820002046
S214020C70014B93F82200704788200020F8B50446FE
S214020C801546FFF75BFFB8B10E4EC4EBC4043268DC
S214020C90E70002EBC404636A13F010020FD0C3F33A
S214020CA0C0230B7033683B44DB7C5A1E042A04D8EC
S214020CB0033B18BF01232B70F8BD0023FBE7104649
S214020CC0FAE700BF882000201FB504460391FFF70D
S214020CD035FF0B4668B1084AC4EBC40412680749DC
S214020CE002EBC40400220648009204F10C0213F040
S214020CF0B3F904B010BD00BF8820002002010080B6
S214020D00E02000203D4AF8B51468C0EBC00304EBAF
S214020D10C304636A06465A0704D500231A461946D0
S214020D2001F040FC636A9B0706D53046FFF72AFFB0
S214020D30636A23F002036362304615F090FB0546B1
S214020D40D8B9626AD70618D510070BD521463046A1
S214020D50C2F3803201F0C4FB002834D1636A23F068
S214020D6008036362636A13F4006708D0304600F033
S214020D707DFB40BB636A590727D42846F8BD5A064E
S214020D8011D4E37C023B012BF4D8636A1B06F1D52F
S214020D903046A16901F0E8FB0023A361636A23F0F1
S214020DA080036362E5E7E37C03F0FB03012BE8D0F4
S214020DB03046616901F0BAFB636A676123F040035B
S214020DC063620028DDD00546D7E7E37CA28D012BBF
S214020DD003D182B1802A28BF80220121304694F8AE
S214020DE0303001F0DFFB05460028C6D1636A23F0E7
S214020DF004036362C1E74022EFE700BF88200020B9
S214020E00F8B505461646FFF799FE20B3134BC5EB19
S214020E10C5041B68376803EBC40499B904F11400CF
S214020E2013F03AFA636A676143F040036362002391
S214020E30606A336010F010000ED02846BDE8F84015
S214020E40FFF760BF04F1180013F026FA636AA76181
S214020E5043F08003EAE72120F8BD00BF8820002087
S214020E6037B50D460021044601919BB90D4BC4EBE4
S214020E70C4021B68204603EBC203042229469A7466
S214020E806A44FFF7BDFF044601A813F005FA2046A0
S214020E9003B030BD084613F01AFC01900028E5D1D5
S214020EA01A24F4E7882000202DE9F0410024382691
S214020EB0104D95F82230A34201DCBDE8F081E7B27E
S214020EC03846FFF73BFE98B106FB04F82868404414
S214020ED0436ADA060CD59B040AD4FFF799FD2B6801
S214020EE0384643445A6A42F006025A62FFF70AFF3D
S214020EF00134DEE7882000202DE9F04F2DED028B2D
S214020F00DFF83C92C0EBC003D9F8005087B005EB7F
S214020F10C30505F1140B804658460C46174613F0D7
S214020F20BBF905F11803184608EE103A13F0B4F9A7
S214020F30002013F0E4F90646002800F0FA80012F9C
S214020F4040F2726718BF1F27012CAC7471D0022CB6
S214020F5014BF042406240221304615F086F9012126
S214020F60304615F082F92146304615F07EF93046B5
S214020F7013F014FB84B2391B89B202295BD9012310
S214020F800A220093304642F6072315F0BFF90444BE
S214020F90A4B2391B89B202294FD904231222009324
S214020FA0304642F6042315F0B1F90444A4B23B1BC2
S214020FB0012B0496039342DC002199F82330002B80
S214020FC040F0B180039B3046591A89B215F058F9A1
S214020FD00446584613F060F96B6A6E6143F04002AD
S214020FE003F4006323436A6216D199F8230098B982
S214020FF013F085F9059078B1394615F041F90028C5
S21402100000F0938018EE100A059C13F045F96B6AFF
S214021010AC6143F080036B62686A10F0100000F067
S2140210208980404607B0BDEC028BBDE8F04FFFF763
S21402103069BE05248FE70020A9E70020B5E7002057
S21402104013F05DF905900028B6D0BB1E02211C1BCA
S21402105001F016F8A4B2844282465AD224F0010164
S2140210608AB2411A05A8029213F07CFB029A9246B3
S2140210700222BAF1000F16D00AF101010498C9B291
S214021080029215F0F2F8029A0498114615F0EDF85D
S214021090059904A813F0E3FB002013F030F9A4EB43
S2140210A00A040590A4B20598002837D0022C38BF4F
S2140210B00224A21E92B20F2A30D91021029200F008
S2140210C0DFFF029A0446824225D222F00F018BB23B
S2140210D0411A05A8029313F045FB0622029C611CE6
S2140210E00498C9B2029215F0C0F8029A0498114602
S2140210F015F0BBF8059904A813F0B1FB04EB0A013E
S214021100023189B2BAF1000F3FF457AF023189B209
S21402111053E70322ADE708B10722E0E705A813F07C
S214021120BBF85146EEE7002453E705A813F0B4F8DF
S21402113072E71A2007B0BDEC028BBDE8F08F00BF45
S2140211408820002070B5044615461E46FFF7F6FCBA
S21402115030B3144BC4EBC4001C6804EBC000426AF4
S214021160D3050BD44FF6DF73A1F120049C4217D8A7
S214021170A5F120049C4213D8A94211D8C3698B4218
S21402118002D1036AAB4204D0C0E9071542F002025C
S21402119042629DF81030868580F83030002070BD9F
S2140211A02120FCE788200020531E042B70B506463B
S2140211B00C4615460ED92046E574FFF729FC636AED
S2140211C043F016036362FDF705FA3046BDE8704049
S2140211D0FFF798BD032AEED091F83330032B0DD0DB
S2140211E04B6A5A0403D5064B5B681B0506D514F0FA
S2140211F0EEFE0028DFD141F2090070BD2120FCE797
S21402120088200020044AC0EBC003116801EBC3012A
S214021210CA7CFFF7C9BF00BF88200020F8B5054684
S2140212200C46FFF78BFC28B3052923D8124EC5EBD4
S214021230C5023368D70003EBC203586913F0AEF950
S2140212401F2817D833683B44986913F0A7F91F285C
S21402125010D8012C0ED0231F012B0BD93168224641
S21402126039444B6A284623F400634B62BDE8F840D3
S214021270FFF79ABF2120F8BD8820002008B5014656
S214021280FFF75CFC80B1094AC1EBC103126808464D
S21402129002EBC302536A23F0100343F004035362C3
S2140212A0BDE80840FFF72EBD212008BD882000209B
S2140212B038B50E4B05461A6893F82200002398426A
S2140212C001DC1A200EE0516A144611F0010F02F1F9
S2140212D0380208D141F001016162DCB22046FFF714
S2140212E051FC2C7038BD0133E9E700BF882000208E
S2140212F0F8B583780F46122B30D10D68AB790C33D4
S2140213001D44EC782E790CB144F480543046FFF735
S21402131015FC58B17CB9B5F80500FFF78FFA28B16D
S2140213202246214680F8766000F0C0F83846BDE8CE
S214021330F84012F0B1BF0A4BC6EBC6021B68E97949
S21402134003EBC2035A6A198222F0100200213046C9
S2140213505A621E73DC81FFF7B7FCE7E7F8BD00BFF1
S2140213608820002070B506460D461446FFF7E6FBB9
S21402137008B9212070BD13F058FB0542F9D004428B
S2140213806FEA0003F5D045EA04021A42F1D1012DB4
S21402139001D0042DEDD1631E012B01D9042CE8D116
S2140213A00B4BC6EBC6001B6803EBC00090F82E3052
S2140213B0AB4203D190F82F30A34207D0436A80F89D
S2140213C02E5043F0020380F82F4043620020D1E7FC
S2140213D0882000202DE9F047DDF8248006460D46D9
S2140213E017469A469DF82090FFF7A8FB002838D0AB
S2140213F0052D36D86B1E012B33D9052D31D01A4B4D
S214021400C6EBC6011B68FA0703EBC1018C6A4A6A7F
S2140214104CBF44F0200424F02004BB074CBF44F029
S214021420400424F040048C62BAF1000F15D042F456
S21402143000424A6281F83490D8F80030C1F806308B
S214021440B8F804304B814B6A2A4643F400633046B0
S214021450BDE8F0474B62FFF7A7BE22F400424A629D
S214021460F1E72120BDE8F087882000200E4B10B55A
S2140214701B68C0EBC00403EBC404636A13F04003AA
S2140214800FD0E37C6169032B08D101F06DF80023CD
S2140214906361636A23F04003636210BD01F046F89D
S2140214A0F5E71846F9E700BF88200020F8B504469D
S2140214B00E46154672B390F873308281012B1AD10C
S2140214C05A4A536823F0010353600820FCF7E2FBF4
S2140214D0024630B18580046040F20121204612F0B7
S2140214E0CFFDA368204643F48063A3600021BDE8D5
S2140214F0F840FFF759B990F87630FF2BE5D04B4A03
S214021500C3EBC303126802EBC3035A6A22F010024B
S2140215105A62DAE790F87620444DFF2A13D02868FC
S214021520C2EBC203DF0000EBC30393F833100139AA
S214021530022908D8C159C4F85A109B88A4F85E300C
S214021540012384F872301B23A4F86A30AB8BFF2A7F
S214021550A4F86630EB8BA4F8683005D194F87330A3
S214021560012B01D0002E5FD00223204684F8703073
S21402157016F044FB94F87330012B32D16B6823F0DB
S21402158001036B600021204600F0D0F90820FCF72A
S21402159081FB054650B10460304600F08BF92A46BE
S2140215A0A88040F20621224812F06AFD0420FCF7C9
S2140215B071FB024628B1046040F20221204612F076
S2140215C05FFD2046FFF79EF9204600F0DDFEA36889
S2140215D0204623F40043A3600121BDE8F84014F03E
S2140215E02ABF94F87630FF2B08D02A68C3EBC303D1
S2140215F002EBC3035A6A22F010025A6201F036F86E
S21402160068B194F97530013309D1A368204643F4D2
S2140216108053A3600521BDE8F84000F00DBE00210E
S214021620204614F0C5FCADE7F8BD00BF88200020B8
S214021630E0200020F0B503780446302B0E4685B035
S21402164058D005D8052B25D0082B64D005B0F0BDA0
S2140216503E2BFBD183780C2B6FD8022BF6D9033B9B
S214021660092BF3D801A252F823F000BF4B17020051
S214021670431802004D1602004D1602000B18020017
S2140216804D1602004D1602004D1602004D160200BF
S2140216902F180200B0F80300FFF7D0F80546A0B3F3
S2140216A064790023E4B144F4805485F8703040F63F
S2140216B0FF73A5F86C30AB68AC81DA0412D443F43D
S2140216C0806300212846AB60FFF76EF840F20321E4
S2140216D02846ADF80840019501AA12F011FD14E063
S2140216E01C46E2E795F87600FFF78CFDAB6823F41C
S2140216F08053E6E7B0F80300FFF7A0F828B1A17818
S21402170009B141F4805114F056FE304605B0BDE8EA
S214021710F04012F0C1BDB0F80300FFF78FF80028C2
S214021720F3D0627990F8743022B143F0010380F866
S2140217307430E4E703F0FE03F9E7212B00F094800F
S214021740292B1FD0202BE0D080E78088FFF776F881
S2140217500028DAD0E278002AD7D1E179A27942EAE3
S2140217600122A0F86020E17AA27A42EA0122A0F8D9
S2140217706220227A617A42EA0122A0F86420FFF708
S214021780C1F8C2E7A779E179083047BB003918BF2C
S2140217900121FFF76FF80546002DB6D0E37883BB2C
S2140217A02846A18814F001FCE27EA37E43EA0223C7
S2140217B0A5F86030E27FA37F43EA0223A5F86230F1
S2140217C0237F627F43EA0223A5F86430E2780AB1F7
S2140217D042F4805239462846FFF768FE95E714F031
S2140217E010FE054610B1022380F873304FF6FF73E1
S2140217F0608C984203D000F06FF80746CCE70027CB
S214021800CAE7002385F87030E0E7B0F80300FFF778
S21402181015F800283FF479AFB4F80520B0F86A400E
S21402182091B28C423FF471AFA0F86A20A7E7808895
S214021830FFF704F800283FF468AFA179FFF788F8AD
S21402184063E78088FEF7FAFF90F86E300E218DF877
S2140218500430D4F806301648CDF80530D4F80A30ED
S21402186001AACDF8093038E78088FEF7E7FF05467B
S21402187000283FF44AAF0720FCF70CFA024600287D
S2140218803FF443AF95F86E304FF403710370E3787C
S2140218904370A3798370E379C370237A0371637A02
S2140218A04371A37A8371024812F0EAFB2DE700BF68
S2140218B0E020002050B10C22064B1B68C31AB3FB73
S2140218C0F2F3807A40EA032080B270474FF6FF7048
S2140218D0704700BF880B0020024609490B7A096848
S2140218E0FF2B01D10020704703EB430301EB83007B
S2140218F031F82330C3F30B039342F4D0C37AEFE7F5
S214021900880B002008B5054B054A1978054812F0E1
S214021910EDFFF722044B1A8008BD00BF3D270020CA
S21402192048A803006A270020B20C0020F8B5054636
S21402193048200E4612F0DFFF1E4F0446387818B1D4
S2140219404822214612F0D5FF94B1FFF735F898B138
S2140219501C2012F0D0FF0146A061387810B11C227C
S21402196012F0C7FFA7692FB92046FCF7B3F93C4629
S2140219702046F8BD00233B700321284614F018FBCE
S2140219802B6D224663602C65172326810026638111
S21402199009492846256026776664FBF787FE04F029
S2140219A009FC3246014604F10C00FBF77FFE0223D7
S2140219B02374DDE76A270020291A020010B50446C0
S2140219C070B30068036DA34222D1636803652246A2
S2140219D0144912F061FB04F10C0012F07DFB04F1D5
S2140219E0440012F059FCFEF7E7FF58B1A06948B16F
S2140219F0143012F051FCA069183012F04DFCA069A8
S214021A00FCF768F92046BDE81040FCF763B91346B8
S214021A10002BDCD05A68A242F9D162685A60D6E737
S214021A2010BD00BF291A020038B50D4640F2032148
S214021A3022F000438B42044638D0B3F5017F09D228
S214021A4040F20122934231D040F2022293420AD05F
S214021A50002038BD6FF481610B44012BF8D8114683
S214021A6014F056FDF4E7FEF7A7FFC0B1154B198830
S214021A70172914D9A3691B788BB96369204623F00A
S214021A800203636114F013FB48B9A369122198613B
S214021A90204614F027FD636943F002036361204683
S214021AA014F072FE204613F040FED1E763699B07EE
S214021AB004D540F20941204614F011FD284614F0E0
S214021AC0D0FCC5E7B20C0020F8B5054618B30029CD
S214021AD021DB114C2468247E8C421CDD3F291ADC53
S214021AE0032401F00306760000EBA10104FA06F7D0
S214021AF091F8314002F0030224EA0704B24022437E
S214021B0081F8312013B1002114F07FFD2846BDE88C
S214021B10F84014F0D7BDF8BD0C22002070B516466A
S214021B2000221A7032800A7A0D46072A4ED8DFE85B
S214021B3002F004090D111A1E304BE86830F8023B19
S214021B40338070BDEB68981D5B88F9E7EB68981DDB
S214021B509B88F5E7697B14F0A5FD02221C4B1880D2
S214021B6018463280EDE702231A483380E9E71A4C1A
S214021B702B7BE88923702B88E11C013363702B884A
S214021B8001331B12A37000F0E1F9033030802046C7
S214021B90D7E7124CA889EB89020AA3701B0A2070A9
S214021BA06270E37000F046FA50B1C3681A88022ADF
S214021BB006D19A782271DB78637106233380E6E7D2
S214021BC0042306483380BCE780221A700020B8E758
S214021BD09427002058A80300812700207B27002096
S214021BE0054A064B1860136843F001031360828BA4
S214021BF0034B1A80704700BF142200200C220020DC
S214021C00BA25002000232DE9F04FDFF8C49191B0E9
S214021C10D9F80070054617F00807CDE90633CDE976
S214021C2008330AD0674B03F1100253F8041B9342A1
S214021C3045F8041BF9D1002025E00220F2F7E2FA6B
S214021C4012F059FE804648B10520F2F7DBFA12F090
S214021C5052FE064620B94046FCF73CF81A2012E02F
S214021C60CDE90477F4F7F8FF044678B14046FCF76E
S214021C7031F83046FCF72EF840F20740214600F0D5
S214021C808FFD40F2074011B0BDE8F08F4FF4A0522E
S214021C904D4BC6E90323F369002B42D14FF4105390
S214021CA03380802310227380304604AB06A90EF0E0
S214021CB0CFF80446A0B94046434A04990EF09EF96E
S214021CC0044668B98346414BBAB21B68D98891422A
S214021CD02FD810222946404605AB0EF0A4F904463A
S214021CE040460EF029F94046FBF7F4FF30460EF068
S214021CF0D6FA3046FBF7EEFF04980DF0ABFF002C49
S214021D00BAD1304B05F1100255F8041B954243F840
S214021D10041BF9D1D9F8003043F00803C9F80030A3
S214021D2089E73B463A464FF4105130460EF0C3FA66
S214021D30B7E71B68B9B24FEA011A03EB011108466E
S214021D400091ADF80EB0019315F09AF8009904468A
S214021D50084600F043F930B3DDE90013A4F520503D
S214021D6080B2032802D9B4F5245F1ED133F80A30B4
S214021D700DF10E02ADF8283000200DF10D03ADF87E
S214021D802A40FFF7CBFEBDF80E2001460BA817F03F
S214021D90D6FFBDF80E20404604320AA90EF031F9ED
S214021DA0044600289CD101378DE704F55641FF31E1
S214021DB089B20429F7D833F80A30ADF82A40ADF8CC
S214021DC02830E6E76B2700200002C0030C22002022
S214021DD014220020134B01461B6870B513F004034F
S214021DE006D00022104B1C68E38990B2834209D8C1
S214021DF00E4A14680022E58990B2854209D84FF649
S214021E00FF7005E0A56835F8125001328D42ECD11C
S214021E1070BDA66836F8126001328E42ECD10344D9
S214021E2098B2F5E714220020102200200C2200208F
S214021E30094B1B685B070AD5084B1A68D38983428D
S214021E4003D9936833F810007047C01A80B2044B67
S214021E501B689B68F6E700BF1422002010220020B1
S214021E600C22002038B5046805460C222046084994
S214021E7017F055FF50B90222064904F10E0017F07A
S214021E804EFF18B902200C342C6038BD1020FCE737
S214021E905BA8030069A803002DE9F7431028019107
S214021EA04AD101A8FFF7DEFF022806D1019B188857
S214021EB0FFF790FF03B0BDE8F083102802D04FF67C
S214021EC0FF70F7E71E4B019F186810F0040031D030
S214021ED000241C4BD3F80080B8F81660A5B2AE42B8
S214021EE01AD80025184BD3F80080B8F81690ACB272
S214021EF04C45E4D2D8F81000102200EB0510394603
S214021F0017F00DFF01350028F1D1A0196FEA404005
S214021F106FEA504080B2CDE7D8F81000102200EBEE
S214021F200410394617F0FBFE01340028D6D145F4DA
S214021F300040BFE70646D4E70228C0D1B6E700BF96
S214021F4014220020102200200C220020020408B5D1
S214021F501DD5124BC0F30E001B685B0713D5104B42
S214021F601A68D38A98420CD2136903EB001000F168
S214021F70100350F8042B984241F8042BF9D1102094
S214021F8008BDC01A80B2074B1B681B69EDE7FFF756
S214021F904FFF0870000A48700220F1E71422002062
S214021FA0102200200C22002070B5044642F60306DA
S214021FB0094B1B681D68A54204D2204621B114F0C5
S214021FC069FF38B1204670BD14F05AFFB04201D105
S214021FD01034F7E7103CEEE70C220020437ADA07CB
S214021FE002D5C3F380007047034BC2881B881A428F
S214021FF014BF012000207047BA2500200A4B1B6838
S214022000DB0708D570B1094B1B68DB88834234BFF7
S21402201000200120704728B1054B1B88834294BFDD
S21402202000200120704700BF142200200C2200204E
S214022030BC25002070B50246FFF7E0FFE8B10F4B63
S2140220401968CD88954209D302F18053013B0C688A
S2140220501E0104EB0310A35B93420ED0002398B23A
S214022060854201D8002008E00E681C01345B06EBAE
S2140220700310944203F10103F1D170BD0C2200203B
S2140220802DE9F34100250E46A846174F01903B68FE
S214022090AAB2D98891421DD91B68ACB203EB0414CC
S2140220A0B4F90430002B1CDA2046FFF797FFC0B1C4
S2140220B0E1680B889E4214D132460198023112F032
S2140220C0D6FAE36882B21B88934207D0114601A86B
S2140220D012F048FB404602B0BDE8F08143441FFAC6
S2140220E083F80135D3E700BF0C220020F7B504467B
S2140220F00F461E46154652B983691B78072B20D019
S214022100082B14BF15460925002E18BF0D25089862
S21402211012F044FAA3699A894AB15B8981B2D21A4B
S214022120914204DD92B2891A08A812F01BFB0C2019
S214022130FBF7B0FD024630B908A812F0ADF803B0BE
S214022140F0BD0B25E0E7204650F80C3B40F2054177
S21402215093F86E3057801370089B15719360044B8A
S214022160D68001930023009311F07FFFE7E700BFBC
S214022170175903007FB504460C2015460E460393F6
S214022180FBF788FD024620B903A812F085F804B0D2
S21402219070BD204650F80C3B40F2064193F86E3074
S2140221A056801370039B95809360034B0193002324
S2140221B0009311F05AFFEAE71759030038B5134B9C
S2140221C004461A8845898A42134628BF0B46172BAF
S2140221D0B8BF17232946438114F054F9636923F0E4
S2140221E002036361A3699D693DB100222946204628
S2140221F09A61BDE83840FEF7C1BB40F2094120466D
S21402220014F06DF9A3691D7038BD00BFB20C002032
S2140222100148FEF7CBBB00BF7586030008B5002158
S21402222042F20E0013F0E5FABDE808400148F8F75E
S21402223049BA00BFB729030038B590F87030044693
S214022240012B0D4620D9032B06D1FFF7E7FF00200E
S214022250012384F8703038BD032140F2064013F0A3
S214022260C8FAB4F86C304571A0F803300748F8F79E
S21402227029FA13F002FB80780028E9D013F0FDFA61
S214022280837843F48050E3E70220E4E7052903005D
S214022290F8B507460E4642F213000E2115461C46B6
S2140222A013F0A7FAB7F86C30A0F80560A0F8033070
S2140222B0BDF81830A0F80750A0F80B30BDF81C3057
S2140222C0A0F80940A0F80D30BDF82030A0F80F3075
S2140222D00648F8F7F7F913F0D0FA807820B113F031
S2140222E0CCFA807840F48050F8BD00BF3F29030046
S2140222F0F8B507460D4642F219001C211C46164642
S21402230013F077FAB7F86C300F3020F80C3C2B68D5
S21402231004F1100240F80A3C6B6820F8026C40F8A0
S214022320063C234653F8041B934240F8041BF9D19B
S2140223300648F8F7C7F913F0A0FA807820B113F030
S2140223409CFA807840F48050F8BD00BF2B2803002A
S21402235070B506460D4642F27A000421144613F082
S21402236048FAA0F80360457184710648F8F7AAF99E
S21402237013F083FA407920B113F07FFA407940F4E3
S214022380805070BD51A7010010B50446022142F2EA
S214022390300013F02EFAB4F86C30A0F803300F4871
S2140223A0F8F790F913F069FA437963B913F065FA0E
S2140223B0C088FEF743FA044628B113F05EFA017AA3
S2140223C02046FEF7C5FA13F058FA407920B113F00A
S2140223D054FA407940F4805010BD00BFD9AA0100DB
S2140223E02DE9F041154606460F4642F236001921FF
S2140223F01C46DDF8248013F0FCF92B0AC371230A6D
S21402240083729DF81830857103739DF81C304472F0
S21402241043739DF820302D0C240CC67087800572FD
S214022420C4728373D8F80030C0F80F30B8F804309E
S2140224308676A0F813309DF8283043759DF92C3027
S21402244083759DF83030C375002303769DF83430CB
S21402245043769DF83830C3760648F8F733F913F01A
S2140224600CFA407920B113F008FA407940F4805013
S214022470BDE8F081D524030038B505460C464FF674
S2140224801940052113F0B5F9C57044600648F8F7FF
S21402249019F913F0F2F9407920B113F0EEF9407908
S2140224A040F4805038BD00BF7124030038B505469D
S2140224B00C464FF61A40052113F09BF9C57044608E
S2140224C00648F8F7FFF813F0D8F9407920B113F070
S2140224D0D4F9407940F4805038BD00BFA3240300ED
S2140224E070B50D4606460121DAB1FFF7C5FF044670
S2140224F0A8B9072142F2350013F07BF9C6702B68A3
S2140225004360AB8803810848F8F7DCF813F0B5F9A6
S214022510437923B113F0B1F9447944F48054204648
S21402252070BDFFF7C3FFE2E77F2703000A4610B538
S2140225300421044642F2370013F070F903230371B4
S2140225400023C470437183710648F8F7BBF813F092
S21402255094F9407920B113F090F9407940F4805014
S21402256010BD00BF6D2603000A4610B504210446BE
S21402257042F2380013F052F9032303710023C470A9
S214022580437183710648F8F79DF813F076F940799F
S21402259020B113F072F9407940F4805010BD00BFAC
S2140225A0BB260300F8B506460F4642F2390006215E
S2140225B014461D4613F01DF901238471240A037183
S2140225C0C7704671C47105720648F8F77BF813F0B7
S2140225D054F9407920B113F050F9407940F4805014
S2140225E0F8BD00BF092703000148FCF7FFBA00BF89
S2140225F05B790300114B02461978D1B95B689B07D9
S21402260017D490F97530013318BF0123D8B292F867
S2140226107130012B03D192F859309B090BD092F8F6
S2140226207230012B08D192F85F309B0908BF002058
S21402263070470123EAE71846704700BF18220020B9
S214022640024B586800F00200704700BF18220020B4
S214022650024B586800F00800704700BF182200209E
S214022660014B1B68184700BF940B0020024B5868AA
S21402267000F01000704700BF1822002007B502467F
S2140226800529084634BF0846032012F0010101D08E
S21402269003280ED0084B5A6002F04003009302F063
S2140226A0200302F0040200F0C3FF002003B05DF82E
S2140226B004FB2120FAE700BF1822002038B50D4996
S2140226C00D48FBF717FB0446054688B90B4B0C4A28
S2140226D01A600C4A5A600C4A9A600C4ADA6000F099
S2140226E0DFFF032104462846FFF7C8FF084B1D708C
S2140226F0204638BDEFBEADDEBEBAFECA940B002041
S21402270025360200B7820300653602005D390200F4
S2140227101822002038B504460320FBF7BBFA05460C
S214022720D0B194F86E30037094F87530437020463A
S214022730FEF7DAF82A46A87040F20261074811F05E
S2140227409FFC074B2046DB680121984794F97500E9
S214022750BDE83840FBF70ABC38BD00BFE0200020C9
S214022760940B002070B5054604200E46FBF792FA3D
S214022770044680B195F86E3000210370064B468001
S214022780DB68284698472246BDE8704040F2016161
S214022790024811F075BC70BD940B0020E0200020AA
S2140227A038B5054608200C46FBF774FA024638B1DF
S2140227B0058044600D21BDE83840024811F060BC37
S2140227C038BD00BFE020002038B5054608200C467C
S2140227D0FBF760FA024650B195F86E3040F205619A
S2140227E0037044600248BDE8384011F049BC38BD69
S2140227F0E020002013B504460191114612B301A948
S2140228000420FBF789FA019B104A2046B3FBF2F13B
S21402281002FB113345F218020021019301AB00F0CE
S21402282049F80820FBF736FA024648B194F86E30AB
S21402283040F204610370019B4360054811F020FCDE
S21402284002B010BD45F2180201ABE8E740420F00A5
S214022850E020002010B504460120FBF71BFA0246D2
S21402286048B194F86E3040F203610370BDE8104040
S214022870014811F005BC10BDE020002038B5054621
S21402288008200C46FBF706FA024650B195F86E3061
S21402289040F20761037044600248BDE8384011F018
S2140228A0EFBB38BDE0200020014B5B68184700BF35
S2140228B0940B002011461A46064B10B51C6834B11C
S2140228C021F00041A047B0FA80F0400910BD204632
S2140228D0FCE700BF3422002010B50446806C30B9F5
S2140228E04FF4B07012F007F8A06420B910BD4FF490
S2140228F0B07113F052FBFF22A36C83F85E21A2682C
S214022900120603D5054A01201A60EFE794F8730011
S214022910034A0449012818BF0A46F4E72583030040
S214022920E93902004D3E020010B50F4C2368D3B1C0
S2140229300022D3F89C001A7683F8392083F85A20AE
S2140229400DF088F9206844215C3013F026FB2068DD
S2140229502121193013F021FB20682121BDE8104007
S2140229603A3013F01ABB10BD20220020836C53B9F4
S21402297083681B0609D490F87320054B0548012A84
S21402298018BF18467047186870470348704700BF5C
S2140229904D3E0200E93902002583030038B504469D
S2140229A00D460520022115F08DF90246C0B1837945
S2140229B0062103445D73204614F08AFF204645F440
S2140229C09051FFF7CFFE94F87310064B064A204646
S2140229D001290CBF11461946BDE8384015F003BA66
S2140229E038BD00BF4D3E0200E9390200F8B5044684
S2140229F0FFF700FEA56C0646F0B194F975305A1C36
S214022A0002D085F85E310AE02046FBF799FB85F88E
S214022A105E01A36C93F95E31013308BF0026FFF70F
S214022A200FFE88B186B9A3685B0707D50521204645
S214022A30FFF7B4FF0020F8BDFF23E2E741F20521CD
S214022A402046FFF78FFEF5E70721012015F03AF939
S214022A50054608B91A21F3E7304A817912680C3123
S214022A6092F800E0431883F801E092F818C0BCF12F
S214022A70010F19D183F802C0301E18BF0120576912
S214022A80D870BF0705D4BCF1010F1CBF40F0080088
S214022A90D870507C98B1D878000710D4A3685B072A
S214022AA0C4D441F20321CBE7BCF1020F05D192F860
S214022AB05A0010B101209870DEE70020FBE7BEF155
S214022AC0030F07D0126912F0FF1F1EBFDA7842F01A
S214022AD00402DA7094F87420970708D5DA7850075B
S214022AE005D4BEF1030FDCD042F00402DA70002EE9
S214022AF018BF032610225E711A719E71A26C695865
S214022B002046C2F80610998851819B7906211373D4
S214022B102A4614F0DDFE01208DE700BF20220020A9
S214022B2070B51E460423054698B014468DF81C3030
S214022B3001F120020DF11D0351F8040B914243F8F6
S214022B40040BF9D120210DF11D0013F018FA2246CC
S214022B500DF13D0304F1200152F8040B8A4243F8BA
S214022B60040BF9D120210DF13D0013F008FA06AB53
S214022B700293202301931C9B07AA314600930E481A
S214022B8041230DF08AFA4121059007A813F005FAB1
S214022B90059A52B1114640F20740FFF701FE08219E
S214022BA02846FFF7FBFE18B070BD45F21501284611
S214022BB015F02FF9F7E700BF000002092DE9F041F2
S214022BC08AB006AC0E4603462746904600F110022F
S214022BD0254618685968083303C593422C46F7D130
S214022BE01021384613F0CBF9002305200593F1F7A0
S214022BF009FB11F080FE044658B31A4D4FF480715B
S214022C0015F04AF805614FF4105115F01FF98023AC
S214022C10638005AB0293102329463A464046CDE927
S214022C200063F3F765FF0546A8B910233046194638
S214022C3013F0A5F91021384613F0AFF92CB120464F
S214022C400DF02DFB2046FBF745F828460AB0BDE8F6
S214022C50F0816FF08C05294640F20740FFF7A0FD91
S214022C60E8E700BF0044400470B50D460646144629
S214022C7092B0202228463D4917F051F840B920224A
S214022C8020463B4917F04BF810B9002012B070BD31
S214022C90B66C2022284606F1540117F040F838B9DF
S214022CA02022204606F1740117F039F8002859D080
S214022CB00520F1F7A7FA11F01EFE064628B90146CE
S214022CC01A20FFF76DFD1A20E0E700234FF480413B
S214022CD0009314F0E1FF274B44F21211036115F042
S214022CE0B5F84FF480737380042329468DF80430B8
S214022CF005F120020DF1050351F8040B914243F849
S214022D00040BF9D120210DF1050013F038F9224603
S214022D100DF1250304F1200152F8040B8A4243F810
S214022D20040BF9D120210DF1250013F028F96B468A
S214022D304122304601A90DF08BF8044638B110F155
S214022D40870F04D0014640F20740FFF729FD3046C0
S214022D500DF0A5FA3046FAF7BDFF00980CF07AFFA0
S214022D60002C92D040F2034090E700BF07A9030070
S214022D7027A90300000002092DE9F0439846002324
S214022D8087B0044605200E461746CDE90433F1F710
S214022D9039FA11F0B0FD0546A8B3DFF870904FF48B
S214022DA0805114F079FF4FF41051C0F8109015F0CE
S214022DB04DF8802321466B801022284604AB0DF086
S214022DC047F8044660B905AB029310233246CDE9B4
S214022DD0008349463B4604980DF052F9044620B15A
S214022DE0214640F20740FFF7DBFC04980CF032FF66
S214022DF02DB128460DF053FA2846FAF76BFF204607
S214022E0007B0BDE8F0836FF08C04E9E70002C00368
S214022E102DE9F04F97B01546DDE9247904AA064657
S214022E208C4690461C46564BDDF880A003F1100BEC
S214022E309646186859680833AEE803005B45724642
S214022E40F6D16B46202261464046FFF795FF834641
S214022E50002878D162238DF8213074238DF8223031
S214022E606C238DF8233065238DF824300DF125036D
S214022E708DF82000184605F1100255F8041B9542FD
S214022E8043F8041BF9D1102113F079F80DF135033C
S214022E90184604F1100254F8041B944243F8041B2B
S214022EA0F9D1102113F06BF89DF884300621003B0F
S214022EB018BF01238DF84530DAF800300DF14600D0
S214022EC0CDF84630BAF804300124ADF84A3013F093
S214022ED056F89DF88C300621003B18BF01238DF86A
S214022EE04C30229B0DF14D001B68CDF84D30229BD5
S214022EF09B88ADF8513013F042F8002335228DF846
S214022F00543068464B4608A98DF85340FFF734FF05
S214022F108346C0B91021484613F031F83B463522A5
S214022F20684608A98DF82040FFF726FF834650B969
S214022F30B27C0146C2F11002384616F027FF102175
S214022F40384613F01CF81021684613F026F835218F
S214022F5008A813F022F81021404613F01EF8BBF121
S214022F60000F06D008213046FFF718FD17B0BDE85F
S214022F70F08F5A4645F21201304614F04AFFF5E742
S214022F806BA803002DE9F043804693B005200F4658
S214022F9016469946F1F736F911F0ADFC054648B9E2
S214022FA001461A20FFF7FCFB6FF08C04204613B094
S214022FB0BDE8F0834FF4804114F06EFE584B47F2A2
S214022FC01211036114F042FF4FF480736B80554B6D
S214022FD01868037E022B27D100F15C0300F17C0205
S214022FE053F8041B934247F8041BF9D100F19C02E4
S214022FF053F8041B934246F8041BF9D1D0F89C30D0
S2140230002846C9F800300DF04AF92846FAF762FE5B
S214023010B8F1000F00F08280002245F21601404609
S21402302014F0F7FE0024C1E74369DB072DD53E4BBB
S21402303003F1200253F8041B934247F8041BF9D10C
S2140230403A4B03F1200253F8041B934246F8041B42
S214023050F9D14B462022284635490CF0F9FE0446A3
S2140230600028D5D0214640F20740FFF799FBB8F179
S214023070000F03D008214046FFF790FC28460DF0CB
S2140230800EF92846FAF726FE90E7494628460DF03E
S21402309061F804460028E5D16B46412201A9D9F819
S2140230A000000CF09BFE044628460DF0F8F8284671
S2140230B0FAF710FE8CB140F207402146FFF770FB8C
S2140230C0D9F800000CF0C6FDB8F1000F3FF46EAF61
S2140230D008214046FFF762FC68E73A460DF1050311
S2140230E00DF1250153F8040B8B4242F8040BF9D17B
S2140230F032460DF1450153F8040B8B4242F8040B9D
S214023100F9D101A8412112F048FF3846202112F0D9
S21402311036FF2021304612F032FF79E7444645E773
S21402312000000209202200207CA803009DA80300BC
S214023130E7A803002DE9FF41044605208846F1F77B
S21402314061F811F0D8FB054648B901461A20FFF788
S21402315027FB6FF08C04204604B0BDE8F0814FF4E4
S214023160807114F099FD184B4FF41051036114F05E
S2140231706DFE22466C46802327466B8002F11003C2
S214023180264610685168083203C69A423446F7D17A
S2140231901021384612F0F3FE4346102239462846DE
S2140231A00CF056FE044620B1014640F20740FFF7F7
S2140231B0F7FA1021384612F0F0FE28460DF06FF8A6
S2140231C02846FAF787FDC6E70044400413B50520F3
S2140231D0F1F718F811F08FFB044630B901461A20B1
S2140231E0FFF7DEFA204602B010BD0023144A019310
S2140231F043688260DAB222B923F0FF0343F0010388
S2140232004360204640F2011114F046FD0D4B4FF488
S2140232101051236114F01AFE802301A92046638010
S2140232200CF098FF014618B140F20740FFF7B8FAD3
S21402323020460DF034F82046FAF74CFD0198D2E706
S21402324037000400004440042DE9F74F90F87390CD
S2140232500446B9F1010F856C04D195F85031002B64
S21402326040F07B8195F85C3195F851A1032B00F272
S2140232700981DFE803F00283CAEC1AF0010F78D066
S2140232801121062014F01EFD8046002800F06581FC
S214023290877910210C3707447E1C304614F068FFED
S2140232A0014658B120460821FFF778FB002140F27C
S2140232B0074003B0BDE8F04FFFF772BAA07CC0F13A
S2140232C01002304416F062FD11F02CFB022895F92C
S2140232D05E0110D005213246FAF79CFD014600B386
S2140232E040F20740FFF75CFA0821204603B0BDE82B
S2140232F0F04FFFF753BB33461022052111F014FBA3
S21402330018B1002140F21B40ECE7B9F1010F08D0DA
S21402331004F11803113756F8042BBE4243F8042B67
S214023320F9D142460621204614F0D2FA0B21072094
S21402333014F0C8FC0746002800F00F81867995F93C
S2140233405E310C36064443F43F430821A6F80130AA
S214023350F01C14F00DFF0A22042195F95E01731C7D
S21402336011F0E2FA0028CCD13A460621204614F0A3
S214023370AFFA95F85C31013385F85C311AF0020F2A
S2140233803ED01121082014F09DFC8046002800F053
S214023390E480877907440520F0F734FF11F0ABFA92
S2140233A00D37834658B96FF08C0620460821FFF782
S2140233B0F5FA314640F20740FFF7F2F91BE0014604
S2140233C067480CF06CFC064658460CF068FF5846F8
S2140233D0FAF780FC16F1880F7AD1FFF7F7FE394626
S2140233E0102201AB0CF0A2FC06461021384612F061
S2140233F0C6FD002E6DD142460621204614F068FA1C
S21402340095F85C31013385F85C311AF0020F19D059
S2140234100821092014F056FC0746002800F09D807B
S21402342086790C360644FBF73BF97070FBF72AF9EF
S21402343003683A46C6F80230838806212046F3809F
S21402344014F046FA95F85C31013385F85C311AF0CF
S214023450040F12D011210A2014F034FC064600286C
S2140234607BD0807910223044AB210D3016F08EFCD2
S21402347032460621204614F02BFA95F85C310133C9
S21402348085F85C31B9F1010F08D0A36C93F850317E
S214023490002B62D195F85C31042B5ED1236D10228D
S2140234A00B2195F95E01313311F03EFAC0B140F2BC
S2140234B01B412046FFF756F92A4B2B492046B9F105
S2140234C0010F18BF194603B0BDE8F04F14F08BBCCD
S2140234D026B11021384612F060FD66E720487EE7E6
S2140234E0236D01220C2195F95E01203311F01CFA9E
S2140234F00028DCD1236D10220D2195F95E012133BF
S21402350011F012FA0028D2D1082295F95E0111466E
S21402351004F1100311F008FA0028C8D1A36C93F83E
S2140235205E2184F87520FF2283F85E21D3F8583195
S2140235305B0605D494F8710004F1540112F027FAE0
S21402354011F0F0F9022808BFA368204604BF43F42E
S2140235508073A360FFF7DEF8AEE703B0BDE8F08F36
S214023560370004004D3E0200E93902002DE9F04121
S214023570FF2818BF294C88B018BF44EA0024074623
S2140235804FF005000D4608BF254CF0F73BFE11F044
S214023590B2F9064600283CD0014620460CF07FFBD6
S2140235A0804630460CF07BFE3046FAF793FBB8F1C5
