S019000062745F616F615F6E63705F6C6F6361746F722E73333782
S214006000C00A0020096F0000B7AB0200B7AB020061
S214006010D7BC0200B7AB0200B7AB0200B7AB0200BA
S214006020B7AB0200B7AB0200B7AB0200B7AB0200DB
S214006030B7AB020000890300A5A90200B7AB0200B7
S214006040B7AB0200B7AB0200B7AB0200D5730000D7
S214006050B7AB0200B7AB0200B7AB0200B7AB0200AB
S214006060B7AB0200B7AB0200B7AB0200B7AB02009B
S21400607065C40000F5AA0200B7AB0200B7AB020089
S214006080B7AB0200B7AB0200B7AB0200B7AB02007B
S214006090B7AB020029790000B7AB0200B7AB02002D
S2140060A0B7AB02004D7A0000297A0000B7AB0200B9
S2140060B0B7AB0200E9970200B7AB0200BDA1020031
S2140060C0A5870300A1870300B9990200B1870300E2
S2140060D0A987030095A10200AD8703001DA2020058
S2140060E04D7D02001D7F0200FDA10200B7AB02003D
S2140060F0D3BC0200B7AB0200B7AB0200B7AB0200DE
S214006100B7AB0200B7AB0200B7AB0200B7AB0200FA
S214006110B7AB0200B7AB0200B7AB0200B7AB0200EA
S214006120B7AB0200B7AB0200B7AB0200B7AB0200DA
S214006130B7AB0200B7AB0200B7AB0200B7AB0200CA
S214006140013800D0FCE7704770B505463E4C8AB073
S21400615020B10023008823600FF040F93B4831F05F
S21400616039FE3B4E3B4B304633603B4B73602BF067
S2140061708AFB002130461DF099FB31A3D3E90023AA
S214006180A062C4E906232BF086FBD4E90623194354
S21400619010434FF0FF33C4E90601CDE900014FF08C
S2140061A0FF32A06A31F07DFE02224FF0FF31A06A76
S2140061B031F07CFE01200EF033FE4FF40073002217
S2140061C02649A06A31F0CAFEB0F5007F36D100231A
S2140061D09422CDE9073309933C23CDE90332059396
S2140061E09623A06A03A906931DF0AEFC25B3287C6F
S2140061F00FF0CAFC0546E0B9A06A31F09DFF0FF02B
S2140062006BFC0EF0E9FD20B14FF4807000210BF01E
S214006210A3F90EF0F1FD20B14FF4006000210BF061
S2140062209BF901201DF096FB0D4A0E49A06A2BF043
S21400623028FB28460AB070BDFF20D9E70725F8E7F7
S21400624009D501552000000010100020690345EC18
S21400625024260020055701001826002018240020B8
S2140062602B1803006B18030010B5054C237833B9C0
S214006270044B13B1044800E000BF0123237010BD97
S214006280601200200000000064DB030008B5034B2A
S2140062901BB10349034800E000BF08BD0000000032
S2140062A06412002064DB0300A3F5803A704700BF49
S2140062B0174B002B08BF134B9D46FFF7F5FF002139
S2140062C08B460F461348144A121A32F0BEFA0E4B8B
S2140062D0002B00D098470D4B002B00D0984700208D
S2140062E0002104000D000D48002802D00C4800E0F4
S2140062F000BF24F017FA2000290024F047FB24F002
S214006300FDF900BF000008000000000000000000CB
S214006310C00A0020A80F0020F8450020000000005A
S2140063200000000038B543780446022B0BD0032B40
S21400633016D0012B17D1024612F8011B0020BDE82B
S214006340384024F0E5BB054615F8011B00202A4618
S21400635024F0DEFB29462078BDE8384024F0DBBB7D
S2140063600821034AEAE7002201201146E7E700BFBA
S214006370D888030010B5234C02F02AFB02F0BCFCC0
S214006380236F23F0070343F00303236724F0D6FEAE
S2140063901D4B00209B6A9B075EBF01221B4B9A6227
S2140063A0D4F8203123F0030343F00203C4F820316D
S2140063B0D4F8243123F0070343F00203C4F8243151
S2140063C0D4F8403123F0030343F00103C4F840310E
S2140063D0D4F8603123F0030343F00103C4F86031BE
S2140063E0D4F8403223F0030343F00103C4F84032EC
S2140063F0D4F8003223F0070343F00103C4F8003258
S21400640010BD00BF0080005000C0005000E00050EB
S21400641008B5174B1B68C3F30743012B0ED1154B6A
S21400642004205A6E4FF480231349520358BF134A70
S2140064304B6601F51041086258BF536604F02CFF06
S21400644024F085FB04F0D0FE25F041FC04F0EEFEBF
S21400645025F037FCFFF78EFF04F0D6FE24F06CFB29
S21400646000F080FF01F004FBBDE8084005F046B9E7
S2140064700080E00F008000500090005000A0005008
S21400648018B1034B1860002070472520704700BFE6
S214006490DC12002010B5054C0549206801F02EFEE0
S2140064A02068BDE81040FFF7EBBF00BFE40A0020FD
S2140064B0C00A0020014B1868704700BFDC1200209D
S2140064C038B524F057FE084D04462846002130F81B
S2140064D0022B32F0BAF9002320462B8085F80631CD
S2140064E0BDE8384024F04CBE103F002038B524F0FC
S2140064F041FE084D04464FF48272A81C002132F07B
S214006500A4F9002320462B8085F80631BDE83840E4
S21400651024F036BE184000202D4938B591F80631D3
S21400652053B32C4D2B783BBBD1F802002A4A81F896
S214006530063120F47F4323F0070393423AD002F15A
S2140065408072934240D002F17E42934227D00631B9
S2140065502DF043FA13F0CCFE0446FFF7B1FF0123FB
S21400656020682B70030203F4E063C0F3072018438F
S2140065702146043000F0C0FA184991F8063133B3CA
S214006580144B1A781ABB81F80621012231F8020B47
S2140065901A7000F0B1FABDE83840FFF7A7BF8A7955
S2140065A01AB1881DFFF7BEFED4E71146012013F08E
S2140065B0FFFDCFE78B791BB1881D00F0D7F8C9E740
S2140065C0012013F007FEC5E700F07EFDC2E738BDE8
S2140065D0103F0020764100202000FF0118400020D8
S2140065E0084A1388C3F58273984208D892F8063191
S2140065F02BB9054B93F8060180F001007047002088
S214006600704700BF18400020103F00200022014BBA
S2140066101A70704776410020084B93F8060150B96F
S214006620074B93F806311BB9064B187880F001002B
S21400663000F0010070470020FAE700BF103F00207E
S214006640184000207641002008B5FFF739FFFFF715
S2140066504DFF00F03DF90022024B1A7024F065FA57
S21400666008BD00BF76410020F8B50546006820F456
S2140066707F4020F0070000F0DBF828BB284624F017
S21400668045FA08B32A68114E140204F4E064C2F313
S2140066900722144324F06EFD33880434C3F5827257
S2140066A0944207460BD802332246F018294632F0A9
S2140066B0A5F80123328886F806311444348038461B
S2140066C024F05EFD24F032FAF8BD00BF184000202A
S2140066D0F0B50D46044685B000B1FEE7039224F0FF
S2140066E049FD1F4F06463888AAB2C0F582739A4203
S2140066F0039918D80230384432F080F83988294493
S21400670089B20329398018D9D7F802200124130248
S21400671003F4E063C2F30722134304338B4202D828
S21400672087F806410224304624F02AFD022C06D1C2
S2140067300C4800F03DFA70B1FEE70124F3E7012CA7
S21400674009D100234FF4FA71074A0648009300F077
S21400675049FA00B1FEE724F0E9F905B0F0BD00BF44
S214006760103F0020E0120020F9AA0200F8B5437896
S2140067700278012B14D0022B2BD063BB052A2AD11A
S214006780294C2278082A4AD02849D0F802000D461B
S214006790DEB2B24224D845F822000132227016E05A
S2140067A0052A18D1204D2B78002B3AD01F4C0022FA
S2140067B02146D0F8026054F8047BD0B2BE421FD106
S2140067C00024013B41F822402B7098420FDB00204A
S2140067D002E0012A1AD00120BDE8F84013F0FABC06
S2140067E051F8046B0133B042D2D12E20F4E7421C9C
S2140067F051F8225041F8205041F82240D0B2E4E748
S2140068000132D0B29842D6D32D20E5E720220021CF
S214006810064832F01AF80020034B1870DCE71C20FC
S214006820DAE71B20D8E700BF7741002018130020C6
S21400683010B5084B084A1C780023D9B28C4201D800
S214006840002010BD52F8041B01338842F5D1012008
S214006850F7E700BF774100201813002038B54FF443
S21400686082720021144831F0F0FF4FF4827200214A
S214006870124831F0EAFFFFF71DFE114A0368114D7A
S2140068809342286004D002F58042934211D0FEE77E
S2140068900D230D4A0020137024F088FB2B68044655
S2140068A0186824F0D9FCB4FBF0F0084B80001860A0
S2140068B038BD0F23EDE700BF794100207D42002060
S2140068C000C005504C1300207841002038130020EB
S2140068D008B5144B93F90030002B0CDB012203F0B3
S2140068E01F015B099B0003F160438A4003F5614387
S2140068F0C3F880211A600C4B0C4A18680C490368D0
S2140069005A6603F500529164DA6C0A4942F4204252
S214006910DA644FF48272084B01F0EEFC00B1FEE739
S21400692008BD00BF784100204C130020FF00240063
S214006930FFFF0100794100205D6B00002DE9F84360
S214006940564C23681B689B6C1B0440F1A58024F002
S21400695011FC2468054623685A6E22F4E0225A6623
S2140069605A6E42F480225A664FF4004203F50053F2
S2140069709A6424F0FFFBA36A06469B889BB243B941
S21400698024F0FEFBFFF7A4FF2846BDE8F84324F0FA
S214006990F7BBE06800F05EFF0023D4F8288084F898
S2140069A0303024F0E7FBB8F804309BB2002BE7D079
S2140069B01427B8F8029024F0E3FB1FFA89F907FBC6
S2140069C009F909F110014144E06800F08BFF344BEF
S2140069D0C844C8F81830D4F82880B8F804309BB2F9
S2140069E0B3B994F83530032B10D094F83630002B1A
S2140069F047D142F21C62042123795B0103F1A043D4
S214006A0003F570339950022223685A613046B7E77F
S214006A1024F0B0FBB8F804901FFA89F9B9F1000F1A
S214006A2004D124F0ADFBD9F80C30FFDEB8F80290A4
S214006A30B8F80230B8F806209BB20133B3FBF2F187
S214006A4002FB11339BB2A8F80230B8F804301FFAE4
S214006A5089F9013B9BB2A8F8043007FB098824F0AB
S214006A608FFBD8F81490B9F1000FB4D0D8F80C20EA
S214006A70D8F810300021D31A2046D8F80820C84786
S214006A80A9E7022BC2D12068016C11F0020118BFE1
S214006A90062124F0BDFBB9E7BDE8F8834C130020BF
S214006AA0097000F010B5114C237B6BB1206824F000
S214006AB069FA830609D40E4A63681268934204D2C0
S214006AC00133636024F033F810BDA068003818BFA7
S214006AD00120FFF79BFD4FF482720021054831F03C
S214006AE0B4FE002363602373EEE700BF3C13002070
S214006AF0381300207D420020B0F5827F07B502469D
S214006B0000D9FEE70190084831F078FE0748084BA8
S214006B10019A0549006801F09DFC00B1FEE724F0EB
S214006B2006F803B05DF804FB7D4200204C130020FD
S214006B30356B000038B50D46044624F01BFB0022DA
S214006B40054B5A6001229D601C601A7324F018FBE6
S214006B5023F0EDFF38BD00BF3C130020084608B503
S214006B600038194618BF0120FFF7B2FD4FF48272B5
S214006B700021034831F069FE23F0D9FF08BD00BFAD
S214006B8079410020002209490B684BB1834204D1A9
S214006B90836A4AB19362012070471A469B6AF4E7FB
S214006BA00028F5D0184670470B60F4E75013002015
S214006BB010B5044690B105F00FFA2046FFF7E2FF45
S214006BC058B194F82C0040B124F0D4FA044A136863
S214006BD0013B136024F0D4FA002010BD2220FCE70D
S214006BE0541300202DE9F04F85B00546914698468F
S214006BF00E469DF8387009B9002F62D12846FFF777
S214006C00D7FF044600283CD185F82C00686305F0C1
S214006C10BFFA864239D905F05BFA40F2E7318C4676
S214006C202146E6FB00C14FF47A726046002323F04B
S214006C30CDFB4FF0FF32002383468A4623F0C6FB87
S214006C404FF0FF32E88600235846514623F0BEFB3D
S214006C502B4611462846CDE900441B4A25F0AFF8DE
S214006C60044670B9194AC5E90898136885F82D7066
S214006C702E6323B31A469B6A002BFBD19562002332
S214006C80AB62204605B0BDE8F08F47B12B463146D3
S214006C902846CDE900440C4A05F03EFAE0E73046C7
S214006CA003A905F01BFA04460028EAD12B4628461D
S214006CB0CDE90077044A039925F05DF8D0E7156022
S214006CC0DDE72124DDE700BFD16C00005013002073
S214006CD091F82C3013B50C4683B98B8ECA8E93422E
S214006CE00ED243B9CDE9003320460B46104A4FF08A
S214006CF0FF3125F024F8A38E0133A38602B010BD21
S214006D0052B191F82D307BB101230093D1E90823CD
S214006D102046096BFFF766FF0123064A84F82C30ED
S214006D20136801331360E9E7084605F055F9F3E701
S214006D30D16C00005413002070B5104D2B681BB1A9
S214006D4000260F4B1C6804B970BD94F82C3093B124
S214006D5024F010FA2B6884F82C60013B2B6024F09A
S214006D600FFA94F82D3013B92046FFF70BFFD4E93D
S214006D70083120469847A46AE5E700BF5413002070
S214006D8050130020034B1B68002B0CBF012004206F
S214006D90704700BF54130020024B1868B0FA80F00A
S214006DA0400970475413002013B5082023F057FFFE
S214006DB0FFF780FB01230C4C8DF8003090F836303E
S214006DC020607BB9006824F047FA236820F07F40F3
S214006DD093F8353040EA83700190684623F0BBFE96
S214006DE002B010BD0020F0E7581300202DE9F04156
S214006DF0404D88B001AC0FCD0FC495E8070084E87D
S214006E000700012401213A2001F006FD3A4E012137
S214006E10282001F001FD394B304601A903938DF877
S214006E20124002F0ADFC234620460422002102F068
S214006E30F9F9224621462046002302F0F3F92346BC
S214006E4020460422022102F0EDF900210422084621
S214006E50234602F0E7F92A4D2A4B05F50058C5F8F7
S214006E6030364FF00113C5F82C361C23C5F83446CF
S214006E704FF44870C5F81C3605F00EFB05F5805734
S214006E801420C8F8104005F007FB23203C6105F0ED
S214006E9003FBB9213046C8F8104024F00DFA002351
S214006EA020461A4619463C6102F0BCF900232146EA
S214006EB01A46204602F0B6F9234620460022022152
S214006EC002F0B0F9002223461146104602F0AAF955
S214006ED0304602F0A5FB00212820C5F83016C5F87C
S214006EE02C16C5F83416C5F81C1601F095FC08B02B
S214006EF0BDE8F081E488030000C0055000127A0067
S214006F0000C003500100020008B500F02DF8124B37
S214006F1012498B4212D30020114B12498B4218D3D0
S214006F20FFF7C6F9186850F82240586840F8224023
S214006F30013298688242F5D30C33EAE70022F8E77C
S214006F401C6844F8220001325C68A242F8D3083379
S214006F50E4E70022F8E700BF6CDB030078DB030001
S214006F6078DB030078DB03004FF400414FF0FF307E
S214006F70124B134A10B59A60D3F8882042F4700278
S214006F80C3F888200F4A916601F1884101F5005246
S214006F9010664FF6DF7050660220C3F8D000BFF3CD
S214006FA04F8FBFF36F8F08244FF440330648C0F866
S214006FB08041D36004600B6110BD00BF00ED00E0AF
S214006FC0006000000090005000E100E0014B1868EF
S214006FD0704700BFEC0B0020084B1B6F03F0070345
S214006FE0022B04D0032B05D0012B05D0FEE7044B63
S214006FF018687047034BFBE7034870470080005053
S214007000EC0B0020F00B0020002D310108B5FFF737
S214007010E3FF054B1B6FC3F303330133B0FBF3F001
S214007020024B186008BD00BF00800050E80B00202F
S2140070300048704700B4C404014B1868704700BF8E
S214007040F00B0020054B1860054B1B6F03F0070381
S214007050032B01D1FFF7DABF704700BFF00B00200B
S2140070600080005000487047002D3101014B186821
S214007070704700BFF40B0020BFF34F8F0549064B47
S214007080CA6802F4E0621343CB60BFF34F8F00BFC1
S214007090FDE700BF00ED00E00400FA0500239B6A50
S2140070A0B3F5C04F03D21968064A914203D00023B5
S2140070B0037083607047012202709A689B69426081
S2140070C0F7E700BF07B0CD5E08B54FF00053024AA1
S2140070D01A60FFF7D1FF00BF02020FF073B55B4BDB
S2140070E004461A781AB102221A7002B070BDCDE9B1
S2140070F000220028F9D001261E7024F03BF8544DDB
S214007100544B186020F004F82B785BB900F0B0FC04
S21400711040B951480823514A514900681CF0FAF812
S21400712000B92E704F4B5A6E22619B6E4E4A6361B9
S2140071304FF40043936603F188435968A1614B49B5
S2140071409960196E2160596E6160196CA160596C66
S214007150E1604749086C1864496C5964012151661E
S2140071604FF4005191661A6E560448D54149CA68D4
S214007170D407FCD45B6E5A0446D53F4AD36B13F053
S214007180430FFBD13D4B1A68531C43D04FF40013FA
S21400719093403B4A13660423394C23664FF48063BE
S2140071A0236623F02CFD01300BD023F028FD40F29F
S2140071B0011398421FBF4FF4804323664FF40043E9
S2140071C0236610232E4C684623664FF4005323662E
S2140071D04FF0804323664FF4804301A9636623F093
S2140071E0F3FC009B2366019B63662B78002B3FF421
S2140071F07CAF1A4B1A6822665B68636675E721499E
S214007200CA68D007FCD4B5E71F4AD36B13F0430F08
S214007210FBD1B7E71D4B1B78002BBCD14FF4807217
S214007220114B5A661A4A52681AB94FF40011144A9A
S21400723011664FF400725A66164B5B68002BAAD193
S2140072404FF480020E4B1A66A5E700BF834300206A
S2140072508143002080130020000C002078130020BB
S21400726000710800008000500090005055CEAC0021
S21400727000C00054000004400000024CF80B002040
S21400728000900044000004500000025C824300208E
S21400729000C0055000000650F8B5274D04462F786C
S2140072A0012F02D001232B70F8BD0028FCD023F05C
S2140072B0A6FC0130214E0AD023F0A1FC40F20113B7
S2140072C0984204D01E4A7766D368DF07FCD44FF492
S2140072D000531C49B366CA6B12F04302FBD1216807
S2140072E0194B196661685966A1681964E1685964A2
S2140072F0A169C80748BF9A60144B1A6801320DD1BD
S214007300134A127852B913494968C90748BF1A6028
S214007310114A5268D20744BF01221A6022690F4BF5
S2140073205A6662699A661FF0FBFE0D4B186823F0DA
S21400733027FF0023B7E700BF8343002000900040EC
S214007340000004400000024C00800044F80B0020BF
S2140073508243002000C00550000006500080005008
S2140073608013002070B50024A36AB3F5C04F22D264
S2140073701A68124B9A421ED1114E337813F0FD054F
S21400738017D11048FFF7AAFE08214FF480330E4AA3
S2140073900E48C2F88011C36011600D4A1361AB6AD3
S2140073A0DB69984704460748FFF776FF0CB90123C8
S2140073B03370204670BD4FF48174FAE707B0CD5E97
S2140073C0824300205C13002000E100E000A000449F
S2140073D00090004413B51F4B1B7803B9FEE700234B
S2140073E01D4CCDE900336A4608231C4920681BF073
S2140073F091FFF0B91A4AD2F84031D2F840211F2B3B
S2140074004FF0010310D9203A9340019A1343019399
S21400741008236A46114920681BF032FF4FF00053DC
S214007420104A1A60FFF728FE9340009A1343009311
S214007430EEE70D4B9842F1D1094AD2F84031D2F826
S21400744040211F2B4FF0010302D9203A9340DEE77C
S2140074509340ECE783430020000C002000710800F6
S214007460008000440B020FF00BE000F005490A68AC
S2140074701318054883428CBF4FF0FF320B6010464E
S214007480704700BFFC0B00200080002008B50121DB
S2140074903A2001F0C1F9032101230422002001F063
S2140074A0C1FE002023F0CFFE0122214B4FF4607076
S2140074B0C3F8442423F07AFD1E4B00F5D520D3F8FC
S2140074C0F02000F2FC4042F00102C3F8F020D3F8AE
S2140074D0FC2042F08072C3F8FC20174AA3F55D43F7
S2140074E01A60164B0222B0FBF3F0154B01381861F8
S2140074F0C3F8F0204FF48072C3F804234FF06043C3
S214007500104A0020C3F8B02F0F4AC3F8802ED3F8D5
S214007510002E42F48072C3F8002EFF2283F820204B
S214007520D3F8002E22F48072C3F8002E08BD00BFE8
S21400753000D0035000ED00E0FF030040F8590D00B6
S214007540000004E055CEACC5090001004FF06043D2
S214007550D3F8802E30B5D20715D501240B4D8440C4
S214007560D5F8FC2042F08072C5F8FC20D3F8002E37
S2140075702243C3F8002E53F82020002AF0D003F848
S2140075802010002030BD1120FCE700BF00ED00E019
S2140075902DE9F04F9A46564B85B01B7806460F46A7
S2140075A01546DDF83C909DF844B0DDF85080002B81
S2140075B000F08D80072A00F28C800E9B002B00F0D6
S2140075C08880B9F1000F00F08480129BB3F5006F3D
S2140075D07FDC012802D1109B002B7AD0454B03EBB1
S2140075E005131B7B002B76D0434C102200216846E7
S2140075F031F02BF904EB45141022002F59D13946EF
S214007600204631F022F943F210036380BBF1000FED
S21400761003D1E37843F00303E370374A0E9B02EB93
S214007620451CCCE90193129B6901013BC3F30A0098
S2140076309DF84C30012E03F003034FEA836343EAC0
S214007640001E53582D48CDF800A000EA03004EEA6D
S2140076500003535041D113230CF1100ECCF80C301C
S2140076609CE80F008EE80F006FF00301DCF81C208A
S214007670109B61F39F02012FCCF81C20CCF814302D
S21400768003D1CCF81890CCF804300027194A290109
S21400769002EB051342F80180159A28465A6069469F
S2140076A022469F605E7301F03FFE384605B0BDE897
S2140076B0F08F0021204631F0C8F84FF44473638001
S2140076C0BBF1000FA9D1E37843F03003A4E70C48E0
S2140076D0ECE70C48EAE70C48E8E7B8F1000FD4D12D
S2140076E09CF8023068F304138CF80230CDE700BF34
S2140076F08443002084130020041400200F80FFF32E
S214007700028000F0018000F0078000F038B5124BD0
S21400771005461B78DBB1E0B123F02CFD0F4A0023B1
S2140077201146147B54B92B6001251A0101EB031393
S2140077301D738C5023F024FD204638BD0133082BE2
S21400774002F11002EDD123F01BFD0548F5E70548D0
S214007750F3E70548F1E700BF8443002084130020C8
S214007760048000F0028000F0018000F0154B13B595
S2140077701868002301908DF8043023F0FBFC124BB0
S2140077801C7824B123F0FCFC104802B010BD012286
S2140077901A7023F0F5FC0E4B01A81C731C7783F8B7
S2140077A02C4083F83C4083F84C4083F85C4083F8D8
S2140077B06C4083F87C4008238DF8073001F082FD8A
S2140077C02046E2E75089030084430020038000F04F
S2140077D0841300200A4A08B512785AB107280BD835
S2140077E0084A02EB00131B7B43B1002101F05CFD4D
S2140077F0002008BD0448FCE70448FAE70448F8E718
S2140078008443002084130020028000F0018000F0F2
S214007810078000F00A4A08B512785AB107280BD834
S214007820084A02EB00131B7B43B1012101F03CFD2B
S214007830002008BD0448FCE70448FAE70448F8E7D7
S2140078408443002084130020028000F0018000F0B2
S214007850078000F00A4A08B5127852B107280AD8FD
S214007860084A02EB00131B7B3BB101F0ABFD002086
S21400787008BD0548FCE70548FAE70548F8E700BFF5
S2140078808443002084130020028000F0018000F072
S214007890078000F00D4B1B7893B1072812D889B1EA
S2140078A00B4B03EB00131B7B73B10A4BDA6A012305
S2140078B003FA00F010401ABF00200B7008707047E3
S2140078C005487047054870470548704784430020C0
S2140078D08413002000000450028000F0018000F0B5
S2140078E0078000F00B4A10B512780C4662B10728E4
S2140078F00CD859B1084A02EB00131B7B43B101F0C8
S21400790073FD2060002010BD0448FCE70448FAE739
S2140079100448F8E78443002084130020028000F027
S214007920018000F0078000F02DE9F843174B1F6D2B
S2140079305B6D1F4000D5FEE701260025144CDFF8DE
S2140079405480DFF85490374217D02368C8F8506048
S2140079509BB1A168284601316268A1609847637BA5
S214007960012B0AD148B909EB45131A7B60F3410293
S2140079701A731A7F60F341021A770135082D4FEA11
S214007980460604F11004DED1BDE8F883000004507A
S21400799084130020002004500414002070B5044610
S2140079A001250B4E04B970BD94FAA4F0B0FA80F02D
S2140079B005FA00F306EB001224EA03045368002BD2
S2140079C0F0D0117B11B191689847EBE79847E9E74B
S2140079D00415002008B5192001F0C2F928B14FF0AF
S2140079E00072074BC3F880211A601A2001F0B8F91C
S2140079F028B14FF08062024BC3F880211A6008BDA0
S214007A0000E100E038B505460C4623F0B3FB002243
S214007A10044B03EB05135C601A73BDE8384023F093
S214007A20AFBB00BF04150020074BD3F82404D3F8DF
S214007A30202403F50053104000F0553020F050206D
S214007A40C3F82004FFF7AABF00C00350074BD3F8C3
S214007A502404D3F8202403F50053104000F0AA3085
S214007A6020F0A020C3F82004FFF798BF00C0035002
S214007A70024B1968024B18681BF02CBB040C002044
S214007A80000C002037B5920004460D46019230F0F7
S214007A901BFF431C0BD060B929462046019A30F0E4
S214007AA09DFE0028044808BF002003B030BD0348F0
S214007AB0FBE70348F9E700BF10E000F021E000F024
S214007AC024E000F013B5044601A801F037FD9DF848
S214007AD00630012223804FF4807300206380054B1C
S214007AE09B680A3303F01F0302FA03F3636002B0D5
S214007AF010BD00BF0080E00F10B5044630F0D4FE85
S214007B00431C15D0B0B90C4B20469B680A3303F0D3
S214007B101F020123934023F003032344984201D11C
S214007B20002010BD50F8042B0132F7D00348F8E7C8
S214007B300348F6E70348F4E70080E00F0EE000F0A5
S214007B4021E000F024E000F008B523F00CFB014B28
S214007B50186008BD441D0020014B186823F007BBC1
S214007B60441D002038B141B1013AB2F5006F044817
S214007B7038BF00207047034870470148704700BF71
S214007B80037000F0027000F038B504460D4623F08E
S214007B90F1FAA3889BB223B92B6023F0F1FA0648CA
S214007BA038BD142263889BB202FB034408342C6061
S214007BB023F0E6FA0020F3E70B7000F0F8B5044671
S214007BC016460F4623F0D6FAA388E2889BB29A425E
S214007BD0054605D80023336023F0D2FA1748F8BDCF
S214007BE01422238807F1100C9BB202FB03433A468B
S214007BF00833174603CF6745186059603A4603F1C5
S214007C000803F6D1142238681860238828469BB2E9
S214007C1002FB0343083333602388E2889BB20133B8
S214007C20B3FBF2F102FB11339BB22380A38801332E
S214007C309BB2A38023F0A4FA0020D0E70A7000F0DD
S214007C40002313B51D4A52F8044B94F821108142C4
S214007C500ED00133042BF6D102B010BD0028FBD1A4
S214007C609DF80730002BF7D0A068FFF7B3FDF3E7C9
S214007C7094F83530022BEFD1204623F0DBF8637EF4
S214007C802076022BE8D194F8323003F0FF02002B66
S214007C90E2D1A0680DF107018DF80720FFF7FAFD85
S214007CA0237E1BB194F83330002BD7D00023A06876
S214007CB084F83330FFF7AEFDCEE700BFF81D002096
S214007CC0104930B50B78104A2BB9C2E90033C2E927
S214007CD0023301230B700C4C0023214651F8045B41
S214007CE0854208D00133042BF8D1002154F8043B18
S214007CF01BB942F82100002003E001310429F5D128
S214007D00024830BD85430020F81D0020027000F0B8
S214007D1010B50446FFF72AFD002104F10800FFF71E
S214007D20F5FC014620B904F10C00FFF7EFFC00B1AA
S214007D30004810BD0E7000F008B590F8363083B9D4
S214007D40042203685A619A699207FCD541F21C62C4
S214007D50102103795B0103F1A04303F570339950BA
S214007D6008BD022BFCD10068036CDB074CBF052165
S214007D70062123F04DFA0222014BC3F8C020EFE79C
S214007D8000D4035013B591F836200B68022A0CBFB6
S214007D901B6C9B690C469B06084605D523F09CF891
S214007DA00223E36502B010BD23F02DF80023014640
S214007DB0CDE90033034A234604F13C0023F0DBFF01
S214007DC0F0E700BF857D0000012370B580F83030F5
S214007DD090F8363004460E4686B0A3B905682435BA
S214007DE0204623F093F80D4B32680393002302934A
S214007DF07368616901930123E068009304942B463D
S214007E0022F053FF07E0022B02D105683435E7E77E
S214007E10002380F8303006B070BD00BF51830000EC
S214007E2001232DE9F04180F8313090F836300446D1
S214007E300E4688B063BB256823F09CF904F13C0825
S214007E4007460DF11F0140463C3504F0EDF840B9F9
S214007E509DF81F302BB1404604F0BEF8204623F0B4
S214007E603BF83846012723F08BF92046E76523F0D8
S214007E704DF80B4B2A46039300230293736821693F
S214007E80CDE90073A0683368049422F0F4FE04E0A1
S214007E90022BD0D0002380F8313008B0BDE8F08146
S214007EA0A57E0000F0B585B0D06A03A91446FFF79A
S214007EB06BFE0646204622F0A6FF00250146234616
S214007EC0CDE90055164A04F13C0023F054FF154B4B
S214007ED09E421FD0039B1D619D6023F04BF9039AC1
S214007EE00646D76827B1D2E9002329462046B84778
S214007EF0E06A03A923F023F8E06A83889BB263B1A3
S214007F0003A9FFF741FE20460399FFF789FF304695
S214007F1023F036F9012005B0F0BD84F83130F6E7DD
S214007F20857D00000B7000F0F8B505460E46174636
S214007F30FFF718FE002868D1152000F01FFF044642
S214007F40EA6A93889BB213B195F83230E3B195F89C
S214007F503630F3B92B689C6904F002041CB9284635
S214007F60FFF7EAFE0024012385F8343095F8363012
S214007F70CBB93744BE42286810D183699A06FCD52F
S214007F801CB300242046F8BD002CDAD0FFF7CCFC4A
S214007F90D6E7022BE3D12B681C6CDDE716F8011B35
S214007FA023F094F9E6E7022BEAD13744B742286873
S214007FB006D142F22003026C33EA0202FBD1DFE76D
S214007FC016F8011B23F029F9F0E795F836306BB95F
S214007FD042F21C6210212B795B0103F1A04303F5EA
S214007FE07033995008222B685A61CBE7022BC9D10F
S214007FF02868036CDB074CBF0921214623F008F9EB
S2140080000222034BC3F8C020BCE70446BAE700BF11
S21400801000E4035010B5044680B190F832302BB916
S21400802022F008FF10B9A068FFF7D4FB002094F8F0
S21400803032300133DBB284F8323010BD0048FCE742
S214008040027000F010B50446A0B190F832309BB133
S21400805090F83230012B05D122F0ECFE10B9A06862
S214008060FFF7D8FB002094F83230013BDBB284F8EF
S214008070323010BD0148FCE70148FAE7027000F014
S214008080057000F037B590F835500446022D1DD126
S214008090012290F82230457E817F9A403020164B90
S2140080A025B900FB013342F2100105E0012D07D18E
S2140080B000FB013341F210015A50002003B030BDDE
S2140080C0247E00FB0133002CF4D1ECE7012DF4D123
S2140080D0037E73B911238DF80730FFF79BFF2A46FE
S2140080E020460DF10701FFF71FFF2046FFF7AAFF06
S2140080F0E3E71323EFE700BF00C003502DE9F0418C
S2140081000446744F88B001AE0D460FCF0FC697E8F1
S214008110070086E80700002C00F0DA8025B96E4ECE
S214008120304608B0BDE8F08160220021204630F0DD
S2140081308CFB2046FFF7C4FD06460028F0D12B7DB9
S21400814084F835302B6884F8360023602A7B227149
S2140081500122E265614A934240F09E8028236362D2
S2140081605F4B23614FF4802300266361D5E9072324
S214008170A26216805680968084F83060E3621E8085
S2140081805E809E806B6884F831600393EB8984F888
S2140081903360ADF814302B8A0121ADF81230AB7C79
S2140081A03A208DF81030EB7CDFF848818DF81630D9
S2140081B005238DF8113000F02FFB0121606A00F0D6
S2140081C02BFB286801A98DF8046001F057FA1422E9
S2140081D02B7B08EB4313C3F81C262E7AA87A46EAB4
S2140081E00042C3F83426697AEA7A41EA0247C3F8BD
S2140081F02C76E676E077217784F820206B7D0121C7
S2140082006377AB7D204684F82130EB7DA3772B7E09
S21400821084F8223022F087FD0646002880D122F01E
S214008220A9FF2B7D0746032B41D141F21C62022198
S2140082302B7B08EB431848F8021004212A685B01E0
S21400824002F58052D165297EEA7D03F1A04342EA19
S214008250014203F57433C3F82826A97D6A7D42EAF5
S2140082600142C3F824264FF0FF32286800F5005379
S2140082709A642B7D032B0CBF0521042123F00DF8F7
S2140082804FF440622B6820465A61FFF741FD0646D0
S214008290384622F075FF43E7124A93427FF43FAF19
S2140082A029236362104B23614FF4A0235CE7022B63
S2140082B0D9D194F821000D49FFF7A4FBFFF78AFBFC
S2140082C04FF4007320462383A676FFF7DBFECAE74B
S2140082D0074E25E778890300037000F000C00550BC
S2140082E0020004000000065002000500417C000069
S2140082F0027000F000C00350F0B587B00546164681
S214008300FFF730FC0446F0B90493104BCDE9011694
S2140083106A46A86A01A903960593FFF74FFC044630
S21400832088B995F8303073B9284622F0B6FD28464D
S2140083300099FFF749FD95F83530032B03D0284602
S2140083402C76FFF79FFE204607B0F0BD017000F0C8
S21400835073B5906A01A91446FFF716FC0546204639
S21400836022F0BAFD384B9D4231D094F83600019B7E
S21400837000283AD12268916C11F400712AD0334952
S214008380986019614FF4007302F50052936422F06E
S214008390F1FE01990646CD6835B14A688B682046DD
S2140083A0D31A0A680969A847A06A01A922F0C7FD7E
S2140083B0A06A8588ADB2002D37D001A9FFF7E4FB8F
S2140083C020460199FFF700FD304622F0D9FE012035
S2140083D002B070BD906CC50523D51D489960186124
S2140083E002F500524FF48073D0E7022819D12268B4
S2140083F0516C11F4007109D0144902F5005219614C
S214008400002199604FF400735364C0E7506CC005B8
S21400841007D50F489960186102F500524FF4807333
S214008420F2E700221A619A60B1E70123204623761C
S214008430FFF728FE94F8353084F83050032BC3D06D
S214008440204622F00EFDBFE70B7000F00D7000F026
S2140084500C7000F0F0B587B004461646FFF782FBB6
S214008460054658BB0493194BCDE90116059394F8BD
S214008470363003962BBB23689B6903F0020313B9BF
S2140084802046FFF759FC6A46E06A01A9FFF796FB0B
S214008490054698B994F8313083B922F06BFEE36A4A
S2140084A006469B889BB233B120460099FFF7B8FC7E
S2140084B0012384F83430304622F062FE284607B0A6
S2140084C0F0BD022BDCD123681B6CD6E7017000F0F0
S2140084D00B4B30B51B7883B10120002305460949B4
S2140084E051F8042B2AB192F85C40022C04BF2046B7
S2140084F0D5650133042BF3D130BD0120FCE700BF66
S21400850085430020F81D0020044BD3F88420D206B3
S214008510FBD4D3F88400C0F38110704700400050AD
S21400852038B5104B0546D3F820310C4603F003034C
S214008530022B0BD0032B0DD0012B0FD1FEF746FDDF
S214008540052305B1286004B1236038BDFEF774FD2D
S2140085500323F6E7FEF786FD0223F2E7002318461C
S214008560EFE700BF0080005073B50D4600210E4BAC
S2140085700191D3F88041064604F00304012C09D08B
S214008580022C0CD00C460EB1019B336005B12C605A
S21400859002B070BD01A8FFF7C3FF0F24F3E7FEF794
S2140085A061FD0190EFE700BF0080005038B5174B23
S2140085B00546D3F824310C4603F00703013B052B90
S2140085C020D8DFE803F0030F171B0B13FEF7FEFCA3
S2140085D0052305B1286004B1236038BDFEF7F6FC1C
S2140085E00623F6E7FEF728FD0323F2E7FEF724FD51
S2140085F00423EEE7FEF736FD0223EAE722F0DCFA74
S2140086000723E6E700231846E3E700BF0080005094
S21400861038B5104B0546D3F840310C4603F003033B
S214008620022B0BD0032B0DD0012B0FD122F0C6FA54
S214008630092305B1286004B1236038BDFEF716FD96
S2140086400823F6E722F0BDFA0B23F2E700231846CC
S214008650EFE700BF0080005038B5134B0546D3F84F
S21400866000320C4603F00703013B032B18D8DFE863
S21400867003F0020A0E1222F0A1FA092305B12860BF
S21400868004B1236038BDFEF7F1FC0823F6E722F0BC
S21400869098FA0B23F2E7FEF7B9FC0E23800AEDE703
S2140086A000231846EAE700BF0080005038B5104B9C
S2140086B00546D3F840320C4603F00303022B0BD0DA
S2140086C0032B0DD0012B0FD122F078FA092305B128
S2140086D0286004B1236038BDFEF7C8FC0823F6E71F
S2140086E022F06FFA0B23F2E700231846EFE700BFED
S2140086F00080005038B5104B0546D3F860310C4664
S21400870003F00303022B0BD0032B0DD0012B0FD14C
S21400871022F054FA092305B1286004B1236038BD5D
S214008720FEF7A4FC0823F6E722F04BFA0B23F2E749
S21400873000231846EFE700BF0080005010B40D4C31
S2140087400B46D4F8204204F00304012C0AD0022C75
S2140087500CD008B1002101600BB100221A605DF850
S214008760044B70475DF8044BFFF7DABE5DF8044B28
S214008770FFF74EBF00800050B0F5207F1FD009D80D
S214008780B0F5007F15D003D868B1B0F5C07F0AD029
S21400879000200CE0B0F5607FFAD10B4BD3F88000D8
S2140087A0C0F3011003E0084B186FC0F3033001302C
S2140087B07047054BD3F89000C0F30460F7E7024B10
S2140087C0186FC0F38020F2E7008000504FF40032AC
S2140087D00E4B014610B500209A66FFF7CDFF41F616
S2140087E0713248430A490B4B88428CBF4FF48010C5
S2140087F00020DC69DA639A6822F4401202439A6029
S214008800E20344BF0022DA6310BD00BF00900050B0
S214008810005A620200000350420910B510D0012A27
S21400882010D00B4B0B4C022A18BF234600F01F003B
S21400883051B103F58053012202FA00F0186010BD12
S2140088401346F3E7044BF1E703F50053F3E700BFE5
S21400885068800050608200506480005008B5802018
S21400886022F0A4FB034B98429EBF4FF48032024B8B
S2140088701A6708BD005A620200A000501FB5002308
S214008880B0F5807F019377D028D8382800F0948000
S2140088900BD82438092810D809280ED8DFE800F0AD
S2140088A0676767670D0D620D377D52285FD008D861
S2140088B03D283BD03E2800F08480019805B05DF846
S2140088C004FB8028F9D1414B1B6F03F00703013BE3
S2140088D0032BF2D8DFE803F044413F6CB0F5D06FCD
S2140088E05BD019D8B0F5A06F66D00AD8B0F5806F07
S2140088F03DD0B0F5906FE0D1002001A9FFF756FEFD
S214008900DBE7B0F5B06F2DD0B0F5C06FD5D1002045
S21400891001A9FFF77DFED0E7B0F5006FECD00AD8CE
S214008920B0F5E06F4DD0B0F5F06FC6D1002001A9CC
S214008930FFF7E0FEC1E7B0F5086FBED1234BD3F8D2
S214008940003103F00303022B2CD0032B2ED0012B77
S21400895030D1FEF771FB032300E005230193ACE75B
S2140089600223FBE7002001A9FFF7FEFDA5E7002094
S21400897001A9FFF7D5FDA0E702934FF0E0231B699E
S2140089805B0705D5FEF742FB0C230393039BE5E745
S21400899003A902A8FFF73CFEF8E7002001A9FFF7AD
S2140089A05BFE8AE7FEF762FB0823D7E722F004F9AE
S2140089B00723D3E70123D1E7002001A9FFF7BEFE76
S2140089C07BE7002001A9FFF771FE76E700800050E4
S2140089D04FF40022034B5A66012203F580439A6245
S2140089E0704700BF0090005008B5FFF747FF082803
S2140089F011D00938012811D84FF40012094B4FF650
S214008A00FF705A6603F5D8335B6A13F0010F18BF80
S214008A104FF4FA7008BD044B1888FBE74FF6FF705A
S214008A20F8E700BF00900050900D002070B5044697
S214008A308020FFF723FF032800F082804FF40022F7
S214008A40444B02215A6645F60E03434AC2F880306C
S214008A50424B9962012103F580539962936DD903C5
S214008A60FCD4D4E900131B0543EA0163E17B94F8C8
S214008A7022500B43217B94F8236043EA0143617B39
S214008A8043EA0133A17B43EA811313619169D4E978
S214008A9004031B0643EA806301F000410B43A17EFA
S214008AA0E07E0B43217E43EA0143617E43EA0123D5
S214008AB09361E369126A002B0CBF0021082122F0A3
S214008AC00D0242EA030242EA8002234B42EA010216
S214008AD01A6294F820204FEA421232D1986A94F82B
S214008AE0211020F0330042EA0112024342F0010254
S214008AF09A621B4A996D32EA0101FBD1022217499C
S214008B008A621A659A6D5200FCD41869A26820F42D
S214008B10700040EA02504FF0004218610F4B9A6115
S214008B201DB9022203F580539A6216B901220D4B35
S214008B309A6294F824301BB1074B0B4AC3F8802086
S214008B4070BD996A21F0330131430A4342EA450277
S214008B50EEE700BF0090005000C0005000D000506C
S214008B600300014000E00050F1A7FFFF0121114A79
S214008B70114B10B5946A9962916D8907FCD5022253
S214008B800C499A621A658B6D5B00FCD40B4B8A69A4
S214008B9093F9003022F47F020344000280B222F4EC
S214008BA07F42104383F3080340EA034088618C62E7
S214008BB010BD00BF00C0005000D00050864300200B
S214008BC0014B93F900007047864300204FF40012D3
S214008BD008B5184B5A660223174A5360936813F475
S214008BE08033FBD1012822D1FEF726FA134B984298
S214008BF015D003F5122303F5F863984213D0104BF3
S214008C0000EB8002400AB3FBF0F0520A0A4BDA622D
S214008C10012218635A620022074B5A6008BD45F6C7
S214008C207A10084AF2E745F61A00074AEEE753625A
S214008C30F1E700BF009000500040025000F04902EB
S214008C4064666666D8B80500BBCF0500B0F5207F21
S214008C5010B50C4642D008D8B0F5007F33D003D804
S214008C6088B1B0F5C07F0ED010BDB0F5607FFBD1E7
S214008C701F4B013CD3F8801021F0300141EA041468
S214008C80C3F88040F0E722F089F922F052FA4FF458
S214008C908031184A164B1167196F013C21F4704158
S214008CA041EA04341C67FEF7B1F90446FFF72CFCD2
S214008CB0C0F10201204622F036FA00F02DF8BDE899
S214008CC01040FFF7CBBD0A4B013CD3F8901021F0C3
S214008CD0F85141EA0464C3F89040C5E7044B013CF0
S214008CE0196F21F4806141EA84241C67BCE700BF49
S214008CF0008000500090005008B50121022000F0CE
S214008D0017F922F04BF922F014FA4FF48032014B97
S214008D101A6708BD0090005008B54FF4C07022F0E6
S214008D2045F9BDE80840044988428CBF022101216C
S214008D304FF42070FFF78ABF80F0FA020028ABBF1E
S214008D4000F16040054B00F5614000F00F00ACBF3D
S214008D5090F80003185C0009704700BF14ED00E0AF
S214008D60054B420953F8223000F01F0023FA00F0AA
S214008D70C04300F00100704700E100E0014608B57E
S214008D80EFF31083DB0702D50122104608BDFFF77C
S214008D90E7FF02460028F7D10846FFF7CFFF014657
S214008DA0EFF3118313B1B0EB131FEDD2074B5B68E3
S214008DB0C3F30803002BE8D0103B58B2FFF7BEFF02
S214008DC088428CBF00220122DFE700BF00ED00E0F2
S214008DD0194B10B51B6873B3184A5268012A2AD07B
S214008DE0174A8020C2F80031FFF748FD05281FD13A
S214008DF04FF4C070FFF7C0FC0128044604D10221DE
S214008E004FF4C070FFF722FF07220E4B1A610122B3
S214008E10A3F580535A60094A1369DB07FCD5012C79
S214008E2009D12146BDE810404FF4C070FFF70EBFD1
S214008E300122054B5A6010BD081E002000C00150DC
S214008E400080005000E0015000D0015000224FF496
S214008E500031074B1A60074A516602F5983252688D
S214008E60012A02BF044AD2F800211A60704700BFE8
S214008E70081E00200090005000800050044A4178F0
S214008E80536F23F4407343EA01235367704700BFD0
S214008E900040005010B5044608B1FFF7D7FF0E4A51
S214008EA0136943F00403136102F0DEFE22F06BF94F
S214008EB022F059F92FF000FD22F059F922F064F95A
S214008EC002F0E6FE1CB1BDE81040FFF781BFBDE82A
S214008ED01040FEF79BB800BF00ED00E010B504465A
S214008EE008B1FFF7B3FF0C4A136943F0040313619C
S214008EF002F0BAFE22F037F92FF0DEFC22F037F946
S214008F0002F0C6FE1CB1BDE81040FFF761BFBDE829
S214008F101040FEF77BB800BF00ED00E0034A017981
S214008F20D36E23F030030B43D366704700400050E7
S214008F30F8B504461C4BD3F88420D106FBD4D3F8EE
S214008F408430C3F381139C422CD0FEF745F8012CE5
S214008F50064602D1214622F0E6F822F004F94FF048
S214008F600072124B07465A66204622F012F94FF45A
S214008F7080630D4D621E93402B676B6E9A0103D47F
S214008F80D5F884309B060AD5384622F0F0F8022C35
S214008F9008D13046BDE8F840002122F0C4B8D5F824
S214008FA08430EAE7F8BD00BF004000500060005083
S214008FB007B518B90191FEF70FF80199064B1B7813
S214008FC043B1064B984205D8012003B05DF804EB88
S214008FD0FFF7AEBF0220F8E787430020005A620280
S214008FE00278034B012100201A70FFF7E1BF00BF93
S214008FF0874300204FF0004210B501244AF6CD31D9
S214009000154B5A66154A03F50B2354605A6C1964BF
S214009010224088B9996811F0010F114903D08C607D
S214009020D86AC007FCD501234B6012B10D4B0E4A1F
S2140090301A642EF050FF10BDD96A0907FCD420210F
S214009040074B59620121A3F58053996005494B6A85
S2140090509B06FCD5E9E700BF009000500050095081
S21400906000600950004009503254FFFF4FF00042A4
S21400907038B5194B194C5A66012203F50C235A6071
S2140090804AF6CD33656C236443781540934013430A
S214009090134AD363A368827823F0740343EA021367
S2140090A0C278002A14BF042200221343A360027968
S2140090B0837943EA022323614279C37943EA022390
S2140090C063610078FFF796FF0DB1064B23642EF020
S2140090D002FF012038BD00BF00900050004009503C
S2140090E0004000503254FFFF2DE9F04104461F486F
S2140090F01F4F84420CBF3820002021F057FFA36A80
S214009100A4681F4004F0E004402C0DD004D834B30B
S214009110202C27D0002020E0602C25D0802CF9D1F0
S2140091204FF4807600241BE080260024032307F5F6
S21400913080775F4300233A46194621F047F902FB41
S21400914004F500FB06F806FB0355A2FB0601002308
S2140091503A46294421F03AF94044BDE8F081102609
S2140091600123E4E72646DDE74026DBE70000035A56
S214009170F8FF7F00072AF7B501F0030614461F46DE
S2140091804FF003012CD89500A94000FA05F21C48C0
S214009190019122F047F801991A4806FA05F222F0E2
S2140091A041F8194B19499DF82000002F08BF1946B1
S2140091B0012303FA04F40C60154B1649002808BF77
S2140091C00B461C60144B9DF82400C3F82044103155
S2140091D0A3F6DC33002808BF0B461C6003B0F0BDC6
S2140091E0A2F10805AD00A94000FA05F20B4801916E
S2140091F022F018F801990A4806FA05F2CFE700BFF0
S21400920000C4035008C4035010E4035010D40350A5
S21400921014D4035014E4035000E0035004C4035075
S2140092200CC40350F8B504460D461F4616464AB110
S21400923001238B403021194A01FB0022FFB141F285
S2140092401001535004EB4403072D4FF00F014FEA73
S214009250031317D8A80006FA00F2814010481844F5
S21400926021F0E0FF56B9012130230C4801FA05F53C
S21400927003FB040077B141F21003C550F8BD42F27B
S2140092801001DEE7A5F10800800006FA00F2814032
S2140092900448E4E742F21003EFE700BF00C00350C3
S2140092A004C003500CC00350044A054B002918BFE5
S2140092B01346012202FA00F018607047402004505E
S2140092C04010045010B5012104462020FFF7A4FAF0
S2140092D001212120FFF7A0FA0122114B5A602278C3
S2140092E012069A606178A27842EA01429A61FF22E9
S2140092F09A6200229A631A644FF000425A654FF051
S214009300FF324FF4001103F500531A65054AC2F800
S2140093108011E3781B01DBB282F81533116010BDB3
S2140093200000045000E100E02DE9F04101250C4664
S214009330C3B2DFF888E0D1F800809D408F7ACB7A00
S21400934094F80DC0097BCEF850500EF5005E4EF82E
S21400935020804FF0300E184E1B050EFB006043EACF
S214009360074343EA415322F00302C0F860C0C365D6
S214009370026721F0FFFE736D2B437365237A13B1EA
S214009380336C2B433364637A13B1B36B2B43B363F1
S2140093902279A37943EA0243084A93616179E37923
S2140093A043EA014306498B61034B55639D64BDE860
S2140093B0F04121F0E5BE00BF00000450002004503C
S2140093C00010045010B50124C0B2844021F0D2FE33
S2140093D0044B5A6D22EA04025A659C62BDE81040AE
S2140093E021F0CEBE00000450F8B50125C3B20446F5
S2140093F09D4021F0BFFE3022094B1E6D5F6B02FBC5
S21400940004335C6E21F0BCFE3D4206D1C4F30A1064
S21400941008B9354200D10130F8BD0020FCE700BF96
S214009420000004504FF40032054B9A6641F6713244
S21400943003F51C33DA63012203F50053DA60704744
S2140094400090005041F671320121064BDA6303F5B5
S2140094500052D1600022DA634FF40032A3F51833CD
S2140094609A66704700000350CB784A7810B55B01C7
S2140094700C7843EA82030A79234343EA02130C2258
S214009480424302F1B0421363012C02BF8A78024BBA
S21400949043F8202010BD00BFE880035008B54FF009
S2140094A0B0435A6802B960B15B680BB121F0CCFEDC
S2140094B04FF0B04130B10120074B586021F0C4FE98
S2140094C0C86008BD21F0C0FE0223CB6021F0BCFEC0
S2140094D00122024B5A60F4E70010005800200058A2
S2140094E04FF0B0435B6870B50BB121F0ADFE0121C3
S2140094F0104B4578596083780679002BC37814BFE3
S21400950002240024002B14BF042200224379DB002F
S21400951043EA06132B43234313434FF0B0429360B2
S214009520054B59600378002B14BF0B460223D3600B
S21400953070BD00BF00200058001000584FF4803265
S214009540064B5A6603F5E6235B69C3F38512827001
S21400955003F03F021B0B42700370704700900050F0
S21400956070B5054616461C4621B94FF4207021F00A
S2140095701DFD0146402C1BD003D8DCB1202C1BD08F
S21400958070BD602CFCD1042303FB06F2560806EBE4
S2140095904113B3FBF2F3094A203B02EAC303AA686D
S2140095A022F06002AA60AA681443AC60EB61E7E7A9
S2140095B00623E9E71023E7E70823E5E7F8FF7F003F
S2140095C02DE9B841154F15460F40FAB9202B20D08B
S2140095D0402B20D0002B14BF40241024012307F575
S2140095E080775F4300233A46194620F0EFFE554346
S2140095F000FB04F804FB0351A2FB040400233A46D4
S214009600214420F0E3FE4044BDE8B88180240025D4
S214009610E4E71C46E2E780240323E0E7F8FF7F0048
S214009620012200F5805310B55A6040F6AA6341F255
S2140096300502436100230E498360C365C26000F5DE
S21400964000520361C361C36491640A49836588421A
S21400965002D0094CA04207D18842036502D0064BCF
S214009660984201D1002343650123536010BD00BF1B
S214009670FFFF010000C005500000065070B50D4603
S214009680FFF7CEFF012300F580567360AB7C0446DF
S2140096901BB1836843F080438360EB7C5BB1354A43
S2140096A02B7D944245D1A2F51032C2F88C31E36D81
S2140096B043F08003E3652A8A6B7B20461343EA89DE
S2140096C01343E3602B7BD5E90112FFF749FF6B7D5F
S2140096D01BB1A36843F48033A360AB7D1BB1A368C2
S2140096E043F40043A360EB7D2A7E1B07120502F4B9
S2140096F0E00203F0E0431343A365697E1D4A8B1E18
S214009700012B1D4B1FD894421BD002F58042944279
S2140097100CBF01224FF0FF3203EB4213022041F24E
S2140097201C620329985020D10423F3652B786361CB
S21400973070BD124A944204BFA2F52032C2F89C3192
S214009740B5E70022E8E794420DD00C4A94420CBFDD
S21400975001224FF0FF3203EB4213022042F21C625A
S21400976001299850DFE70022F5E7042204F50053AC
S214009770DA65DBE700C0055000C003500000065065
S21400978038B50D46FFF74CFF0122A97B00F5805344
S2140097905A602A8A8368002914BF4FF4806100212A
S2140097A042F0010213432A7D0B43002A14BF4FF0F8
S2140097B00052002283608368044613438360AB7CB8
S2140097C05BB11D4AEB7C90422DD1A2F51032C2F857
S2140097D08C31E36D43F08003E3652B7B2046D5E9AF
S2140097E0011243F48053E36021F047FD6B7B0BB11D
S2140097F0102363616B7D1BB1A36843F48033A360C1
S214009800AB7D1BB1A36843F40043A360EB7D2A7EC7
S2140098101B07120503F0E04302F4E0021343A365BE
S2140098202B78636138BD054A904204BFA2F520320A
S214009830C2F89C31CDE700BF00C0055000000650BE
S21400984038B50446054D2EF06CFB0FCC0FC594E8DA
S214009850030085E80300002038BD00BF0C1E002072
S21400986047F6FF739A42F0B567D0022967D8354DA0
S214009870CF0015F8313005EBC100012B847813D1E9
S2140098800025C3781B1B9D4202D3E018C0B2F0BD72
S214009890591B4668A3EB510136F911609642D4BFB6
S2140098A00D4601F1FF33EEE740680028EFD0B0F92F
S2140098B00030934204DBB0F902309342B8BF13463F
S2140098C082883D44FF2A19BFC8214FF0280CB0F902
S2140098D00610B0F908C0A1EB03020CBF0126002653
S2140098E092FBFCF26D78324412B2954201DD002AFA
S2140098F001DA6A1E12B24FF47A7700EBC206F188DC
S214009900B668013213FB016112B221EAE17101F57A
S214009910FA719542B1FBF7F104DD00EBC206B6889A
S2140099208E42EAD200EBC20232F8040C884228BF0C
S2140099300846A04238BF2046A8E7FF20A7E7002039
S214009940A5E700BF0C1E00200229F0B553D82B480F
S21400995000EBC10410F83110636801290FD1E078DC
S214009960A478904294BFC4EB0001C4EB0201001B34
S214009970CAB28242C8BF002233F91200F0BD002BE3
S21400998039D0A178914202D3B3F90200F6E7E17824
S214009990B3F900009142F1D999886478A1F1FF06E5
S2140099A0013C714203F10405E4B2714103F10C0776
S2140099B01FFA82FCCEB2B44216D805EBC1014FF4B2
S2140099C07A756A43B1F902404968521A04EBD471B9
S2140099D002EB610292FBF4F29042CFDBB3F9020095
S2140099E09042CBDC10B2C9E737F831E04E1CE645B2
S2140099F0E3D33146DEE70248C0E700BF0C1E002076
S214009A000080FFFF08B50448FFF71AFFBDE80840CE
S214009A1001202EF08ABA00BFB489030000487047C0
S214009A20920D00204FF0FF3001492EF0CBBB00BF57
S214009A30240C00201B0603F0706300F00F000902E0
S214009A40034301F47061120402F470220B431343C3
S214009A50014A1360704700BF0020025C60B50546EF
S214009A6019B10139B1F5806F10D2094EF06810F4C3
S214009A708030FBD143EA0121120741EA050302F0D8
S214009A808052134343F00043736060BD0120FCE73F
S214009A900020025C0122054B9A60DA68D203FCD4EF
S214009AA0D86820F00F000004000C70470020025C0D
S214009AB0014B1868704700BF0040025C014B5868B5
S214009AC0704700BF0010025C014B186B704700BF68
S214009AD00010025C014B1868704700BF0010025C63
S214009AE0014B9860704700BF0010025C014B186481
S214009AF0704700BF0010025C014B5864704700BFFF
S214009B000010025C014B5863704700BF0010025CF7
S214009B100022014B1A6070470010025C024A13686C
S214009B2043F00103136070470010025C43F2040226
S214009B30014B1A60704700BF0010025C024A1368AF
S214009B4043F03003136070470010025C044B1A6841
S214009B5042F480721A601A6822F480721A607047A3
S214009B600010025C024A136843F480631360704777
S214009B700010025C034A136823F4702343EA004093
S214009B80106070470010025C044B1A6902605A6944
S214009B9042609A698260DB69C36070470010025CAD
S214009BA00268044B1A6142685A6182689A61C26808
S214009BB0DA6170470010025C024B1A6BD207FCD4C5
S214009BC0186270470010025C024B186B00F00E0023
S214009BD0704700BF0010025C82B01FB507930A9B57
S214009BE004AC8B4228BF0B4604E907001048D1009E
S214009BF0079948BF03330160099948BF23F0030360
S214009C0023F0704301F0E041194341F000518160B8
S214009C10002102F0E042019C134343F00053C16070
S214009C2004618361416304B0BDE8104002B0704730
S214009C300000025C3F22034B1A631022DA61032203
S214009C409A6370470000025C024AD36B9B07FCD401
S214009C50704700BF0000025C034B986A10F02400B7
S214009C6018BF0420704700BF0000025C08B5FFF76D
S214009C70F3FF064BDB6B23F47F4323F0EF03034332
S214009C801EBF0122024BC3F8FC2F08BD0000025C79
S214009C9000F0FF3F032208B5054B186019615A63B0
S214009CA0FFF7C8FFFFF7D0FFBDE80840FFF7DEBFAD
S214009CB00000025C42680346182A10B50AD0202A23
S214009CC01DD0102A2BD1174AD2F80424D4010AD466
S214009CD0012013E0134AD2F804249001F8D50A684C
S214009CE042F008020A6010481A6882424FF00000EC
S214009CF00ED10A6842F040020A60586010BD094A58
S214009D00D2F804245201E3D50A6842F00402E9E7D7
S214009D10064CA242F2D10A6842F08002ECE7072025
S214009D20ECE700BF0000025C884300208943002067
S214009D300B4607B50749D1F80414C90708D5002112
S214009D4000920246084600F05BF803B05DF804FB9C
S214009D500120FAE70000025C1346064AD2F8042403
S214009D60D20504D50A460146002021F0B2BC0120E7
S214009D70704700BF0000025C13B5084CD4F80444DA
S214009D80E40508D5009313460A460146002000F075
S214009D9061F802B010BD0120FBE700BF0000025CC6
S214009DA013B5084CD4F80444E40508D500931346CC
S214009DB00A460146002000F071F802B010BD0120EE
S214009DC0FBE700BF0000025C70B504460D46164671
S214009DD08CB00A4A09AB07CA83E807001A46214630
S214009DE0CDE90563CDE90333CDE9013300954FF4A2
S214009DF0803021F092FB0CB070BD00BF388A0300A3
S214009E00F0B51C465B6815468DB01A07129E1AD12F
S214009E10CBB17268934216D10C4B0D4A53F82170A1
S214009E2009AB07CA83E807001A462946CDE9053379
S214009E30CDE90333CDE90163009447F4807021F047
S214009E406CFB0DB0F0BD0720FBE700BF448A0300A3
S214009E50388A0300F0B516465A688DB0102A0D46AB
S214009E60129F15D17A68102A12D10A4A09AC07CA7D
S214009E7084E8070022462946CDE90547CDE9034494
S214009E80CDE901440448009621F047FB0DB0F0BD33
S214009E900720FBE7388A030030000100F0B51646BD
S214009EA05A688DB0102A0D46129F15D17A68102A6E
S214009EB012D10A4A09AC07CA84E807002246294696
S214009EC0CDE90574CDE90344CDE901440448009684
S214009ED021F023FB0DB0F0BD0720FBE7388A030016
S214009EE01000010082B070B586B0149D03AE202D20
S214009EF086E807000B9359D805EB85038B4203D001
S214009F0006236B438B4253D10C9BAB4250D10F9B25
S214009F10B3EB450F4CD1129A934249D10122294600
S214009F202220159BFFF79AFD044630BB0346062207
S214009F300E210C20FFF77EFD0123CDE900332B46D2
S214009F4096E8070021F086FA0E230BAA009307CAAC
S214009F502B4621F0CAF90C23164C00930EAA2B466A
S214009F6007CA21F0F2F9636823F07F0343F0260363
S214009F706360FFF78FFD30B10624204606B0BDE8CB
S214009F80704002B07047636823F07F0343F02203FB
S214009F906360FFF77FFD04460028EDD1062311AA73
S214009FA0009307CA2B4621F003FAE6E70124E4E70C
S214009FB00724E2E70020025C70B598B0002843D082
S214009FC02C4C08AD0FCC0FC50FCC0FC50FCC0FC552
S214009FD094E80F0085E80F006D4604AE04F1100308
S214009FE020340FCB85E80F0094E80F0086E80F00BA
S214009FF0FFF7ACFD0420FFF7BDFDFFF797FD3046E9
S21400A000FFF7CEFD002408AE56F8040B0134FFF728
S21400A010D3FD102CF8D1FFF751FD0328FBD90024FF
S21400A020FFF776FD2646FFF743FD55F8043B01365D
S21400A0305840042E44EA0004F5D12CB10122062033
S21400A0400D4B1A7018B070BDFFF780FD0820FFF7A3
S21400A05047FD0020FFF74AFD0720FFF74DFD4FF4B0
S21400A0600070FFF74FFD0820FFF784FDFFF756FD51
S21400A0700020E7E7208B03008B43002008B5FFF79E
S21400A08065FD0122014B1A7008BD00BF8A430020FF
S21400A09030B589B005AC84E80700FFF715FDC305A9
S21400A0A001D5FFF7EBFF0A4D2B781BB121F08CFC96
S21400A0B000232B70074B069AD3E901018DE80300B5
S21400A0C002921B6894E8070021F087FB09B030BDB8
S21400A0D08A430020808B03001FB521F075FC0446E0
S21400A0E030B1012206240D4B1A70204604B010BD74
S21400A0F0FFF7DEFC0090FFF7DBFC0190FFF7D8FCD3
S21400A1000290FFF7D5FC03906846FFF749FDFFF77E
S21400A110B5FFFFF713FDFFF725FDE6E78B430020AD
S21400A12005289ABF014B185C002070478C8B0300F3
S21400A13030B5154B87B00293144B0390049346F644
S21400A14011030D46059300F06DF91428044616D148
S21400A150684621F0F1FC4FF0A843032202A95A6397
S21400A16019601D619A63DA6B9207FCD1142C02D138
S21400A170684621F0EFFC00F089F9044601E000286B
S21400A180E9D0204607B030BD241E00200400002081
S21400A1902DE9F04FB1B005468C46E9466E4F3B9E22
S21400A1A0DDF8F8E0409C07F1100AC8463868796880
S21400A1B00837A8E803005745C146F6D10EEB02085B
S21400A1C0C8F1000909F00F09002E00F0AF807742B1
S21400A1D007F00F070121DDF8FCB0C4F1100ACDF836
S21400A1E010B0059144F0005106914FEA0A2101F49F
S21400A1F0F85141F02101079106B96B460893002DEE
S21400A20040F09680002C00F0938004AB0993002E5B
S21400A21000F0908046F000530A93002D40F08D80A9
S21400A220002C14BF0123212343EA07230B9308A91C
S21400A23042F00053CDF830C03D980D910E934FEA92
S21400A240092343F041030F93109002B10CA9002A92
S21400A25016BF00224FF00052412342EA0E0211912F
S21400A260129213933C9B3D4A149310AB15933C4BB0
S21400A2700021169340F6110317933A4B002D08BFA2
S21400A2801346189314AB1993374B10221A931123C5
S21400A2901B931CAB18462EF0D8FA01221D924AF0EA
S21400A2A080421E9200220346239205B9EB46102CEC
S21400A2B008BF01230DF1900A102200215046CDF868
S21400A2C080B0219322942EF0C0FA002C37D020AB19
S21400A2D0002125938F4218BF534647F080422692AE
S21400A2E03A9A2CA88A422892299313460CBF4FF01C
S21400A2F080430B46102233432B912A932EF0A5FA67
S21400A300FEB95346C8442D932CA948F0804318A89C
S21400A3102E93FFF70DFF30B92DB90346A34212D195
S21400A320002818BF2C2031B0BDE8F08F102751E769
S21400A33001236BE747F000536EE7212374E7012300
S21400A340C6E728ABDEE703F1C0026A4412F8C02C69
S21400A35001331043E2E700BF928B0300A48B030097
S21400A36010000020A88B030004000020F0B5C029D0
S21400A3709FB0249E4FD0B1F5807F04D0802941D075
S21400A38029201FB0F0BD40F2344440F21445002EA0
S21400A39008BF2C4621271025019401240296039419
S21400A3A004950597259F069706B102AC07940124ED
S21400A3B0089509940A9221220B940C950D92174A3F
S21400A3C00AAC0E92164A0F94109242F6110211929F
S21400A3D0129313941495159201AA1692CBB112AB50
S21400A3E01793042318931123199316AB1A901B93F3
S21400A3F040F61103C9081C911AA806A91D93FFF779
S21400A40097FEBEE7002E14BF4FF486644FF48264B6
S21400A410C0E70EABE4E70F20B3E700BFAC8B03004A
S21400A4201000001038B5164B5A6E42F004025A66F9
S21400A430D3F8802242F00102C3F88022114B5B68F9
S21400A440C3F3080343B14FF0A842D36B13F0430F96
S21400A450FBD11424204638BD4FF0A843DC6B14F023
S21400A4604304FBD1084D2B681BB90421284602F093
S21400A470FFFA2B68013343F000432B60EAE700BF86
S21400A4800080005000ED00E0241E0020014B00205C
S21400A4905B68704700ED00E04FF40052034B00206D
S21400A4A09A660322C3F86022704700BF00900050EF
S21400A4B008B5FFF70FFBC30708D5FFF785FB06288F
S21400A4C004D00A28F5D1FFF7D9FDF2E74FF4005281
S21400A4D0034B00209A660322C3F8602208BD00BF23
S21400A4E000A000501FB54FF40052164B9A66032288
S21400A4F0C3F86022FFF7EEFAC30710D4012021F05C
S21400A50070FA002814BF6FF092040024FFF7D0FF03
S21400A51000280CBF20466FF0920004B010BD102239
S21400A520002168462EF091F96846FFF72DFBDDE91D
S21400A53000321343029A1343039A1343DED00024D7
S21400A540E4E700BF00900050012300F01F02A0F5D2
S21400A55006200949A0F550604009934051F8202094
S21400A5601A4341F82020054951F8202022EA030327
S21400A57041F82030704700BF281E00203C1E0020F7
S21400A5800121A0F506230F4AA3F550635B0900F0EE
S21400A5901F0001FA00F052F8231008430A4942F857
S21400A5A02300D1E90030034488680344C868096979
S21400A5B003445B1802BFC2E90033C2E902331361E9
S21400A5C0704700BF3C1E0020281E00202DE9F04FDB
S21400A5D0A9B002921F46DDE9328904460822CDE979
S21400A5E00301414021FA02F34B40980702F10802AA
S21400A5F018BF9B00202A1C44F4D18123B4FBF3F33C
S21400A60003EBC313E41A784B04F506241B7804F511
S21400A6105064002B3CD1FDF72BFA014620B16FF0B9
S21400A620910029B0BDE8F08F4022059008A82EF0D2
S21400A6300CF94022059918A82EF007F96B4EDFF8A2
S21400A640C4A1334603F10F0B102208A9DAF8000064
S21400A650CDF800B005932DF0EEF900220146059BDB
S21400A660103608AD914244D1CDF800B01022DAF889
S21400A670000018A92DF0E8F94FF0000B034618ADBE
S21400A6805B4542D15A4B9E42DBD10122564B1A7093
S21400A69081250026DFF86CA1A4F50623554AA3F50C
S21400A6A050635B0952F8232004F01F01CA40D2070A
S21400A6B03ED4514A52F82300C84010F001002DD075
S21400A6C0002E08BF26468123A4F50724A4F2FF44E3
S21400A6D0B4FBF3F303EBC313E41A04F50624013DBD
S21400A6E004F55064D8D1029BD3B1CEB1349B1E6022
S21400A6F063E055F8040BCDE906230591FFF724FF28
S21400A700069A079B05990132ACE755F8040B0593AA
S21400A7100BF1010BFFF734FF059BB1E7029B13B962
S21400A7206FF08B007DE7349B002E45D01E6078E7E7
S21400A730B8F1000F02D00023C8F80030B9F1000FBE
S21400A74002D00023C9F800304FF0100B00233A4621
S21400A7502146DAF80000CDF800B018F029FE70BBEC
S21400A760B8F1000F01D0C8F800B03B68234A934206
S21400A7702FD1B8F1000F11D0B9F1000F0ED04B4613
S21400A7802146DAF8000018AA18F066FEB8B9D9F81B
S21400A7900030D8F800209B1AC9F80030D7E9022309
S21400A7A0DDE90310834208BF8A428CD1029B13B1B5
S21400A7B07B68012B15D0349B1C60002031E7104BC2
S21400A7C0984206D01233984203D0133B9842E5D005
S21400A7D025E72146DAF8000018F084FE0028DDD0D0
S21400A7E09EE76FF084001CE78C430020006D080095
S21400A7F000710800281E00203C1E0020105D175E19
S21400A800FFDF00F0000C00202DE9F04F87B08246F5
S21400A810894698461646DDF840B02AB1002B4ED041
S21400A82040F26C739A424DD8BBF1010F4DD800240C
S21400A83006F1100739460120059421F05EFB054617
S21400A840002845D021463A462DF0FFFF05ABCDE95E
S21400A850014300942B46012250464946FFF7B6FEB8
S21400A860044680B110F18C0F08BF6FF08D043A4695
S21400A870002128462DF0E9FF284621F04FFB204610
S21400A88007B0BDE8F08F144BC5E902A92B60C5F8E8
S21400A89004B02EB13246414605F110002DF0AEFF51
S21400A8A00E483B462A460599006818F0E9FC18B998
S21400A8B00598FFF749FEDAE76FF09104D7E76FF0E7
S21400A8C08604DCE76FF09104D9E76FF08504D6E7DD
S21400A8D06FF08C04D3E700BF105D175E000C0020FD
S21400A8E02DE9F0438DB08146DDE914780C46154617
S21400A8F01E469BB1B8F1000F05D16FF086042046C6
S21400A9000DB0BDE8F083002FF7D0B7F1005FF4D3A9
S21400A910C3F1005303F500439F42EED810220021F6
S21400A92008A82DF092FF002207AB029305AB019317
S21400A93006AB21460093484608ABCDE90522FFF753
S21400A94045FE04460028DAD10599DEB1A94203D8AF
S21400A9500029D2D115B1D0E70029FBD0491BB1425E
S21400A96028BF3146069B0948C8F8001000913A46B1
S21400A970079900682B4418F01BFD002818BF6FF0DD
S21400A9809104BCE7A942E9D2B7E700BF000C00205B
S21400A99030B58DB00C4605461022002108A82DF0D3
S21400A9A054FF002207AB029305AB019306AB21468A
S21400A9B00093284608ABCDE90522FFF707FE0446BC
S21400A9C0D0B9099B012B1AD0104B0799186818F0BC
S21400A9D089FDB8B9012207980D49A0F50623A3F50D
S21400A9E050635B0900F01F05AA4051F823506A40E7
S21400A9F041F82320FFF7C4FD20460DB030BD6FF0B0
S21400AA008404F9E76FF09104F6E700BF000C00201D
S21400AA10281E00202DE9F0438BB01746DDE91545CA
S21400AA20DDE913269C46DDE91738894621B96FF023
S21400AA3086000BB0BDE8F083002FF8D00EB9002CCE
S21400AA40F5D1129909B9002AF1D10DB9002BEED132
S21400AA50B8F1000FEBD0254A944544D10288B2F5F0
S21400AA60105F40D14288B7EBD20FE0D322F040010E
S21400AA70802902D0B2F5807FD9D11CB92046C8F80B
S21400AA800040D6E7AE421CD23219954219D29C42FB
S21400AA90CDD83146224628462DF0BDFE2E4614F06F
S21400AAA00F03C4D1CDE90197CDE90336CDE90543BF
S21400AAB0CDE907540993FFF7EFFC38B16FF0920029
S21400AAC0B7E79C42EBD96FF08900B2E707AA04A962
S21400AAD001A8FFF72DF90546FFF7EAFC2843EDD15C
S21400AAE0C8F80040A5E76FF08500A2E700444004E0
S21400AAF02DE9F04FA9B0834617469A460C46DDF876
S21400AB00C890369E29B96FF08603184629B0BDE86E
S21400AB10F08F002AF7D0B9F1000FF4D0349B002B49
S21400AB20F1D0002EEFD000253F4B0DF1300893E812
S21400AB30070088E807003C22294619A818952DF03A
S21400AB4084FE2288618802F4E040B0F5804FDAD0B7
S21400AB50364C37480BEA040444F0106484425CD157
S21400AB60B1F5807F59D147F212118A4255D106209D
S21400AB703049BAF11F0F0A69CB6800FB02F2096878
S21400AB800B93CDE90C120E95BDD9339B402BBAD949
S21400AB90359B1F2B44D909F1010220241292402232
S21400ABA099F800300F97042B18AFCDE91325CDE99F
S21400ABB01572109411951795A5D1FFF76DFC0346F5
S21400ABC00028A2D10B9B15AACDE9084305AB07CAFE
S21400ABD083E8070002AB12AA07CA83E80700DDE98C
S21400ABE010018DE803000F9B98E80700FFF77AF93D
S21400ABF00446FFF75DFC54EA000384D1349A3C46D1
S21400AC0020AF254603CDBD42106051602C4602F1B0
S21400AC100802F6D12022326077E76FF0850374E7EA
S21400AC206FF0890371E700BF388A03000000FFF663
S21400AC30000002090C8B0300F0B50F461D468DB0D0
S21400AC4000285AD0002958D0002A56D0002B54D0BD
S21400AC500388B0F802C0194603F44F44B4F5824F97
S21400AC6018BF002321F0FF01B1F5E24FDBB203D09D
S21400AC706FF085000DB0F0BD122B01D0172BF7D169
S21400AC800CF10701B2EBD10F4FEAD10638D31F4AB9
S21400AC9006ACBCF5807F07CA84E80700E8D1122B13
S21400ACA007D11B4B1A691B681344CDE906320023F3
S21400ACB008930023CDE909760B93FFF713FC0028D1
S21400ACC0D8D1FFF7E9FB0028D4D1124B11490593E0
S21400ACD002AB049083E803000CAB13E903008DE895
S21400ACE00300099B94E8070020F0FDFC0446FFF7EC
S21400ACF0DFFB204307D12E60BCE76FF08600B9E784
S21400AD006FF08900B6E76FF09200B3E7388A030069
S21400AD100C8B030003BA02002DE9F0438FB01D46EA
S21400AD20DDE916C6002863D0002961D0002A5FD06E
S21400AD30002B5DD0BCF1000F5AD0002E58D00388EF
S21400AD40B0F802E01C4603F44F47B7F5824F18BF31
S21400AD50002324F0FF00B0F5824FDBB24ED0B7F5EB
S21400AD60824F4BD1122B01D0172B47D10EF1070083
S21400AD70B2EBD00F4FEAD0083AD34FEA4802571C3E
S21400AD80674538D8BEF5807F38D1122B18BF4FF0F4
S21400AD9000094FF0000308BF1B4CCDE9081805F169
S21400ADA0010114BF4C46D4F80C90CDE90B120A935F
S21400ADB00D93FFF771FBC0B9CDE9058902AB08AA70
S21400ADC007CA83E807000EAB13E903008DE803000B
S21400ADD00B9B94E8070020F0A5FC0446FFF768FBF1
S21400ADE020430ED104232B7037600FB0BDE8F083EC
S21400ADF06FF08600F9E76FF08900F6E76FF08500E0
S21400AE00F3E76FF09200F0E70C8B03002DE9F043B8
S21400AE1089B00D4614461F46DDF8488020B96FF00D
S21400AE20860009B0BDE8F0830029F8D0002AF6D0E5
S21400AE30B8F1000FF3D0028802F44F43B3F5824F07
S21400AE400CBF13460023DBB202D06FF08500E8E7A4
S21400AE50122B01D0172BF8D122F0FF02B2F5E24FE9
S21400AE6040D14288C8F80020002A36D1E200C8F84F
S21400AE700020D8F80020B2F5807FE6D1122B09BF5B
S21400AE80384B00221A681B6905EB040608BFD21867
S21400AE9000231846224412F801CD16F8011D084377
S21400AEA0B1EB0C010CBF4FF0FF3C4FF0000CB5426D
S21400AEB00CEA030343EA0103EDD10028AFD0002BD0
S21400AEC0ADDA109B9C4249D82246294638462DF0DA
S21400AED095FC119B00201C60A3E70732B4EBD20F51
S21400AEE0C7D09CE72A78042A99D1621ED20052085D
S21400AEF0B2F5807FC8F80020A7D1122B05F1010318
S21400AF0018BF4FF000094FF0400205934FF00003C2
S21400AF100ABF144E4E46D6F80C90CDE90623FFF72E
S21400AF20BBFA00287FF47DAFCDF80C90D8F800303F
S21400AF300733DB08029308AB13E903008DE8030030
S21400AF40059B96E8070020F096FC0646FFF7B0FA49
S21400AF5000287FF466AF002EB3D060E76FF089005C
S21400AF605FE700BF0C8B03002DE9F04F8FB005465E
S21400AF70DDE918A993461E46DDF868801C9F09B3D4
S21400AF8000B3B8F1000F1DD0E7B1BAF1000F02D13F
S21400AF90B9F1000F16D1284B26F47E129A4247D1FB
S21400AFA0284620F008FE0446B0BB6B88BBEBD30FE8
S21400AFB04FEAD30206D316F47C1FC6F3054504D029
S21400AFC0102D03D96FF0860426E010251B9B9D42AA
S21400AFD02BD80023CDE901121022CDE905930DF1FF
S21400AFE02809CDE9033ACDE90823CDF81C90FFF7F0
S21400AFF053FA044680B907AA04A901A8FEF7ACFED6
S21400B0000646FFF755FA044656B958B92A46494641
S21400B01040462DF0F3FB3D6020460FB0BDE8F08FB4
S21400B0206FF0920400233B60F6E76FF08904F3E7C5
S21400B0306FF08504F0E700BF0002C0032DE9F04181
S21400B040069F0C461646054610B309B302B9FBB96F
S21400B0506288B3EBD20F4FEAD20819D34C220021F4
S21400B06028462DF0F2FB0D4B27F47E129A4212D1A1
S21400B070204620F0A0FD044638B942463146281D39
S21400B0802DF0BCFBC5F824802F602046BDE8F0817B
S21400B0906FF08604F9E76FF08504F6E70002C00358
S21400B0A02DE9F0410E4614460546002840D00029FA
S21400B0B03ED012B90020BDE8F08103681F4823F493
S21400B0C07E13834237D1AF6BE7B1C7F1100807F1A3
S21400B0D028004245284404D22DF090FB3C44AC6343
S21400B0E0E8E742462DF08AFB1022103C3C19AA6382
S21400B0F0E0D0284605F1280120F079FD0028DAD1B5
S21400B1004644A863102C0CD9671E27F00F073A4652
S21400B1103146284620F06BFD0028CCD1E41BC9D070
S21400B1203E442246314605F128002DF067FBD6E75F
S21400B1306FF08600BFE76FF08800BCE70002C00330
S21400B1402DE9F04388461F4605468BB070B169B1BD
S21400B15063B10368234923F47E1088423ED113F47A
S21400B1607C1FC3F3054604D0102E03D96FF0860467
S21400B1702AE0102696422BD8FFF78EF9044618BB15
S21400B180AB6B05F12802CDE901236B6A2A1DCDE9D8
S21400B19004231023CDE9083007AB1A460390069027
S21400B1A005F13C0901A904A8CDF81C90FEF7F8FDAE
S21400B1B00546FFF77DF904466DB928B9324649467B
S21400B1C040462DF01BFB3E6020460BB0BDE8F083EA
S21400B1D06FF08904F8E76FF09204F5E76FF08504E6
S21400B1E0F2E700BF0002C00307B56B46054A1068C9
S21400B1F0516803C36846FDF739FF002003B05DF8C9
S21400B20004FB00BFB08B030013B50024064A684653
S21400B210536F43F00103536700948DF80440FDF725
S21400B2207DFE204602B010BD0040005030B58BB009
S21400B2306C46154D0FCD0FC40FCD0FC495E8030017
S21400B24084E80300114BD3F84C21120314D4D3F82E
S21400B2505041E4B28DF81940FDF7B2FC204480F36B
S21400B26008008DF818000A48FBF7ECFE6846FDF764
S21400B270DDFB00200BB030BD064B1C884FF6FF737D
S21400B2809C4208BF8C24E5E7B88B03000080E00FE3
S21400B29000F049020001E00F6FF00402502110B5E3
S21400B2A00A480B4C12F0800FD3B21BBF03F00F03FB
S21400B2B0043BA3181B1802F101020CBF83F800130D
S21400B2C01976402AEED1002010BD00BF00ED00E048
S21400B2D000E100E038B500F045FE0446E0B900F0B5
S21400B2E0F7FE4FF4167343430C4803F5742303F23A
S21400B2F03F23B3FBF0F30A4A0A4913600A220D689B
S21400B3000948013A12F0FF0240F8043BF9D103EB7A
S21400B310C3022B4413440B60204638BD40420F0046
S21400B320841E0020541E0020581E0020012208B54E
S21400B330034B1A7020F068FD024B186008BD00BF72
S21400B3408D430020801E0020F8B5144C237823B3CC
S21400B35020F05AFD124B134D1B68134EC01A0128DD
S21400B36038BF0120114B124F18602B7856F8232057
S21400B37046F82300111A3A680E48521A0A213A6013
S21400B3800932B2FBF1F20133DBB20260B3FBF1F239
S21400B39001FB12332B7000232370F8BD8D43002071
S21400B3A0801E00208E430020581E0020501E0020C5
S21400B3B0541E0020841E0020014B1868704700BFF2
S21400B3C0841E002020234FF400220A4981F82C33E3
S21400B3D0094B5A66094A03F5405303F50050426785
S21400B3E002674FF48050C1F88401486003445A67EE
S21400B3F0704700BF00E100E000900050010000A090
S21400B400044B9A6DD20702D40028FAD17047012067
S21400B410704700BF00C000500C4B10B51C6FE20711
S21400B42007D5012203F500531A67FFF78DFF00F0DA
S21400B43059FB14F000521CBF054B1A67002CBEBF08
S21400B4404FF00042024B1A6710BD00BF00C000500C
S21400B45000E00050BFF35F8F074B5A6A22F4803239
S21400B4605A62D3F8942022F00102C3F89420BFF366
S21400B4704F8FBFF36F8F704700ED00E070B5264822
S21400B480264CFFF7E7FF844208BF4FF08043244A6C
S21400B49018BF20F01F03D2F8C01018BF203B21F0C1
S21400B4A0FF0141F0A001B3F1005FC2F8C0100CD359
S21400B4B01C4D1D4E296843F00103C2F89810013157
S21400B4C0C2F89C60C2F8A0302960844210D01548AB
S21400B4D0164B0268124923F01F0343F00303C1F81A
S21400B4E09820C1F89C30124B0132C1F8A03002609F
S21400B4F0BFF35F8F05220A4BC3F894205A6A42F4C2
S21400B50080325A62BFF34F8FBFF36F8FBFF34F8FF8
S21400B510BFF36F8F70BD00BFC80D0020A00F0020C6
S21400B52000ED00E0881E002003000020BF0F002072
S21400B530E1FFFF3F10B51446FFF78CFF1F2C24D900
S21400B5401C4A1D4CD2F8C03023F47F4343F480736A
S21400B550C2F8C030C2061CBF20F01F002030CB0649
S21400B560144A236818BF21F01F0120F01F0021F0A5
S21400B5701F01C2F8983040F0030041F00301013388
S21400B580C2F89C00C2F8A0102360BFF35F8F0522AC
S21400B590084BC3F894205A6A42F480325A62BFF3CA
S21400B5A04F8FBFF36F8FBFF34F8FBFF36F8F0020A8
S21400B5B010BD00BF00ED00E0881E0020BFF34F8FD7
S21400B5C00549064BCA6802F4E0621343CB60BFF33A
S21400B5D04F8F00BFFDE700BF00ED00E00400FA0556
S21400B5E0034B1B78002B14BF01200220704700BFBE
S21400B5F0974300200329F8B598BF124B05460E4620
S21400B6008CBF00245C5C032805D8DFE800F0020845
S21400B6100B0E44F002040C4B1F684FB9F8BD44F003
S21400B6200804F8E744F02004F5E744F08004F2E765
S21400B6307B681A68144203D0314628465B689847F0
S21400B6403F68EAE7E08B0300B01E002038B5104DD7
S21400B6502B78ABB10F4C23781BB100F045FB0023D1
S21400B6602370002000F062FB0B4C50B100F068FB2A
S21400B6700023012120782B70FFF7BCFF01232370E5
S21400B68038BD0122054B1A702278054B1A70F7E771
S21400B69096430020914300208F43002095430020CE
S21400B6A09C43002010B51FF05EFD064B04461B7839
S21400B6B01BB1BDE810401FF05ABDFFF7C7FF20467C
S21400B6C0F7E700BF90430020002814BF0121FF21A8
S21400B6D0074A13780B44137008D0064B1B78012BCF
S21400B6E004D9054B1B780BB9FFF7B0BF704700BFF6
S21400B6F0974300208F4300209543002070B51FF02D
S21400B70032FD114E054633788BB900F02BFC04460B
S21400B71020B128461FF02BFD204670BD0B481FF0B9
S21400B72097FA0B4B1C6000F0D3FC0A4B186000F035
S21400B7301FFA20F0E3FA084B00241860012328467D
S21400B74033701FF014FDE7E792430020B01E002080
S21400B750B81E0020B41E0020AC1E002000292DE9D3
S21400B760F34114BF0121FF21254A00F1FF30135C8D
S21400B7700B4413543AD0234E3278012A36D9FFF7B9
S21400B7802FFF0128044634D81F4F1FF0ECFC3B78EF
S21400B7901BB31E4D2B781BB901222A701C4A13704E
S21400B7A0DFF8708098F8003033B1019000F09CFA12
S21400B7B00023019888F800301FF0D9FC012000F023
S21400B7C0B5FA1FF0D0FC2B782BB1019000F0B8FA38
S21400B7D0002301982B7000233B701FF0C8FC3078C4
S21400B7E0A04203D02146FFF705FF347002B0BDE843
S21400B7F0F081032AF3D10228F1D120F083FAEEE794
S21400B800974300208F43002096430020904300205B
S21400B810954300209143002010B504461FF0A3FC7A
S21400B820002C14BF0121FF21064A13780B44DBB21B
S21400B8301370B3FA83F3BDE81040034A5B09137034
S21400B8401FF095BC9A4300209943002068B51FF06E
S21400B8508AFC094B06461B78012B04D81FF087FC90
S21400B8600025284668BD054B1D6800F09DFA054476
S21400B87030461FF07CFCF4E78F430020B81E002003
S21400B88038B5416004461FF06EFC05462146044864
S21400B8901FF0E1F92846BDE838401FF068BC00BF3D
S21400B8A0B01E0020054B1B685843054B00F574205E
S21400B8B000F23F20B0FBF3F0704700BFB41E00203C
S21400B8C040420F002DE9FF47EFF3108672B600E006
S21400B8D000BF1FF0C2F8002800F09B806C4D6D4F33
S21400B8E02B7823B10020FFF7EFFE00232B70FFF725
S21400B8F077FE0446002800F09380841EE4B2012CF4
S21400B90040F29680FFF76CFE0128804604D9624B11
S21400B9101B780BB920F0F0F9604CDFF8A091207886
S21400B920DFF89CA140450AD0002389F800309AF839
S21400B930003013B94146FFF75DFE84F8008099F8A1
S21400B94000303BB12378022B04D1002389F8003065
S21400B9502CF041FCB8F1010F0FD9DFF83C8198F8C4
S21400B960003053B94E4B1B7823B900F0B7F90122CB
S21400B9704C4B1A70012388F80030207800F0FEF94E
S21400B9809AF8003013B1484B1B78237000E000BFD4
S21400B99006B962B6EFF3108672B6444B1A7852B107
S21400B9A000221A70404B20781B78984203D1012160
S21400B9B02170FFF71FFE384600F00EFB1FF062F8FE
S21400B9C0804600288CD1344F89F800003B789BB124
S21400B9D0DFF8D0908AF8000099F800301BB100F02C
S21400B9E083F989F80080002000F0A0F9002845D0EF
S21400B9F000F0A6F900233B702B7823B10020FFF758
S21400BA0063FE00232B7000212078FFF7F3FD002350
S21400BA10237000E000BF06B962B604B0BDE8F08748
S21400BA202B78002B3FF46EAFFFF74EFE2C7069E7C5
S21400BA30002003A900F014FB044600287FF462AF40
S21400BA401B4B039A1B689A4205D80120FFF73CFE61
S21400BA5001232B7056E7174BD3F8008000F0A4F9AB
S21400BA60039940448842F0D20223091ACDE90043E4
S21400BA7038462346104A20F046F943E7012000F0F6
S21400BA807DF906B962B6EFF3108672B6ABE700BF73
S21400BA909B4300208C1E0020964300208F430020EE
S21400BAA09A430020914300209C43002094430020AA
S21400BAB0AC1E0020B81E0020A5B60000994300204A
S21400BAC09543002010B51FF04EFB0022044B1C7857
S21400BAD01A701FF04CFB00F025FC2043C0B210BDCE
S21400BAE09343002010B5094B1B786BB1084C2378A4
S21400BAF053B100F025F90023064A23701370012382
S21400BB00054A1370054A137010BD00BF8F4300200E
S21400BB109543002096430020934300209443002042
S21400BB2073B5114E04463378834212D000238DF845
S21400BB30043080B102238DF8053001A8FDF79EF988
S21400BB400A4D402054B1FFF7ADFE2B68181A286046
S21400BB50347002B070BD8DF80500EEE7FFF7A2FE68
S21400BB602B681844F3E700BFB00D0020C01E00206D
S21400BB7073B5002401A88DF80440FDF731FA20467D
S21400BB804FF40024FFF7CCFF3149324B0A6F02F026
S21400BB9007021A60D1F82031D1F8240101F580514E
S21400BBA04C664FF400344C6601F598318969032AD7
S21400BBB000F0070001F0020141D003F003039C1ED1
S21400BBC063426341022808BF43F001032248234D25
S21400BBD0037061B31E4A3BB9D2F8003103F0030389
S21400BBE0591E4B424B410370D2F8003103F0030359
S21400BBF0022B26D0032B27D0012B18D1FBF71CFADB
S21400BC00A8B1174B411EDC680023024608461946B9
S21400BC10C4F30B04134E013404EB8404E4FB060166
S21400BC201EF0D4FBFFF73EFE2B6818442860642005
S21400BC30FFF738FE2B681844286002B070BD012359
S21400BC40C0E7FBF713FADBE71EF0B6FFD8E700BF46
S21400BC5000800050BC1E00209F430020C01E002015
S21400BC6000C0015040420F00074B1A7852B1002224
S21400BC701A70064A136F23F0070343F00103136795
S21400BC80FBF7C4B9704700BF9D43002000800050FA
S21400BC900E4B10B51B7883B1022020F0D6F860B1A9
S21400BCA000F010FA48B10A4B9A6DD20306D5DB6D48
S21400BCB09B0703D50122074B9A6210BD0124064B51
S21400BCC01C70FFF733FB034B9C62F6E79F43002094
S21400BCD000C0005000D000509E4300200122014BBF
S21400BCE01A7070479D43002038B50C4B1B786BB11B
S21400BCF00B4C23787BB90B4B0B4D9A6D12F4803F9F
S21400BD0005D0DB6D9B0702D50123AB6238BDFFF77C
S21400BD100DFB0123AB6200232370F7E79F4300204F
S21400BD209E43002000C0005000D00050034B1B78FC
S21400BD300BB1FFF765BB0120704700BF9F43002093
S21400BD4008B51FF024FA094A0949136F096823F059
S21400BD5007030B431367074B1B7813B10122064BEF
S21400BD609A62BDE80840FBF751B900BF008000505A
S21400BD70BC1E00209F43002000E0005002280AD08E
S21400BD8003280BD001280CD1064A136923F00403BC
S21400BD90136130BF70470020FDF77CB80020FDF728
S21400BDA09DB8704700ED00E008B5054B187818B14F
S21400BDB0FFF702FB00EBD000024B1B68184408BDDF
S21400BDC09F430020C01E00200122014B1A707047BE
S21400BDD09F43002010B520F025F80A4C0A4B19683E
S21400BDE02368C31A01B10BB9206010BD4A699A4294
S21400BDF03ABF9B1A0022D21A4A6128BF00238968DC
S21400BE00F0E700BFC41E0020D01E0020C38870B517
S21400BE1004460D463BB9FFF719FD8542064602D299
S21400BE201FF05DFF35460F4965610B68ABB90C60C6
S21400BE30A36011E0AD1A9A68184665612AB11346E8
S21400BE405A69AA42F6D950B11A4613468460A360CE
S21400BE5013B15969491B596170BD0020F0E70C60A9
S21400BE60F5E700BFD01E002038B5134D2B685B6980
S21400BE7093B1124A022014681C441FF0DAFF2046D1
S21400BE8000F09EFA00230E492A680B70D0888007BF
S21400BE9009D501230B7038BD02201FF0CAFF02200F
S21400BEA000F0D8FAEEE79268002AF4D0506903440E
S21400BEB0012BEBD9EFE700BFD01E0020C41E0020E8
S21400BEC0A143002070B516469DF81420C0E903363D
S21400BED00271049ABDF8183002600022C3808260A6
S21400BEE004460D461FF09EFF3044A0613DB9E3684E
S21400BEF0656113B120462168984796B135461FF014
S21400BF0032F90646FFF766FF29462046FFF77EFF12
S21400BF10054B1B68A34201D1FFF7A6FF30461FF072
S21400BF2026F9002070BD00BFD01E002000220C495C
S21400BF300B687BB183420AD183687AB193608368C9
S21400BF401BB15A6941690A445A61002070471A4673
S21400BF509B68EEE70028EFD0022070470B60EEE704
S21400BF60D01E002070B51FF005F9144E0546347833
S21400BF70FCB9134B1C60134B1C60134B1C8000F069
S21400BF80DDF901201FF055FF1FF06EFF0F4B024634
S21400BF90186020B928461FF0F3F8232070BD23460A
S21400BFA040F2E7310A481EF011FA0A4B18600123E6
S21400BFB0337028461FF0E4F80020EFE7A043002087
S21400BFC0D01E0020C41E002020410020CC1E0020D1
S21400BFD018FCFFFFC81E00202DE9F0410546F8B109
S21400BFE01FF0C1F80F4F0646FFF7F4FE2846D7F8B5
S21400BFF00080FFF79BFF044628B130461FF0B7F8D5
S21400C0002046BDE8F081A8453B6803D123B1FFF781
S21400C0102BFFF2E7002BF0D1022000F003FAECE74A
S21400C0202224EDE7D01E002038B50C46054698B110
S21400C03091B100230B701FF09DF80121074B1B6880
S21400C0400BB122781AB11FF09BF8002038BDAB4226
S21400C05014BF9B682170F3E72220F7E7D01E00206C
S21400C0602DE9F041074688461FF084F8002605466D
S21400C070124B1C6824B928461FF082F81B2016E0D5
S21400C08063691E44E388BB4215D11FF0CBFE0C4CFF
S21400C0902368C01AB0420CD21FF0C4FE2268324495
S21400C0A0121A2846C8F800201FF06AF80020BDE8DB
S21400C0B0F0810022F5E7A468DCE700BFD01E002070
S21400C0C0C41E0020014B1878704700BFA143002013
S21400C0D0014B1868704700BFCC1E00200C4B70B593
S21400C0E01B680D46834211D340F2E73100248C468C
S21400C0F02146084B4FF47A721E680023E0FB06C107
S21400C10060461EF063F92860204670BD2120FCE7DB
S21400C110C81E0020CC1E0020F0B51F46002387B0A6
S21400C1200C46164605468DF8133058B30DF113012C
S21400C130FFF77AFF9DF8133033BB204605A9FFF7BB
S21400C140CDFFE8B9114B059A19684C434FF47A7144
S21400C150B4FBF1F301FB134400230C1BEB83A4B2E6
S21400C160BDF834308C420CBFA883AC8302939DF894
S21400C17030301146CDE9007328463346FFF7A2FE5D
S21400C18007B0F0BD2220FBE70220F9E7CC1E002016
S21400C190014B1868704700BFC81E00200F4B10B533
S21400C1A01A689AB14FF47A71531E1342A0FB01012C
S21400C1B00ED1B2FA82F2C2F11F04531CD243E04001
S21400C1C001FA03F3184321FA02F20243104610BDA7
S21400C1D000231EF0FBF80246F8E700BFCC1E002046
S21400C1E0C2072DE9F04704460BD54B4A13880133A6
S21400C1F09BB21380FFF7EEFD484B1B680BB1FFF7B1
S21400C20033FEA30740F185801EF0B4FF4FF000090F
S21400C21080464D46FFF7DEFD4F46404E34680CB173
S21400C22063698BB100223E4B012D1A7003D1B9F120
S21400C230020F08BF1D70002C5BD0FFF715FE4046AE
S21400C240BDE8F0471EF09CBF23461A79217991423B
S21400C25088BF1C469B6813B15A69002AF5D0404631
S21400C2601EF08EFFD4F81090B9F1000F45D01FF0E5
S21400C270D9FDA269A0EB02084FEAE873C14577EB47
S21400C28003033BDA23691344A36101232269CAB17D
S21400C290C3B9A38BB9EB080833B1E28B13449BB246
S21400C2A0B3F57A7F1CD2E3831EF064FF81464146D5
S21400C2B02046FFF7ABFDA369226948461344A361F5
S21400C2C01EF05EFFE368B4F80690013513B1204611
S21400C2D0216898471EF04EFF8046FFF77BFD9DE7DE
S21400C2E0A3F57A73E383A36918F1FF38013BA361D2
S21400C2F0DAE7022000F096F8A1E7C8461EF03AFFFB
S21400C30082462046FFF712FE50461EF039FF0023F5
S21400C310BCE7BDE8F08700BF20410020D01E00200B
S21400C320A243002010B51EF025FF034B1C781EF01C
S21400C33027FF204610BD00BFA24300201FB50024E3
S21400C3401C4B012118689A880290D3F806009B7A45
S21400C35000903E20ADF80C208DF80430FCF75CFA17
S21400C36002A88DF808408DF80C40FDF7B9F869462C
S21400C37001208DF80040FDF777F84FF0B04240F20C
S21400C380FF31936923F47F7323F0030393610A4B11
S21400C3905961936A13F00803FBD113620120FDF77D
S21400C3A07DF84FF48052054BC3F880211A6004B024
S21400C3B010BD00BFE48B03000020005800E100E041
S21400C3C010B504461EF0CFFE4FF0B042936A190730
S21400C3D0FCD4136A116C5269520604D4CA1A032A92
S21400C3E001D899420ED1E21A022A98BFDC1CB4F199
S21400C3F0FF3F38BF013C4FF0B0431C649A6942F0DF
S21400C40040029A611EF0B3FE054A13783BB14FF026
S21400C410B041CB6B43F00203CB630023137010BD17
S21400C420B10D0020820700F001030AD50121084A59
S21400C43043F0400311704FF0B041CA6B22F0030284
S21400C440CA634FF0B0418A6922EA03038B617047E2
S21400C450B10D0020830742BF4022014B5A6170474E
S21400C4600010005810B51EF085FE4FF0B04304468D
S21400C4705B695A06074A03F0010003F0510348BF00
S21400C48040F002005361FFF7ABFE2046BDE81040C7
S21400C4901EF076BE0020005810B50446FAF7B6FD2A
S21400C4A00C4BA0F57A729A4212D84FF47A73B0FB0E
S21400C4B0F3F05C43084BB3FBF0F0B4FBF0F002285B
S21400C4C006D9BDE810400323B0FBF3F0F9F738BEF9
S21400C4D010BD00BFFFC99A3B40420F00024A034905
S21400C4E0034800F03FBD00BFF08B0300588C0300EC
S21400C4F0308C03000A4619B1024B00211B6818470E
S21400C500704700BF2C0C00200E4B0340B3F1607F39
S21400C51006D1B1F5885F14BF6FF086000020704723
S21400C520B3F1707F0BD101F4E043B3F5005F06D1A1
S21400C53011F4E06F0CBF6FF08600002070476FF0BC
S21400C540860070470000C07F8A42F8B507460D4651
S21400C55000F021819B4822F0FF01814210D09A4CC6
S21400C56022F4FF7323F00103A34209D0974B9942AC
S21400C57006D0974922F47F7323F003038B4223D11E
S21400C58025F0FF01814210D08F4825F4FF7323F079
S21400C5900103834209D08D4B994206D08C4925F47D
S21400C5A07F7323F003038B420ED115F0FF030BD0ED
S21400C5B0884943F000738B4206D16A4032F0FF038D
S21400C5C00CBF01200020F8BD05F0FE43B3F1A06FBC
S21400C5D017D102F0FE43B3F1A06F40F0DE8082EA8E
S21400C5E0050333F47E1340F0D88015F40040EAD0FB
S21400C5F0C5F30540C2F3054290428CBF00200120DF
S21400C600E1E7B3F1407F40F0B38002F0FE43B3F1C0
S21400C610407F40F0C28082EA050333F47E1640F085
S21400C620BC8039462846FFF76FFF002840F0B580EB
S21400C630694C12F47C1C04EA020438D0B4F1607F22
S21400C640C2F3054C7AD16549D3B243F000738B42EE
S21400C65078D003F17E410439012975D960498B42AF
S21400C66076D001318B4275D001318B4274D00131C6
S21400C6708B426BD001318B426AD001318B4269D03C
S21400C68003318B4264D001318B4263D001318B423F
S21400C69062D001318B4208BF402615F47C1FC5F3DB
S21400C6A005435BD1664514BF002001208BE7B4F13B
S21400C6B0607F2BD14949D3B243F000738B426ED0D2
S21400C6C003F17E41043901296CD945498B426FD06C
S21400C6D001318B426FD001318B426FD001318B42DA
S21400C6E063D001318B4263D001318B4263D003317A
S21400C6F08B425DD001318B425DD001318B425DD0E3
S21400C70001318B4208BF4FF0400C9CE7B4F1707FBC
S21400C710C3D107F4E043B3F5005F05D14FF0010C39
S21400C720C7F302230CFA03FC07F4E043B3F5005FFB
S21400C730B3D10126C7F302239E40AEE7B4F1707F63
S21400C740ABD1F1E71026A8E71426A6E74026A4E713
S21400C7501C26A2E72026A0E730269EE712F47C1FC0
S21400C76001D1B34217D02A047FF52DAF634544E7C5
S21400C770B3F1106F11D125F01F6323F4702363B952
S21400C78002F0FE43B3F1106F07D11648104040F098
S21400C7901060A84287E7012015E7002013E74FF056
S21400C7A0100C50E74FF0140C4DE74FF0400C4AE7E2
S21400C7B04FF01C0C47E74FF0200C44E74FF0300CCE
S21400C7C041E700BF0013000600020006000900064D
S21400C7D000040006FF0000020000C07F0300000205
S21400C7E0080000020000FFF62DE9F84388461746C9
S21400C7F01C4600F0CBFA0546002859D1D8F8006050
S21400C800B6F8009009F4E043B3F5804FF36808BF2C
S21400C81027F0010737EA030342D1002C48D02F4AFD
S21400C82024F0FF03934211D02D4924F4FF7222F026
S21400C83001028A420AD02B4A934207D024F47F7220
S21400C84022F0030201F500718A4234D114F0FF028F
S21400C85031D022498B4211D0214824F4FF7121F0B7
S21400C860010181420AD01F498B4207D024F47F730E
S21400C87023F00303A1F5A0618B4204D142F00073BC
S21400C880194A93421ED0224648463169FFF75CFE9D
S21400C890074668B9224648467169FFF755FED0B983
S21400C8A06FF0840500233046C8F8003020F086F983
S21400C8B02846BDE8F88304F0FE43B3F1407F04D178
S21400C8C02304E0D56FF08605ECE7B3F1A06FF7D050
S21400C8D0054B9C42D6E73D46EAE700BF001300063C
S21400C8E00002000600090006FF00000200F0FE43FA
S21400C8F0B3F1407F70B505460E4602D06FF0860055
S21400C90070BDFFF701FE0028FAD115F47C1F05D094
S21400C910C5F30543032B13700DD86BE04D4B2B402E
S21400C920B3F1607F69D14C49EBB243F000738B42A0
S21400C93031D110231370474C2C40B4F1607F6AD17C
S21400C9404549EAB242F000728A4279D002F17E414D
S21400C9500439012976D941498A4275D001318A4283
S21400C96074D001318A4273D001318A4211D001312C
S21400C9708A4269D001318A4268D003318A4263D044
S21400C98001318A4262D001318A4261D001318A4245
S21400C990B4D140214DE003F17E410439012901D88C
S21400C9A01423C7E72D498B4201D11C23C2E72C492B
S21400C9B08B4201D12023BDE72A498B4201D1302387
S21400C9C0B8E729498B4201D14023B3E727498B4278
S21400C9D0EBD001318B42EDD003318B42E5D00131F3
S21400C9E08B42E7D001318B42E9D001318B42EBD04C
S21400C9F0002313706FF0850082E7B3F1707FF7D1E4
S21400CA0001F4E043B3F5005FF2D10123C1F3022144
S21400CA108B40DBB27EE7B4F1707F7FF46FAF06F435
S21400CA20E042B2F5005F7FF469AF0121C6F302224F
S21400CA3091408B423FF662AF202B7FF661AFD9E77D
S21400CA401021F6E71421F4E71C21F2E72021F0E795
S21400CA503021EEE70000C07F03000002080000025D
S21400CA60090000020A0000020B0000020C0000028F
S21400CA7037B50C4D0C462B78DB070FD500230A463E
S21400CA800193014601AB281D1FF0E2F820B9019B77
S21400CA90A34218BF6FF0930003B030BD6FF088005C
S21400CAA0FAE700BFD41E00202DE9F04F00240E4602
S21400CAB097B00546DDE920B89146214624220DA808
S21400CAC09A46229F08942BF0C0FE06F0FE43B3F170
S21400CAD0806F74D1284633464FF4807208A9FFF75A
S21400CAE083FE054600283FD1DDF820C00DAC654624
S21400CAF00FCD0FC495E80700BCF8003084E80700A7
S21400CB0003F4E042B2F5005F1BD113F4E06FC3F309
S21400CB10022116D02F4826F4807282420AD000F5F1
S21400CB200070864206D02C48864203D0A0F53F40CF
S21400CB30824206D101248C40102C0DD96FF083055B
S21400CB4012E042F20402934202D1244B9E421ED0CF
S21400CB50234B9E421DD10D24A04533D3214609A860
S21400CB60FFF786FF0546A8B1089820F027F8064686
S21400CB7065BB50BB24B12246584609A92BF03EFEA1
S21400CB803B6823443B60304617B0BDE8F08F0C246A
S21400CB90E2E70024A8EB040305930BEB0403CDE9BE
S21400CBA003A3CDE90149089909AB009306973346DC
S21400CBB0D1E908120DA81FF064FF0546D4E76FF010
S21400CBC08605D1E76FF08905CEE7054600232E4699
S21400CBD03B60D8E70010C00400FF4004000180045A
S21400CBE00013C00408B500F075F8084B0C211A783D
S21400CBF0064812F0060F1CBF0022C3E90122FFF709
S21400CC0079FCBDE808401FF072BE00BFD41E0020AD
S21400CC1038B50F4D2B7813F0010213D1C5E9012268
S21400CC20022262F342032B7000F048F8044658B91B
S21400CC301FF05BFE044638B92B7843F001032B70D7
S21400CC40204638BD0024FBE7FFF7CCFFF8E700BF1F
S21400CC50D41E002000F100420332022A38B50446F2
S21400CC600D460ED82821144B01FB02339A688242E7
S21400CC701CD1DA69511C1CD000200132DA612B600D
S21400CC8038BD01211FF08AFF68B10B4B9A689442A9
S21400CC90EFD01A6B944204D09A6D944206D150336A
S21400CCA0E7E72833E5E76FF08700E9E76FF08B00EA
S21400CCB0E6E76FF09600E3E7E01E0020044A002057
S21400CCC092F8783043F0010382F87830704700BF5E
S21400CCD0E01E002038B501250A4C2046E5611FF00D
S21400CCE0A2FA04F1280065641FF09DFA04F15000D2
S21400CCF0E5661FF098FA94F878306FF3000384F82E
S21400CD00783038BDE01E0020F8B51E4C064694F874
S21400CD1078300F46D8072ED5002523462946188892
S21400CD201A46A8B12DB91A791AB1DA69002A08BFCD
S21400CD301D460131032903F12803F0D115B96FF020
S21400CD408C001AE001232846EB611FF06CFA2A4695
S21400CD50D369591C02D16FF096000EE00020013313
S21400CD60D361141B084BE4105C4304F10044033CFD
S21400CD7034603A60F8BD6FF0880000233B60336093
S21400CD80F8E700BFE01E0020CDCCCCCC0023F0B5E9
S21400CD900B60244B074693F878300D46DC0785B0C9
S21400CDA03CD5FFF757FF10F18C0F044625D12946D6
S21400CDB001A8FFF7A9FF0446F8B901232E68CDE9BC
S21400CDC00200B7603046736003AA02A91FF08CFF0A
S21400CDD0044628B9DDE9021230461FF0D4F90446AD
S21400CDE0DDE902011FF076FF54B128681FF01BFA38
S21400CDF014F18C0F08BF6FF08704204605B0F0BD15
S21400CE002B68DA68D00444BF42F48062DA60DA68DD
S21400CE109104F2D542F40062DA60EEE76FF088041F
S21400CE20EBE700BFE01E002030B4224D2C681C60EB
S21400CE306C685C6000241C725C729C72DC725468C5
S21400CE40250A1C735D73250C240E9D73DC731488F1
S21400CE501C74240A5C7454889C74240ADC74D46899
S21400CE60250A1C755D75250C240E9D75DC751469E8
S21400CE70250A1C765D76250C240E9D76DC76526996
S21400CE80140A1A775C77140C120EDA770A0A83F8FB
S21400CE9021200A0C83F822200A0E9C7783F82010A3
S21400CEA083F8232030BC0A46014603F124002BF009
S21400CEB0A5BC00BFFC8C03002DE9F84323290446DB
S21400CEC00F4691469846089E04D86FF09805284667
S21400CED0BDE8F883082219492BF080FC0546002897
S21400CEE0F3D1A368002BF0D1216A243FB942C8F8D9
S21400CEF00010EAD8B1F5005FE7D271B9C9F80000B2
S21400CF00E3687360238A3380638A73806369F3609F
S21400CF10A3693361E3697361D9E701201EF0EDFF71
S21400CF20C9F8000030B1D8F8002004F124012BF035
S21400CF3065FCE5E76FF08C05C9E700BFFC8C0300D5
S21400CF40431C07B5014606D00023044ACDE900334A
S21400CF5003481EF0D8FE03B05DF804FB37CE02008F
S21400CF607020002070B50E461546044618B30EF025
S21400CF7003F910B3236813F4807F18BF0122104B07
S21400CF8018BF1A700F4A1B7814600F4A16600F4AB3
S21400CF9015601BB926F077FE0EF0C6F809F086FC81
S21400CFA00DF032F90A4B0B4819780DF03BF9BDE845
S21400CFB0704026F0ACBD212070BD40F20440FBE777
S21400CFC0A5430020942000209820002090200020D8
S21400CFD032450020C56801002DE9F04188B009F00F
S21400CFE039FC724B724D1A781120724909F06AFAB0
S21400CFF02B6851215A685423B2FBF3F2002392B2F5
S21400D000184609F0F5F920B10446204608B0BDE8F8
S21400D010F08109F0B1FA684B1968684B186816F089
S21400D02059F800F0DDF90028EED12B681C7F002CA3
S21400D0303AD0102C28BF102424F0EFFC621C81B2DA
S21400D04000230820D2B209F0D3F90028DCD114203E
S21400D0505B4A5C4909F002F90028D5D108F066FF62
S21400D0600221322006AA00F0F9F928B94FF0FF3065
S21400D070BDF818102AF06EFF04AC224606212C20BC
S21400D08000F0ECF90646B8B9204626F0FAFA68B180
S21400D09030280BD001213C200DF10F0200F0DEF904
S21400D0A0074660B1012713E00424C5E73C2000F0E2
S21400D0B0F5F92C2000F0F2F90026374608E09DF836
S21400D0C00F60012E67D194E803000690ADF81C109F
S21400D0D02B68186918B126F0DFF9002894D12B6860
S21400D0E0586900F00BF92B6893F82220D20754D425
S21400D0F01EF096FE002F8046024614BF21460021F1
S21400D10028681FF09CFE00287FF47EAF17F0F6FA22
S21400D1101EF0C8FE044600287FF477AF01200AF010
S21400D12073F8294B186825F088F8044600287FF421
S21400D1306CAF27F0B4F804460EF028FD019009F015
S21400D1407BFC01990246204623F0B9F804460028E5
S21400D1507FF45BAF2B681B689B050CD4B8F5FA7F91
S21400D16009D91EF000F8012107460846FEF7F6FA30
S21400D17038461DF0FCFF2B689A69144B1A601FF0A6
S21400D180A0FE134B186016B106A80AF03BF911482A
S21400D19009F05EF839E7064684E793F8230026F0A0
S21400D1A073FD0028A4D040F20C442EE73245002040
S21400D1B094200020C5680100040C0020000C00200C
S21400D1C0C7CE0200C3CE0200982000209C2000207C
S21400D1D06C20002041CF0000024B5878C0F3C000FE
S21400D1E0704700BF300C0020034B5B7813F0060F2F
S21400D1F014BF012000207047300C002000220321BD
S21400D200014824F0B3BB00BFF03A002038B5FFF762
S21400D210E3FF10B9FFF7E8FFC0B11FF052FE0C4C59
S21400D2200C4D2060206826F0B4F9FFF7DDFF10B142
S21400D230284624F0A7FC0DF061F818B908F0C8FEDF
S21400D2400028EFD1BDE8384026F067BC38BD00BFE7
S21400D2506C200020380C002008B5054B1B782BB935
S21400D2601FF0CFFDB0FA80F0400908BD0020FCE7B3
S21400D270A3430020054A08B51178814204D01070F7
S21400D28026F097F9002008BD0220FCE7A443002002
S21400D290012310B5044C2370044B1B6803B1984758
S21400D2A00023237010BD00BFA34300209C20002055
S21400D2B04FF08052014B5A60704700BF00ED00E00F
S21400D2C00023044A52E8000F42E800310029F9D151
S21400D2D004F0C0B8A0200020064A52E8003F0343EE
S21400D2E042E800310029F8D1034B1B6803B1184708
S21400D2F0704700BFA0200020A4200020034B044A53
S21400D300002818BF03461360704700BFB1D2000064
S21400D310A420002037B51C68E10705D526F02CF9B7
S21400D3201649174824F02AFBA20723D50BF020F94C
S21400D330D0B9144D01901DF01DFF0446284624F078
S21400D34042FC019020461DF01BFF019890B14379E6
S21400D3509B070CD401A8022124F0A6FE01980BF02E
S21400D360F7F826F0B8F8E6E726F0B5F8DEE70BF0B3
S21400D370E3F8F6E7002003B030BD00BF400C002005
S21400D380F03A0020A820002008B5054808F0F0FD77
S21400D390044B01211870BDE8084008F0FBBD00BF33
S21400D3A0500C0020A643002038B5044648B11DF0B6
S21400D3B0E1FE05462146084824F0C8FD28461DF033
S21400D3C0DFFE064B022193F9000008F0E3FDBDE8FE
S21400D3D03840FFF75DBF00BFA8200020A64300200E
S21400D3E00C4B98420BD8023B98420ED860B1023BD9
S21400D3F098420CD0C0F30C0000F590607047064BC6
S21400D4009842F7D140F21C4070472120704740F206
S21400D4101B4070470AE000F00BE000F037B50D4DFA
S21400D420CDE900210C4904460968286815F052FE2B
S21400D430FFF7D6FF58B9DDE90023286844F48021B9
S21400D44015F01EFF03B0BDE83040FFF7C9BF03B0BC
S21400D45030BD00BF000C0020040C002037B50D4D79
S21400D460CDE900210C4904460968286815F032FE0B
S21400D470FFF7B6FF58B9DDE90023286844F4802199
S21400D48015F048FF03B0BDE83040FFF7A9BF03B072
S21400D49030BD00BF000C0020040C002038B50A4B3D
S21400D4A00A4D04461968286815F014FEFFF798FF21
S21400D4B040B9286844F4802116F014F8BDE83840D6
S21400D4C0FFF78EBF38BD00BF040C0020000C002004
S21400D4D02DE9F043134B0E461968134B05468DB0E5
S21400D4E01868174615F0F6FD80B933460A22284616
S21400D4F0009702A92AF09FFA4FF0000804460DF1A3
S21400D5000809444505D1002CEFD120460DB0BDE8F2
S21400D510F083284659F8041B15F0E4FF08F10108CB
S21400D520EFE700BF040C0020000C0020F8B50C4B01
S21400D5300C4F06460C463868196815F0CBFDFFF709
S21400D5404FFF054648B9E24316FA82F2386842F4BD
S21400D550802246F48021FFF7BBFF2846F8BD00BFB7
S21400D560040C0020000C00207FB505460C46194927
S21400D57013460868496802AA03C295F82A201032A2
S21400D5806A4412F8086CB5F84420D20608D422463D
S21400D5903146284620F04DF800F5FA7004B070BD0C
S21400D5A02046019324F073FCB5F8442000F10A04E9
S21400D5B012F0030F019B4FEAC40405D0184624F06E
S21400D5C066FC04F50C740444E823701E584304FB00
S21400D5D00600E1E7048D0300014B9868704700BF22
S21400D5E0AC200020F0B5104B02461E6893F804C02D
S21400D5F035464FF0FF3400239C4508DC91B1631C90
S21400D60010D0902303FB046080F84620F0BD95F808
S21400D610467028469742F9D0FF2F08BF1C46903523
S21400D6200133E9E70020F1E7AC20002070B504469E
S21400D630204D00283CD0083003F0C6F90026FF2312
S21400D64004F1300084F84630E66124F09BFA04F1D9
S21400D650340024F097FA04F1380024F093FA04F129
S21400D6603C0024F08FFA2868134B201A0011584308
S21400D670C0B203F01DF80146304621F0E2FA206CF5
S21400D68010B102F0A1F92664606E18B120F04CFBD0
S21400D69000236366A06E1FF035FC70BD286806FB8D
S21400D6A00400FFF7C3FF01342B79A342F6DCF4E74E
S21400D6B09026F9E7AC200020398EE338F7B504460B
S21400D6C024F0B3F8C0F30F23542B3ED9AA2B34BF53
S21400D6D001230223C0B27F2834BF01220222032185
S21400D6E08DF804301344B3FBF1F000EB40001B1A36
S21400D6F08DF805301344B3FBF1F202EB42029B1A9D
S21400D7008DF80630002318461D461A46104901AF0C
S21400D7104B7517F8016B44FA06FC1CF0010F06D097
S21400D72053009E40012330430132C0B2D2B20135CD
S21400D730EDB2032DEDD103B148754B7D43EA82125D
S21400D740FF234A750B7503B0F0BD0023C2E700BF88
S21400D750AC20002038B5294904460B7D4A7D0133AC
S21400D760DBB2B3EB921F0B7503D3032300200B75BC
S21400D77038BD016A090335D5032390F87E20243A84
S21400D78092FBF3F303EB4303D21A2532D2B2B4F87A
S21400D790441094F87F3011F01001B4F95E0084F85C
S21400D7A07E2003F00F0323D120F08DFB08F020FB32
S21400D7B0B4F9782004F17005824204D0A4F8780009
S21400D7C008F056F96881284607F0BEFC002211468C
S21400D7D0104608F0A1F894F87E00002120F072FBB5
S21400D7E00120C5E75B001A4102F003022532CEE7AE
S21400D7F002461946002008F047FAD7E7AC2000207A
S21400D80038B54369044623F010034361B0F860302E
S21400D8102BB9836813F4601F08BFA0F86030236A32
S21400D82013F0100518D003F00303144A002B08BFAA
S21400D8300025134B1CBF012513462046E361FFF766
S21400D84089FF58B16800617E07F05AFD0D4B986855
S21400D850BDE8384007F0E2BC094BEEE70A4B617EB4
S21400D8601A682046D37A92780B449342D8BFDAB22D
S21400D87062760121BDE838401FF086BB4FD4020017
S21400D88041D40200AC200020F02200202DE9F04117
S21400D8900025314E88B03379AB4203DC012008B056
S21400D8A0BDE8F0819023346803FB054494F84630C5
S21400D8B0FF2B0DD0236A980106D504F15008404688
S21400D8C024F0DDFA074628B9226A12F0A06F13D1B9
S21400D8D00135E0E7BB7994F846100C333B441A8ACE
S21400D8E0D868ADF81C209A7A069006AB3846C2F384
S21400D8F0801221F0FCFAE2E7B4F844301D2B1BD16D
S21400D9003C23FF210020CDE90431CDE902000121AE
S21400D910CDE9000004F15703C2F3002222F064F8B8
S21400D9200028BCD0203454E8003F23F0A06344E82D
S21400D9300032002AF7D1CBE712F0807F18BF4321D0
S21400D9404FF0000208BF3C2194F8293094F84600B6
S21400D95021F0A3FDE4E700BFAC200020F8B51F4689
S21400D960C36904460D46164693B1002940F08280EE
S21400D9701DF000FC06462946A06E1FF0B4FA2046AD
S21400D98029461FF0E9FA30461DF0FAFB2846F8BD96
S21400D9900029FBD0036A03F01203022B6CD0236A23
S21400D9A0D80770D494F84630FE2B0AD104F147000D
S21400D9B003F040FD03F036FD18B1236A43F480639C
S21400D9C02362236A03F4C062B2F5007F7DD0D906D5
S21400D9D063D5404BE361002384F82930236AE1686D
S21400D9E0B4F8605023F4004284F828702262216163
S21400D9F03DB913F0100F14BF3C25C825257605F257
S21400DA00B3154EB140F27121E38C42F40042C3EBF1
S21400DA1006134B432262E362236A43F480232362A5
S21400DA202D4B1B68DB7863761DF0A4FB6369074605
S21400DA3043F0100304F108002946636121F04FF912
S21400DA40012006F0B7FF28B963691A075CBF43F0E8
S21400DA500403636126B123F021FFE36A1844E06201
S21400DA60204606F0B1FF38461DF08AFB0121A06E65
S21400DA701FF039FA002589E7406B24F008FA0028E1
S21400DA808DD10C2582E7236C002B8BD101F04CFF47
S21400DA902064002886D1092578E72046D4E90C12B0
S21400DAA0FFF762FD012F0ED040F27123A28C5A437D
S21400DAB0904208D9E28C5A43904208D800F51C7070
S21400DAC0B0FBF3F0A084054B84E712255EE74525FE
S21400DAD05CE700BF41D40200F02200201BD7020002
S21400DAE070B500249026094D2B79A34200DC70BD4A
S21400DAF0286806FB040090F84630FF2B04D000236D
S21400DB001A461946FFF72AFF0134EDE7AC2000203D
S21400DB1006222DE9F0412A4B07469C688846A579DF
S21400DB200C35635D661903F04F036355B0F8443057
S21400DB307270103B0D2B20D8DFE803F03F1F3B0729
S21400DB401F0C1F1F1F1F1F1F1F0C635D6FF3030398
S21400DB50635512E00122635D62F3030363550C23F1
S21400DB607370D0F85730B360B0F85B30B381036A97
S21400DB70625D1B0A63F3C712625503F041FD43045E
S21400DB8044BF635DB7F84420314644BF62F3451393
S21400DB9063553846B21C1FF09FFFA3797178023395
S21400DBA00B44B8F1000FE371A4BF41447170BDE8A7
S21400DBB0F081635D62F30303CAE70222635DF9E75F
S21400DBC0AC2000202DE9F843354B8C79D3F808902B
S21400DBD00C340C4499F8067022790C37D5070646A3
S21400DBE009EB07032AD594F80B80B8F1250F25D842
S21400DBF0056A991C15F0100F08BF0231062204F1C1
S21400DC0012002AF0EBFDC8B919F80730A07AC3F362
S21400DC108013B3EBD01F11D115F4405512D14FF439
S21400DC204055A77A07F00F03032B16D1E80405D555
S21400DC30326A910702D5B8F10C0F2FD04FF0FF30A3
S21400DC40BDE8F88304F10C01C0F3801026F02AF832
S21400DC500028E4D185F44055E3E7052BEED1AA046D
S21400DC60ECD5356A05F01403142B0DD1062206F107
S21400DC70570104F10C002AF0B1FD2B0A83EA971332
S21400DC8003F001030343D9D1EB07D7D504F11800FD
S21400DC901FF05AFB0028D1D00520D1E71846CFE761
S21400DCA0AC2000202DE9F04F91F806B00E460BF19F
S21400DCB00C0B01EB0B05A97A05F10C08044687B09E
S21400DCC04046C1F3801101F0BFFE30B1304608F087
S21400DCD093FC002007B0BDE8F08FD4F84090206495
S21400DCE095F807A029895046276A56F80BB007F022
S21400DCF00BFA07F0100758448FBBAAF1030ABAF1D3
S21400DD00010F8CBF0422062240F2712B184B0BFB2E
S21400DD1002021B6894F846E05B796376A97A05F1FF
S21400DD201803C1F3801CE7B10120C1F3401195F937
S21400DD300550CDE902E1CDE9040501214846CDE9CB
S21400DD40008C01F0BBFE2FB107F020FC012120461D
S21400DD501FF002F9304608F04FFC0120BAE7022215
S21400DD60D2E794F88F00012100F00F00DFE700BF34
S21400DD70F022002000232DE9F3414FF0FF31044646
S21400DD8001A8019307F08EF8019949B12046FFF7E4
S21400DD9019FF032806D005283FD001A823F0F2FE7D
S21400DDA0012033E0236A1B0533D5019904F15000A6
S21400DDB024F0CCF84FF0007120461FF0C3F8617EC7
S21400DDC000201B4E07F0F0FA606BB76824F05FF88F
S21400DDD00546BB7920460C33FA5C07EB030802F0D5
S21400DDE0400242F00402FA54414608F102021FF0D3
S21400DDF073FEB068636B002DA4BF063588F801502B
S21400DE00036007F00BFA00200A4BE36102B0BDE89E
S21400DE10F08101A823F0B6FED1E7019807F0F8F8E4
S21400DE2020460199FFF73EFF80F00100C0B2EDE703
S21400DE30AC20002049DF00002DE9F84306460C46DA
S21400DE40062876D8DFE800F0045860757570600024
S21400DE5008461FF0C4FA40F27121E38CA28C9A1A8D
S21400DE60E36803F59C53083301FB02332361236AFE
S21400DE7013F0100503D013F0030518BF012594F81E
S21400DE802A00FFF71BFC2046FFF764FC2A4A2B4BB0
S21400DE90206B002D08BF1346E36123F0F8FFDFF880
S21400DEA0A48001462046FFF733FED8F80830226BE0
S21400DEB067681A60636903F0100923F0EFFC627E5E
S21400DEC0B9F1000F03D13F1AB7F59B7F0CD5002D93
S21400DED011460CBF3046022007F012FAD8F80800A8
S21400DEE0BDE8F84307F09AB9002D0CBF3046022073
S21400DEF0616807F027FAF1E706F0E6FE844218D1DB
S21400DF00BDE8F84307F042BB0D4B20461A68637E17
S21400DF10D17AD2785B1A9342A8BFDAB26276002131
S21400DF20BDE8F8431FF030B80846BDE8F843FFF7F1
S21400DF3067BCBDE8F88300BF41D402004FD402009E
S21400DF40F0220020AC200020032810B50C460FD18C
S21400DF50086B23F09CFF01462046FFF7D9FD064BD1
S21400DF60226B9B682046BDE810401A60FFF748BC4D
S21400DF70BDE81040FFF760BFAC2000202DE9F04759
S21400DF804D4D0446A86818B108F036FB0023AB6078
S21400DF901FF085FA2B791BBB002002F033FB1CBB5D
S21400DFA0002603202C712E60EE8208F06FFAB44231
S21400DFB02BDC287902F026FBE0B9BDE8F08708FBE9
S21400DFC006F7286801363844303023F0DBFD286831
S21400DFD03844343023F0D6FD2B79B342EFDCDBE750
S21400DFE000264FF09008F7E7022023F001FEA86015
S21400DFF00028D5D10024A8682C712C60002857D1A1
S21400E000002002F0FFFA0720D7E704EBC40109015D
S21400E01033460122032089B208F0EAF907460028B1
S21400E020E8D1032008F062FA28600028E2D09022A7
S21400E030394662432AF009FCDFF880A0DFF88080CA
S21400E040DFF880902B79BB42B3DD902300262C6846
S21400E050314603FB0744C4E90366DAF80030E6619C
S21400E0606661DB7804F10800637620F038FE13233F
S21400E070A4F84430236A204643F0130323624FF08B
S21400E08008236362072384F82A30FF23C4E90C665A
S21400E090C4E90E66C4E91C98C4E92098A4F8606038
S21400E0A0268584F8463026651EF030FF0137C9E71E
S21400E0B008F0A2FAAC60A3E7AC200020F022002013
S21400E0C055555500D6BE898E034B1B68C01A034BA8
S21400E0D000115843C0B27047AC200020398EE33898
S21400E0E070B505460C4CB0F85460237DE16806F523
S21400E0F0FA7606FB1311A06800F05AFB217D6B68C8
S21400E100002006FB01316A7E07F01CF9A068BDE816
S21400E110704007F083B800BFAC20002070B5002424
S21400E12090260C4D2B79A34200DC70BD2B6806FBB5
S21400E130043393F84620FF2A03D0986E18B11EF0D9
S21400E140E2FE0134EEE7586E0028FAD01FF0AEFD6E
S21400E150F7E700BFAC2000202DE9F84F16469B4697
S21400E16088460446FFF738FA0546304698F80070A9
S21400E17023F08DFEDFF858A10021BAF91060801B4D
S21400E18020EAE076384600F0F3FA7B0748BF07300F
S21400E1903318FF2BC4BF47F01007C0F1FC0617F07A
S21400E1A010090CD023F041FB2521B0FBF1F303FB53
S21400E1B011010020C9B200F019FE84F88E00BBF1F0
S21400E1C0000F01D094F844B000235A46394628463A
S21400E1D01FF0FFFA214628461FF09AFC21462846E3
S21400E1E01FF026FB2046FFF76FFF02F061FA01469C
S21400E1F028461FF040FB214628461FF097FBB9F142
S21400E200000F56D094F88F2094F88E1002F00F026C
S21400E210284600F083FA214628461FF097FBB0B147
S21400E220636895F806C0DAF80C10EA791944A06E0F
S21400E2300CF10C032B44A2EB0C0253FA82F20028DA
S21400E2403ED01EF051FEC1B2284623F073FCB9F151
S21400E250000F39D0B4F9881028461FF07AFB204604
S21400E260FFF732FF02F024FA014628461FF045FB6E
S21400E270214628461FF06AFB20B1A06E10B1294641
S21400E2801EF034FE314628461FF077FBB9F1000F2A
S21400E2900AD094F88F00FF2100F00F001FF0E1FB7A
S21400E2A00146284600F084FA304688F80070BDE83B
S21400E2B0F88F94F87F2094F87E1002F00F02A7E7FC
S21400E2C0606E00F00FFBBEE7B4F97810C4E700BF3D
S21400E2D0AC2000202DE9F7431D4690F88F30044609
S21400E2E08DF8071003F00F030021164690F88E20D5
S21400E2F0B0F95E001FF0E7FD07F07AFDB4F988205C
S21400E30004F18007824204D0A4F8880007F0B0FB2E
S21400E3107881384606F018FF00221146104607F0AE
S21400E320FBFA9DF807305B0709D52046FFF7CCFEC1
S21400E33002F0BEF900210246042007F0EDFAFFF7CE
S21400E3404BF99DF80730074623F010038DF8073089
S21400E350324620469DF828300DF10701FFF7FCFEF7
S21400E360DFF85C808146A8F81200C5B10220114B88
S21400E370E3616368D8F80C10627E194406F0E2FF89
S21400E3804B4631463846B8F9102006F073FF002198
S21400E39094F88E001FF096FD03B0BDE8F0839DF85C
S21400E3A00730054A13F0100F044B08BF13462846E3
S21400E3B0E361DEE729D7020009D7020099E50000ED
S21400E3C0AC20002073B5044690F85650406E05F019
S21400E3D0EF0548BBA06E002830D1204645F0080661
S21400E3E0FFF772FE02F064F948B1C3799B0606D5C2
S21400E3F0636E23B9838845F00C06013383800022C0
S21400E4000121114B20461A82236A226B13F0020F59
S21400E41018BF002213F0030318BF0B4600913146C5
S21400E420FFF758FF02B070BD1FF09DFC0028D1D04A
S21400E430236A9A07D1D145F02005CEE71EF04FFD9E
S21400E4400028F5D1C9E700BFAC200020436910B50D
S21400E45023F010034361B0F8603004462BB983689C
S21400E46013F4601F08BFA0F86030124B2046E3612B
S21400E470FFF770F920B12046BDE81040FFF730BE28
S21400E4802046216B1FF031F820B12046BDE8104031
S21400E490FFF798BF084B617E1A682046D37A9278B9
S21400E4A00B449342D8BFDAB262760121BDE8104031
S21400E4B01EF06ABD1BD70200F022002037B50446C6
S21400E4C01EF08DFF28B12046216B1FF030F884F82F
S21400E4D05600174D94F82A00FFF7F0F8B4F85430B9
S21400E4E06A7D03F5FA7392095343204603F5967343
S21400E4F0EB60FFF72FF90F4B94F85610E361636952
S21400E500204643F0010363611FF027F80DF1070171
S21400E5108DF80700012300222046FFF71DFE00228B
S21400E520AB6820461A60FFF7DBFD03B030BD00BFC6
S21400E530AC2000201BD7020010B50C46062827D8B2
S21400E540DFE800F004091126262111000846BDE880
S21400E5501040FFF7B3BF06F0B7FB844218D1BDE802
S21400E560104007F013B80B4B20461A68637ED17A2A
S21400E570D2785B1A9342A8BFDAB262760021BDE871
S21400E58010401EF001BD0846BDE81040FFF75EBF14
S21400E59010BD00BFF0220020032837B50C4622D15C
S21400E5A0134D91F88F002B8A6A8AFF21134400F0DE
S21400E5B00F002B821FF055FAEB6894F8561018449B
S21400E5C0B4F84430E86013F0020F4FF00003D4E9CB
S21400E5D00C20009318BF024601F048012046FFF7C2
S21400E5E079FE03B030BD03B0BDE83040FFF7A4BFEE
S21400E5F0AC200020F7B500264FF0FF31044601A8F6
S21400E600019606F04FFC019949B12046FFF7DAFA69
S21400E610032806D0052856D001A823F0B3FA012017
S21400E6204AE0FEF7D9FF09230546626B8DF80330F2
S21400E6300DF1030101232046FFF78EFD0746A8795A
S21400E6400544AB7B304666F38713AB732F4D617E74
S21400E65006F0AAFE3B46616BA86832466F822E82A1
S21400E66006F008FE9DF80330294A13F0100F294BD8
S21400E67008BF13460198E36106F0CAFC019A937935
S21400E6800C33D0180189C079D75806F03DFD636871
S21400E690C3F196033B441844E860206A10F4006512
S21400E6A00CD0019904F1500023F050FC20464FF0A6
S21400E6B000711EF047FC304603B0F0BD01A823F001
S21400E6C061FA2846F8E7019D134BAA7930460C32CA
S21400E6D01544617EE36106F067FE0C4FA97A05F1EA
S21400E6E00C02CB09B868C1F380111FF066FAB8684F
S21400E6F0066006F093FD019806F08AFC2046019914
S21400E700FFF7D0FA80F00100C0B2D5E7AC200020B9
S21400E71009D7020099E50000D5D4020030B50D46B1
S21400E72085B0102104461FF047F8E0B10F4B18687B
S21400E7301B7902908DF80C300023ADF8043065F399
S21400E74005038DF8043053180DEB03024FF0000359
S21400E75012F8082C204662F3471301A903228DF80D
S21400E760063023F0F2F905B030BD00BF148D03006B
S21400E77003460E4A82B01068009090889279ADF8F1
S21400E78004008DF806202BB900290CBF01200220BA
S21400E79002B070476A460220D90748BF117802F1D6
S21400E7A0010248BF40185B08F6D1F1E70C8D030064
S21400E7B038B583790C460C33C518C35C03F00F03D9
S21400E7C0072B25D1AB789A0622D0E878C3061FD54A
S21400E7D0012100F00F00FFF7CBFF0E4B02359C42E5
S21400E7E095BF1E214FF49671B4FBF1F4B4FBF1F41F
S21400E7F094BF002101212B5C2A1861F3C7132B5408
S21400E8009378547023F01F03C4F304241C439470BD
S21400E81038BD00BFC3BF0300F8B51646BDF81820C4
S21400E8205B0802820022438002704270D1F80130F9
S21400E830044643604B79079D03F01F0303729DF85F
S21400E840207006F0C5FD237A43EA40103346207256
S21400E85053F8042BC4F80920B288A4F80D209B783E
S21400E860E3731FBB124B9D421FD8124B9D420CD91F
S21400E8706378B5F5161F43F02003637021BFDBB243
S21400E88043F04003A5F516156370637813F0200F68
S21400E8900CBF1E224FF49672B5FBF2F523F01F0351
S21400E8A02570C5F304251D436570F8BD024BDAE7F5
S21400E8B0D47E2500C3BF0300D4FE4A00002230B534
S21400E8C0074B1C791B68944202DC0021084630BDC9
S21400E8D019465D6E90338542F8D00132F3E700BFEB
S21400E8E0AC200020036A73B513F0010304460D46FE
S21400E8F0164631D0C369BBB91FF0A0F9174BE361C8
S21400E90022F0CCFF00F5BB501030606004F120020E
S21400E91052E8003F43F0040342E800310029F7D1F3
S21400E9204FF48000FEF7D8FC6168A28D4B1B05F6FD
S21400E930B8356D1A002D06DB501C82B240F27120ED
S21400E940616A00FB013300212046009131461FF02A
S21400E950D7F9122002B070BD1846FBE749EC00005C
S21400E960036A73B503F001028A4204460D4669D075
S21400E97000296AD0590640F18280436A90F83F1019
S21400E9800B2B98BF0C234FF0C80298BF436201F0D0
S21400E9900F01002007F078F90F210546684600F0C1
S21400E9A0C9F96A4604F14001012000F0D1F921F0CE
S21400E9B0B7FC002320632046A385032140F8343F9C
S21400E9C007F07EFA284607F013FAB4F93820824298
S21400E9D003D0208707F04CF8608706F0F9FC002388
S21400E9E084F82E00E36104F1200252E8003F43F071
S21400E9F0010342E800310029F7D152E8003F43F016
S21400EA00400342E800310029F7D141F2883301255E
S21400EA10C4E903331B4B65611B6804F108005B798E
S21400EA206376194BD98A002908BFE62120F057F9EA
S21400EA30284605F0BFFF28B963691A0702D443F0D9
S21400EA4004036361002002B070BD1CF093FB064611
S21400EA5004F1080001F0B8FF2046294606F002F847
S21400EA60203444F8045C54E8003F23F0010344E8F3
S21400EA700035002DF7D130461CF082FBE2E70C2073
S21400EA80E1E700BFF0220020AC2000202DE9F8438B
S21400EA9014460E4699460746FEF79EFD0546204656
S21400EAA023F0F5F9DFF888800021B8F80440001B51
S21400EAB020EAE0743078FFF75BFE2318FF2B08DDB2
S21400EAC0317801B90130033041F010013170C0F1E6
S21400EAD0FF04089BC9F800001C603378DB060DD5E0
S21400EAE022F0A3FE2521B0FBF1F303FB110107F191
S21400EAF04000C9B200F07AF988F8060000232846DC
S21400EB001A4631781EF065FE284609991EF0B3FEB7
S21400EB1097F83F20284698F8061002F00F02FFF7F5
S21400EB20FDFD284621461EF028FF2846BDE8F8834E
S21400EB30C4200020F0B587B004461FF077F80646DC
S21400EB40002504F1300006F0FFFA324600210320CB
S21400EB5006F0E2FE294F8DF80F50002E48D0F379CC
S21400EB6013F0200246D0FA7903F01F039B1AAB423B
S21400EB7009DD012B0CBF04231423B5798DF80F3063
S21400EB8005F01F05ED0005ABE26E019600930DF152
S21400EB900F0104AB2046FFF779FFDDE904130646B4
S21400EBA094F83F00194400F00F001EF05AFF9DF83D
S21400EBB00F300544DB061FD529463046FFF7F8FD23
S21400EBC00F4B6168E3613B68627E1944002006F0E3
S21400EBD0B9FB059BBA883046E16E06F04BFBBB8856
S21400EBE0059A1A443B68BA802B443B6007B0F0BDD8
S21400EBF03546C8E71546C6E7024BE2E7C4200020C4
S21400EC0011ED000049EC00000E4B10B5DA8A044600
S21400EC1022B9826812F4601F08BFDA82A38D2046EC
S21400EC200133A385012105F01DFF40F271216368C1
S21400EC30626A204601FB02336360BDE8104005F0BF
S21400EC40C3BE00BFAC20002070B50C4606285AD8BC
S21400EC50DFE800F004242C3659592C0000260B6AF5
S21400EC60294D1A07AE802E6009D523F008030B62E3
S21400EC7001F16C0022F086FF236FC4E91B360023E7
S21400EC80226BA18D04F14000EB7100F0B9F884F816
S21400EC903E002046BDE87040FFF74CBF06F014F873
S21400ECA0844230D1BDE8704006F070BC174B1A683D
S21400ECB0637ED17A52795B1A93421EDBDAB21CE08D
S21400ECC0114DEB790133EB710B6ADB060DD5C86E7F
S21400ECD023F0DDF8AB88984207D1236A4FF4800012
S21400ECE043F020032362FEF7F7FA084B617E1A68AA
S21400ECF0D37A12790B449342E0DD20466276BDE873
S21400ED007040FFF781BF70BDC4200020F0220020B5
S21400ED1003280B4609D1064A1846D1790131D1712C
S21400ED20927983F83E20FFF705BFFFF78DBF00BF3F
S21400ED30C4200020054BD3F8012002605A790271E6
S21400ED4018788842B4BF002001207047A7430020EF
S21400ED50254BF0B5002918BF0B4611680125C3F8EE
S21400ED60011011798BB0597100211970C1F3C404D8
S21400ED70165D01F0070405FA04F42642CFB207D068
S21400ED801C7804F128066E44013406F8287C1C70B2
S21400ED9001312529EAD11C7830B122466946981DF2
S21400EDA029F02CFD0BB0F0BD002CFBD0012606335D
S21400EDB0C0F3C405575D00F0070506FA05F5C1B2B5
S21400EDC02F4201BFB1FBF4F504FB15110AAD55FA4D
S21400EDD081F108BF11F8281C01302528197003F1AD
S21400EDE00103E5D1DEE700BFA7430020034B002860
S21400EDF018BF034619448879704700BFA743002010
S21400EE00214B10B5002814BF84469C464FF0010ED7
S21400EE1082EA124290B2414091FAA1F109BA8BB24D
S21400EE2003EB031303449BB293FAA3F31BBA9BB200
S21400EE3003EB031303449BB293FAA3F31BBA9BB2F0
S21400EE4003EB031303444340104C9BB2A4FB032480
S21400EE501A1B04EB5204620902EBC20402EB8402A2
S21400EE609A1AC2F3C4016144D0B2497802F007028C
S21400EE700EFA02F2114201BF9CF8000043430CEB6D
S21400EE80134C9CF8060010BDA74300204D91CFBA46
S21400EE9030B5184B826A1B6812065D7901D4457638
S21400EEA030BD018F1C79436B0903B1FBF3F1B0F859
S21400EEB0A020631BB1FBF3F102B1013AD0F8A430F5
S21400EEC003B152101302B3FBF1F35B190DD090F8A7
S21400EED0992012F0F00F08D01209B3EB820FB8BFDA
S21400EEE000234FEA8201A8BF5B1AA342A8BF2346AD
S21400EEF04376D5E7F022002008B5042002F026FB72
S21400EF0080B1094A937F6BB1D37F0133DBB2D377ED
S21400EF1092F821209A4205D1BDE808404FF0806063
S21400EF20FEF7DAB908BD00BFCC2000200123074A4F
S21400EF3003FA00F002F1140353E8003F034302F122
S21400EF40140C4CE800310029F4D17047CC20002086
S21400EF50F8B5214F05467B690C4613F4C07F04D0F4
S21400EF60990636D401242046F8BD39B15A0705D48F
S21400EF70D5F8A83013B90820FFF7D8FF7B699B06A1
S21400EF8001D50024EFE77B7FAE6A022B06F0080669
S21400EF9002D9DEB1002CE5D095F8961095F8370129
S21400EFA0063100F00F0006F0AFF885B20EB904B1D6
S21400EFB06D0005F0F5FCA842D4DB7B6913F01C0F4E
S21400EFC0DFD1002ECFD084F00104CCE7002CE3D0B4
S21400EFD0C8E7002CCAD1D4E7CC20002070B5044680
S21400EFE0343015460E4621F096F940F271226368D9
S21400EFF002FB0633A3EB1021A36A61601B0749BF1F
S21400F0000649554301FB0500656F53BF01EB5501EB
S21400F01005EB40006067616070BD00BF803801008E
S21400F02013B501901CF0A6F80446019906481EF098
S21400F0307FFF4FF48070FEF74FF9204602B0BDE820
S21400F04010401CF09DB800BFF0200020084B9A7EB0
S21400F05082420AD94FF4A4721B6802FB0030836A0E
S21400F06013F0100F08BF002070470020704700BF45
S21400F070CC20002008490A68821A0848D310002AC3
S21400F08003FB00F005DB8B7E8342D8BF4FF0FF30DA
S21400F09070474FF0FF307047CC200020199C8FC17E
S21400F0A037B5044601911CF065F80199054604F150
S21400F0B030001EF03DFF2046FFF7DCFF01218140B7
S21400F0C006481EF035FF4FF48070FEF705F9284617
S21400F0D003B0BDE830401CF053B800BFF02000205D
S21400F0E0002337B50193836A0446580514D5D4F82F
S21400F0F0A43004F1A800019322F065FDC4F8A40032
S21400F10050B194F846314FF48061013B84F84631A3
S21400F11004F128001EF014FFD4F8A4500DB9374BA4
S21400F1209D6894F94631012B0ADCD4F8AC303BB12B
S21400F130A36AD90504D44FF480512046FFF7B0FFE8
S21400F140D4F8A810A36A002914BF01210021AA79C7
S21400F1504FEA830302F10C0203F00C0343EA0113A7
S21400F160A95C21F01C0143EA0103AB540DD1234AEC
S21400F17002F1140353E8003F23F0080302F11400E1
S21400F18040E800310029F3D102E00320FFF7CEFE6D
S21400F190284606F043F8019BFBB15B7903F00A03AF
S21400F1A0082B17D1B4F8983004205A1C62F30B03CE
S21400F1B0A4F8983002F0CAF960B1104A937F013380
S21400F1C0DBB2937792F820209A4203D14FF080600A
S21400F1D0FEF782F801A822F0D5FC6B799A070BD5CA
S21400F1E0A36A1B0408D50820FFF7A0FE4FF40041D1
S21400F1F004F128001EF0A4FE03B030BDCC20002091
S21400F200064B5A69510608D5826A120705D51B694E
S21400F210143B43604FF4205343677047CC200020D4
S21400F220F8B5594E0446338D0F4623B9836813F458
S21400F230601F08BF3385002F33D0258F636B2D01E9
S21400F240B5FBF3F506F0A2F92046FFF7D9FF618F6C
S21400F250B4F8A020ABB25B1A9A421BDC736994F830
S21400F26036019B074CBF002102211EF02BFE40F208
S21400F27002237269934314D1A4F8A0503D46204659
S21400F280FFF706FE27B1A36A190701D5628FB2B948
S21400F290012331E0737F002BE9D0032194F8360177
S21400F2A0E3E7B4F8A05045B9A36A13F0800F14BF83
S21400F2B008233E2384F87330E1E70125DFE713F4E3
S21400F2C0C05FE5D1736913F00C0FE1D140F2022262
S21400F2D032EA0303DCD1D4F8A830002BD8D1A18FB2
S21400F2E021F0C0F9031E42DD628F013293423EDCFC
S21400F2F0012BCDD0013B9BB2A4F88030236B5A047F
S21400F30009D54FF4804104F130001EF019FE0021AB
S21400F3102046FFF7C5FEB4F88020A38F94F86C1043
S21400F3201344A387B4F8A0309B1AA4F8A03094F82E
S21400F3306B3002FB01332522B3FBF2F102FB1133E3
S21400F34084F86B303DB120461FF029FC2046A18F83
S21400F35021F01FF80546A36A1B0702D40B4B1B6857
S21400F36098473DB12046BDE8F8401EF0A3BE638F27
S21400F3700133C0E720460221FFF792FE2046BDE893
S21400F380F840012105F06EBBCC20002004210020AF
S21400F39000232DE9F04387B00446032104A8049314
S21400F3A005F080FD049E36B901212046FFF738FFA0
S21400F3B007B0BDE8F083B379754F0C331E4435793A
S21400F3C07B6915F0010852D113F0100504D0072010
S21400F3D0FFF7ACFD002502E00420FFF7A7FD0121A2
S21400F3E02046FFF7B5FD064658B97B69617E13F4E3
S21400F3F0807F0CBF0220002005F0D6FF2046FFF7D6
S21400F4006FFE049805F004FEDDF810807A6998F81F
S21400F4100630510603F10C0308EB030910D458F824
S21400F420033006203B61FFF781FDA36A1A0607D466
S21400F43004F1280080211EF07BFD0120FFF776FDF9
S21400F44099F80430DB0740F18680204699F90510CC
S21400F4501EF0D6FD204699F807101EF09EFD002DE2
S21400F4604BD1002E6FD104A822F08CFBA0E723F02E
S21400F470100301207B61FFF759FDB37AD8062CD51F
S21400F4800220FFF753FDA36AB27A83F00203C2F3A9
S21400F4908002C3F340039A422CD14FF4006104F17A
S21400F4A028001EF04DFD4FF480611EF041FDA36A5A
S21400F4B083F00203A36200237B77B57AA36AC5F3C1
S21400F4C0C00103F00102914284D183F0010315F0DC
S21400F4D0030518BF0125A36281E707F1140353E86B
S21400F4E0003F23F0040307F1140141E80032002A2C
S21400F4F0F3D1C8E77B7F0133DEE72046FFF7BAFD8E
S21400F500C0B201F0ADF803902046FFF7B3FDA38F1D
S21400F51082B20093022000230399CDF8048001F004
S21400F520EBF84FF0FF3104A805F0BCFC049B9A7979
S21400F53005930C321344DA7A82B905A822F022FB2E
S21400F540002E3FF435AF01212046FFF769FE002D5F
S21400F5507FF42EAF87E7002D83D0E2E79B7A03F097
S21400F5600303032B0AD1012104F12C001EF0E0FC5A
S21400F5704FF4006104F128001EF0DAFC05990548F6
S21400F5808C6022F0E3FC4FF00050FDF7A5FED7E7B5
S21400F590CC200020D820002038B50446114D4FF46A
S21400F5A080616B69283043F400736B611EF0C8FC01
S21400F5B0012104F12C001EF0C3FC00212046FFF7B9
S21400F5C0C7FC28B12046BDE838400121FFF728BE19
S21400F5D06869617E80F48070C0F30020BDE8384022
S21400F5E005F006BECC2000200022184B13B50446BA
S21400F5F05A7720225A61A36A818F9B0400F140004B
S21400F6001ED5D4F82821FFF7FBFB84F836012046E8
S21400F6101EF0B6FD04F5947005F096FD2046FFF743
S21400F62029FDC4B2204601F01BF80190204601F0E7
S21400F63023F801990246022006F06EF902B010BDCA
S21400F64094F86B10FFF7D2FBDFE700BFCC2000205A
S21400F65010B50C46062837D8DFE800F00419432614
S21400F660213D370091F8993008466FF3071381F86B
S21400F6709930FFF7B9FF2046FFF732FD627E6168DA
S21400F680022005F05FFEBDE81040FFF735BC05F030
S21400F6901BFB844218D1BDE8104005F077BF084632
S21400F6A0BDE81040FFF774BE0846FFF775FF124A24
S21400F6B002F1140353E8003F23F0200302F1140084
S21400F6C040E800310029F3D110BD4FF4806104F109
S21400F6D028001EF035FC01212046BDE81040FFF74B
S21400F6E09FBD91F89930C3F30312013262F30713FA
S21400F6F081F899300021EFE7CC20002010B50C46A9
S21400F700062832D8DFE800F004193D3221373700EA
S21400F71091F8993008466FF3071381F89930FFF790
S21400F72063FF6168626F637E112001EB122205F0B1
S21400F730D1FEBDE81040FFF7DFBB05F0C5FA8442F6
S21400F74013D1BDE8104005F021BF0846FFF720FEA4
S21400F750114A02F1140353E8003F23F0200302F19C
S21400F760140040E800310029F3D110BD0846BDE87A
S21400F7701040FFF711BF01212046BDE81040FFF7FB
S21400F7804FBD91F89930C3F30312013262F30713A9
S21400F79081F899300021EFE7CC20002010B501F069
S21400F7A035FFFB2210F0020F0CBF01210321104B86
S21400F7B01A771A7E61F303021A76420742BF1A7E50
S21400F7C042F007021A761A7EC2F3030161F30712AB
S21400F7D01A764FF4417100221984DA76DA835A6277
S21400F7E01A611A85034BBDE810401B68184700BF16
S21400F7F0CC200020FC2000202DE9F843434C054691
S21400F800A06818B106F0F8FE0023A360022006F0F8
S21400F8103DFEEFB2002000F0DDFE38461EF0BAFBDB
S21400F8200646002861D1002D58D005EB850105EB72
S21400F830C101C90003460122022089B206F0D8FDA4
S21400F840002860D14FF4A4790220A77606F04EFE79
S21400F85009FB05F831464246206028F0F6FF32469E
S21400F8602368681E03EB090182422FDB002DA8F5F2
S21400F870A4724FF00001D8BF00229950636028465A
S21400F88000F0A8FE88BB38461EF07EFB074660BB2D
S21400F890002D16DD022022F0ABF90223A060C37112
S21400F8A083793946C3F102020C33D2B2184428F0E9
S21400F8B0CCFF0121A3689A7913441A7B61F30102F5
S21400F8C01A73FFF76BFF3046BDE8F88309FB02FCAE
S21400F8D0013243F80C1001F5A471C5E72A4600234F
S21400F8E0C4E90033A376002AC9D000201EF052FBDC
S21400F8F00020C4E90000A07600F06CFE022006F0AE
S21400F900C5FD0726DFE741F20702E8E7CC20002026
S21400F910014B987E704700BFCC200020014BD87E5C
S21400F920704700BFCC20002070B5244D1BF022FC91
S21400F9306C6824B123686B60EB7E0133EB761BF0BA
S21400F9401FFCCCB34FF4A47600213246204628F0A4
S21400F9507CFF1B4BA4F88A60C4F88C3003F1CE53AE
S21400F96003F59813C4F8903041F61B330126A4F82B
S21400F97094301B23402184F8963004F128006661F9
S21400F9801EF0D6FA2B8B0021A4F8443194F83731B8
S21400F99004F1080066F3030384F83731094BE36784
S21400F9A02B7F84F8423144F29023A4F84031072399
S21400F9B084F889301FF093F9204670BDCC200020D3
S21400F9C0480148010000FFFF38B5044640212830B2
S21400F9D01EF0B6FA204620F0A6FE04F1A80022F09B
S21400F9E0D1F804F1AC0022F0CDF804F1080000F0E4
S21400F9F0EBFF04F1A40022F0C5F8114B20461B686B
S21400FA0098471BF0B7FB0F4B5A682260DA7E5C60A3
S21400FA10013ADA761BF0B4FB00232046C4E90A3329
S21400FA20FFF728FBC4B2204600F01AFE0546204623
S21400FA3000F022FE014628461FF003F938BD00BF3D
S21400FA40F8200020CC2000202DE9F04106464FF497
S21400FA5080400F4601F07AFD044630B90E4B1D6813
S21400FA6093F81A806D35A04502D80020BDE8F081D5
S21400FA7055F8453CDA0609D5C3F38003BB4205D1E9
S21400FA8006222946304628F0A9FE18B1013405F5AD
S21400FA90A475E8E70B20E9E7CC200020014B187797
S21400FAA0704700BFCC200020014B187F704700BF76
S21400FAB0CC20002000487047E42000202DE9F74FB6
S21400FAC01D4616469DF83820044680F89F202A4694
S21400FAD09DF83C708A4652F8101B9DF83430C0F8EA
S21400FAE0281100F14001381E18BF01200193DDF8EF
S21400FAF030909DF840809DF944B0FFF729F92046E4
S21400FB0020F06EFC1EF0E4F94146024620461EF048
S21400FB1048FA47F6FF72A4F83021AA88019BA4F899
S21400FB202C21AA7984F82E21D9F80020C4F86D205B
S21400FB30B9F8042004F12809A4F871201BB10421A7
S21400FB4048461EF0F5F927B14FF4005148461EF01E
S21400FB50EFF94FF4607001F0F9FC10F0800718BF61
S21400FB604027C30548BF47F08007810548BF47F4D4
S21400FB7080771BF0FFFA4FF48261019048461EF032
S21400FB80D7F9394604F12C001EF0D2F9019B18462D
S21400FB901BF0F6FAAAF10203012B00F28E804FF456
S21400FBA0002148461EF0C4F901212046FFF778FAE6
S21400FBB00421204620F01BFC6B7D2046C3F3040383
S21400FBC084F86C306A8952006263697B2A7B42EA59
S21400FBD001226287E97BAA7B42EA012222876A7DAC
S21400FBE084F86B30C2F3421284F83E2000220523CC
S21400FBF0A2870122A4F8A030A4F8802059461EF05F
S21400FC00FFF901F0FDFC20F40060C4E9080120467D
S21400FC10FFF73EF942482AF00203078D2FB9002B62
S21400FC2040F2C71718BF4FF4D77740F2712A2989D8
S21400FC3049000AFB01626260002B45D1394B026124
S21400FC40E361EB795B000AFB03F302EB5302B4F8C3
S21400FC507C3062600AFB03F3B3F5487FB8BF4FF40D
S21400FC604873B8F1010FE3600AD094F837312046A4
S21400FC7068F3030384F8373108F00F011EF0F4FA36
S21400FC8004F1080039461FF02AF8012004F092FE1D
S21400FC9028B963691A075CBF43F00403636140F246
S21400FCA071216B892046013B59431EF052F92046CC
S21400FCB003B0BDE8F04F04F087BEBAF1010F40F282
S21400FCC0014118BF012170E704F1340B0231584698
S21400FCD020F021FB636800F5A056A3EB16236360B3
S21400FCE0114B40F608014846E3611EF021F9E87919
S21400FCF00E4B400003FB006676005846616B666755
S21400FD0020F009FBB4F87C30A0670AFB03FA636FA7
S21400FD101B0ABAF5487FACBF534403F54873A0E707
S21400FD20CC20002051F60000FDF6000080380100CF
S21400FD3070B51D46C36A04461B07164611D4082133
S21400FD402C301EF0F5F825F48265064BED043340A2
S21400FD50ED0C2046C4E90835BDE870404021FFF7A9
S21400FD609FB970BD2FCF87F72DE9F04F85B00446B9
S21400FD7001910846002935D04B79990720D422F006
S21400FD8086F878B9019B5B79DA0705D54FF48031A0
S21400FD9004F128001EF0CCF801A821F0F3FE05B00F
S21400FDA0BDE8F08FA36ADB030AD54FF4803104F177
S21400FDB028001EF0C5F8019A537943F001035371E9
S21400FDC0019D1BF0D7F96B7906469F072BD543F0AC
S21400FDD001036B71D4F8AC302B60C4F8AC503046DD
S21400FDE01BF0CEF9DFF880911BF0C4F994F9463188
S21400FDF00746022B13DCD4F8AC3083B15979A26ADB
S21400FE008D0702F4807214D5002A77D09A791344AD
S21400FE101B7B1E2B03D829FA03F3D8076ED438466B
S21400FE201BF0AEF9BBE7294604F1AC0022F08EF8D1
S21400FE30D5E7002AF3D194F89680039204F1AC0B30
S21400FE40D4F8AC6096F807A0B379AAEB030A5FFA79
S21400FE508AFAC2455FDC584622F011F80546A8EB40
S21400FE600A086B7929466FF3C3036B7103A822F067
S21400FE706DF8D4F8AC302BB15B79990702D1B8F1A4
S21400FE80000FDDDC039B9B79022B12D8002021F0AB
S21400FE90AFFE002844D0039B4279597961F30002F3
S21400FEA042715A7901466FF300025A7103A822F094
S21400FEB09CF8E36A9A0511D5039803460068002863
S21400FEC0FBD1DB79C3F14503DBB2032B06D821F067
S21400FED08FFE014620B303A822F038F8D4F8AC30E1
S21400FEE013B15B79DB0704D5039A537943F0080313
S21400FEF0537138461BF044F9039908E004F1AC004E
S21400FF0021F0BDFF009038461BF03AF900992046D4
S21400FF101EF0B9FB68E7002021F06AFE054628B906
S21400FF20039904F1AC0022F065F878E78079B1799E
S21400FF300C300C3142463144284428F05FFCEB7903
S21400FF4053FA88F3EB71B379727953FA88F3B37185
S21400FF506B794FF0000862F300036B7173796FF3EF
S21400FF60000373717DE700BF7C2C020070B5036B45
S21400FF700446DE0786B034D5866A300724D516F4E4
S21400FF80002F14BF032501252046FFF773F894F8C9
S21400FF909F30294605930023049394F83E30C6F319
S21400FFA080020393238F80B20293638F0193636B67
S21400FFB0C3F34F03009304F16D031FF015FD38B92A
S21400FFC00025284606B070BDB50C05F00205DBE737
S21400FFD0012104F130001DF0B3FF4FF400511DF075
S21400FFE0A7FF236B990410D52046FFF743F8A16AB4
S21400FFF0C0B2C1F340311EF093FF0028E0D04FF4AA
S214010000005104F130001DF09BFF236BDA0409D583
S21401001000212046FFF7A8FE4FF4805104F130007E
S2140100201DF08EFF236B5B0511D52046FFF722F8E6
S2140100300023C2B2194694F89F001FF02EFA00283A
S214010040BED04FF4806104F130001DF079FF236BC0
S2140100505E0711D52046FFF70DF8616B238F628F7F
S214010060C1F34F0180B21FF09FFC0028A8D00421E5
S21401007004F130001DF064FF236B1D0709D52046EF
S21401008020F018FE00289BD0082104F130001DF056
S21401009057FF236BD80618D52046FEF7EBFFE16A1B
S2140100A080B211F4805100F0CF8000211FF015FDC1
S2140100B0002885D04FF4805104F12C001DF040FF3C
S2140100C0102104F130001DF03BFF236B590615D5B6
S2140100D02046FEF7CFFF94F8733080B20093D4E940
S2140100E008231FF0DAFC00283FF46AAF0023402102
S2140100F084F8733004F130001DF022FF236B1A05DB
S21401010016D52046FEF7B6FF0023B4F89A200093D2
S21401011094F89E10B4F89C3080B21EF0B4FE00280D
S2140101203FF44EAF4FF4006104F130001DF008FFBC
S214010130236B13F4804532D19B0516D52046FEF776
S21401014099FF94F8371194F8732001F00F0180B2EB
S21401015001F0C4F800283FF433AF4FF4007184F87F
S214010160735004F130001DF0EBFE236B1E0616D50E
S2140101702046FEF77FFFB4F89030B4F88E20009347
S21401018094F8941094F8953080B21FF0D8FC0028AB
S2140101903FF416AF802104F130001DF0D1FE236B31
S2140101A09D0612D52046FEF765FF94F8731080B2BF
S2140101B01FF0AAFC00283FF403AF0023202184F897
S2140101C0733004F130001DF0BBFE236BD80508D553
S2140101D004F130004FF480711DF0B2FE204620F08D
S2140101E0BDFA236B190408D504F130004FF4004121
S2140101F01DF0A6FE20461EF033F8236BDA0308D561
S21401020004F130004FF480311DF09AFE20461DF0B7
S214010210C3FE236B9B071AD52046FEF72BFF94F8E7
S214010220731080B21FF026FD054600283FF4C8AEC5
S214010230022104F130001DF083FE2046FFF7C4FBC7
S214010240044B1B689847BCE61FF05EFC30E70125AF
S214010250B7E600BFFC200020F8B50023114A02F1E2
S214010260240151E8005F41E80034002CF7D1012752
S2140102702DB9B4B12046BDE8F840FEF7D1BE95FAD7
S214010280A5F0B0FA80F007FA00F625EA0605FEF7B3
S214010290DDFE0028ECD0FFF769FE0028E8D13443E4
S2140102A0E6E7F8BDCC2000202DE9F74F0446019083
S2140102B0002860D0C5794FF000080C3505441AF0C7
S2140102C059FF4646814640462C4FBA7E5FFA88FA69
S2140102D0524519D94FF4A47303FB0AFB3A685A44F2
S2140102E0916ACB0644D5B2F89820C2F30B02002AD5
S2140102F03ED0E279C2F14502D2B2032A15D80220D5
S21401030021F076FC044640B900234846FB831AF0E8
S21401031037FF304603B0BDE8F08F014601A821F053
S21401032015FE0020E5790C35254404220123002121
S21401033012FB003305F820A0E9543B6802FB005C81
S2140103405B44B3F8983001368CF80230032312FB75
S2140103500032A9543B6801305B44B3F89820C0B220
S21401036061F30B02A3F89820E379F6B20433E37144
S21401037008F10108A9E70646CBE700BFCC2000201C
S214010380F7B51DF0A5FD002814BF0F210221684610
S214010390FEF7D0FC10BB03B0F0BD346807FB054484
S2140103A0A36A03F01803102B13D10522694604F142
S2140103B0410028F013FA60B10121204620F0EFF940
S2140103C038B9012021F014FC014610B1204601F095
S2140103D02DFD0135B37EAB42DFDCDCE700254FF4B3
S2140103E0A477014EF6E700BFCC2000202DE9F74F99
S2140103F01AF0C0FE434BDA6800920022DA601AF067
S214010400BFFE009B13B903B0BDE8F08F684621F02C
S214010410DAFB8379856803F10C040444A27A0A3373
S21401042012F0200F0CBF0222032213448371EB6AE1
S21401043001465A05019013D5A37AE27A284643EA83
S21401044002221EF018FB58B901A821F09BFB284692
S2140104503D2101F049FA3D2128461EF0E7F9D0E793
S214010460AE6AA37A16F40076019903F0030213D05C
S214010470032AE9D18B790B441B7B1E2BE4D8224A35
S21401048022FA03F3DB07DFD54B79284643F0020354
S2140104904B7101F005FAB4E7032AF5D04A7908460C
S2140104A066F341024A7103F0030894F806A094F932
S2140104B005B021F0ECFC019E0746B4792846063CBF
S2140104C0E4B2B471FEF7D6FD0C34C0F3032306EB99
S2140104D0040943EA081389F803303346FFB289F862
S2140104E00200A9F8047006F804B089F801A05A7948
S2140104F06FF341025A711B68002BF8D130461EF08B
S21401050026FD7EE7CC2000207C2C0200F8B50446B0
S2140105100026084F0CB90748F8BDA179E579B81946
S2140105206D1AEDB20C3121442A4628F067F92E44A3
S2140105302468EFE70C210020F8B504460026084F92
S21401054004B9F8BDA079E579B9192D1AEDB20C30C8
S21401055020442A4628F052F92E442468F0E700BFCA
S2140105600C210020074B084A1A60084B084A1A60FB
S214010570084B094A1A60094B094A1A60094B0A4A8C
S2140105801A60704700210020E3EA020008210020DB
S214010590DDEA020004210020DFEA0200F820002044
S2140105A0E1EA0200FC2000201DEB0200084A08B523
S2140105B0D36B99070AD443F00203D36301F0C8FC56
S2140105C01FF0EEFB00F016F905F062F9002008BDF9
S2140105D01C22002038B50A4D0446E86818B106F01A
S2140105E091F90023EB600CB9002038BD142060435C
S2140105F021F04AFEE8600028F6D11920F5E700BF91
S2140106001C22002038B5094D0446286918B106F0A9
S21401061079F900232B610CB9002038BDE00021F0E8
S21401062033FE28610028F7D11920F6E71C220020A6
S21401063038B50A4D0446686918B106F063F9002317
S2140106406B610CB9002038BD0C20604321F01CFE04
S21401065068610028F6D11920F5E700BF1C220020AA
S214010660044BDA681AB100EB800302EB83021046F2
S214010670704700BF1C220020044A0346D06820B100
S21401068003EB830300EB83000C3070471C22002031
S2140106900048704734220020044B5A691AB100EB17
S2140106A0400302EB83021046704700BF1C22002065
S2140106B0034A0346106908B100EBC300704700BF48
S2140106C01C22002038B51AF055FD0023094CA56BF5
S2140106D0A3631AF055FDEA0701D500F087FDAB07C5
S2140106E007D594F84210B4F84000BDE838401FF032
S2140106F0F6BC38BD1C2200202DE9F74F99460D9B0C
S2140107000E469D7980460C351D4405F10A011EF002
S21401071062FA93460746002868D02EB94FF0010AC0
S214010720504603B0BDE8F08FB37AC3F3001ADB0678
S214010730F4D5012005F060F980B1B8F1020FEDD1D2
S2140107402B4B9A6BA3F840B042F0020283F84200AA
S2140107509A634FF40000FCF7BFFDE1E7244CB8F1C3
S214010760040F84F858803ED184F84AB0D9F8003096
S2140107700D98C4F84B30B9F804300CA9A4F84F30E2
S2140107801DF03AF93B7884F85630AB7984F852304C
S21401079005F066F984F8540005F054F9BDF83030D8
S2140107A0E065A4F84830EB7902AA84F857306B79F3
S2140107B0666484F85530B37AC3F303038DF80430C6
S2140107C001238DF8053002238DF8063094F8563053
S2140107D002EB931313F8043C84F85330A36B43F0F5
S2140107E00103A363B5E7A4F84AB0CBE7824697E7CF
S2140107F01C2200200022014B1A6070477C22002038
S214010800284B2DE9F0411C6805460E4603464FF07D
S214010810AA08013BDBB2FF2B23D144BB022021F007
S214010820E7F90446D0B121461E4821F08FFBE91CAA
S2140108302046C9B221F07EF92B46AA22A0790C30B7
S2140108402044013BDBB2FF2B22D10123027043700F
S21401085085702A463146033027F0D0FF2046BDE892
S214010860F081F25C82EA48085FFA88F8D1E7A3795A
S2140108700C33E718E35C434508D1BB78AB4205D19E
S2140108802A463146F81C27F0A9FF30B12468C4E790
S214010890F15C81EA4202D2B2D3E77B7801337B7006
S2140108A0DCE700BF7C22002098B182790C3202443A
S2140108B05378013BDBB253705BB9064A13681BB130
S2140108C0984203D10368136005F096BE1A461B686A
S2140108D0F5E770477C220020104B1A7842F0F002B0
S2140108E01A701A7C42F0F0021A7493F8202042F033
S2140108F0F00283F8202093F8302042F0F00283F8CB
S214010900302093F8402042F0F00283F8402093F81C
S214010910502042F0F00283F85020704780220020D9
S2140109200368054A23F07F6323F4002302EAC141EA
S2140109300B430360704700BF0000F80F70B5468890
S214010940054606F00702072A16461D4C15D11AF071
S21401095011FC00231A01A25C9EB212090F2A04EBB5
S214010960031125D00133062BF4D1164A138801331F
S21401097013801AF005FC192019E01201A35CC3F3D9
S2140109800311013101F00F01042994BF61F307132C
S2140109906FF30713A35420F081FF04EB0614E06005
S2140109A000202B6823F4E02343EA06462E6070BD40
S2140109B02B684B8011230B701AF0E2FBEBE700BFAC
S2140109C0802200202241002038B54488054604F0E4
S2140109D00704072C0FD01AF0CDFB074A2401135D3C
S2140109E043F0F00313552B6843F4E0232B60BDE876
S2140109F038401AF0C5BB38BD802200202DE9F047EB
S214010A004488074604F00705072D894637D01D4C54
S214010A104FEA051814F8086020F040FF04EB051AA9
S214010A20DAF80C30360906EBC506C01A04EB4606A2
S214010A30708014F8083003F00F02042A9EBF0132BA
S214010A4062F3030304F80830B9F1030F14D114F864
S214010A50081004EB0514A01C01F00F0120F07AFB2E
S214010A6004461AF087FB3A68074B134023433B6062
S214010A70BDE8F0471AF084BB4FF6FF74F1E7BDE816
S214010A80F08700BF802200200000FF7F064A08B5DD
S214010A909268824207D0427922F0030242F00302B2
S214010AA04271FCF781FC08BDE022002010B5064C1F
S214010AB0204621F067F8201D21F064F804F10800B3
S214010AC0BDE8104021F05EB8E022002010B50220FB
S214010AD021F08EF8034C6060022021F089F8A060B6
S214010AE010BD00BFE022002008B5FFF7DFFF00229F
S214010AF0024BDA60BDE80840FFF7E8BFE0220020BD
S214010B00014B5868704700BFE0220020014B9868EF
S214010B10704700BFE022002038B50C4CE3681BB1DB
S214010B20E36898470023E36023686BB1074821F028
S214010B304AF8054640B123681BB14FF00040FCF768
S214010B40CBFB28461FF0D7F838BD00BFE0220020B7
S214010B5010B5084CE0604FF00040FCF7BDFB00BF4D
S214010B6000BF00BF00BFE3681BB1E36898470023DE
S214010B70E36010BDE022002038B5837904460344C3
S214010B805B7B13F0300F437923F0030308BF43F078
S214010B90010343711AF0EEFA05462146054821F095
S214010BA0D5F94FF00040FCF797FB2846BDE83840E2
S214010BB01AF0E6BAE022002008B5074B0022986832
S214010BC041F2090106231EF092F8C3790633184450
S214010BD0BDE8084000F0E8BBE022002010B50D4C4F
S214010BE063689A790C321344DA7802F00302032A16
S214010BF00DD05979B3F8030020F0F6FD0246A0683F
S214010C000023BDE8104042F259011EF070B81122CF
S214010C10F5E700BFE0220020F0B5174C85B0636809
S214010C209A790C3213449D89B5F5FA7F20D243F6A2
S214010C30F671DE89A6F10A0292B28A4218D81F7CA2
S214010C4017F0E00F14D1D87810F0FC0F12D15A79B2
S214010C501979CDE901670095063303F04DF902468F
S214010C6042F24401A06805B0BDE8F0401EF061B84C
S214010C701222F5E70C22F3E7E022002010B503F07C
S214010C80A1F9BDE8104002460348002342F245019F
S214010C9080681EF02CB800BFE022002010B5094C79
S214010CA063689A790C3213449A7A191DD87803F03E
S214010CB021FC0023024642F24701A068BDE810402D
S214010CC01EF015B8E022002010B5094C63689A7929
S214010CD00C3213449A7A191DD87820F0C0FC0023F0
S214010CE0024642F24801A068BDE810401DF0FFBF71
S214010CF0E022002010B5084C63689A791344B3F8D3
S214010D000F0003F095F90023024642F24601A0685F
S214010D10BDE810401DF0EBBFE02200207FB55A4C25
S214010D2061688B790C330B44DA78013A132A12D8AE
S214010D30DFE802F00A131D2129113135545D6E7664
S214010D401111117E858D959E5879003818BF0120A6
S214010D5004F082F848B9122036E04C4AB3F8051080
S214010D6012681172B3F80730537200202CE05879DC
S214010D7002F0BEFBF9E71A79042AECD1D3F8050094
S214010D8000F0D2FBF1E71A79042AE4D1D3F8050082
S214010D9000F0D0FBE9E758791DF09EF8E5E71A79EF
S214010DA0022AD8D1B3F805600021F0B2FCF71AFC8C
S214010DB005461CF03BFC30B128461CF037FC310AD6
S214010DC01DF076F8D1E74220024600234FF6074190
S214010DD0A06804B0BDE870401DF089BF1A790D2ADD
S214010DE0B9D8591D294B186827F008FDBDE7587971
S214010DF030B9034602460146009004F027FCE3E7BB
S214010E00DA79997902F108051D4400950833F4E76B
S214010E10587901289FD800F0010004F001F8D3E7C3
S214010E201A79042A97D1D3F805001DF056F8CBE7B6
S214010E301A79092A8FD1581D1DF0A8F8C4E71A7926
S214010E40022A88D1B3F8050002F02CF8BCE71A791B
S214010E50012A80D193F905001DF066F8B4E71A79E6
S214010E60022A7FF478AFB3F905001DF05FF8ABE70F
S214010E701A79012A7FF46FAF5879003818BF01201C
S214010E8002F046FBA0E700BFE0220020F02200208F
S214010E90F7B5144F7C68A3790C331C4400F0B6FBFD
S214010EA06679E6B116F0020519D136EA000316D1C5
S214010EB0E378B4F80920B4F80710A07901962479EC
S214010EC0009401F02BFD002808BF0C252A4642F2AB
S214010ED04101B86803B0BDE8F0401DF04ABF1125D6
S214010EE0F4E700BFE022002010B50D4C626893794C
S214010EF00C331A441179D078003918BF0121003813
S214010F00B2F8073018BF0120B2F8052001F0A6FD9F
S214010F1042F242010246A068BDE810401DF029BF1A
S214010F20E02200202DE9F041164E7468A3790C33B7
S214010F301C44B4F803801FFA88F0FEF787F80746CA
S214010F40E8B1A27961791DF035F90546B06802234A
S214010F502A4642F27A011DF0CAFE83790344A3F8B9
S214010F601280FFF793FD45B9A37933B138461DF0DA
S214010F7044FB014638461DF017F8BDE8F08102250E
S214010F80E4E700BFE022002038B5134B00229D683D
S214010F904FF617410A232846AC791DF0A8FE04F047
S214010FA087FE0C342C44E08004F088FE208100206B
S214010FB004F05EFE60811CF08BFFC822022104F063
S214010FC063FEA081002004F013FFE0812846BDE8FF
S214010FD03840FFF75BBD00BFE022002010B5084C8B
S214010FE06068837918440F3000F0E6F90023A068A2
S214010FF01A46BDE810404FF628411DF078BE00BFE6
S214011000E022002020F00403202B0AD01D289FBFD9
S214011010054B23FA00F0C04300F0010088BF012011
S21401102070470020704700BF66002D202DE9F34170
S214011030804601200F46164620F0DAFD0446019050
S214011040D0B34279EE2142F00102427113221DF023
S21401105061FE01981B4C837994F84A200C330344B3
S214011060DA70D4F84B2039465A60B4F84F201A810A
S21401107094F857209A7294F85220DA72002294F962
S21401108055509A7394F8562005EB8505C2F38112E4
S2140110906D00DA739D8194F8532083F811801A74D9
S2140110A0B4F848201E755A8232461EF043FE0446A6
S2140110B030B901A820F066FD204602B0BDE8F081F7
S2140110C0019CF9E71C2200202DE9F341804601200E
S2140110D00F46164620F08CFD0446019090B34279E7
S2140110E0152142F0010242710D221DF013FE0198F6
S2140110F0174C8379B4F84A200C330344A3F8032031
S21401110094F8522039465A71002294F955501A72B1
S21401111094F8562005EB8505C2F381126D005A72CC
S214011120DD8094F8532083F80B809A72B4F8482037
S2140111309E739A8132461EF0FDFD044630B901A821
S21401114020F020FD204602B0BDE8F081019CF9E7C1
S2140111501C2200202DE9F341804601200F46164649
S21401116020F046FD04460190B8B34279162142F0BC
S214011170010242710E221DF0CDFD01981A4C8379B1
S214011180B4F84A200C330344A3F8032094F85720FC
S21401119039465A7194F852209A71002294F95550A2
S2140111A05A7294F8562005EB8505C2F381126D003C
S2140111B09A72A3F8075094F8532083F80C80DA72D9
S2140111C0B4F84820DE73A3F80D2032461EF0B2FDB7
S2140111D0044630B901A820F0D5FC204602B0BDE88F
S2140111E0F081019CF9E700BF1C2200202DE9F043A5
S2140111F0374D85B095F85830013BDBB2032B4CD800
S214011200344A402052F82370002395F85480039303
S214011210D5F85C9000F09AF995F856300646DB0052
S21401122000B34A46414603F0F8000AF08FF92A4E09
S21401123095F856306421DB003046CDE9008995F8F3
S214011240532003F0F8030AF041F9044640B302467E
S2140112503146FE20B847014620B303A8A04420F03B
S21401126075FEE5E76421CDE9008995F853201A4813
S21401127003F0F80309F0F0FF0446002004F0BCFB7D
S214011280FF2E17D0144922460020B847014688B1E0
S21401129003A820F05BFE039B33B905B0BDE8F083DD
S2140112A00646EAE7FF26E8E703A820F08CFCFFF7EE
S2140112B0EDFBF0E703A820F065FC95F85830022B0B
S2140112C0EBD10721B5F84A001EF009FFE5E700BF9C
S2140112D01C2200201C8D0300D2430020F8B50746CF
S2140112E001200D46164620F083FC0446C0B10622B6
S2140112F00C211DF00FFD691EC9B2032988BF00220B
S214011300A37998BF074A03F10C0398BF525C2344A4
S21401131020469F80DE70DA719A71FFF7B7FB0120D5
S214011320F8BD00BF2C8D0300F8B5FFF7E9FB837904
S2140113301844B0F80F60B0B2FDF788FE0446C0B19D
S2140113401DF05BF90138C0B2032814D800270B4BF7
S2140113501C5CFFF7DBFB054604233A4642F23001EC
S2140113601DF0C5FCA8790C302844C680047244726E
S214011370F8BD0227EDE700242746EAE72C8D030097
S2140113800B4610B50649074C0622002818BF214611
S214011390184627F023FAB0FA80F0400910BD00BFC6
S2140113A09B440020A1440020024B1A6802609B88DF
S2140113B0838070479B4400200D4B82B028B10268A1
S2140113C01A6082889A8002B070470A4A916CD26C81
S2140113D0CDE900129DF80220BDF800109A70BDF804
S2140113E005201980A3F803209DF807205A71EAE723
S2140113F09B4400200080E00F10B5044619F0BAFEA9
S2140114002268064B1A60A2889A80054A137843F030
S2140114100103137019F0B4FE012010BDA144002091
S2140114209A440020024B1878003818BF01207047F4
S2140114309A440020024B1A6802609B88838070479A
S214011440A1440020024BD86808B1FBF745BF70479E
S214011450F80F0020002310B5314A02F10C0151E8C3
S214011460004F8C464CE800310029F6D10443A30214
S21401147001D503F013FB200101D504F0A5F8002CDB
S21401148001DAFFF749FB610001D501F057FCA20024
S21401149001D5FEF7ABFFE30007D5FCF7F7F920B956
S2140114A04FF080511F481EF002FF600107D51DF066
S2140114B070F920B94FF080611A481EF0F8FEA101BC
S2140114C005D51CF0FEFCFEF75BFF1BF018FDE201E4
S2140114D008D502F0A7FE072804D14FF08071114805
S2140114E01EF0E5FE630201D5FCF718FE200201D5C9
S2140114F0FFF7E8F8E10501D5FEF7AEFEA20507D530
S21401150000F06EF920B94FF4007106481EF0CFFEC8
S214011510630503D51DF0E9FB1DF0E8FB10BD00BF18
S214011520F80F002004100020014601481EF0BFBE3F
S214011530F80F0020C043044A52E8003F034042E847
S21401154000310029F8D17047F80F0020014B1B68C5
S21401155018407047F80F002010B5044BD3E9044239
S21401156020431143C3E9040110BD00BFF80F00205A
S214011570F8B51E4F05463B680024002B02DAFFF73C
S214011580B3FA30E01A4E4CF20C000021FFF7E4FFEC
S214011590346025B16B683B60AB6803B133604FF0D4
S2140115A00040FFF7C1FF33680BB9124B3360124B93
S2140115B01248BB6005F02EF9FFF78EF92846F4F7BE
S2140115C0C3FD044678B92DB1B5F90E10B5F90C0076
S2140115D004F0F6FB1CF088FC09F00CFE04F05CFC41
S2140115E004460028CBD02046F8BD00BFF80F0020E7
S2140115F0F0220020B20D002045140100FC0F00204F
S214011600014BD3E904017047F80F0020054B1B6915
S214011610DA054CBF032001201B0548BF40F004003B
S214011620704700BFF80F002038B505460C4603F09A
S214011630CFFE0B4AAB7A52F8200052F82330094A03
S2140116400344A3FB0401084B090241EA10610002AE
S214011650C01841F10001002318F0B8FE38BD00BFE4
S214011660788D030040420F003F420F0001461B22C7
S21401167030B501F03F033F2B25D023B3013A4FEAA3
S2140116805101F6D1134601242649414004FA02F5D8
S2140116900D4202F1010218BF0133202A11D0022B9C
S2140116A0F4D1C3B2C0F307229A4206D1C0F307426F
S2140116B09A4202D1B3EB106F05D0002204461146C0
S2140116C007E0022BEDD0002025E0102901D10B2ADE
S2140116D0F9DC04F00305013D012D01F1010198BF7C
S2140116E001321F294FEA5404EFD1182AEBDC810E90
S2140116F00022052001F00304013C012C98BF0132B1
S21401170001384FEA5101F5D1012A04DD23B9022837
S214011710D4BF0020012030BDDA0748BF01305B0886
S214011720F4E700BFD6BE898E024B1A6802601860C5
S214011730704700BFF42200200022024B1A6000F01E
S214011740F5B900BFF42200202DE9F04706461CF04B
S21401175047FC044608B901203AE045784DB919F02E
S21401176009FD237863701D4B1B682570636019F0B3
S21401177007FD0127DFF8648094F80190B9F1000FA6
S21401178007D12378002BE6D04FF40070FBF7A4FDB9
S214011790E1E799FAA9F5B5FA85F507FA05F55FFACD
S2140117A085FA636833B929EA05056570D8F800300B
S2140117B06360E1E79B681BB963681B686360F0E7D9
S2140117C0514630469847012804D163681B68636018
S2140117D0BDE8F0870228EFD10020F9E7F4220020C7
S2140117E070B500250D4EFEF793F8A84201D80120EA
S2140117F012E03068FDF72AFC50B93468FEF788F825
S2140118000134B4FBF0F303FB104401353460EAE71E
S214011810FFF79AFF0028F0D170BD00BFF822002024
S214011820F0B505461D4B8FB0019103AA03F12806BA
S214011830144618685968083303C4B3422246F7D1E0
S21401184019889B782846A37021801CF0B9FB830673
S21401185002D401990C682CB101A820F093F900205C
S2140118600FB0F0BD8F7907F10C000A5C0E182A2A1A
S21401187007D907230B547270284601221EF0CDFDAE
S214011880EDE7CB79DB1B02F138076F4417F82C7CA8
S214011890DBB2013BBB42ECD10120E1E7308D030016
S2140118A070B505460C46FFF7BBFFC8B10D4B1E6869
S2140118B06EB90720A3790C33E15CE218E05451704D
S2140118C028462146BDE8704001221EF0A6BD736879
S2140118D00BB93668ECE72146284698470028F8D029
S2140118E070BD00BFF422002037B504460D46202106
S2140118F01CF068FB294620461CF0D9FB2146012036
S2140119001EF04DFE214600201EF049FE0120002358
S2140119102146034A00901EF0D3FD03B030BD00BF40
S2140119208F03030030B585B00C46039205461EF0C2
S214011930C1FF80F001002946C0B21CF038FB012C23
S214011940039A06D02146284605B0BDE830401EF071
S214011950B7BFC36829469A79002013441022DB8A50
S2140119600092034A1EF0ACFD204605B030BD00BF14
S214011970C108030037B504461EF0E1FF03212046E7
S2140119801CF066FB0025034621460120034A00950C
S2140119901EF096FD284603B030BD00BFB307030016
S2140119A02DE9F347074602200E4620F021F90546A9
S2140119B000284BD0B37900210C333344B3F80480AC
S2140119C0B3F806A0B3F808901EF070FD0221044695
S2140119D038461CF03DFBA4F804806081A4F806A0FC
S2140119E0A4F808901FF021FF08F10108B0FBF8F3F6
S2140119F003FB18080223A4F80280637006F10C02A8
S214011A0005F10C0305F1340153F8040B8B4242F83F
S214011A10040BF9D11988012011809B7839469370FF
S214011A20AB79B3711CF0C3FA1022C66063893946DC
S214011A3001200092064A1EF043FD38460B22294635
S214011A401EF0EBFC002002B0BDE8F0870720FAE7A5
S214011A50C10803002DE9F34104460F460146012063
S214011A601CF0A5FA0121064638461EF01FFD054664
S214011A7000F1010802214046FDF75CF9D5F8013076
S214011A800221C6F812306B792046B3751CF0E0FAD5
S214011A9039460646E880072220461EF0BEFC202373
S214011AA02146009301203346034A1EF009FD00201B
S214011AB002B0BDE8F08100BF8D080300F7B504460B
S214011AC00D46014601201CF072FA50E8003F43F42F
S214011AD0806340E80037002FF7D120461EF0EAFE6B
S214011AE0002814BF0E21082128461EF0DFFC0646FA
S214011AF0FFF786FDC6F80510FFF782FD0822294686
S214011B00C6F8010020461EF088FC032120461CF082
S214011B109FFA21460346044A012000971EF0D0FC96
S214011B20384603B0F0BD00BFB707030008B5054847
S214011B30054A06491EF02EFEBDE808400148FFF79B
S214011B40F3BD00BFFC2200207B090300B11C01008D
S214011B50F0B58B7904460C33CD18CB5C0E46023BB0
S214011B6085B00F2B00F29C80DFE803F0089A9A9A62
S214011B709A729A829A9A23639A9A9A4669781CF07C
S214011B8096FA202120461CF01DFA214601201EF05F
S214011B9006FD214600201EF002FD012500232146F8
S214011BA01846404A00951EF08BFC304604F024FD92
S214011BB02FE0AB886A8869781CF0A4FC20461CF0EC
S214011BC007FA830708D4314620461EF0B8FE0121E5
S214011BD020461EF00CFC1CE0214601201CF0E7F913
S214011BE0314B82689A4203D1214601201EF0A7FCA0
S214011BF0304604F001FDEAE7AA786F7808460392BA
S214011C0004F0FAFC162F039A06D1032120461FF092
S214011C107DF9012005B0F0BD2146012003921CF09C
S214011C20C6F98368039A002BF3D003212046984710
S214011C30EFE7014601201CF0BAF907466A783046FC
S214011C40039204F0D9FCBB68002BE2D0039AECE7C0
S214011C50014601201CF0ABF907466A78304603922C
S214011C6004F0CAFCBB68002BD3D00421039ADDE73D
S214011C70014601201CF09BF90C4B82689A4294D1D4
S214011C80D5F80120D5F805302046FEF751F8304644
S214011C9004F0B2FC214601201EF051FC022197E718
S214011CA00020B7E733090300B3070300B7070300B3
S214011CB02DE9F3410C4606461EF0FCFDA37980464D
S214011CC0002868D00C33E718E35C012B40D0082BC2
S214011CD038D0002B52D1798930461EF09AFC7B8889
S214011CE0B9887A788B4294BF05460025092992BFA8
S214011CF0082301F1FF339BB29A4288BF00250846AC
S214011D00002AFB883A8908BF00251EF018FB38B95F
S214011D10204604F071FC4546284602B0BDE8F08135
S214011D20002DF5D0314600201CF041F91022C46088
S214011D307B890092013B1C4A9BB2314600201EF073
S214011D40BFFBE9E7214630461EF059FD0125E3E7D2
S214011D503046F9881EF05DFC0546781C1CF0D2F86A
S214011D600028D5D0002DD3D0314600201CF01FF915
S214011D702023C4600093FB880C4ADEE721463046E8
S214011D801FF0D6F90028E1D12146304602B0BDE861
S214011D90F041FFF7DDBE23441B7B0E2BD2D021463C
S214011DA030461FF0B4F9EDE7251901004508030098
S214011DB038B504460D461CF00BF9420709D52846EE
S214011DC004F01AFC4FF400612046FDF769F9002083
S214011DD038BD20461CF0FCF8830703D5284604F0DE
S214011DE00BFCF4E729462046BDE83840014A1EF0C0
S214011DF065BC00BF7519010013B5044601911CF0BE
S214011E00DFF800F018001028019906D12046064A8E
S214011E1002B0BDE810401EF051BC084604F0ECFBD1
S214011E200C2002B010BD00BFA1190100014A1EF02E
S214011E3045BC00BF551A010070B504460D46014663
S214011E4001201CF0B4F8064620461CF0C1F8020733
S214011E5008D5284604F0D0FB40212046FDF720F99E
S214011E60002070BD33685B0503D5284604F0C4FB2B
S214011E70F6E729462046BDE87040014A1EF01EBC22
S214011E80BD1A010037B504460D461CF099F800F05E
S214011E90300010284FF0020030D11FF0A9FE78B3B1
S214011EA00221437943F00203437183790C33C2184C
S214011EB0C15401465570204601221EF0AEFA162185
S214011EC020461CF0F4F8202120461CF07BF8214621
S214011ED001201EF064FB214600201EF060FB204618
S214011EE01EF021FC012120461CF0B2F80346012019
S214011EF021460090034A1EF0E3FA002003B030BDED
S214011F000720FBE7E3070300002273B50E461146E0
S214011F1004461CF0B9FE054638B14FF40051204680
S214011F201CF05BF8284602B070BD012231462046FF
S214011F301EF073FA032120461CF08AF82146034658
S214011F40024A012000951EF0BBFAEBE7770A030070
S214011F5008B50749002207481EF01CFC0548FFF794
S214011F60E3FBBDE808404FF4C0200021FFF7F4BAB8
S214011F70C30A03001C2200202DE9F8430546FDF79D
S214011F8079F8C0B2FEF76CFB044660B1837A990615
S214011F900BD50022284611461CF076FE28B1A37AFE
S214011FA06FF34513A372BDE8F883A37A9A06FAD5B0
S214011FB028461EF047FB4028F5D0002128461CF095
S214011FC047F8A38807461B1A1BB2002BEBDC19F057
S214011FD0D1F88046284694F808901BF0F9FF830450
S214011FE01BD402201FF004FE0646B0B14FF4005188
S214011FF028461BF0EFFF1A2130461EF057FA3146ED
S21401200080F801900C4A28461EF058FB28B9E18852
S21401201041B9A37A61F34513A3724046BDE8F8437C
S21401202019F0AEB8A3880B449BB2DA1B12B2002A91
S214012030F9DDA380F1E700BF091F01002DE9F0419A
S21401204088B006460D461BF0C3FF00F4C060B0F52D
S214012050C06F06D102201FF0CBFD044610B9072041
S21401206051E00024314601201BF0A1FF0746AB7961
S21401207000F112010C332B4403F10F021F3352F807
S214012080040B9A4241F8040BF9D1AB790C211A1DC5
S2140120900E33EB710323D2B2AA710C32AB5405A8EE
S2140120A005EB020803F00CFF079B0DF1140CBCE8CE
S2140120B0030008F10B02C8F80B00C8F80F10C8F8A7
S2140120C013301CB36379214643F00203637140F277
S2140120D00333E3800A2330460022E3731EF09DF9A2
S2140120E04FF480713046FD601BF06CFF03213046D3
S2140120F01BF0AEFF00240346314601200E4A009431
S2140121001EF0DEF9204608B0BDE8F08120460392B5
S21401211004F072FA3046039A08F1130301211CF009
S214012120EAFB3046162229461EF077F93046FC6057
S2140121301CF0FDFBDAE700BF910B03002DE9F0412F
S21401214088B00D4604461EF01DFDAB7906460028F4
S21401215000F09C800C33E95CEA180339082900F288
S2140121603281DFE811F00900300130017F003001D3
S214012170300130015C007900D2F80100D2F8051078
S21401218003ABB2F8097003C302F1130301210B324A
S21401219020461CF0B0FB4FF0030804230C21EB7320
S2140121A005A885F8068003F08BFE05AB03CB2B460E
S2140121B0079A28616961204643F8182F002105F126
S2140121C010021CF098FB214600201BF0F0FE03468F
S2140121D003AA478303CAC3F81200C3F816102046A1
S2140121E00821FCF75DFF4FF4007120461BF0EAFE64
S2140121F020461CF09CFB0C22294620461EF00DF9B9
S214012200414620461BF024FF0346002021466F4A24
S21401221000901EF055F9304608B0BDE8F0810B225B
S2140122202946EA54204600221EF0F7F818F0A2FFCD
S21401223005464FF4407120461BF0C4FE4FF4805112
S21401224020461BF0C7FE284618F09AFF4FF480611F
S21401225020461BF0C2FEDEE7284604F0CDF94FF417
S2140122600071F5E7062128461EF020F920461CF0ED
S214012270BCF92946002220461EF0CFF820461CF065
S2140122807CFB214600201EF05AF9C4E72B441B7B39
S214012290043B072BBFD801A252F823F0BD22010050
S2140122A0E522010045230100172201001722010043
S2140122B017220100172201005B2301004FF4007171
S2140122C020461BF07FFEAA7920460C322A4402F1F2
S2140122D00903002101321CF00EFB284604F08CF99C
S2140122E0012698E74FF48060FFF730F90646B0B153
S2140122F000274FF4006120461BF064FE2046CDE91E
S2140123000577FCF7B7FE064620461BF057FE394612
S2140123100346009505AAB0B21DF054FCE0E721463D
S21401232001201BF044FE00F1120120461CF03AFB8E
S214012330062128461EF0BAF83246294620461EF0E7
S2140123406CF8CDE7284604F057F9214601201EF027
S21401235026F920461CF011FBC2E718F00BFF0646D3
S2140123604FF4007120461BF02DFE4FF4805120469D
S2140123701BF030FE304618F003FF4FF4C0612046D4
S2140123801BF02BFE0022294620461EF046F8214669
S21401239001201BF00CFEC26805468AB19379012123
S2140123A00C331A4402F1130320460B321CF0A3FA35
S2140123B020461CF0BCFA16222046E9681EF02DF8CD
S2140123C00023EB608CE7002625E700BF910B030096
S2140123D008B50749002207481EF0DCF90548FFF753
S2140123E0A3F9BDE8084001200021FFF7B5B800BFFA
S2140123F03D2101000823002013B5044601911BF07E
S214012400DFFD00F018001028019906D12046064A83
S21401241002B0BDE810401EF051B9084604F0ECF8D1
S2140124200C2002B010BD00BF3D20010038B50C469F
S2140124308B7905460C331944E35C142B03D0152B1A
S21401244010D0002038BD01311EF079FC224615213E
S21401245028461EF0B1FC0822214628461DF0DDFF65
S2140124600120EFE7014601201BF0A1FD0A4B82681F
S2140124709A4203D0204604F0BFF8F1E7A179284636
S21401248021440D311EF05BFC204604F0B5F82946C8
S21401249001201EF054F8E3E7E90D030037B50446C2
S2140124A00D460A4614211EF087FC082229462046BE
S2140124B01DF0B3FF032120461BF0CAFD3022034660
S2140124C0009221460120034A1DF0FAFF002003B0C6
S2140124D030BD00BFE90D030008B507490748084AA3
S2140124E01EF058F90548FFF71FF9BDE808402020FF
S2140124F00021FFF731B800BF2D240100142300206E
S214012500ED0D030037B5ADF800208DF80230009BC5
S214012510044601A801931EF0FCFB9DF806209DF8D9
S21401252002300D469A4205D1BDF80420BDF80030B0
S2140125309A4205D0284604F05FF8122003B030BD59
S21401254020461BF08FFE9DF80230827A9A4209D10E
S2140125508288BDF800309A4204D1284604F04CF82F
S2140125600020EBE7694620461CF075F9294620460F
S214012570014A1EF0A3F8E1E79D2401002DE9F04190
S21401258016461A4307460C461D46BDF8188005D167
S2140125902046BDE8F04111461EF07CBC414620466F
S2140125A01EF026F878B1214638461BF000FD402380
S2140125B08674C5742146069338464346BDE8F04105
S2140125C0024A1DF07DBFBDE8F08100BF570F030032
S2140125D073B504460E461CF00DF82021054620462C
S2140125E01BF0F8FC20461EF038FC2B7800EA13108E
S2140125F0C3F3030318401EF026FC054650B93046C7
S21401260003F0FAFF0022294620461EF043FC002074
S21401261002B070BD20461BF0F0FF03F009F9A84296
S214012620EDD0204600211BF01FFE162130461DF07E
S2140126303DFF022231464570857020461DF0EDFEB5
S214012640032120461BF004FD40220346009221464A
S2140126500120024A1DF034FFD9E700BF0D0F030029
S21401266010B5044600201FF0C3FA014628B12046E3
S214012670BDE81040024A1EF021B8072010BD00BF79
S214012680D1250100F7B505460E46014601201BF08F
S2140126908EFC036813F0F00F03D0294601201DF0CD
S2140126A07EFF28461BF0A6FFB3790C3333445F78D0
S2140126B09B781F400378C3F3030000EA13103840E9
S2140126C01EF0C1FB044668B928461EF0C6FB38401A
S2140126D01EF0B9FB044628B928461BF08EFF03F00E
S2140126E0A7F80446284600211BF0BEFD17213046F8
S2140126F01DF0DCFE022231464470847028461DF02F
S2140127008CFE032128461BF0A3FC402203460092C0
S21401271029460020024A1DF0D3FE03B0F0BD00BFDB
S2140127200D0F0300094A92F8663092F83100253BF6
S214012730DBB20133DBB2032B28BF002340FA03F1DF
S214012740C907F6D5253382F8663070472023002066
S21401275010B5084C81B204F108001CF0C0FA012043
S21401276002F028F928B963691A075CBF43F004032D
S214012770636110BD20230020012303FA00F0C0434B
S214012780064A02F1240353E8003F034002F1240CF9
S2140127904CE800310029F4D1704700BF2023002007
S2140127A00123074A03FA00F002F1240353E8003F2D
S2140127B0034302F1240C4CE800310029F4D17047A0
S2140127C020230020034B5B6A13F0060F14BFF12091
S2140127D0E220704720230020F0B5174C87B0606BCD
S2140127E008B3A76BD7B1BE79FCF744FC0223FF21DF
S2140127F00C36BA5DCDE90431BD1995F823300021B8
S2140128005B090393AB8BD20902936B8B80B2019366
S2140128102B8B009305F108031DF0E6F8606BFDF7BE
S214012820D3F800236363A06B18B103F0E5FE002321
S214012830A36307B0F0BD00BF2023002038B50C4DC0
S2140128400446E86B18B103F0D7FE0023EB6300F0F3
S21401285077FF0848FEF7B8F8FFF7BEFF21460448A1
S21401286002F000F9BDE8384003481FF08BB900BFFD
S214012870202300202823002040230020034B586AF1
S21401288010F0050001D1FFF7D9BF704720230020C3
S21401289038B54FF010131C4C0122E3624FF4E0638D
S2140128A0238647F6FF730025A4F8603094F8673056
S2140128B0656262F3030384F86730144A144BC4E973
S2140128C01632FEF7A3FE4FF48073A4F84830114B7E
S2140128D084F85600E361104B65611A68294613783F
S2140128E0527804F1080013445B106376A4F8B850DC
S2140128F0A4F8B4501CF0F3F9294604F19400BDE89D
S21401290038401CF0ECB900BF202300205555550077
S214012910D6BE898E29310100F02200202DE9F04132
S214012920234C1F46636A1546DA070E469DF81C803F
S21401293028D4F0B10120FFF733FF9DF818300720A7
S214012940DB071AD5FFF72CFFB8F1050F84F8548082
S2140129501FD102F05DFAB8B194F8673068F303034B
S214012960012084F86730A685E58584F83070BDE8D7
S214012970F0810120FFF700FFDFE7FFF7FDFEE3E749
S21401298002220FE00020F2E76D00ADB2B54228BF8B
S214012990354694F854309907F2D413F0040F0CBF5F
S2140129A00122032294F8673062F30303D8E700BFDD
S2140129B020230020024B586AC0F38000704700BFF6
S2140129C02023002010B518F0D5FB0446FFF7F2FFD0
S2140129D040B1074A536A23F004035362FFF74EFFE0
S2140129E0FFF7FAFE2046BDE8104018F0C9BB00BF4D
S2140129F02023002010B5144C626A12F0010218BFA1
S214012A0094F85420FFF7D6FF10B194F855301A43C6
S214012A1002F00502052A13D102F0FAF980B994F8FA
S214012A20673003F00F02012A05D1032262F3030384
S214012A3084F8673010BD012262F3030384F867301F
S214012A40BDE81040FFF76EBE20230020024B586AF7
S214012A5000F00100704700BF2023002073B5424CF0
S214012A601646626A02F0010370B95BB118F082FB88
S214012A70636A019023F001036362FFF7FFFE01988A
S214012A8018F07EFB002036E0002BFBD1930710D513
S214012A90E36B1BB30320FFF76FFE0420FFF76CFE0A
S214012AA01020FFF769FE002384F845300123A4F8BF
S214012AB0463094F8303003F0FD03012B16D018F0A1
S214012AC059FB0546CEB10E20FFF76AFE1EF0E6FE64
S214012AD042F2107202FB0600A06211E002201FF013
S214012AE087F8E0630028D5D1072004E0FEF79AFCBA
S214012AF00028E4D1122002B070BD0E20FFF73CFE84
S214012B000020FFF74DFE636A13F0040329D140F25B
S214012B107122E364E38DE260023B534323611EF0BE
S214012B2084FE0322B0FBF2F202EB4202831A253343
S214012B3084F86630FFF75EFF1EF0B0FE6060206529
S214012B40B4F8B800002808BFF520FFF701FE074BD0
S214012B5005481A681378527813445B10637601F0BF
S214012B6033FF28468CE700BF20230020F0220020F8
S214012B70F8B53F4C054602F009FDB4F8B8302BB95C
S214012B80A36813F4601F08BFA4F8B83038480121C1
S214012B9001F068FF374BE361636A580426D41EF0E0
S214012BA07DFE0DB9E368184440F27127E38DE66CAB
S214012BB01D1F7D43AE4207FB03F32CD2216DB4F8F3
S214012BC02CC0A1F5967207FB0C222189E768121A20
S214012BD0394491421FDA9B1B60609342D4BF236144
S214012BE022612348BDE8F84001F0EEBEA26A6168A2
S214012BF0521A002AD3DA23F0010343F40043636236
S214012C00FFF73CFE4FF08040FAF766FBFFF7D2FE77
S214012C100028C4D1F8BDA3F5AF732361FFF7EAFE20
S214012C2040F27121A38D226DAE4201FB03224FF0CB
S214012C300003E364104B626022651A680BD3616A75
S214012C40137B4907617E4CBF927912780B449342FD
S214012C500BDC6376C5E7636A117B5B07637E4CBF5B
S214012C60D27952785B1A9342F3DA6276B9E700BFFB
S214012C702023002029310100F0220020012873B50D
S214012C80014645D002284DD0002851D1294CC820F4
S214012C9094F8673094F8662003F00F031BF013F9DD
S214012CA003F0A6F8B4F96020824205D0A4F86000CB
S214012CB002F0DEFEA4F862001F4802F045FA002288
S214012CC01146104602F028FE66681EF0E7FD024631
S214012CD0FFF778FDB61AB6F5FA6F05460ADC01F07D
S214012CE059FEA0F5AF712846627E02B0BDE870407D
S214012CF002F0B6BB6168019101F04CFEA0F5AF721F
S214012D002846637E019902B0BDE8704002F0E2BB3E
S214012D1001F0DAFF074B83420AD102B0BDE87040EA
S214012D2002F034BC002002B0BDE87040FFF720BFBF
S214012D3002B070BD202300207823002013B5114C6B
S214012D4018F018FA236A01930023236218F018FA80
S214012D50019B5BB9636A1B0406D51CF0BBF858B12E
S214012D60636A23F40043636202B010BD01A81EF03B
S214012D702AFF1CF0B4FBEBE74FF08040FAF7ACFA01
S214012D80F2E700BF202300202DE9F74FB0F100093C
S214012D908B4608BF00213F4C9046A66B1F46B5796F
S214012DA09DF830300C35725D06EB050A61F345126D
S214012DB07255626A520654D518463946019320F078
S214012DC071FF019B18B9002003B0BDE8F08F3A6887
S214012DD0CAF80820BA88AAF80C20725D63F3C712F5
S214012DE07255636ABBF1000F48D043F40073636207
S214012DF0294B1D681EF052FD01460AF10E00A84738
S214012E00264B1B68B9F1000F3BD15978022002F01E
S214012E10CBFA94F8766001F057FF214BC361A06BA3
S214012E2002F0FCF93046B8F80810D8F8005002F065
S214012E306BF92844B9F1000F29D1033E012E8CBF4E
S214012E400425062540F2712303FB0500206498F84B
S214012E500530012084F84430636A43F0200363623E
S214012E60B2E7725DB3EBD21FADD1062239460AF145
S214012E70080025F0B3FC0028B3D0A4E723F40073C0
S214012E80B5E70020D97902F08FFA0126C7E70225B7
S214012E90D8E700BF2023002008210020F0220020D0
S214012EA0B13C010028B1A0F11003F02B03D9122088
S214012EB070474FF48070024BA3F84800002070471B
S214012EC0202300207FB5104C064694F845502DB1BE
S214012ED00020013D84F8455004B070BD0B4B022024
S214012EE01B680391597802F05FFA94F83030314646
S214012EF0CDE90053039A0323E06B1EF04AFAE06B18
S214012F0002F08CF90120E7E720230020F0220020C0
S214012F1010B5204C636A19073AD508B3DA061BD5F3
S214012F20B4F84630012B17D95B080420A4F84630C4
S214012F30FFF722FC1020FFF71FFC1EF076FCB4F80A
S214012F404630B0FBF3F202FB130084F84500032081
S214012F50BDE81040FFF710BC0420FFF721FCE9E7AD
S214012F60DB0311D5B4F84630B4F8482093420BD2AF
S214012F705B009BB2934228BF13461020A4F846304C
S214012F80FFF7FAFB0420D6E71020FFF709FCF9E764
S214012F9010BD00BF202300202DE9F04F0027244C50
S214012FA089B0236C8B46D4E90D852221AE79824601
S214012FB00793C4E90D7702F0A7F8079B0C36963302
S214012FC01A18079202F0E2FAFF23616ACDE904AB10
S214012FD0C1F3402102930391A95D05EB0609C909D6
S214012FE009F10803079A404601910093394609F111
S214012FF00E03FCF763FD284603F0FEFA636A23F02E
S2140130002402DB07626205D4012009B0BDE8F04F57
S214013010FFF714BC0120074B1A6813785278134443
S2140130205B10637609B0BDE8F04FFFF7A1BD00BFA6
S21401303020230020F022002008B50B4B5A6A920686
S21401304006D593F944100120BDE80840FFF7A4BF58
S2140130500320FFF7A5FB054B01201B685978BDE847
S214013060084002F0C5B800BF20230020F02200204F
S21401307038B502F08BFA104C104BE36101F090FC6E
S214013080B0F5967F0CDDFFF79DFB054601F082FC4F
S214013090627EA0F5AF712846BDE8384002F0E0B97F
S2140130A01EF0FCFBE36C62689B1A0344E364012098
S2140130B0BDE83840FFF75CBD202300202931010020
S2140130C010B581790C3101440B79DB0702D44FF03E
S2140130D0FF3010BD8B7ACA7A03F00F04082CF6D89D
S2140130E0062C02D8901F1F28F1D8012C0FD10C2ACC
S2140130F0EDD10B4AD80992F83020B2EBD31FE6D1B6
S2140131001231FEF73DF90028E1D02046E1E7042C14
S214013110FBD1034B5A6A034B1340002BF5D1D6E77C
S21401312020230020080004002DE9F04104288EB079
S2140131301ED007D8032800F020810EB0BDE8F0416C
S214013140FFF79CBD431F012BF7D8053818BF012098
S214013150FFF7DEFE1EF0A2FB8D4AD36C51685B1AA8
S21401316003440120D3640EB0BDE8F041FFF700BD73
S214013170002503A84FF0FF31039501F093FE039855
S21401318080B101F045FF0398FFF79AFF082806462D
S21401319005D8804B13F8008018F0080F0AD103A851
S2140131A01EF0F0FC7A4B5B6A13F0060F0DD0FFF7AA
S2140131B05FFF0AE00728039C0DD12A462146744882
S2140131C000F086FB0546002DECD001200EB0BDE8D0
S2140131D0F041FFF79DBE6E4F7D6A15F0040511D0D4
S2140131E018F002050ED0A27901200C322244917A01
S2140131F0C1F380130093C1F3401102F10C03FFF7F2
S214013200C3FD05467B6AD80758D519064BD4A5B920
S2140132107B6A9A0740F1B68018F0010F0DD0204660
S2140132201EF0FEFA48B1A0790C302044817A0C30A9
S214013230C1F38011FFF746FE0546042E40F0A48038
S2140132407B6A13F0020F39D0534A04AB10685168F9
S214013250A67903C3127A0C3608201A702644FEF7A4
S21401326075F920B101222046B11D1EF06EFC002129
S214013270B379CDF831108DF81F30B37AADF835102B
S21401328003F00F0303F138026A4412F8282C8DF874
S2140132903010ADF82020062B17D8DFE803F01356C0
S2140132A0161666165200A1790C312144887A0C3123
S2140132B0C0F3801020F0F6FC0028A8D1204603F0C9
S2140132C09BF980E70D20FFF76BFAFF22B37A8DF8A2
S2140132D02B20C3F380138DF82230F3687F22CDF8BC
S2140132E02330338A8DF82C20ADF82730F3797279A4
S2140132F08DF8293000238DF82A30ADF82E30A379C9
S2140133001C211233A37120468DF82D201EF0DDFC02
S214013310A37907AE23440C330DAF324603CABA4233
S21401332018605960164603F10803F6D11068214665
S21401333018601A481EF00AFE4FF08040F9F7CCFFDD
S21401334041E70D20FFF718FABFE7D6F81230CDF89F
S2140133503130F38AADF83530E379063BE371B37A61
S214013360C3F3C0138DF83030AFE77B6A9B0444BFCC
S21401337042F00102ADF82020A7E70EB0BDE8F0410B
S214013380FFF75ABE042E99D018F0040F5BE700BF72
S21401339020230020658D03005B8D03004023002061
S2140133A02DE9F041054686B000200F461EF020FCB0
S2140133B00646002800F094804A4C636A5A0706D5F0
S2140133C03846FCF701FB0C2006B0BDE8F0816763C8
S2140133D06B780620DB0770D5FFF7E2F90DF11603CF
S2140133E00093414B3846D3F80080AA89698905AB1A
S2140133F0C047BDF8163030460393BDF81430EA1CBA
S21401340002932B8AA9780193EB8900936B7A1DF0BE
S214013410EFFFA66317F0AEFE636A064643F00403A9
S2140134206362324B1A689379D27913445B106376E0
S214013430AF7C052F84F8557042D101F0E9FC0028D5
S2140134403ED094F8673067F3030384F8673095F944
S2140134500230002BBCBF042384F85530636ADB07B7
S21401346026D4B4F8B800002808BFF520FFF770F995
S21401347040F27122E38DE2605343A3F5AF732361FB
S2140134801EF0D3F90322B0FBF2F202EB4202831ADA
S214013490253384F8663047F6FF73A4F86030FFF7EB
S2140134A0A9FA1EF0FBF9606020650E4801F08CFA5F
S2140134B0304617F065FE002086E7FFF75DF98DE7D9
S2140134C094F85530990709D413F0040F0CBF012264
S2140134D0032294F8673062F30303B6E70222F8E7A3
S2140134E0072071E72023002000210020F022002081
S2140134F010B500F0070420461EF0D6F9002808BFD4
S2140135000724024B83F8314010BD00BF2023002062
S2140135100E4A68B102F1240353E8003F43F48023C6
S21401352002F1240040E800310029F3D10020704761
S21401353002F1240353E8003F23F4802302F1240020
S21401354040E800310029F3D1F0E700BF2023002036
S214013550042808BF032008B5FF2101F0D5FD42F27B
S2140135600F7200F5AF70904298BF42F21072044B92
S214013570C3F898008CBFC3F89C00C3F89C2008BD14
S21401358020230020002310B5104CC4F8A8300123D6
S214013590C4F8A030B4F8B430ABB1B4F8B8100C48E5
S2140135A01BF09DFB012001F005FA38B9D4F8A030D4
S2140135B01A075CBF43F00403C4F8A0300120BDE83D
S2140135C01040FFF7C5BFF521E9E700BF2023002023
S2140135D0B42300207FB56D46264C01F0D7FF04F1D9
S2140135E058030FCB85E80F0094F876309DF80F202E
S2140135F0002163F303028DF80F2094F8AC2003F04A
S2140136000F03C8208DF80E201AF05DFC02F0F0FBC7
S214013610BDF90820824205D0ADF8080002F028FA6C
S214013620ADF80A00284601F08FFDFDF731F80022BB
S2140136300146042002F070F9D4F8B0501EF02EF9BD
S214013640636A2D1A13F4003FD4F8B06014BF11203A
S21401365010208C2D94F8A53006F5FA6105DC1A4683
S21401366001F0FEFE012004B070BD0A46314601F0AD
S21401367031FFF7E72023002073B5437901906FF3FC
S2140136800003437101221C2101A81EF05EFB48B114
S214013690144A01A8536A43F4806353621EF072FA17
S2140136A002B070BD019A104C537904F1180643F02C
S2140136B001035371937913440C33254603CDB54268
S2140136C0186059602C4603F10803F6D128681146A4
S2140136D0186006481EF03AFC4FF08040F9F7FCFDF2
S2140136E0DEE700BF2023002088230020402300209F
S2140136F010B5124C636A5B051FD501201EF078FADF
S21401370028B9BDE810404FF08040F9F7E5BDB4F8A0
S2140137106C3023F0600343F04003A4F86C30FFF7ED
S214013720ABFF04F1240353E8003F23F4806304F164
S214013730240141E80032002AF3D110BD20230020E5
S21401374010B50D4CD4F8A8308BB101F0BDFA04F1D8
S2140137508C03834201D101F019FF0021074801F0D3
S21401376081F90748FDF730F90023C4F8A830BDE811
S2140137701040FFF7BDBF00BF20230020AC23002070
S214013780B423002010B5044601F09EFA844201D10C
S21401379001F0FCFE094BB3F8B42032B9D3F89420FB
S2140137A012F4601F08BFA3F8B4202046FFF7C8FF35
S2140137B0BDE810400120FFF7DBB900BF2023002041
S2140137C02DE9F3413D4C064694F88B500F46904642
S2140137D065B3022D2ED13A4B3A4AF761CDE9003254
S2140137E094F87610D4F8843094F88820404601F096
S2140137F0CDFC0546FCF74CFF00220146042002F0F2
S2140138008BF8A6420AD1D4F8A8303BB104F18C005B
S214013810012101F027F92046FFF792FFD4F8843002
S214013820C4F8B03094F8883084F8AC30284602B03A
S214013830BDE8F081D4F884501EF030F82D1AB5F5A5
S214013840FA7FC8D3A6420AD1D6F8A8303BB106F112
S2140138508C00012101F006F93046FFF771FFD4F81C
S21401386084300021C4F8B03094F88830304684F8AB
S214013870AC3001F0F7F8D4F88430C4F8A870C4F876
S2140138809030637E84F8A530FFF794F80E4B1B68E2
S21401389090B1DB7994F8A52094F8760093423CBF6A
S2140138A002F1FF33DBB284F8A530FFF751FE07487B
S2140138B001F08AF80125B9E75B78EBE720230020C1
S2140138C055555500D6BE898EF0220020AC23002027
S2140138D02DE9F04F8B798BB00C3307931646079A78
S2140138E081468D18EA7A099104913AB909A81EF021
S2140138F049F9002420460BB0BDE8F08FB24C1EB942
S214013900D4F8A830002BF1D12B7B03F03F019B09A3
S2140139100293636A059123F400336362042EE5D8AB
S21401392001A151F826F000BF3D390100193A010006
S214013930ED3801002F3A0100293A0100FF2184F8F1
S2140139406E100021A4F87A104FF47F41A4F8761087
S2140139507F2184F8781094F86710BDF8080001F00C
S2140139600F07052FA4F86C0053D1E979042908BF85
S2140139700321032884F87510B8D010B143F400333E
S2140139806362531C059A9342B0DB002A53D06F7BC7
S214013990F90751D5D5F80E304FF00708C4F86F3047
S2140139A06A8A8A4B9A80AA7A636A12F040021DBF1D
S2140139B043F480536362012323F4805312BF84F8D7
S2140139C06E30636284F86E2017F01003089301D0FE
S2140139D0012E34D1636A1A0631D57C4994F86E00FB
S2140139E020F060F90390BB0705F10D0A49D594F85C
S2140139F03000AB7AB0FA80F2DB435209C3F3C0134E
S214013A009A421FD009A81EF0BDF84846FFF798FE57
S214013A106FE7C1F30301ACE7B4F86C30029903F029
S214013A2003039942ADD061E70A23A4F86C30029BE8
S214013A30002BA6D05AE7059F4FF00108C4E70123E3
S214013A400393D0E700380AEB080B18BF012059464C
S214013A50FDF796FC0028D5D0AB7AC3F3C01384F8E3
S214013A607C305AF8083008F10608C4F87D30BBF8F7
S214013A700420574B9A80B4F86C3043F00403A4F842
S214013A806C307C0711D5FCF703FE099B4E4A019367
S214013A904FF6FF730093014602F16F03042092F87C
S214013AA06E20FCF729FE08F10108380709D50AEB54
S214013AB008035B78444AC3F3031382F8773008F1AE
S214013AC00208414C079A049B0AEB08019B5804F133
S214013AD08402009294F856003A4619F0CAFF08EBA1
S214013AE000030693B4F86C3094F88A2023F0600340
S214013AF09BB2A4F86C303AB143F02003A4F86C30C2
S214013B0094F8893084F87630002E58D1039B002B28
S214013B1064D0029B626A022B01D191074DD54846BB
S214013B202C49C2F34042FFF74BFE0446089BB3FA0A
S214013B3083F84FEA5818BB0626D5069BDFF888B0EF
S214013B40534408935B8821499AB2052A98BF0023FB
S214013B50ABF87A30069B9BF8772012339BF86E0001
S214013B60069300F03DF978B1049B079A05F10C0025
S214013B7099589BF876B004911DF085FC089A034687
S214013B800499584600F03CFB039B002B3FF4AEAE75
S214013B9017F0400F18BF069B0B4F1CBF1AF80330D7
S214013BA087F87830012E1DD0033E012E40D8002222
S214013BB048460949FFF704FE23E03446B6E74FF0CE
S214013BC001080024B7E700BF202300208F23002030
S214013BD09D230020FD140300391503004FF0010852
S214013BE0039CA8E77B6A029A58070CD5D1071FD514
S214013BF0C3F3003300932A46314600202A4BFFF7D1
S214013C00C3F8044614E092071CD503F00303032B04
S214013C1018D109981DF004FEA0B1796A2248C1F3B3
S214013C200031FFF74FF9044610B1204BC9F81C309C
S214013C307B6ADB0702D5B8F1000F07D109A81DF092
S214013C40A1FF57E67A6AC2F34042B1E74FF0FF316F
S214013C5009A801F027F9AB79059987F86B306B79DC
S214013C600D3187F8793009A81EF01EFA099B1BB999
S214013C7001201DF0BDFF0990099800283FF43AAED7
S214013C80B7F86C207B6A02F06002202A0CBF43F46E
S214013C90806323F480637B6243796FF3000343718F
S214013CA0FFF7EAFC26E600BF8F2300205D15030020
S214013CB0042813B50C4611D007D803283CD021465A
S214013CC002B0BDE810401DF0E1BB431F012BF6D842
S214013CD0084602B0BDE81040FFF754BD002301A816
S214013CE04FF0FF31019301F0DDF8019848B101F082
S214013CF08FF90198FFF7E4F9082812D001A81DF002
S214013D0041FF00F0E1FF844201D101F03FFC204673
S214013D10012100F0A7FE204602B0BDE81040FFF7E3
S214013D200FBD019B9A79134493F91110074B93F831
S214013D307600FFF731F9E1E71120054B1B6859784A
S214013D4002B0BDE8104001F053BA00BF20230020A6
S214013D50F022002030B5104B1A6813795479D0F848
S214013D6090201AB10F2BB8BF0F230F3B018D456A68
S214013D700903B1FBF5F1A342D8BF631C1D1BB1FBC0
S214013D80F5F1B0F884201202B2FBF1F2224493421C
S214013D90A8BF1346437630BDF0220020034B5B6874
S214013DA0C01A034B80105843C0B27047DC23002072
S214013DB0AD1B4C9110B5094B5C7A94420BD19A7AA3
S214013DC0824208D1062203F10B0024F007FDB0FA67
S214013DD080F0400910BD0020FCE700BFDC23002076
S214013DE0F8B50E4C074623680D4616460BB900205B
S214013DF0F8BD1B6ADB030CD51DF03BFC0028F6D092
S214013E00A7722B68C4F80B30AB886672A4F80F3023
S214013E10EEE7BDE8F840FFF7CDBF00BFDC2300208A
S214013E2070B504460026224D05F118001DF0AAFEC5
S214013E300B202E602C7202F029FB3046FCF7F8FBB3
S214013E4030461DF0ACFB0CB304EBC40104EB81015E
S214013E508900334601220B2089B202F0C9FAE0B983
S214013E600B2002F043FB6860B8B1287AFCF7E0FB50
S214013E7098B920461DF093FB78B9024694246B68E6
S214013E80297A2033814203DC0024AA84204670BDAF
S214013E9004FB00F601309A51F4E70B2002F0F6FA23
S214013EA00020072468602872FCF7C2FBEEE700BF1B
S214013EB0DC23002038B58368044613B10830FCF7CC
S214013EC083FD0025D4F89000C4E907551DF0D3FA08
S214013ED0074BC4F890505868201A064C801060436F
S214013EE0C0B2FCF7D9FB29461AF0ABFE38BD00BFBD
S214013EF0DC230020AD1B4C912DE9F84F2F4E834655
S214013F003468884691461F46002C52D110F0010AAB
S214013F1039D017F02FF9002396F808C07168634569
S214013F2007DA0D462A6A9431920635D420232C46A8
S214013F302B6217F025F9002C3DD09DF83050236AEE
S214013F4005F01F051D431BF0020F18BF45F4004581
S214013F502562BAF1000F21D0236A43F4803323622D
S214013F600123A4F8763005230020A4F88430BDF898
S214013F702830A0606385BDF82C30C4F890002385F6
S214013F803460BDE8F88F1A46494640461DF00AFBE4
S214013F900028BED00B20F4E70133C0E73B68C6F823
S214013FA00B30BA88064B86F80A909A8086F8098004
S214013FB0D6E70C20E5E70720E3E700BFDC23002077
S214013FC0E723002070B517F0D5F80F4E0546326886
S214013FD01AB1136A13F4005404D0284617F0D0F827
S214013FE00C2070BD43F4042313624FF08070F9F780
S214013FF073F90121306800F035FD2846346017F06A
S214014000BFF82046EDE700BFDC230020074B1A7AF5
S214014010824209D994225B6802FB0030036A13F0DE
S214014020200F08BF0020704700207047DC230020C7
S21401403038B5FFF7EBFF044690B117F09BF8094B34
S21401404005461B68A34203D117F09AF80C2038BD29
S21401405020461DF0AEFA284617F092F80020F6E743
S2140140604220F4E7DC2300202DE9F84F0A9C06469F
S2140140700F4615469846002C00F0B680236A1805B0
S21401408000F1B4805388052B03D811252846BDE8D6
S214014090F88F6B78127803F01F0152EA012201D1E2
S2140140A05906F2D501202A1D04F14001FAF750FE07
S2140140B094F84030012BE8D994F83F30002266F39B
S2140140C0030384F83F30D5F80930DFF830A12363C5
S2140140D0234643F8342FB5F80D1004F10800A186E5
S2140140E0E97B9970FE2384F83B306B885B00636242
S2140140F02B7A5B0984F82E30697C2B7C627643EA46
S2140141000123A3853B4BBAF82410E36141F28833BF
S214014110C4E903330923636140F2F913914208BFEE
S21401412019461AF0DCFD012000F044FC28B9636949
S2140141301A075CBF43F0040363616B782E7813F0B3
S214014140200F14BF4FF496711E2103F01F0246EA9A
S21401415002264E435B0648BF06F5161604F1240BED
S21401416031465846FDF760FA6B7800F5A05913F012
S214014170200F14BF4FF496334FF4F05303EB49036B
S214014180616A236758461CF0C6F83744A7EB19271F
S2140141906760E0669AF8093020469AF80A201649C0
S2140141A01DF0FFF9B8F1000F22D01DF062F90646A6
S2140141B080B1C4F8900040461DF063F9054650B939
S2140141C0414630461DF05BF9054620B920461DF0F4
S2140141D053F95BE70725236A4FF0807043F4011318
S2140141E02362F9F779F851E71F254FE70B254DE7CD
S2140141F045464BE797170300E7230020DC23002002
S21401420013B5074C24680094FFF72EFF28B9204603
S21401421002B0BDE810401DF0D9B902B010BD00BF14
S214014220DC2300202DE9F04300278C4CDFF8388290
S2140142308BB0237A9F4211DA9423656803FB0755F6
S21401424042F220032A6A93432BD102201DF0D0FCB0
S2140142500646B8B94FF08070F9F73EF80025942667
S214014260237A9D4258DB7E4FA669002E5ED1DFF889
S214014270F881DFF8F091237A9E4267DB00200BB0CD
S214014280BDE8F08300222B6AD5F8901023F4205362
S21401429043F4801322602B6229B1014628461DF0A3
S2140142A0ECF80137C5E795F83FC0CDE90411CDE933
S2140142B00211626895F82E30AA1A9210019308FB33
S2140142C002F26B6AD2B2C3F34F0300930CF00F03F2
S2140142D01DF06AF901460028E3D1CDE90700CDE9D2
S2140142E0050095F82E30626804936B6AAA1AC3F328
S2140142F04F03039395F83F30921003F00F0308FB2A
S21401430002F20293574B30460193A37AD2B200933E
S214014310637A1AF036FDC4E7606806FB0500036A97
S2140143209F0601D51DF0B1F8013599E716F022FF79
S214014330064638461DF047FC0546304616F020FF77
S214014340002D91D028461AF072FD8DE794236568FA
S21401435003FB065544F220032A6A934314D1022034
S2140143601DF046FC0746002875D02B6A13F4801210
S2140143700CD06168691A891008FB01F1C9B21AF0FC
S21401438047FD2846FFF796FD013674E7980322603D
S2140143900ED419030ED413F4001F0CBF3E220722BD
S2140143A0D5F8901041B1394628461DF066F8E8E781
S2140143B01A22F5E74422F3E795F83F30CDE90411D8
S2140143C0CDE90211626895F82E10AA1A921008FB20
S2140143D002F20191696A3846C1F34F01009103F078
S2140143E00F033E21D2B21DF0DFF80028C9D12B6A97
S2140143F013F400322DD1180325D544216272C9F871
S2140144000020A9F80420A2720023CDE90733CDE9E4
S214014410053395F82E30626804936B6AAA1AC3F3C3
S2140144204F03039395F83F30921008FB02F203F016
S2140144300F03CDE90193A37A38460093D2B2637A8B
S2140144401AF09FFC9DE713F4001F0CBF3E210721C5
S214014450DAE71A21D8E7072011E700BFDC2300209E
S214014460F4230020E7230020AD1B4C91036ADA04F5
S21401447007D48A7943F480531144C968014A036218
S21401448051617047DC230020036ADA0409D523F45E
S21401449080530362034B5B69143B43604FF4205324
S2140144A003677047DC2300202DE9F0410646884665
S2140144B0174600250D4C14F8013CFF2B0BD014F8C1
S2140144C0022CBA4207D1B34205D106224146204604
S2140144D024F084F938B10835502D04F10804EAD1E6
S2140144E00020BDE8F08102482844FAE7A9440020EC
S2140144F0A7440020F8B506460C461746FFF7D4FF3A
S214014500B8B903460C4901EBC3025078DD00FF2819
S2140145100AD101F8337056702068AB1CC8500020D1
S214014520CA18A3889380F8BD01330A2BEBD1072064
S214014530F9E71220F7E700BFA74400200023FF2178
S214014540044800EBC30201330A2B5170F9D1002055
S214014550704700BFA744002073B5164D044695F872
S2140145602300A0B1EE691DF099F9301AB0F5FA7F73
S2140145700FDA236B94F83F100193636B00200093CE
S21401458095F82020EB6901F00F0100F0FFFD02B065
S21401459070BD0021204600F065FAEB692046636095
S2140145A095F8203084F87430034BE36100F00CFA80
S2140145B00120ECE7DC230020DD17030013B5036AB6
S2140145C0044613F40043019104D001A81DF0DAFA61
S2140145D002B010BD4A7901A863F300024A710122B4
S2140145E00B211DF0B2FB0028EFD1019B5A7942F056
S2140145F001025A71FF2284F880209A79A06F0C324A
S2140146009850E06F99184860B4F880300B8194F8A0
S21401461082308B7216F0AEFD0446019905481DF0F6
S21401462095FC4FF08070F8F757FE204616F0A8FD6F
S214014630CEE700BFF42300202DE9F04791F806806D
S21401464090F97E2008F10C0801EB0806337B88B050
S21401465013F03F0518BF757B7F2A08BF72790446A1
S21401466008BF80F87E20F27A0F460391002A00F0F8
S2140146708680317B013201F03F018A427FDB23F0E5
S2140146803F0305F02302134379D104A906F10C0078
S21401469019F057FA9DF81690B9F1000F74D0DDF8AD
S2140146A010A020461AF8091089091CF0C2FF00283C
S2140146B000F097801AF80930C3F3811384F87F302D
S2140146C09DF818104B4B93F8560009B1049B1944FA
S2140146D0494A57F8083000922A4619F0CAF9236A5F
S2140146E0190402D515F0040503D02046FFF734FF60
S2140146F0054694F97D307F2B06D19DF81A200AB124
S214014700049B9B5684F87D304FF0FF3103A800F0E0
S214014710C9FB236A1A0509D50021384A43F4005318
S2140147204FF0807023621160F8F7D6FD2046FFF740
S21401473035FBFBF7B1FF02902046FFF72FFB039BEB
S21401474002990193A38D82B2009303200023FBF705
S214014750D3FF9DF81B1009B1049B194420469DF810
S2140147601C201CF041FF317B03A801F03F010D31F5
S2140147701DF09AFC039B7BB1236A5B0216D503A846
S2140147801DF000FA00250DE0236A03F40163B3F57A
S214014790016F26D0FF2391E702201DF029FA03902E
S2140147A00028E9D1284608B0BDE8F087134B93F8F6
S2140147B022305BB10126039884F881601DF067FB07
S2140147C030B903A81DF0DEF93546EBE784F88130F1
S2140147D0039920464B7943F001034B71FFF7EEFE38
S2140147E0E0E70023A4F88430236A43F4003323620D
S2140147F0C5E700BF20230020F8230020DC2300208B
S214014800184B37B59A8C044622B9826812F4601F99
S21401481008BF9A84002501A84121019500F042FBBA
S214014820019888B100F0F4FB20460199FFF71EFEBF
S2140148300198FEF745FC072808D0022301A884F852
S21401484081301DF09FF9284603B030BD238D626A82
S2140148501B01B3FBF2F320460199A4F88430FFF75D
S214014860EBFEF1E7DC23002070B50446354BC3614F
S2140148701CF066FF2046FFF707FEB4F88420B4F864
S21401488076108A420DD2236A4FF0807043F480433B
S2140148902362F8F721FD2046BDE87040012100F0B3
S2140148A0E1B8A38D521AA4F88420226A0B449BB265
S2140148B05203A3850FD5B4F88C20D31A1B040AD54E
S2140148C0012004F1860204F14001FAF741FA236A55
S2140148D023F480232362B4F87630E56E40F2712625
S2140148E05D43236F05F1800203EB420394F83F100A
S2140148F023671B0A03F54873E36001F00F01FF22EB
S214014900002019F084F8626AE368013A7243C833FA
S2140149100344E36022612046FFF71CFA204601218A
S21401492000F0A0F8636AB4F8762020465A4363681C
S21401493006FB0233A3EB15236360BDE8704000F06D
S21401494043B800BF9717030010B5074C2368DA0673
S21401495007D523F01003236018B90120A16818F0C9
S214014960BCFA0023A36010BD04240020014610B544
S2140149700446022018F0B1FA054B1B68D90305D48A
S21401498063691A075CBF43F00403636110BD00BF8F
S21401499004240020014BD868DC387047042400202A
S2140149A0034B10B5DC681CF079FFDC3C201A10BD07
S2140149B004240020034B1B6813EA004314BF0120A4
S2140149C0002070470424002038B5002303604369A3
S2140149D0044658070DD5204650F8081FC90C01F4A7
S2140149E0FC7141F00501FBF79BFF636923F00403AB
S2140149F063616369D90602D51CF050FF60601848F0
S214014A00024652F8043F8BB92360146083684BB1A9
S214014A10617E5A7E914219D26269D2060ED5002075
S214014A20FFF792FFBDE838401BF065BC5968656822
S214014A30491B0029E8DA1A461B68E4E75A681B692D
S214014A40134462689B1A002BECDBE8E71A895B6863
S214014A50D31A62681344E268D342E3D5DFE700BFA6
S214014A600424002038B504460A4D0846AB68A34224
S214014A7001D1FFF769FF6B68074A1BB1A3421968AA
S214014A8004D11160BDE838401BF035BC1A460B4610
S214014A90F3E700BF04240020082400202DE9F34793
S214014AA0744D2B68580700F1DB80AB68002B40F093
S214014AB0D78055E8003F43F0040345E80032002A5A
S214014AC0F7D16C683CB31CF0E9FED4E9043706461E
S214014AD017F0100FA06805BF616882B216FA80F25F
S214014AE08A1A16BF6260921B0022F90723D4002A95
S214014AF009DAE168591AD1421FD4626816FA80F0C1
S214014B0013441B1A60602068D4F80480B8B9DC33FB
S214014B104344C5E9024355E8003F23F0040345E852
S214014B200032002AF7D1AC68002C66D102B0BDE88D
S214014B30F04700F09FBA002AE5DA204651E04169C5
S214014B400289CF06D0F804E048BF06EB020EAEEBB2
S214014B50020211F0010C11BF1146D0E90371C91B05
S214014B60891808EB03077F1A002F2ADDBB4205D9F7
S214014B70E768A1EB0801DC378F423CD9D4F814A0D2
S214014B801AF0010F1FD12169D0F80C904144B4F8F6
S214014B900880E768A1EB0901A1EB0801A1EB0E0172
S214014BA0DC37B9420FDD971BBCF1000F03D1016959
S214014BB0A1EB09010F44002F05DB4B46C0F804E0CA
S214014BC004460068A0E7477E617E8F42F9D2921BB9
S214014BD0BCF1000F03D1D0E903135B1A1A44002A73
S214014BE002DAFFF7C3FE6CE71AF0100FA5D0C36810
S214014BF0C0F804E0E4E70B46E3E7A36813F4601F9C
S214014C00C3F3C2462FD100262B68214643F010037A
S214014C1000202B6018F061F916B3A36804F10800B0
S214014C2013F4601FC3F3C841C3F3C24508D0013D66
S214014C30EDB201F4FC7129430190FBF771FE019876
S214014C4003210190FBF7DAFE01980DB9FBF7BCFED4
S214014C50A268237E1344120C9BB212041343A36072
S214014C6002B0BDE8F08704F10800FBF767FE0028F4
S214014C70C9D1C9E70424002008B5034B996809B1D6
S214014C8018F02BF908BD00BF042400200D4B50B1CD
S214014C9053E8002F42F0040243E800210029F7D12F
S214014CA00120FFF7E9BF53E8002F22F0040243E892
S214014CB000210029F7D1986808B1FFF757BEFFF722
S214014CC0EDBE00BF04240020014B9868704700BF6A
S214014CD0042400200A4B70B59C6884420FD12146FB
S214014CE0012018F0FAF8666825891CF0D7FDAD1B7F
S214014CF0C54221464CBF0020022018F0EEF870BDD8
S214014D0004240020C04310B5054A131D53E8003F94
S214014D100340141D44E800310029F6D110BD00BF40
S214014D201010002010B5054A131D53E8003F034339
S214014D30141D44E800310029F6D110BD10100020E2
S214014D4007B50C4B10F0020F1B884FF00200ADF8B0
S214014D5004300BD0FFF7E6FF8DF80400064B01A9DF
S214014D60986A23F086F803B05DF804FBFFF7CAFFE4
S214014D70F4E700BF6E8D03001010002013B5044643
S214014D80104B01205B88ADF80430FFF7BBFF04F041
S214014D900F0001280CD0022810D010B901238DF87D
S214014DA00430094B01A9986A23F079F802B010BDC6
S214014DB004238DF80430FFF7B5FFF2E78DF8040001
S214014DC0EFE700BF6E8D030010100020014B986ABC
S214014DD0704700BF1010002010B5064CA06A23F0E3
S214014DE06FF928B9A06A23F06DF900F0010010BD33
S214014DF00120FAE710100020014B986A23F066B9EB
S214014E0010100020014B986A23F05EB910100020A4
S214014E10024B5868C0F34020704700BF10100020B6
S214014E2010B504464FF40070FFF76CFF094B986A03
S214014E3023F04EF930B154B14FF40070FFF772FF12
S214014E40002010BD002C0CBF00200C20F9E72046E6
S214014E50F7E700BF1010002037B50F4D04462B783A
S214014E60834217D078B10120FFF710FF00230122FB
S214014E7000934FF00041094B094822F08BFF0120B7
S214014E802C7003B030BD064822F091FF2046FFF794
S214014E90FDFEF4E70020F4E7F744002025180300A0
S214014EA0342600202DE9F04F046806468846574D03
S214014EB089B0002C48D02046A7791CF0E8FF0C37B3
S214014EC027443C890A38B8F1FF3FA4EB000402D01E
S214014ED04445A8BF4446B5F83890B0EB090713D44B
S214014EE0002C0EDD6D6B36683D44FF2C22462946AC
S214014EF03046A8BFFF221CF028FE241A3668054457
S214014F00F3D109B0BDE8F08FA9EB0009A145A8BF10
S214014F10A146296BC846D6F800A001EB000BB9F1F3
S214014F20000F0DD04246FF2A59465046A8BFFF2221
S214014F301CF00BFEB8EB0008DAF800A08344F1D1B0
S214014F40A4EB09044F44CBE70321A86A03AA23F084
S214014F5009F8BDF80E70A14602940A3702ACE86261
S214014F6009E023601B682B602368C3F80090236860
S214014F70002F1C4611DD2B68453F002BF1D1012087
S214014F801CF036FE034620600028F1D1019002A8ED
S214014F901CF0F8FD019B3360B3E72B1D53E8003F7F
S214014FA043F008032A1D42E80034002CF5D14FF0E7
S214014FB00060F8F791F90298BDF8102043790A21AC
S214014FC043F001034371069B30606B63059B2A87A0
S214014FD02B638379BDF80E200C3303441C711A81B0
S214014FE02A7ADC719A719DF80C20072A0BBF0122E0
S214014FF0AB8C1A7101331FBFAB846B8C03F1FF338B
S2140150006B841CF097FD346855E700BF1010002034
S214015010F0B505468779164E87B00C37C41901AA34
S214015020D6E90A0122F0A2FF238901A90333B06A57
S214015030ADF8083022F09CFF019B9DF90E00EB5164
S21401504000F0CEFE6071B37A022B02D8E37107B08E
S214015050F0BD9DF81130012B04D0022B04D02BB9E2
S2140150600423F3E70323F1E70123EFE70023EDE74A
S21401507010100020002210B5084C104611461CF0F6
S214015080FEFBA06A0EF05EFC1CF001FC20461CF044
S21401509079FDBDE810400820FFF734BE101000204F
S2140150A0014B986A23F050B81010002038B5154C03
S2140150B00546A37A834210D0431E042B08D8DFE8A6
S2140150C003F0030D11161800A06A0FF021F920B99C
S2140150D02846A57200F01EFF606138BDA06A1CF06C
S2140150E0DFFBF4E70121A06A1CF0DCFBEFE70321FC
S2140150F0F9E7FFF78DFE0028EAD0A06AFFF7D0FF98
S214015100E5E700BF1010002010B50C4630B9054B7E
S21401511058690279408804FB020010BD00F0FAFECF
S214015120F7E700BF1010002010B50C4638B9054B44
S214015130586941880079641AB4FBF0F010BD00F09C
S214015140E9FEF6E71010002073B50446408900F02A
S214015150FFFD0D4DA07B002628721CF068FB6872CF
S214015160E07B00F00F00FFF7A1FFD4E90021A37B4D
S214015170A86A009623F00DF832463146304600F014
S214015180CBFB02B070BD00BF10100020F0B5174C6D
S21401519085B00746104622721CF049FB164660721F
S2140151A002460020CDE902600B980D4601900A9850
S2140151B001390090C9B2A06A0FF0B6F80646284633
S2140151C0A57200F0A7FE01256061E57216B1002008
S2140151D005B0F0BD3846FFF7D1FDC0B20028F6D1C4
S2140151E08020FFF79FFD2846F2E700BF1010002041
S2140151F00122094B10B50C46DA72FFF7BFFD10B15C
S21401520004201CF029FB2246002101201CF037FB5C
S21401521000F09EFB10BD00BF1010002070B50446C4
S21401522000F0BAFB0546A179E279114E521A0C310B
S2140152300123B06AD2B2214422F08EFEE079A3792E
S214015240C01A55FA80F524680CB9356170BDA1798C
S214015250E2790023521A0C31D2B2B06A214422F00C
S2140152607BFEE379A2799B1A55FA83F5EBE700BF3B
S214015270101000202DE9F84305460C4616469846C0
S21401528000F08AFB0746A979EA79DFF87090521A8E
S2140152900C310123D9F82800D2B2294422F05CFE51
S2140152A0E879AB79C01A57FA80F704B3E379A279A3
S2140152B09B1ADBB2B3421ED3B8F1000F17DDA179FA
S2140152C0E57900236D1AEDB2AD1B4545A8BF4546ED
S2140152D00C3131442144D9F82800AAB222F03CFE10
S2140152E0246800262F44A8EB0508002CE4D1C9F851
S2140152F01070BDE8F8832468F61AD6E7101000206F
S214015300022370B50E4E0D46F372FFF719FD0446E3
S21401531020B1BDE8704004201CF09EBA28461CF05F
S214015320B3FA717A03462246B06A0EF037FB064698
S2140153302A46214601201CF0A2FA002EE9D170BDB2
S214015340101000202DE9FF411646022300270C46C7
S214015350144D8046A86AEB72CDE902770EF0F2FA98
S214015360304602948DF80C701CF08EFA0090697A23
S214015370A86A3A4602AB0EF01FFB054628B1042088
S2140153801CF06AFA04B0BDE8F0814046FFF7D8FC8D
S214015390074633462A46012120461CF071FA002FA3
S2140153A0F0D0ECE7101000200222084B10B50C4696
S2140153B0DA72FFF7C5FC10B104201CF04DFA224644
S2140153C0002101201CF05BFA10BD00BF1010002068
S2140153D0014B187B704700BF1010002058B1094AD6
S2140153E0134652F8041B51B9074A9B1A9B10074AE9
S2140153F0013B137370470122044B1A7370478142B5
S214015400EED2F1E77C8D0300788D030010100020AA
S21401541000487047301000200023024AC2E90833D2
S214015420704700BF10100020024B1B6803B11847DD
S214015430704700BF1424002010B5084C606810F4B3
S21401544080700AD0A06A22F0B2FD30B90121A06AAC
S21401545022F0A9FD80F00100C0B210BD101000209E
S2140154600023F0B5012785B0194E00938DF80C3056
S214015470C0F340138DF80E30C0F3001304461546F2
S214015480F7728DF8047002918DF80D30FFF776FCF7
S21401549020B104201CF0E0F905B0F0BD28461CF050
S2140154A0F3F9717A03466A46B06A0EF0ABFA2A46F9
S2140154B0C4F38011064638461CF0E1F900F048FABC
S2140154C0230601D5FFF7B8FF002EE5D0E1E700BFC0
S2140154D0101000202DE9F0434FF0010985B0244D4E
S2140154E004460E4690460021102268461F4685F85F
S2140154F00B9023F0AAF9A86A0EF024FA0023E2061C
S21401550000968DF80430CDF8088005D56B691A88A9
S2140155108DF80D9042440292002338468DF80C30E7
S214015520C4F340138DF80E301CF0AEF96A460346FC
S214015530697AA86A0EF066FA28B104201CF08CF984
S21401554005B0BDE8F0832046FFF718FC3B46012175
S214015550C4F38012054630461CF092F900F0F8F9C3
S214015560230601D5FFF768FF002DE9D0E5E700BF68
S21401557010100020044B5A68D20503D50021986A02
S21401558022F011BD704700BF1010002010B50D4C61
S214015590E37A23B10022114610461CF070F900236D
S2140155A0A06A01220321E37222F0F0FB0122A06A25
S2140155B0114622F0DFFCFFF7DDFFBDE8104080203A
S2140155C0FFF7A0BB10100020F8B51F4C6368590701
S2140155D00AD50420FFF796FBE38C0133E384FFF73B
S2140155E0D5FF0620FFF748FB63681A070FD515F0AD
S2140155F0C1FD05270646144D2B681BB901201CF07A
S214015600F7FA28602D68DDB9304615F0B9FD6368F4
S214015610DB0618D51020FFF775FB05F0D1FF90B11A
S21401562015F0A8FD0546FFF7B1FFE38C0620013310
S214015630E384FFF721FB2846BDE8F84015F0A0BD3E
S214015640013FD9D1E0E7F8BD101000202DE9FF4752
S2140156500C9E17469846044668B9FFF78BFF274B02
S214015660986A22F094FC4FF48070FFF74BFB2046BB
S21401567004B0BDE8F08704283ED808293CD8531E5C
S214015680072B39D8002E37D0B8F1000F34D00023BD
S214015690DFF868908DF809308DF80B30184B8DF8CF
S2140156A00810D9F8280002A98DF80A20039322F0E1
S2140156B07CFC08B11F24DAE705464FF0010A0021F9
S2140156C03346D9F82800CDF800A0EAB222F063FCF0
S2140156D001460028EED10135AC423E44EFDC42469D
S2140156E0D9F8280022F055FC04460028E2D14FF4F0
S2140156F08070FFF717FBBAE72024B8E710100020E8
S214015700FEFFFF0170B5054682B0104619460192AC
S21401571000931CF0BBF8DDE9003228461CF0B8F80F
S214015720404CD4E9062300EA020501EA030655EADD
S214015730060313D06A0113D563681B062DD43A4AB3
S21401574000232A40002A53D1384B06F020012B4073
S2140157500B432DD1284631461CF094F802B070BD9B
S214015760A5F10803334349D005F17F433343E6D11E
S214015770E37A022B34D16268032012F0020F14BFC1
S21401578004220022238CE27201332384FFF774FA89
S214015790284631461CF076F8E0E7231D53E8003F23
S2140157A023F08003211D41E80032002AF5D1D5E718
S2140157B0E37A8BBB002301220321A06AE37222F065
S2140157C0E5FA0122A06A114622F0D4FBFFF7D2FEC9
S2140157D08020FFF797FAE38C06200133E384D5E7B0
S2140157E004201CF039F8284631461CF04BF8B5E782
S2140157F0E27A012AF4D10520E372C7E7E37A012BA6
S214015800EED16268042012F0010F18BF0323628CE8
S214015810E37201326284B9E7114610461CF02FF894
S214015820C8E700BF101000200150010009D501553E
S2140158300138C0B203289ABF014B185C002070479C
S214015840728D030007B501AA0DF1030119F03CFAA8
S214015850044B019A9A609DF803201A7303B05DF811
S21401586004FB00BF4C260020074A0128138806497E
S21401587096BF23F0010343F001039BB21380034B51
S214015880986A22F09DBC00BF4C2600201010002014
S21401589008B5054B1C220021184622F0D6FF034A04
S2140158A042600422428008BD4C260020103A0020A7
S2140158B0034B044A5A6041F2A8325A80704700BF2F
S2140158C04C26002068260020014B5868704700BF10
S2140158D04C26002010B50A4C0A4B62689A420BD13E
S2140158E041F2AB3000F0EEFF033020F003006060C1
S2140158F020B141F2A8336380002010BD0720FCE7E9
S2140159004C260020103A00200122024B00209A76F5
S214015910704700BF4C2600200C4B10B59C7E24B16E
S21401592021B91AB91A7600221A8010BD02281876F3
S21401593004D80028F7D00420188002E00338012894
S21401594002D9C3E90412F0E70220F5E74C2600204D
S21401595070B50F4CA37ED3B10E4EB37A022B16D878
S2140159602369A3B1257E45B19A7A12F0100504D0B9
S214015970186802F00F05FFF765FF2846FFF774FF6A
S214015980617E21B9B06ABDE8704022F011BC70BDDD
S2140159904C2600201010002070B5154EB47E64B160
S2140159A0144B9B7A022B21D8746934B1337E33B9F8
S2140159B000252C462846FFF757FF204670BD817903
S2140159C00C310144184619F006F90028F0D0057884
S2140159D005F01F04AD09012D03D0022D14BF0025CB
S2140159E0022573691868FFF72DFFE3E70024E4E753
S2140159F04C2600201010002070B5044615F0BAFBA6
S214015A000E4D064684B16C7E2CB11F24304615F02F
S214015A10B7FB204670BD0A4B986A22F0CBFB0028E4
S214015A20F3D001236B76F1E76B7E002BEDD0044BB0
S214015A302146986A6C7622F0BBFBE7E74C260020ED
S214015A401010002008B5044B986A22F0B7FB034BF0
S214015A50B0FBF3F008BD00BF10100020A0860100C7
S214015A6008B5024B986A22F0A7FB08BD101000206B
S214015A7073B50F4B04469B7D0E4EFF2B15D10023AD
S214015A80ADF804000DF10302B06A01A98DF80330E8
S214015A900EF002FC9DF8035022462946B06AF3F741
S214015AA0DFFE40EA052002B070BD034B1D78F3E728
S214015AB024410020101000203C410020054B82B0FC
S214015AC0ADF80400C2B2C0F30721986A02B0F3F73A
S214015AD03BBF00BF1010002010B50D4C0021A06A7E
S214015AE022F0ADF90B49A06A22F00AFAFE21A06A5B
S214015AF022F0F3F9A06A0EF0EFF9074BB3F9102084
S214015B008242C8BF18821A8A9A805A8ADA8010BDE1
S214015B10101000203C41002024410020F0B585B043
S214015B20ADF80630C823ADF80420ADF808306A4653
S214015B30ADF80A308223ADF80210ADF80C30ADF89E
S214015B400E30042113460E4CADF80000B4F91000D7
S214015B5002AD32F9026B8642C8BF22F8020C35F953
S214015B60026B32F9027CB742C8BF22F8026C0139D7
S214015B70EFD103CB034BA060596005B0F0BD00BF69
S214015B80244100202C41002073B50646F3F746FF5A
S214015B90344D0368344C2B608388FF2EAB804FF066
S214015BA00003A37023802B7808BFA6752F4E8DF8AF
S214015BB0013018BFA3750DF10303B06A0DF102029F
S214015BC00DF1010122F077FA9DF8013040B9013359
S214015BD0DBB2012B8DF80130EDD9012002B070BD8A
S214015BE0A27DFF2A00D0A3758DF805302B709DF895
S214015BF002308DF804300198FFF760FFC828C4BF53
S214015C00C82323829DF80330D8BF20828DF8043044
S214015C100198FFF753FF10F5FA7FB4BF4FF60C63F8
S214015C206082B4F91000B8BF6382FFF721FFADF8B8
S214015C3004000198FFF742FF2082B4F91200FFF733
S214015C4017FFADF804000198FFF738FF4FF6FF7312
S214015C50A382642360821A4618461946FFF75EFF40
S214015C600020BBE73C41002024410020101000200A
S214015C70044AB2F9063010B110881B1A1BB2184636
S214015C80704700BF24410020084B10B5B3F904400B
S214015C9030B903EB4103B3F906309C42A8BF1C465A
S214015CA0A242A8BF2246104610BD00BF24410020D4
S214015CB0014BB3F91200704724410020014BB3F9A0
S214015CC0100070472441002073B506460E4D15F0AE
S214015CD051FAB5F912300446B342B8BF33461846F6
S214015CE0B5F910309842A8BF1846FFF7C1FEADF8C7
S214015CF004000198FFF7E2FEE880204602B0BDE806
S214015D00704015F03DBA00BF2441002073B5064629
S214015D100E4D15F02FFAB5F910300446B342A8BF60
S214015D2033461846B5F912309842B8BF1846FFF701
S214015D309FFEADF804000198FFF7C0FEA88020463C
S214015D4002B0BDE8704015F01BBA00BF2441002028
S214015D50F0B5C0F3072585B0FE2DADF8040027D0B9
S214015D609DF8047015F006FA124C0646637DAB42A8
S214015D700ED0114B02A918689B880290ADF80C3022
S214015D800E4B8DF80850986A22F0BAF8FF23237557
S214015D90237DBB4206D0094B3946986A22F09DF80E
S214015DA027756575304605B0BDE8F04015F0E8B9D1
S214015DB005B0F0BD244100203C4100201010002019
S214015DC08BB200294FF00A01B4BF053B05331BB265
S214015DD093FBF1F3014A1080937070472441002031
S214015DE0024B9B78C01A40B2704700BF2441002086
S214015DF0024B1B88C01A00B2704700BF2441002026
S214015E002DE9F04707460E461446DFF8409086B067
S214015E100DF10808A9F1100A3A4680215046CDE94D
S214015E2000980A4BF4F7A2FA0028F5D1102C254663
S214015E3028BF102530462A46414622F0DFFC641B67
S214015E402F442E44E8D106B0BDE8F087084500206F
S214015E5030B589B020226946FFF7D2FF6A460C4D5D
S214015E6004AB144603CC9C4228606960224605F1C7
S214015E700805F6D1074C08AD1A4603CAAA422060A7
S214015E806160134604F10804F6D109B030BD00BFC5
S214015E90F84400200845002010B588B06946202047
S214015EA000F052FD044630B96846FFF7D1FF0122E3
S214015EB0024B83F82020204608B010BDF84400208D
S214015EC070B5134B054693F820300C468CB00BB9D1
S214015ED0FFF7E2FF0023CDE90033CDE9023354B9E1
S214015EE01C22214605A8049422F0AFFC04A8FFF763
S214015EF0AFFF0CB070BD102C264628BF10262946D1
S214015F0032466846FFF77CFF3544A41BE7E700BF2F
S214015F10F8440020052808BF03200622024B01385A
S214015F2002FB0030704700BF9C8D03000021034B2D
S214015F302822C3E90011024822F087BC143A002047
S214015F401C3A0020094A5168C84390FAA0F048B1AB
S214015F50B0FA80F0042805DC012383400B4353602C
S214015F6040B270474FF0FF30704700BF143A002030
S214015F7013B50190FFF7E6FF0446054B00B203EBAD
S214015F80C00001991BF0FAFC204602B010BD00BF0C
S214015F901C3A002010B5C4B2042C14D80A4B03EBEB
S214015FA0C000043050E8003F0B4340E80032002AAE
S214015FB0F8D101220549A24051E8003F134341E8C8
S214015FC000300028F8D110BD1C3A0020143A0020F9
S214015FD0F7B501250826042719491A4A1A4C0868F4
S214015FE010B3137805FA03F318421FD0DB4351E8C8
S214015FF0000F184041E8000CBCF1000FF7D11378F0
S21401600016FB0373234453E8000F43E800CEBEF1AA
S214016010000FF8D1019048B110780C4901AA04EBA1
S214016020C0001BF0E3FC012003B0F0BD1378486804
S21401603083422EBF00230133DBB21370CFE700BFCC
S214016040143A0020194500201C3A002078563412D4
S214016050024B1868003818BF01207047143A002018
S21401606010B5044615F086F8074B1B684BB1DB6884
S2140160701B1B002BCCBF0024012415F081F8204601
S21401608010BD1C46F9E700BF483A002038B54FF06E
S214016090FF34054615F06EF8084B1A681AB915F064
S2140160A06FF8204638BDD2E903310B445B1B23F061
S2140160B000439C4228BF1C465268EFE7483A00203E
S2140160C02DE9F3470C9F0D469846114606469DF866
S2140160D02C9008B103687BB937B12846B84740F21F
S2140160E0034002B0BDE8F0870029F8D0002DF6DBAA
S2140160F0084600F007FCF2E7019215F03BF88246ED
S214016100484600F0F3F90446504615F039F801996F
S21401611064B91FB12846B8471A20E2E70029FBD028
S214016120002DF9DB084600F0EDFBF5E7A56000253C
S2140161300A9B84F81890DFF87090C4E907876161BC
S214016140266023616560D9F80030984708EB0006A1
S21401615015F010F807461248E66003681A4632B191
S214016160D168891B002913DBD1688E4210D09DB9F6
S21401617063600C4B04601C682CB1D9F8003098475A
S214016180FFF784FFA047384614F0FAFF0020A8E77F
S214016190516815460A46E2E76A6862606C60F2E793
S2140161A0483A0020583A0020503A00202DE9F74F8F
S2140161B00C4690461D46009014F0DCFF002706466C
S2140161C0DFF88490DFF884B0D9F800A0BAF1000FA8
S2140161D005D1304603B0BDE8F04F14F0D1BFDAF870
S2140161E00020009B9A421FD134B1DAF808202168BA
S2140161F022F000428A4217D185B9DAF80420BFB9E5
S214016200104BC9F800201A68019292B1DBF8001011
S2140162108847FFF73BFF019A90470AE04146DAF8C4
S2140162201400A8470028E8D05746DAF804A0CDE7BE
S2140162307A60DAF80420504601921BF048FB019A76
S2140162409246C3E7583A0020483A0020503A0020C8
S214016250014B1860704700BF583A002070B50B4BD1
S21401626004460E4615461978094A0A481CF007F8EE
S2140162700023094A24211360084A07201660084AA9
S21401628015602246BDE8704000F0B2B832450020E5
S214016290B48D03001A450020483A0020503A0020E9
S2140162A0543A002030B504461846002387B00593BB
S2140162B0094B0D461B6813B9212007B030BD05A94F
S2140162C0039298470028F7D1009029462046059B5F
S2140162D0039A1BF037FBF0E7543A0020F8B5054661
S2140162E010200F46164600F0EDFA0A4B04461878C1
S2140162F018B1102221461BF0C5FF44B1012300202E
S214016300E3602B68C4E9017623602C60F8BD1A208F
S214016310FCE700BF1A4500202DE9F843254FDFF8BA
S214016320A480254D38603868FFF79AFE30B9234BB4
S2140163301B689847BDE8F843FFF7A8BE14F01AFF9C
S214016340D8F80040064674B16368C8F800301C4BA4
S214016350D3F80090B9F1000F05D0184B1B68984789
S214016360FFF794FEC847304614F00AFF2C60002C55
S214016370D9D0A36833F0004305D128681BF0A7FAEB
S21401638000232B60CFE72368002BF6D0186800287F
S214016390F3D0A26832F00043EFD0D0E90069636918
S2140163A021688068C8470028E7D1002EE5D030462E
S2140163B0EFE700BF4C3A0020443A0020503A002054
S2140163C0583A0020483A002038B505460C4614F0E5
S2140163D0D1FE064B1B683BB1DA692A601B69236054
S2140163E0BDE8384014F0CCBE2B60F8E7443A0020F4
S2140163F02DE9F74F4FF6FC7700241646DFF8849018
S2140164000331DFF884B009EB00150F404FEA001A9C
S214016410DBF80030804629F80A7002FB07F06A8034
S214016420EC60984717FB06F39BB268602B8110B3AC
S2140164300093124A0346124852F828209BF804108B
S21401644040441BF01DFF21462A89686822F0FDF9A9
S214016450214623469E4206DC0020D144A9F802606C
S21401646003B0BDE8F08F6A68E868541850500133ED
S214016470EC603944EEE71A20F2E700BFB48E030061
S2140164801B4500205C1F00205C3A002070B50B4EB7
S214016490044606EB0015696839B1094B2A89185C70
S2140164A01BF0EFFE686800F02DFA06EB04101022D0
S2140164B0BDE87040002122F0C8B900BF5C1F002073
S2140164C01B450020044B19601A71986002010021D7
S2140164D0024822F0BAB900BF5C3A00205C1F0020D7
S2140164E0014B185C704700BF1B45002070B50A4C75
S2140164F0060104EB0013DD68084B185C18B1294649
S214016500A25B1BF0BFFE2DB12B683444E3606388A9
S214016510013B6380284670BD5C1F00201B450020A0
S214016520024B03EB00108078704700BF5C1F002011
S214016530094B10B403EB00135A88DC6801320C6077
S214016540D9605A80054B185C18B15DF8044B1BF0F6
S2140165509ABE5DF8044B70475C1F00201B45002067
S214016560044A010102EB0013505A10B11B89B3FB18
S214016570F0F070475C1F002037B50024164B174D0E
S2140165801C70174B20461C60164B2C601C706C60F0
S214016590AC60FFF7E5FF80B2A0F10E036B80A0F1BF
S2140165A01403013068812046EB80FFF799FF0E4CFB
S2140165B0014601900D4A601C1BF061FE20460199C0
S2140165C00B4A1BF05CFE0B4A0199A01C03B0BDE808
S2140165D030401BF054BE00BF2C4500204241002035
S2140165E0683A0020304500202D450020F88E030033
S2140165F0018F03000B8F030070B5044658B314F0E7
S214016600B9FD637905466FF382036371237913F04D
S214016610100605D010232371BDE8704014F0B0BDFC
S2140166200D4903F0030331F823203046013A21F8DF
S21401663023202146FFF77CFF084B1A780AB9284623
S214016640EAE71E70064B1C68002CF8D020466368EB
S21401665098472468F8E770BD424100202C45002089
S214016660683A00202DE9F04F0446450748BF00F080
S214016670F70489B004F0EF0303920093019114F03C
S21401668079FD5F4F04F0030507EB850337F82520F6
S2140166905B8880469A424FEA850627D20020FFF79C
S2140166A025FF8346F0B137F82520013227F825204B
S2140166B0404614F065FDBBF1000F7AD1200718D4CF
S2140166C084F004000099C0F3800000F0DFF84D4A22
S2140166D0505D18B1452259461BF0D4FD584609B005
S2140166E0BDE8F08F0121484A1170E1E74FF0000B39
S2140166F0DEE714F0E0030293E2D0D94614F03AFD47
S214016700BA19528837F82560DFF8F48096422CBF14
S214016710002601263D4F14F033FD08EB8503049354
S2140167203B4A12789145CBD23A78029B134204D069
S214016730D7F804A0DAF800201AB909F101090837D8
S214016740EEE7002007925179C9074ED511794B071C
S2140167504BD5002E45D000B1079250461BF033FAB8
S2140167600179079007A805911BF00CFA05990020FE
S21401677000F08CF814F0FEFC049B01465A8838F8A9
S2140167802500904234BF012600260BD20020059139
S214016790FFF7ACFE0599079068B338F8252001325B
S2140167A028F82520084614F0EBFC079A002AC1D0E9
S2140167B093460022019BCBF804200399CBF80020D6
S2140167C0CBF808209BF8052019448BF80630009B6F
S2140167D042F004028BF805208BF807108BF8043082
S2140167E075E701F003018D42B5D09246126801208B
S2140167F0002AA8D19EE70120034A1070D2E700BF05
S214016800424100202D4500202C4500206C3A0020F6
S2140168103045002010B5044614F0ACFC034B1A6852
S2140168201C602260BDE8104014F0AABC683A002043
S21401683010B5064B00F0E0001A78541C1C70044B8F
S21401684003F8320003EBC203596010BD3045002047
S2140168506C3A00200022014B1A607047843A0020EF
S21401686010B5044614F086FC074A13682BB9146069
S2140168702360BDE8104014F083BCA34202D01A4640
S2140168801B68F3E710BD00BF843A002070B50546CB
S2140168900E46054B1C6804B970BD63683146284630
S2140168A098472468F7E700BF843A0020024B034A62
S2140168B0197803481BF0E3BC31450020188F03000C
S2140168C03245002013B5033020F003021046019232
S2140168D015F005FB0A4B04461878019A18B12146B3
S2140168E01BF0D0FC019A34B911460220FFF7CEFF07
S2140168F0204602B010BD0021204621F0A6FFF7E792
S2140169003245002010B5044628B1054B187810B161
S21401691021461BF0B8FC2046BDE8104015F0FEBA33
S2140169203245002010B5074C23782BB9F6F770F9DD
S21401693020B90123237010BD0020FCE740F2074078
S214016940F9E700BF3345002038B50B4B04461B78EA
S2140169500D464BB121462846F6F78AF8002840F244
S214016960074008BF002038BD04490548FFF7DAFF95
S2140169700028EFD0F7E700BF33450020EFBEADDEBD
S214016980BEBAFECA2DE9FF4706460F461546002445
S2140169904FF00109DFF84480DFF844A0D8F8002062
S2140169A009FA04F3134213D046EA042040EA0A0027
S2140169B06A46E9B280B2F6F751FD48B92A46394629
S2140169C0684621F00BFF18B960B204B0BDE8F08745
S2140169D00134202CE2D14FF0FF30F6E7883A002050
S2140169E00080FFFF0022034B1A609A80FF229A71F3
S2140169F0704700BF56450020074A1379984208D2CF
S214016A00012303FA00F01368184214BF0120002086
S214016A1070470020704700BF883A0020054A0346A9
S214016A201068002208B91A607047C10748BF0132D2
S214016A304008F7E7883A0020014B1879704700BFF5
S214016A40883A0020024B1B6803600020704700BF95
S214016A50883A0020F0B541EA002087B040F490263D
S214016A6005200F461546F3F75BFB1BF00DFC0446AD
S214016A7040B901461A2007F02DFC6FF08C05284618
S214016A8007B0F0BD43688660DAB222B923F0FF038F
S214016A9043F001034360062F204B0CBF40F2011167
S214016AA04FF4807120461BF0F1FB2361E3696BBB59
S214016AB04FF4105323808023638002AB2A461E4680
S214016AC005F110071D4610685168083203C5BA4221
S214016AD02B46F7D1102130461DF05BF910223146C6
S214016AE0204601AB15F0AEFC054620B1014640F24A
S214016AF0074007F0EFFB102130461DF058F92046FD
S214016B0015F0C7FE2046FFF7FDFEB8E700234FF459
S214016B1010511A4615F0C9FECDE700BF00444004E7
S214016B202DE9F347204D044601460622284621F06A
S214016B3055FE28B995F90670384602B0BDE8F087CB
S214016B400026B14604F1030830465FFA86FA77B2AA
S214016B50FFF752FFE0B1B8F80030CDF80090ADF87D
S214016B60033098F80230694650468DF805301FF01C
S214016B701DFC21280CD0A0B903222146684621F02D
S214016B802DFE28B923682B60A388AF71AB80D3E7AD
S214016B900136202ED8D123682B60A388AB80FF2333
S214016BA0AB714FF0FF37C7E756450020034B93F90B
S214016BB00630013301D1FFF715BF70475645002057
S214016BC0F0B5431C044685B05DD11CF067FD002579
S214016BD0FFF708FF644E3379AB422FD84FF40041DC
S214016BE000250846F6F7A2FC20224FF0FF315F4849
S214016BF0356021F02AFE284604F0E2FDFF2705460F
S214016C005B4E75BB5B4815F01FFB014630B110F1BA
S214016C10880F03D040F2074007F05CFB0C21524A74
S214016C2043F6FF70F6F7FAFB2021504A3820F6F7B4
S214016C30F5FB20461CF09EFF002029E02846FFF7C2
S214016C40DBFE60B168B2052101901BF021FB032138
S214016C5001981BF01DFB062101981BF019FB01355D
S214016C60B9E795F97530013305D0337843B9132167
S214016C7028461DF0B6FB284604F0A2FD0546C0E7EF
S214016C8085F87570F7E7FFF7B7FE18B940F20640CA
S214016C9005B0F0BD06220021204602AB1BF051FBD9
S214016CA0002847D0002002A91CF0FCFC4FF47F41CD
S214016CB0314840EA04200840F6F738FC0521204612
S214016CC01BF0E6FA032120461BF0E2FA06212046D5
S214016CD01BF0DEFA01232449E2B203FA02F20B6842
S214016CE023EA02030B60254B93F90630A34201D138
S214016CF0FFF778FE002005460B791C4A013BC1B21E
S214016D00994222DBFF260020D65404F059FD0546A1
S214016D10174F002D82D095F97530A34205D13B78E7
S214016D20F3B9132128461DF05CFB284604F048FD04
S214016D300546EEE706220121204602AB1BF001FBC9
S214016D400028B3D0012002A9AEE75656A64200D0CD
S214016D5025B1551895F90150555401250130CEE756
S214016D6085F87560E1E700BF883A002034450020C9
S214016D7054450020370004000080FFFF56450020E0
S214016D80202828BF2020012838BF01200322F8B57B
S214016D904300B3FBF2F30E4D0E4A0F4613702B79E8
S214016DA00446834206460FD80C21094A43F6FF7073
S214016DB02C716F71F6F732FB1CF078FC0020F8BDE1
S214016DC070B2FFF7FDFE01362B79B342F8DCEBE734
S214016DD0883A0020554500202DE9FF41334C0646F0
S214016DE001A8FFF71BFE2379019A93421ED8627908
S214016DF0012A3AD100274FF0FF383D4610E02368BC
S214016E00EB40D9070BD5082202AB114668B21BF03E
S214016E1098FA20B1039B43453CBF2F46984601355F
S214016E2023799D42EBD378B2FFF7CAFE00250122F3
S214016E30236802FA05F73B4233D13B432360A3683C
S214016E400C21013343F6FF70184A7361A360F6F70D
S214016E50E5FA98B1236823EA07032360A368013B98
S214016E60A36073614FF0FF3517E0022AFAD1104A8A
S214016E70134413F90109421CFBD0D5E722790D4CC6
S214016E80013A2146D2B2601C6DB221F0C4FC224602
S214016E90202138202570F6F7C1FA284604B0BDE84F
S214016EA0F0810135202DC4D1DCE700BF883A0020EF
S214016EB033450020344500202DE9F043002489B0F5
S214016EC0B34D04213F2001AA2C70F6F7C7FA00B192
S214016ED00194019F002F50D0012F8CBF002701275E
S214016EE0002600242C70AB4D0C212A4643F6FF7079
S214016EF0F6F7B4FAC0B10D23AB80019B2C60032BCF
S214016F00AC6011D803AC2246142143F6FF70F6F7A5
S214016F10A5FA48B994E8070085E807002A460C2137
S214016F2043F6FF70F6F77AFA019B042B06D004218C
S214016F303F200DEB01020191F6F770FA202138206F
S214016F40954AF6F78BFA28B120224FF0FF31924886
S214016F5021F07BFC03222B795B00B3FBF2F38F4A13
S214016F601370FFF73FFDF5F753FE014618B140F2E7
S214016F70074007F0AFF9002413E001263746B0E7D3
S214016F802B68E340DB070BD508224FFA84F811463D
S214016F90404603AB1BF0D5F910B94046FFF710FE8B
S214016FA001342B799C42EBD38EB11021372003AAF2
S214016FB0F6F754FA002853D10520F3F7B1F81BF081
S214016FC063F9044690B901461A2007F083F93FB1E8
S214016FD03D20F6F763FA00242B799C42C0F0B3807B
S214016FE01CF064FB002009B0BDE8F0836C4A4368DE
S214016FF08260DAB222B923F0FF0343F00103436053
S214017000684B40F2011120461BF040F92361E36909
S21401701043BB4FF41053238080231021638003A8C1
S2140170201CF0B7FE102202AB03A9204615F00AFA9F
S2140170300646102103A81CF0BAFE204615F029FCCE
S2140170402046FFF75FFC3720F6F728FA46B140F2F4
S2140170500740314607F03EF94FF0FF30FFF7B0FD2D
S21401706000262AE000234FF410511A4615F01DFCA5
S214017070D2E73046FFF7C0FCF0B174B2102203210C
S214017080204603AB1BF05DF91028814620D1032171
S214017090204603AAFFF7DEFC8046494603A81CF0FB
S2140170A086FEB8F1000F0CD040F20740414607F0CB
S2140170B011F92046FFF784FD01362B799E42D8D37D
S2140170C085E748F2030040EA062080B2F6F7E6F9C3
S2140170D010220521204603AB1BF033F91028814608
S2140170E013D10521204603AAFFF7B4FC8046494682
S2140170F003A81CF05CFEB8F1000FD5D148F20500DC
S21401710040EA062080B2F6F7C9F910220621204689
S21401711003AB1BF016F910288146CDD10621204677
S21401712003AAFFF797FC8046494603A81CF03FFEDA
S214017130B8F1000FB8D148F2060040EA062080B246
S214017140F6F7ACF9B8E72046FFF756FCF0B166B2A1
S21401715004220C21304602AB1BF0F3F804280AD1B6
S214017160029B0122C3F300238DF80C300C2130461C
S21401717003AB1BF0A2F800231022CDE90333CDE9BF
S21401718005330D21304603AB1BF097F8013423E796
S21401719054450020883A00203445002055450020FB
S2140171A03700040000444004F8B5104B0446187933
S2140171B00F4B00221D46D1B2884204D913F9017B38
S2140171C0561CA74204D10B4B1B788B4202D9F8BD43
S2140171D03246F0E70649481C21F01DFB2C702021A1
S2140171E0BDE8F8403820024AF6F718B9883A002078
S2140171F03445002055450020014902481AF0BEBB1F
S214017200600C0020F03A00204FF4C802084B0949F0
S21401721083F82500C3E90512A2F5CA02DA6108223D
S2140172205A60002283F823200F2283F82420704717
S214017230943A00201000280038B505F0BBFB40B991
S214017240094B38241A6893F82210034624328B42DD
S21401725000DB38BD04FB03F55559ED0601D40133B7
S214017260F5E70120F5E700BF943A00200128F8B5BC
S21401727007460E4632D8FFF7DFFF054680BB194C9E
S21401728094F82330BB4227D084F8237004F09AFD8B
S21401729094F82330012B16D104F1080007F09EF86C
S2140172A0034618B184F823501846F8BD002E08BFCF
S2140172B00F26636884F8246043F010036360BDE81A
S2140172C0F84005F041BC4FF4827107481AF024FBE0
S2140172D0636823F0020363602B46E5E72123E3E7B7
S2140172E00223E1E7943A0020F03A002013B5114C4E
S2140172F094F82330DBB1626812F0020217D104F170
S2140173000800019207F06AF8FFF796FF019A70B13C
S2140173104EF6602194F8243007484B434FF48271AF
S214017320FEF7C0FF18B9636843F00203636002B05A
S21401733010BD00BF943A0020F03A002022F000422F
S214017340052A10B50DD0B2F5827F13D0032A06D1D7
S214017350114A536823F00803536005F03BFB0020F5
S21401736010BD0D4A1B88118C00209942F8D110845B
S2140173700120F5E7084B5A6893F8234022F00202F1
S214017380012C5A60F4D104F01DFDFFF7AFFF204633
S21401739005F0DAFBECE700BF943A002040F2044225
S2140173A0034843680E301A42024B08BF184670471E
S2140173B0943A0020E43A0020044B5B6813F0040082
S2140173C01CBF83F40063C3F3C0207047943A0020C7
S2140173D008B5054890F82330012B02D0FFF7DEFFF1
S2140173E008BD0830FCE700BF943A0020044B93F830
S2140173F0230001281CBF5868C0F38000704700BFF7
S214017400943A0020064B5A6842F014025A60026809
S214017410C3F80E20828802205A8205F095BB00BF71
S214017420943A0020024A536843F4806353607047DD
S214017430943A0020002110B5094B93F822401B68AE
S2140174408C4200DC10BD5A6A013112F4005F02BFA3
S21401745042F0080283F833005A623833F0E700BF7F
S214017460943A0020F0B4002444F208060F4B93F837
S21401747022501A68A5420DDC0268C3F80E208188E6
S2140174800B4A032091805A68F0BC42F400625A60AD
S21401749005F05ABB516A013411F4005702BF31435B
S2140174A082F8337051623832E4E700BF943A002024
S2140174B0A23A002038B504F069FBB8B100B200EB7F
S2140174C080008500002301220C20A9B2FEF790FF60
S2140174D0044608B1204638BD0C20FFF707F8054BD7
S2140174E02A462146186021F0B0F9F3E7014B1860EF
S2140174F0F1E700BFBC3A002038B50B4B05461C68C7
S2140175008CB100EB800304EB830420461AF03AFBAF
S2140175100021284600F04AF92046BDE838401422EA
S214017520002121F092B938BDBC3A0020F0B52F4BAE
S21401753007461D6887B015B9002007B0F0BD00EBFF
S2140175408004A60005EB8404636803F02802282A59
S21401755004BF43F00103636062680CBF012300238C
S214017560900700D44BB10021384600F03BF90028C3
S214017570E3D1636823F022036360636813F0210F8D
S214017580DAD0190715D5A07CA389628921890490D0
S214017590607C0390207C0290E07B0190A07B0090B1
S2140175A0384600F0D7F80028C7D1636823F00803EF
